{
  "contractName": "DutchAuction",
  "abi": [
    {
      "inputs": [
        {
          "name": "_exchange",
          "type": "address"
        }
      ],
      "payable": false,
      "stateMutability": "nonpayable",
      "type": "constructor"
    },
    {
      "constant": false,
      "inputs": [
        {
          "components": [
            {
              "name": "makerAddress",
              "type": "address"
            },
            {
              "name": "takerAddress",
              "type": "address"
            },
            {
              "name": "feeRecipientAddress",
              "type": "address"
            },
            {
              "name": "senderAddress",
              "type": "address"
            },
            {
              "name": "makerAssetAmount",
              "type": "uint256"
            },
            {
              "name": "takerAssetAmount",
              "type": "uint256"
            },
            {
              "name": "makerFee",
              "type": "uint256"
            },
            {
              "name": "takerFee",
              "type": "uint256"
            },
            {
              "name": "expirationTimeSeconds",
              "type": "uint256"
            },
            {
              "name": "salt",
              "type": "uint256"
            },
            {
              "name": "makerAssetData",
              "type": "bytes"
            },
            {
              "name": "takerAssetData",
              "type": "bytes"
            }
          ],
          "name": "buyOrder",
          "type": "tuple"
        },
        {
          "components": [
            {
              "name": "makerAddress",
              "type": "address"
            },
            {
              "name": "takerAddress",
              "type": "address"
            },
            {
              "name": "feeRecipientAddress",
              "type": "address"
            },
            {
              "name": "senderAddress",
              "type": "address"
            },
            {
              "name": "makerAssetAmount",
              "type": "uint256"
            },
            {
              "name": "takerAssetAmount",
              "type": "uint256"
            },
            {
              "name": "makerFee",
              "type": "uint256"
            },
            {
              "name": "takerFee",
              "type": "uint256"
            },
            {
              "name": "expirationTimeSeconds",
              "type": "uint256"
            },
            {
              "name": "salt",
              "type": "uint256"
            },
            {
              "name": "makerAssetData",
              "type": "bytes"
            },
            {
              "name": "takerAssetData",
              "type": "bytes"
            }
          ],
          "name": "sellOrder",
          "type": "tuple"
        },
        {
          "name": "buySignature",
          "type": "bytes"
        },
        {
          "name": "sellSignature",
          "type": "bytes"
        }
      ],
      "name": "matchOrders",
      "outputs": [
        {
          "components": [
            {
              "components": [
                {
                  "name": "makerAssetFilledAmount",
                  "type": "uint256"
                },
                {
                  "name": "takerAssetFilledAmount",
                  "type": "uint256"
                },
                {
                  "name": "makerFeePaid",
                  "type": "uint256"
                },
                {
                  "name": "takerFeePaid",
                  "type": "uint256"
                }
              ],
              "name": "left",
              "type": "tuple"
            },
            {
              "components": [
                {
                  "name": "makerAssetFilledAmount",
                  "type": "uint256"
                },
                {
                  "name": "takerAssetFilledAmount",
                  "type": "uint256"
                },
                {
                  "name": "makerFeePaid",
                  "type": "uint256"
                },
                {
                  "name": "takerFeePaid",
                  "type": "uint256"
                }
              ],
              "name": "right",
              "type": "tuple"
            },
            {
              "name": "leftMakerAssetSpreadAmount",
              "type": "uint256"
            }
          ],
          "name": "matchedFillResults",
          "type": "tuple"
        }
      ],
      "payable": false,
      "stateMutability": "nonpayable",
      "type": "function"
    },
    {
      "constant": false,
      "inputs": [
        {
          "components": [
            {
              "name": "makerAddress",
              "type": "address"
            },
            {
              "name": "takerAddress",
              "type": "address"
            },
            {
              "name": "feeRecipientAddress",
              "type": "address"
            },
            {
              "name": "senderAddress",
              "type": "address"
            },
            {
              "name": "makerAssetAmount",
              "type": "uint256"
            },
            {
              "name": "takerAssetAmount",
              "type": "uint256"
            },
            {
              "name": "makerFee",
              "type": "uint256"
            },
            {
              "name": "takerFee",
              "type": "uint256"
            },
            {
              "name": "expirationTimeSeconds",
              "type": "uint256"
            },
            {
              "name": "salt",
              "type": "uint256"
            },
            {
              "name": "makerAssetData",
              "type": "bytes"
            },
            {
              "name": "takerAssetData",
              "type": "bytes"
            }
          ],
          "name": "order",
          "type": "tuple"
        }
      ],
      "name": "getAuctionDetails",
      "outputs": [
        {
          "components": [
            {
              "name": "beginTimeSeconds",
              "type": "uint256"
            },
            {
              "name": "endTimeSeconds",
              "type": "uint256"
            },
            {
              "name": "beginAmount",
              "type": "uint256"
            },
            {
              "name": "endAmount",
              "type": "uint256"
            },
            {
              "name": "currentAmount",
              "type": "uint256"
            },
            {
              "name": "currentTimeSeconds",
              "type": "uint256"
            }
          ],
          "name": "auctionDetails",
          "type": "tuple"
        }
      ],
      "payable": false,
      "stateMutability": "nonpayable",
      "type": "function"
    }
  ],
  "bytecode": "0x608060405234801561001057600080fd5b506040516020806116c3833981018060405261002f9190810190610089565b806000806101000a81548173ffffffffffffffffffffffffffffffffffffffff021916908373ffffffffffffffffffffffffffffffffffffffff160217905550506100d2565b600061008182516100b2565b905092915050565b60006020828403121561009b57600080fd5b60006100a984828501610075565b91505092915050565b600073ffffffffffffffffffffffffffffffffffffffff82169050919050565b6115e2806100e16000396000f30060806040526004361061004c576000357c0100000000000000000000000000000000000000000000000000000000900463ffffffff1680632e9cd033146100515780633c28d8611461008e575b600080fd5b34801561005d57600080fd5b5061007860048036036100739190810190610c91565b6100cb565b60405161008591906113c2565b60405180910390f35b34801561009a57600080fd5b506100b560048036036100b09190810190610cd2565b6102ba565b6040516100c291906113dd565b60405180910390f35b6100d361088f565b6000806000806000806000808961014001515197506064881015151561012e576040517f08c379a000000000000000000000000000000000000000000000000000000000815260040161012590611302565b60405180910390fd5b610149604089038b610140015161066690919063ffffffff16565b9650610166602089038b610140015161066690919063ffffffff16565b9550868a61010001511115156101b1576040517f08c379a00000000000000000000000000000000000000000000000000000000081526004016101a890611322565b60405180910390fd5b868a61010001510394508960a0015193508386111515610206576040517f08c379a00000000000000000000000000000000000000000000000000000000081526004016101fd906113a2565b60405180910390fd5b8386039250429150868960000181815250508961010001518960200181815250508589604001818152505083896060018181525050818960a0018181525050818a61010001510390508682101561026657858960800181815250506102aa565b8961010001518210151561028357838960800181815250506102a9565b61029f8461029a6102948487610681565b886106f5565b610710565b8960800181815250505b5b8898505050505050505050919050565b6102c26108c6565b6102ca61088f565b6000606060008060006102dc8a6100cb565b955085600001518660a001511015151561032b576040517f08c379a000000000000000000000000000000000000000000000000000000000815260040161032290611382565b60405180910390fd5b8560a001518a6101000151111515610378576040517f08c379a000000000000000000000000000000000000000000000000000000000815260040161036f90611342565b60405180910390fd5b85608001518b60800151101515156103c5576040517f08c379a00000000000000000000000000000000000000000000000000000000081526004016103bc906113a2565b60405180910390fd5b6000809054906101000a900473ffffffffffffffffffffffffffffffffffffffff1673ffffffffffffffffffffffffffffffffffffffff16633c28d8618c8c8c8c6040518563ffffffff167c010000000000000000000000000000000000000000000000000000000002815260040161044194939291906113f9565b61012060405180830381600087803b15801561045c57600080fd5b505af1158015610470573d6000803e3d6000fd5b505050506040513d601f19601f820116820180604052506104949190810190610c67565b96508660400151945060008511156106555789610160015193506104c260108561076790919063ffffffff16565b92506104d68b6080015187608001516107dd565b91506104e285836107dd565b9050600081111561059c578273ffffffffffffffffffffffffffffffffffffffff1663a9059cbb8b60000151836040518363ffffffff167c0100000000000000000000000000000000000000000000000000000000028152600401610548929190611279565b602060405180830381600087803b15801561056257600080fd5b505af1158015610576573d6000803e3d6000fd5b505050506040513d601f19601f8201168201806040525061059a9190810190610c3e565b505b6000821115610654578273ffffffffffffffffffffffffffffffffffffffff1663a9059cbb8c60000151846040518363ffffffff167c0100000000000000000000000000000000000000000000000000000000028152600401610600929190611279565b602060405180830381600087803b15801561061a57600080fd5b505af115801561062e573d6000803e3d6000fd5b505050506040513d601f19601f820116820180604052506106529190810190610c3e565b505b5b869650505050505050949350505050565b6000610672838361082f565b60019004905080905092915050565b600080600084141561069657600091506106ee565b82840290508284828115156106a757fe5b041415156106ea576040517f08c379a00000000000000000000000000000000000000000000000000000000081526004016106e1906112e2565b60405180910390fd5b8091505b5092915050565b600080828481151561070357fe5b0490508091505092915050565b600080828401905083811015151561075d576040517f08c379a0000000000000000000000000000000000000000000000000000000008152600401610754906112e2565b60405180910390fd5b8091505092915050565b6000601482018351101515156107b2576040517f08c379a00000000000000000000000000000000000000000000000000000000081526004016107a990611362565b60405180910390fd5b60148201915073ffffffffffffffffffffffffffffffffffffffff8284015116905080905092915050565b6000828211151515610824576040517f08c379a000000000000000000000000000000000000000000000000000000000815260040161081b906112a2565b60405180910390fd5b818303905092915050565b60006020820183511015151561087a576040517f08c379a0000000000000000000000000000000000000000000000000000000008152600401610871906112c2565b60405180910390fd5b60208201915081830151905080905092915050565b60c0604051908101604052806000815260200160008152602001600081526020016000815260200160008152602001600081525090565b610120604051908101604052806108db6108f5565b81526020016108e86108f5565b8152602001600081525090565b608060405190810160405280600081526020016000815260200160008152602001600081525090565b600061092a823561151f565b905092915050565b600061093e825161153f565b905092915050565b600082601f830112151561095957600080fd5b813561096c61096782611487565b61145a565b9150808252602083016020830185838301111561098857600080fd5b610993838284611555565b50505092915050565b600082601f83011215156109af57600080fd5b81356109c26109bd826114b3565b61145a565b915080825260208301602083018583830111156109de57600080fd5b6109e9838284611555565b50505092915050565b600060808284031215610a0457600080fd5b610a0e608061145a565b90506000610a1e84828501610c2a565b6000830152506020610a3284828501610c2a565b6020830152506040610a4684828501610c2a565b6040830152506060610a5a84828501610c2a565b60608301525092915050565b60006101208284031215610a7957600080fd5b610a83606061145a565b90506000610a93848285016109f2565b6000830152506080610aa7848285016109f2565b602083015250610100610abc84828501610c2a565b60408301525092915050565b60006101808284031215610adb57600080fd5b610ae661018061145a565b90506000610af68482850161091e565b6000830152506020610b0a8482850161091e565b6020830152506040610b1e8482850161091e565b6040830152506060610b328482850161091e565b6060830152506080610b4684828501610c16565b60808301525060a0610b5a84828501610c16565b60a08301525060c0610b6e84828501610c16565b60c08301525060e0610b8284828501610c16565b60e083015250610100610b9784828501610c16565b61010083015250610120610bad84828501610c16565b6101208301525061014082013567ffffffffffffffff811115610bcf57600080fd5b610bdb84828501610946565b6101408301525061016082013567ffffffffffffffff811115610bfd57600080fd5b610c0984828501610946565b6101608301525092915050565b6000610c22823561154b565b905092915050565b6000610c36825161154b565b905092915050565b600060208284031215610c5057600080fd5b6000610c5e84828501610932565b91505092915050565b60006101208284031215610c7a57600080fd5b6000610c8884828501610a66565b91505092915050565b600060208284031215610ca357600080fd5b600082013567ffffffffffffffff811115610cbd57600080fd5b610cc984828501610ac8565b91505092915050565b60008060008060808587031215610ce857600080fd5b600085013567ffffffffffffffff811115610d0257600080fd5b610d0e87828801610ac8565b945050602085013567ffffffffffffffff811115610d2b57600080fd5b610d3787828801610ac8565b935050604085013567ffffffffffffffff811115610d5457600080fd5b610d608782880161099c565b925050606085013567ffffffffffffffff811115610d7d57600080fd5b610d898782880161099c565b91505092959194509250565b610d9e816114f5565b82525050565b6000610daf826114ea565b808452610dc3816020860160208601611564565b610dcc81611597565b602085010191505092915050565b6000610de5826114df565b808452610df9816020860160208601611564565b610e0281611597565b602085010191505092915050565b6000601182527f55494e543235365f554e444552464c4f570000000000000000000000000000006020830152604082019050919050565b6000602682527f475245415445525f4f525f455155414c5f544f5f33325f4c454e4754485f524560208301527f51554952454400000000000000000000000000000000000000000000000000006040830152606082019050919050565b6000601082527f55494e543235365f4f564552464c4f57000000000000000000000000000000006020830152604082019050919050565b6000601282527f494e56414c49445f41535345545f4441544100000000000000000000000000006020830152604082019050919050565b6000601282527f494e56414c49445f424547494e5f54494d4500000000000000000000000000006020830152604082019050919050565b6000600f82527f41554354494f4e5f4558504952454400000000000000000000000000000000006020830152604082019050919050565b6000602682527f475245415445525f4f525f455155414c5f544f5f32305f4c454e4754485f524560208301527f51554952454400000000000000000000000000000000000000000000000000006040830152606082019050919050565b6000601382527f41554354494f4e5f4e4f545f53544152544544000000000000000000000000006020830152604082019050919050565b6000600e82527f494e56414c49445f414d4f554e540000000000000000000000000000000000006020830152604082019050919050565b60c082016000820151611061600085018261126a565b506020820151611074602085018261126a565b506040820151611087604085018261126a565b50606082015161109a606085018261126a565b5060808201516110ad608085018261126a565b5060a08201516110c060a085018261126a565b50505050565b6080820160008201516110dc600085018261126a565b5060208201516110ef602085018261126a565b506040820151611102604085018261126a565b506060820151611115606085018261126a565b50505050565b6101208201600082015161113260008501826110c6565b50602082015161114560808501826110c6565b50604082015161115961010085018261126a565b50505050565b6000610180830160008301516111786000860182610d95565b50602083015161118b6020860182610d95565b50604083015161119e6040860182610d95565b5060608301516111b16060860182610d95565b5060808301516111c4608086018261126a565b5060a08301516111d760a086018261126a565b5060c08301516111ea60c086018261126a565b5060e08301516111fd60e086018261126a565b5061010083015161121261010086018261126a565b5061012083015161122761012086018261126a565b506101408301518482036101408601526112418282610dda565b91505061016083015184820361016086015261125d8282610dda565b9150508091505092915050565b61127381611515565b82525050565b600060408201905061128e6000830185610d95565b61129b602083018461126a565b9392505050565b600060208201905081810360008301526112bb81610e10565b9050919050565b600060208201905081810360008301526112db81610e47565b9050919050565b600060208201905081810360008301526112fb81610ea4565b9050919050565b6000602082019050818103600083015261131b81610edb565b9050919050565b6000602082019050818103600083015261133b81610f12565b9050919050565b6000602082019050818103600083015261135b81610f49565b9050919050565b6000602082019050818103600083015261137b81610f80565b9050919050565b6000602082019050818103600083015261139b81610fdd565b9050919050565b600060208201905081810360008301526113bb81611014565b9050919050565b600060c0820190506113d7600083018461104b565b92915050565b6000610120820190506113f3600083018461111b565b92915050565b60006080820190508181036000830152611413818761115f565b90508181036020830152611427818661115f565b9050818103604083015261143b8185610da4565b9050818103606083015261144f8184610da4565b905095945050505050565b6000604051905081810181811067ffffffffffffffff8211171561147d57600080fd5b8060405250919050565b600067ffffffffffffffff82111561149e57600080fd5b601f19601f8301169050602081019050919050565b600067ffffffffffffffff8211156114ca57600080fd5b601f19601f8301169050602081019050919050565b600081519050919050565b600081519050919050565b600073ffffffffffffffffffffffffffffffffffffffff82169050919050565b6000819050919050565b600073ffffffffffffffffffffffffffffffffffffffff82169050919050565b60008115159050919050565b6000819050919050565b82818337600083830152505050565b60005b83811015611582578082015181840152602081019050611567565b83811115611591576000848401525b50505050565b6000601f19601f83011690509190505600a265627a7a723058208bc69039c810b46ede38b9eacf342667b228d46df9444bad9d812186126880496c6578706572696d656e74616cf50037",
  "source": "/*\n\n  Copyright 2018 ZeroEx Intl.\n\n  Licensed under the Apache License, Version 2.0 (the \"License\");\n  you may not use this file except in compliance with the License.\n  You may obtain a copy of the License at\n\n    http://www.apache.org/licenses/LICENSE-2.0\n\n  Unless required by applicable law or agreed to in writing, software\n  distributed under the License is distributed on an \"AS IS\" BASIS,\n  WITHOUT WARRANTIES OR CONDITIONS OF ANY KIND, either express or implied.\n  See the License for the specific language governing permissions and\n  limitations under the License.\n\n*/\n\npragma solidity 0.4.24;\npragma experimental ABIEncoderV2;\n\nimport \"../../../interfaces/contracts/protocol/Exchange/IExchange.sol\";\nimport \"../../../libs/contracts/libs/LibOrder.sol\";\nimport \"../../../tokens/contracts/tokens/ERC20Token/IERC20Token.sol\";\nimport \"../../../utils/contracts/utils/LibBytes/LibBytes.sol\";\nimport \"../../../utils/contracts/utils/SafeMath/SafeMath.sol\";\n\n\ncontract DutchAuction is\n    SafeMath\n{\n    using LibBytes for bytes;\n\n    // solhint-disable var-name-mixedcase\n    IExchange internal EXCHANGE;\n\n    struct AuctionDetails {\n        uint256 beginTimeSeconds;    // Auction begin unix timestamp: sellOrder.makerAssetData\n        uint256 endTimeSeconds;      // Auction end unix timestamp: sellOrder.expiryTimeSeconds\n        uint256 beginAmount;         // Auction begin amount: sellOrder.makerAssetData\n        uint256 endAmount;           // Auction end amount: sellOrder.takerAssetAmount\n        uint256 currentAmount;       // Calculated amount given block.timestamp\n        uint256 currentTimeSeconds;  // block.timestamp\n    }\n\n    constructor (address _exchange)\n        public\n    {\n        EXCHANGE = IExchange(_exchange);\n    }\n\n    /// @dev Matches the buy and sell orders at an amount given the following: the current block time, the auction\n    ///      start time and the auction begin amount. The sell order is a an order at the lowest amount\n    ///      at the end of the auction. Excess from the match is transferred to the seller.\n    ///      Over time the price moves from beginAmount to endAmount given the current block.timestamp.\n    ///      sellOrder.expiryTimeSeconds is the end time of the auction.\n    ///      sellOrder.takerAssetAmount is the end amount of the auction (lowest possible amount).\n    ///      sellOrder.makerAssetData is the ABI encoded Asset Proxy data with the following data appended\n    ///      buyOrder.makerAssetData is the buyers bid on the auction, must meet the amount for the current block timestamp\n    ///      (uint256 beginTimeSeconds, uint256 beginAmount).\n    ///      This function reverts in the following scenarios:\n    ///         * Auction has not started (auctionDetails.currentTimeSeconds < auctionDetails.beginTimeSeconds)\n    ///         * Auction has expired (auctionDetails.endTimeSeconds < auctionDetails.currentTimeSeconds)\n    ///         * Amount is invalid: Buy order amount is too low (buyOrder.makerAssetAmount < auctionDetails.currentAmount)\n    ///         * Amount is invalid: Invalid begin amount (auctionDetails.beginAmount > auctionDetails.endAmount)\n    ///         * Any failure in the 0x Match Orders\n    /// @param buyOrder The Buyer's order. This order is for the current expected price of the auction.\n    /// @param sellOrder The Seller's order. This order is for the lowest amount (at the end of the auction).\n    /// @param buySignature Proof that order was created by the buyer.\n    /// @param sellSignature Proof that order was created by the seller.\n    /// @return matchedFillResults amounts filled and fees paid by maker and taker of matched orders.\n    function matchOrders(\n        LibOrder.Order memory buyOrder,\n        LibOrder.Order memory sellOrder,\n        bytes memory buySignature,\n        bytes memory sellSignature\n    )\n        public\n        returns (LibFillResults.MatchedFillResults memory matchedFillResults)\n    {\n        AuctionDetails memory auctionDetails = getAuctionDetails(sellOrder);\n        // Ensure the auction has not yet started\n        require(\n            auctionDetails.currentTimeSeconds >= auctionDetails.beginTimeSeconds,\n            \"AUCTION_NOT_STARTED\"\n        );\n        // Ensure the auction has not expired. This will fail later in 0x but we can save gas by failing early\n        require(\n            sellOrder.expirationTimeSeconds > auctionDetails.currentTimeSeconds,\n            \"AUCTION_EXPIRED\"\n        );\n        // Validate the buyer amount is greater than the current auction amount\n        require(\n            buyOrder.makerAssetAmount >= auctionDetails.currentAmount,\n            \"INVALID_AMOUNT\"\n        );\n        // Match orders, maximally filling `buyOrder`\n        matchedFillResults = EXCHANGE.matchOrders(\n            buyOrder,\n            sellOrder,\n            buySignature,\n            sellSignature\n        );\n        // The difference in sellOrder.takerAssetAmount and current amount is given as spread to the matcher\n        // This may include additional spread from the buyOrder.makerAssetAmount and the currentAmount.\n        // e.g currentAmount is 30, sellOrder.takerAssetAmount is 10 and buyOrder.makerAssetamount is 40.\n        // 10 (40-30) is returned to the buyer, 20 (30-10) sent to the seller and 10 has previously\n        // been transferred to the seller during matchOrders\n        uint256 leftMakerAssetSpreadAmount = matchedFillResults.leftMakerAssetSpreadAmount;\n        if (leftMakerAssetSpreadAmount > 0) {\n            // ERC20 Asset data itself is encoded as follows:\n            //\n            // | Area     | Offset | Length  | Contents                            |\n            // |----------|--------|---------|-------------------------------------|\n            // | Header   | 0      | 4       | function selector                   |\n            // | Params   |        | 1 * 32  | function parameters:                |\n            // |          | 4      | 12      |   1. token address padding          |\n            // |          | 16     | 20      |   2. token address                  |\n            bytes memory assetData = sellOrder.takerAssetData;\n            address token = assetData.readAddress(16);\n            // Calculate the excess from the buy order. This can occur if the buyer sends in a higher\n            // amount than the calculated current amount\n            uint256 buyerExcessAmount = safeSub(buyOrder.makerAssetAmount, auctionDetails.currentAmount);\n            uint256 sellerExcessAmount = safeSub(leftMakerAssetSpreadAmount, buyerExcessAmount);\n            // Return the difference between auctionDetails.currentAmount and sellOrder.takerAssetAmount\n            // to the seller\n            if (sellerExcessAmount > 0) {\n                IERC20Token(token).transfer(sellOrder.makerAddress, sellerExcessAmount);\n            }\n            // Return the difference between buyOrder.makerAssetAmount and auctionDetails.currentAmount\n            // to the buyer\n            if (buyerExcessAmount > 0) {\n                IERC20Token(token).transfer(buyOrder.makerAddress, buyerExcessAmount);\n            }\n        }\n        return matchedFillResults;\n    }\n\n    /// @dev Calculates the Auction Details for the given order\n    /// @param order The sell order\n    /// @return AuctionDetails\n    function getAuctionDetails(\n        LibOrder.Order memory order\n    )\n        public\n        returns (AuctionDetails memory auctionDetails)\n    {\n        uint256 makerAssetDataLength = order.makerAssetData.length;\n        // It is unknown the encoded data of makerAssetData, we assume the last 64 bytes\n        // are the Auction Details encoding.\n        // Auction Details is encoded as follows:\n        //\n        // | Area     | Offset | Length  | Contents                            |\n        // |----------|--------|---------|-------------------------------------|\n        // | Params   |        | 2 * 32  | parameters:                         |\n        // |          | -64    | 32      |   1. auction begin unix timestamp   |\n        // |          | -32    | 32      |   2. auction begin begin amount     |\n        // ERC20 asset data length is 4+32, 64 for auction details results in min length 100\n        require(\n            makerAssetDataLength >= 100,\n            \"INVALID_ASSET_DATA\"\n        );\n        uint256 auctionBeginTimeSeconds = order.makerAssetData.readUint256(makerAssetDataLength - 64);\n        uint256 auctionBeginAmount = order.makerAssetData.readUint256(makerAssetDataLength - 32);\n        // Ensure the auction has a valid begin time\n        require(\n            order.expirationTimeSeconds > auctionBeginTimeSeconds,\n            \"INVALID_BEGIN_TIME\"\n        );\n        uint256 auctionDurationSeconds = order.expirationTimeSeconds-auctionBeginTimeSeconds;\n        // Ensure the auction goes from high to low\n        uint256 minAmount = order.takerAssetAmount;\n        require(\n            auctionBeginAmount > minAmount,\n            \"INVALID_AMOUNT\"\n        );\n        uint256 amountDelta = auctionBeginAmount-minAmount;\n        // solhint-disable-next-line not-rely-on-time\n        uint256 timestamp = block.timestamp;\n        auctionDetails.beginTimeSeconds = auctionBeginTimeSeconds;\n        auctionDetails.endTimeSeconds = order.expirationTimeSeconds;\n        auctionDetails.beginAmount = auctionBeginAmount;\n        auctionDetails.endAmount = minAmount;\n        auctionDetails.currentTimeSeconds = timestamp;\n\n        uint256 remainingDurationSeconds = order.expirationTimeSeconds-timestamp;\n        if (timestamp < auctionBeginTimeSeconds) {\n            // If the auction has not yet begun the current amount is the auctionBeginAmount\n            auctionDetails.currentAmount = auctionBeginAmount;\n        } else if (timestamp >= order.expirationTimeSeconds) {\n            // If the auction has ended the current amount is the minAmount.\n            // Auction end time is guaranteed by 0x Exchange due to the order expiration\n            auctionDetails.currentAmount = minAmount;\n        } else {\n            auctionDetails.currentAmount = safeAdd(\n                minAmount,\n                safeDiv(\n                    safeMul(remainingDurationSeconds, amountDelta),\n                    auctionDurationSeconds\n                )\n            );\n        }\n        return auctionDetails;\n    }\n}\n",
  "sourcePath": "/Users/lawrenceballou/Desktop/BlockNerds/Clients/AltcoinIo/filter-contract/contracts/extensions/contracts/DutchAuction/DutchAuction.sol",
  "compiler": {
    "name": "solc",
    "version": "0.4.24+commit.e67f0147.Emscripten.clang"
  },
  "schemaVersion": "3.0.0",
  "updatedAt": "2018-12-28T17:39:10.917Z",
  "devdoc": {
    "methods": {
      "getAuctionDetails((address,address,address,address,uint256,uint256,uint256,uint256,uint256,uint256,bytes,bytes))": {
        "details": "Calculates the Auction Details for the given order",
        "params": {
          "order": "The sell order"
        },
        "return": "AuctionDetails"
      },
      "matchOrders((address,address,address,address,uint256,uint256,uint256,uint256,uint256,uint256,bytes,bytes),(address,address,address,address,uint256,uint256,uint256,uint256,uint256,uint256,bytes,bytes),bytes,bytes)": {
        "details": "Matches the buy and sell orders at an amount given the following: the current block time, the auction      start time and the auction begin amount. The sell order is a an order at the lowest amount      at the end of the auction. Excess from the match is transferred to the seller.      Over time the price moves from beginAmount to endAmount given the current block.timestamp.      sellOrder.expiryTimeSeconds is the end time of the auction.      sellOrder.takerAssetAmount is the end amount of the auction (lowest possible amount).      sellOrder.makerAssetData is the ABI encoded Asset Proxy data with the following data appended      buyOrder.makerAssetData is the buyers bid on the auction, must meet the amount for the current block timestamp      (uint256 beginTimeSeconds, uint256 beginAmount).      This function reverts in the following scenarios:         * Auction has not started (auctionDetails.currentTimeSeconds < auctionDetails.beginTimeSeconds)         * Auction has expired (auctionDetails.endTimeSeconds < auctionDetails.currentTimeSeconds)         * Amount is invalid: Buy order amount is too low (buyOrder.makerAssetAmount < auctionDetails.currentAmount)         * Amount is invalid: Invalid begin amount (auctionDetails.beginAmount > auctionDetails.endAmount)         * Any failure in the 0x Match Orders",
        "params": {
          "buyOrder": "The Buyer's order. This order is for the current expected price of the auction.",
          "buySignature": "Proof that order was created by the buyer.",
          "sellOrder": "The Seller's order. This order is for the lowest amount (at the end of the auction).",
          "sellSignature": "Proof that order was created by the seller."
        },
        "return": "matchedFillResults amounts filled and fees paid by maker and taker of matched orders."
      }
    }
  },
  "userdoc": {
    "methods": {}
  }
}