{
  "contractName": "Exchange",
  "abi": [
    {
      "constant": true,
      "inputs": [
        {
          "name": "",
          "type": "bytes32"
        }
      ],
      "name": "filled",
      "outputs": [
        {
          "name": "",
          "type": "uint256"
        }
      ],
      "payable": false,
      "stateMutability": "view",
      "type": "function"
    },
    {
      "constant": false,
      "inputs": [
        {
          "components": [
            {
              "name": "makerAddress",
              "type": "address"
            },
            {
              "name": "takerAddress",
              "type": "address"
            },
            {
              "name": "feeRecipientAddress",
              "type": "address"
            },
            {
              "name": "senderAddress",
              "type": "address"
            },
            {
              "name": "makerAssetAmount",
              "type": "uint256"
            },
            {
              "name": "takerAssetAmount",
              "type": "uint256"
            },
            {
              "name": "makerFee",
              "type": "uint256"
            },
            {
              "name": "takerFee",
              "type": "uint256"
            },
            {
              "name": "expirationTimeSeconds",
              "type": "uint256"
            },
            {
              "name": "salt",
              "type": "uint256"
            },
            {
              "name": "makerAssetData",
              "type": "bytes"
            },
            {
              "name": "takerAssetData",
              "type": "bytes"
            }
          ],
          "name": "orders",
          "type": "tuple[]"
        },
        {
          "name": "takerAssetFillAmounts",
          "type": "uint256[]"
        },
        {
          "name": "signatures",
          "type": "bytes[]"
        }
      ],
      "name": "batchFillOrders",
      "outputs": [
        {
          "components": [
            {
              "name": "makerAssetFilledAmount",
              "type": "uint256"
            },
            {
              "name": "takerAssetFilledAmount",
              "type": "uint256"
            },
            {
              "name": "makerFeePaid",
              "type": "uint256"
            },
            {
              "name": "takerFeePaid",
              "type": "uint256"
            }
          ],
          "name": "totalFillResults",
          "type": "tuple"
        }
      ],
      "payable": false,
      "stateMutability": "nonpayable",
      "type": "function"
    },
    {
      "constant": true,
      "inputs": [
        {
          "name": "",
          "type": "bytes32"
        }
      ],
      "name": "cancelled",
      "outputs": [
        {
          "name": "",
          "type": "bool"
        }
      ],
      "payable": false,
      "stateMutability": "view",
      "type": "function"
    },
    {
      "constant": false,
      "inputs": [
        {
          "name": "hash",
          "type": "bytes32"
        },
        {
          "name": "signerAddress",
          "type": "address"
        },
        {
          "name": "signature",
          "type": "bytes"
        }
      ],
      "name": "preSign",
      "outputs": [],
      "payable": false,
      "stateMutability": "nonpayable",
      "type": "function"
    },
    {
      "constant": false,
      "inputs": [
        {
          "components": [
            {
              "name": "makerAddress",
              "type": "address"
            },
            {
              "name": "takerAddress",
              "type": "address"
            },
            {
              "name": "feeRecipientAddress",
              "type": "address"
            },
            {
              "name": "senderAddress",
              "type": "address"
            },
            {
              "name": "makerAssetAmount",
              "type": "uint256"
            },
            {
              "name": "takerAssetAmount",
              "type": "uint256"
            },
            {
              "name": "makerFee",
              "type": "uint256"
            },
            {
              "name": "takerFee",
              "type": "uint256"
            },
            {
              "name": "expirationTimeSeconds",
              "type": "uint256"
            },
            {
              "name": "salt",
              "type": "uint256"
            },
            {
              "name": "makerAssetData",
              "type": "bytes"
            },
            {
              "name": "takerAssetData",
              "type": "bytes"
            }
          ],
          "name": "leftOrder",
          "type": "tuple"
        },
        {
          "components": [
            {
              "name": "makerAddress",
              "type": "address"
            },
            {
              "name": "takerAddress",
              "type": "address"
            },
            {
              "name": "feeRecipientAddress",
              "type": "address"
            },
            {
              "name": "senderAddress",
              "type": "address"
            },
            {
              "name": "makerAssetAmount",
              "type": "uint256"
            },
            {
              "name": "takerAssetAmount",
              "type": "uint256"
            },
            {
              "name": "makerFee",
              "type": "uint256"
            },
            {
              "name": "takerFee",
              "type": "uint256"
            },
            {
              "name": "expirationTimeSeconds",
              "type": "uint256"
            },
            {
              "name": "salt",
              "type": "uint256"
            },
            {
              "name": "makerAssetData",
              "type": "bytes"
            },
            {
              "name": "takerAssetData",
              "type": "bytes"
            }
          ],
          "name": "rightOrder",
          "type": "tuple"
        },
        {
          "name": "leftSignature",
          "type": "bytes"
        },
        {
          "name": "rightSignature",
          "type": "bytes"
        }
      ],
      "name": "matchOrders",
      "outputs": [
        {
          "components": [
            {
              "components": [
                {
                  "name": "makerAssetFilledAmount",
                  "type": "uint256"
                },
                {
                  "name": "takerAssetFilledAmount",
                  "type": "uint256"
                },
                {
                  "name": "makerFeePaid",
                  "type": "uint256"
                },
                {
                  "name": "takerFeePaid",
                  "type": "uint256"
                }
              ],
              "name": "left",
              "type": "tuple"
            },
            {
              "components": [
                {
                  "name": "makerAssetFilledAmount",
                  "type": "uint256"
                },
                {
                  "name": "takerAssetFilledAmount",
                  "type": "uint256"
                },
                {
                  "name": "makerFeePaid",
                  "type": "uint256"
                },
                {
                  "name": "takerFeePaid",
                  "type": "uint256"
                }
              ],
              "name": "right",
              "type": "tuple"
            },
            {
              "name": "leftMakerAssetSpreadAmount",
              "type": "uint256"
            }
          ],
          "name": "matchedFillResults",
          "type": "tuple"
        }
      ],
      "payable": false,
      "stateMutability": "nonpayable",
      "type": "function"
    },
    {
      "constant": false,
      "inputs": [
        {
          "components": [
            {
              "name": "makerAddress",
              "type": "address"
            },
            {
              "name": "takerAddress",
              "type": "address"
            },
            {
              "name": "feeRecipientAddress",
              "type": "address"
            },
            {
              "name": "senderAddress",
              "type": "address"
            },
            {
              "name": "makerAssetAmount",
              "type": "uint256"
            },
            {
              "name": "takerAssetAmount",
              "type": "uint256"
            },
            {
              "name": "makerFee",
              "type": "uint256"
            },
            {
              "name": "takerFee",
              "type": "uint256"
            },
            {
              "name": "expirationTimeSeconds",
              "type": "uint256"
            },
            {
              "name": "salt",
              "type": "uint256"
            },
            {
              "name": "makerAssetData",
              "type": "bytes"
            },
            {
              "name": "takerAssetData",
              "type": "bytes"
            }
          ],
          "name": "order",
          "type": "tuple"
        },
        {
          "name": "takerAssetFillAmount",
          "type": "uint256"
        },
        {
          "name": "signature",
          "type": "bytes"
        }
      ],
      "name": "fillOrderNoThrow",
      "outputs": [
        {
          "components": [
            {
              "name": "makerAssetFilledAmount",
              "type": "uint256"
            },
            {
              "name": "takerAssetFilledAmount",
              "type": "uint256"
            },
            {
              "name": "makerFeePaid",
              "type": "uint256"
            },
            {
              "name": "takerFeePaid",
              "type": "uint256"
            }
          ],
          "name": "fillResults",
          "type": "tuple"
        }
      ],
      "payable": false,
      "stateMutability": "nonpayable",
      "type": "function"
    },
    {
      "constant": true,
      "inputs": [
        {
          "name": "",
          "type": "bytes4"
        }
      ],
      "name": "assetProxies",
      "outputs": [
        {
          "name": "",
          "type": "address"
        }
      ],
      "payable": false,
      "stateMutability": "view",
      "type": "function"
    },
    {
      "constant": false,
      "inputs": [
        {
          "components": [
            {
              "name": "makerAddress",
              "type": "address"
            },
            {
              "name": "takerAddress",
              "type": "address"
            },
            {
              "name": "feeRecipientAddress",
              "type": "address"
            },
            {
              "name": "senderAddress",
              "type": "address"
            },
            {
              "name": "makerAssetAmount",
              "type": "uint256"
            },
            {
              "name": "takerAssetAmount",
              "type": "uint256"
            },
            {
              "name": "makerFee",
              "type": "uint256"
            },
            {
              "name": "takerFee",
              "type": "uint256"
            },
            {
              "name": "expirationTimeSeconds",
              "type": "uint256"
            },
            {
              "name": "salt",
              "type": "uint256"
            },
            {
              "name": "makerAssetData",
              "type": "bytes"
            },
            {
              "name": "takerAssetData",
              "type": "bytes"
            }
          ],
          "name": "orders",
          "type": "tuple[]"
        }
      ],
      "name": "batchCancelOrders",
      "outputs": [],
      "payable": false,
      "stateMutability": "nonpayable",
      "type": "function"
    },
    {
      "constant": false,
      "inputs": [
        {
          "components": [
            {
              "name": "makerAddress",
              "type": "address"
            },
            {
              "name": "takerAddress",
              "type": "address"
            },
            {
              "name": "feeRecipientAddress",
              "type": "address"
            },
            {
              "name": "senderAddress",
              "type": "address"
            },
            {
              "name": "makerAssetAmount",
              "type": "uint256"
            },
            {
              "name": "takerAssetAmount",
              "type": "uint256"
            },
            {
              "name": "makerFee",
              "type": "uint256"
            },
            {
              "name": "takerFee",
              "type": "uint256"
            },
            {
              "name": "expirationTimeSeconds",
              "type": "uint256"
            },
            {
              "name": "salt",
              "type": "uint256"
            },
            {
              "name": "makerAssetData",
              "type": "bytes"
            },
            {
              "name": "takerAssetData",
              "type": "bytes"
            }
          ],
          "name": "orders",
          "type": "tuple[]"
        },
        {
          "name": "takerAssetFillAmounts",
          "type": "uint256[]"
        },
        {
          "name": "signatures",
          "type": "bytes[]"
        }
      ],
      "name": "batchFillOrKillOrders",
      "outputs": [
        {
          "components": [
            {
              "name": "makerAssetFilledAmount",
              "type": "uint256"
            },
            {
              "name": "takerAssetFilledAmount",
              "type": "uint256"
            },
            {
              "name": "makerFeePaid",
              "type": "uint256"
            },
            {
              "name": "takerFeePaid",
              "type": "uint256"
            }
          ],
          "name": "totalFillResults",
          "type": "tuple"
        }
      ],
      "payable": false,
      "stateMutability": "nonpayable",
      "type": "function"
    },
    {
      "constant": false,
      "inputs": [
        {
          "name": "targetOrderEpoch",
          "type": "uint256"
        }
      ],
      "name": "cancelOrdersUpTo",
      "outputs": [],
      "payable": false,
      "stateMutability": "nonpayable",
      "type": "function"
    },
    {
      "constant": false,
      "inputs": [
        {
          "components": [
            {
              "name": "makerAddress",
              "type": "address"
            },
            {
              "name": "takerAddress",
              "type": "address"
            },
            {
              "name": "feeRecipientAddress",
              "type": "address"
            },
            {
              "name": "senderAddress",
              "type": "address"
            },
            {
              "name": "makerAssetAmount",
              "type": "uint256"
            },
            {
              "name": "takerAssetAmount",
              "type": "uint256"
            },
            {
              "name": "makerFee",
              "type": "uint256"
            },
            {
              "name": "takerFee",
              "type": "uint256"
            },
            {
              "name": "expirationTimeSeconds",
              "type": "uint256"
            },
            {
              "name": "salt",
              "type": "uint256"
            },
            {
              "name": "makerAssetData",
              "type": "bytes"
            },
            {
              "name": "takerAssetData",
              "type": "bytes"
            }
          ],
          "name": "orders",
          "type": "tuple[]"
        },
        {
          "name": "takerAssetFillAmounts",
          "type": "uint256[]"
        },
        {
          "name": "signatures",
          "type": "bytes[]"
        }
      ],
      "name": "batchFillOrdersNoThrow",
      "outputs": [
        {
          "components": [
            {
              "name": "makerAssetFilledAmount",
              "type": "uint256"
            },
            {
              "name": "takerAssetFilledAmount",
              "type": "uint256"
            },
            {
              "name": "makerFeePaid",
              "type": "uint256"
            },
            {
              "name": "takerFeePaid",
              "type": "uint256"
            }
          ],
          "name": "totalFillResults",
          "type": "tuple"
        }
      ],
      "payable": false,
      "stateMutability": "nonpayable",
      "type": "function"
    },
    {
      "constant": true,
      "inputs": [
        {
          "name": "assetProxyId",
          "type": "bytes4"
        }
      ],
      "name": "getAssetProxy",
      "outputs": [
        {
          "name": "",
          "type": "address"
        }
      ],
      "payable": false,
      "stateMutability": "view",
      "type": "function"
    },
    {
      "constant": true,
      "inputs": [
        {
          "name": "",
          "type": "bytes32"
        }
      ],
      "name": "transactions",
      "outputs": [
        {
          "name": "",
          "type": "bool"
        }
      ],
      "payable": false,
      "stateMutability": "view",
      "type": "function"
    },
    {
      "constant": false,
      "inputs": [
        {
          "components": [
            {
              "name": "makerAddress",
              "type": "address"
            },
            {
              "name": "takerAddress",
              "type": "address"
            },
            {
              "name": "feeRecipientAddress",
              "type": "address"
            },
            {
              "name": "senderAddress",
              "type": "address"
            },
            {
              "name": "makerAssetAmount",
              "type": "uint256"
            },
            {
              "name": "takerAssetAmount",
              "type": "uint256"
            },
            {
              "name": "makerFee",
              "type": "uint256"
            },
            {
              "name": "takerFee",
              "type": "uint256"
            },
            {
              "name": "expirationTimeSeconds",
              "type": "uint256"
            },
            {
              "name": "salt",
              "type": "uint256"
            },
            {
              "name": "makerAssetData",
              "type": "bytes"
            },
            {
              "name": "takerAssetData",
              "type": "bytes"
            }
          ],
          "name": "order",
          "type": "tuple"
        },
        {
          "name": "takerAssetFillAmount",
          "type": "uint256"
        },
        {
          "name": "signature",
          "type": "bytes"
        }
      ],
      "name": "fillOrKillOrder",
      "outputs": [
        {
          "components": [
            {
              "name": "makerAssetFilledAmount",
              "type": "uint256"
            },
            {
              "name": "takerAssetFilledAmount",
              "type": "uint256"
            },
            {
              "name": "makerFeePaid",
              "type": "uint256"
            },
            {
              "name": "takerFeePaid",
              "type": "uint256"
            }
          ],
          "name": "fillResults",
          "type": "tuple"
        }
      ],
      "payable": false,
      "stateMutability": "nonpayable",
      "type": "function"
    },
    {
      "constant": false,
      "inputs": [
        {
          "name": "validatorAddress",
          "type": "address"
        },
        {
          "name": "approval",
          "type": "bool"
        }
      ],
      "name": "setSignatureValidatorApproval",
      "outputs": [],
      "payable": false,
      "stateMutability": "nonpayable",
      "type": "function"
    },
    {
      "constant": true,
      "inputs": [
        {
          "name": "",
          "type": "address"
        },
        {
          "name": "",
          "type": "address"
        }
      ],
      "name": "allowedValidators",
      "outputs": [
        {
          "name": "",
          "type": "bool"
        }
      ],
      "payable": false,
      "stateMutability": "view",
      "type": "function"
    },
    {
      "constant": false,
      "inputs": [
        {
          "components": [
            {
              "name": "makerAddress",
              "type": "address"
            },
            {
              "name": "takerAddress",
              "type": "address"
            },
            {
              "name": "feeRecipientAddress",
              "type": "address"
            },
            {
              "name": "senderAddress",
              "type": "address"
            },
            {
              "name": "makerAssetAmount",
              "type": "uint256"
            },
            {
              "name": "takerAssetAmount",
              "type": "uint256"
            },
            {
              "name": "makerFee",
              "type": "uint256"
            },
            {
              "name": "takerFee",
              "type": "uint256"
            },
            {
              "name": "expirationTimeSeconds",
              "type": "uint256"
            },
            {
              "name": "salt",
              "type": "uint256"
            },
            {
              "name": "makerAssetData",
              "type": "bytes"
            },
            {
              "name": "takerAssetData",
              "type": "bytes"
            }
          ],
          "name": "orders",
          "type": "tuple[]"
        },
        {
          "name": "takerAssetFillAmount",
          "type": "uint256"
        },
        {
          "name": "signatures",
          "type": "bytes[]"
        }
      ],
      "name": "marketSellOrders",
      "outputs": [
        {
          "components": [
            {
              "name": "makerAssetFilledAmount",
              "type": "uint256"
            },
            {
              "name": "takerAssetFilledAmount",
              "type": "uint256"
            },
            {
              "name": "makerFeePaid",
              "type": "uint256"
            },
            {
              "name": "takerFeePaid",
              "type": "uint256"
            }
          ],
          "name": "totalFillResults",
          "type": "tuple"
        }
      ],
      "payable": false,
      "stateMutability": "nonpayable",
      "type": "function"
    },
    {
      "constant": true,
      "inputs": [
        {
          "components": [
            {
              "name": "makerAddress",
              "type": "address"
            },
            {
              "name": "takerAddress",
              "type": "address"
            },
            {
              "name": "feeRecipientAddress",
              "type": "address"
            },
            {
              "name": "senderAddress",
              "type": "address"
            },
            {
              "name": "makerAssetAmount",
              "type": "uint256"
            },
            {
              "name": "takerAssetAmount",
              "type": "uint256"
            },
            {
              "name": "makerFee",
              "type": "uint256"
            },
            {
              "name": "takerFee",
              "type": "uint256"
            },
            {
              "name": "expirationTimeSeconds",
              "type": "uint256"
            },
            {
              "name": "salt",
              "type": "uint256"
            },
            {
              "name": "makerAssetData",
              "type": "bytes"
            },
            {
              "name": "takerAssetData",
              "type": "bytes"
            }
          ],
          "name": "orders",
          "type": "tuple[]"
        }
      ],
      "name": "getOrdersInfo",
      "outputs": [
        {
          "components": [
            {
              "name": "orderStatus",
              "type": "uint8"
            },
            {
              "name": "orderHash",
              "type": "bytes32"
            },
            {
              "name": "orderTakerAssetFilledAmount",
              "type": "uint256"
            }
          ],
          "name": "",
          "type": "tuple[]"
        }
      ],
      "payable": false,
      "stateMutability": "view",
      "type": "function"
    },
    {
      "constant": true,
      "inputs": [
        {
          "name": "",
          "type": "bytes32"
        },
        {
          "name": "",
          "type": "address"
        }
      ],
      "name": "preSigned",
      "outputs": [
        {
          "name": "",
          "type": "bool"
        }
      ],
      "payable": false,
      "stateMutability": "view",
      "type": "function"
    },
    {
      "constant": true,
      "inputs": [],
      "name": "owner",
      "outputs": [
        {
          "name": "",
          "type": "address"
        }
      ],
      "payable": false,
      "stateMutability": "view",
      "type": "function"
    },
    {
      "constant": true,
      "inputs": [
        {
          "name": "hash",
          "type": "bytes32"
        },
        {
          "name": "signerAddress",
          "type": "address"
        },
        {
          "name": "signature",
          "type": "bytes"
        }
      ],
      "name": "isValidSignature",
      "outputs": [
        {
          "name": "isValid",
          "type": "bool"
        }
      ],
      "payable": false,
      "stateMutability": "view",
      "type": "function"
    },
    {
      "constant": false,
      "inputs": [
        {
          "components": [
            {
              "name": "makerAddress",
              "type": "address"
            },
            {
              "name": "takerAddress",
              "type": "address"
            },
            {
              "name": "feeRecipientAddress",
              "type": "address"
            },
            {
              "name": "senderAddress",
              "type": "address"
            },
            {
              "name": "makerAssetAmount",
              "type": "uint256"
            },
            {
              "name": "takerAssetAmount",
              "type": "uint256"
            },
            {
              "name": "makerFee",
              "type": "uint256"
            },
            {
              "name": "takerFee",
              "type": "uint256"
            },
            {
              "name": "expirationTimeSeconds",
              "type": "uint256"
            },
            {
              "name": "salt",
              "type": "uint256"
            },
            {
              "name": "makerAssetData",
              "type": "bytes"
            },
            {
              "name": "takerAssetData",
              "type": "bytes"
            }
          ],
          "name": "orders",
          "type": "tuple[]"
        },
        {
          "name": "makerAssetFillAmount",
          "type": "uint256"
        },
        {
          "name": "signatures",
          "type": "bytes[]"
        }
      ],
      "name": "marketBuyOrdersNoThrow",
      "outputs": [
        {
          "components": [
            {
              "name": "makerAssetFilledAmount",
              "type": "uint256"
            },
            {
              "name": "takerAssetFilledAmount",
              "type": "uint256"
            },
            {
              "name": "makerFeePaid",
              "type": "uint256"
            },
            {
              "name": "takerFeePaid",
              "type": "uint256"
            }
          ],
          "name": "totalFillResults",
          "type": "tuple"
        }
      ],
      "payable": false,
      "stateMutability": "nonpayable",
      "type": "function"
    },
    {
      "constant": false,
      "inputs": [
        {
          "components": [
            {
              "name": "makerAddress",
              "type": "address"
            },
            {
              "name": "takerAddress",
              "type": "address"
            },
            {
              "name": "feeRecipientAddress",
              "type": "address"
            },
            {
              "name": "senderAddress",
              "type": "address"
            },
            {
              "name": "makerAssetAmount",
              "type": "uint256"
            },
            {
              "name": "takerAssetAmount",
              "type": "uint256"
            },
            {
              "name": "makerFee",
              "type": "uint256"
            },
            {
              "name": "takerFee",
              "type": "uint256"
            },
            {
              "name": "expirationTimeSeconds",
              "type": "uint256"
            },
            {
              "name": "salt",
              "type": "uint256"
            },
            {
              "name": "makerAssetData",
              "type": "bytes"
            },
            {
              "name": "takerAssetData",
              "type": "bytes"
            }
          ],
          "name": "order",
          "type": "tuple"
        },
        {
          "name": "takerAssetFillAmount",
          "type": "uint256"
        },
        {
          "name": "signature",
          "type": "bytes"
        }
      ],
      "name": "fillOrder",
      "outputs": [
        {
          "components": [
            {
              "name": "makerAssetFilledAmount",
              "type": "uint256"
            },
            {
              "name": "takerAssetFilledAmount",
              "type": "uint256"
            },
            {
              "name": "makerFeePaid",
              "type": "uint256"
            },
            {
              "name": "takerFeePaid",
              "type": "uint256"
            }
          ],
          "name": "fillResults",
          "type": "tuple"
        }
      ],
      "payable": false,
      "stateMutability": "nonpayable",
      "type": "function"
    },
    {
      "constant": false,
      "inputs": [
        {
          "name": "salt",
          "type": "uint256"
        },
        {
          "name": "signerAddress",
          "type": "address"
        },
        {
          "name": "data",
          "type": "bytes"
        },
        {
          "name": "signature",
          "type": "bytes"
        }
      ],
      "name": "executeTransaction",
      "outputs": [],
      "payable": false,
      "stateMutability": "nonpayable",
      "type": "function"
    },
    {
      "constant": false,
      "inputs": [
        {
          "name": "assetProxy",
          "type": "address"
        }
      ],
      "name": "registerAssetProxy",
      "outputs": [],
      "payable": false,
      "stateMutability": "nonpayable",
      "type": "function"
    },
    {
      "constant": true,
      "inputs": [
        {
          "components": [
            {
              "name": "makerAddress",
              "type": "address"
            },
            {
              "name": "takerAddress",
              "type": "address"
            },
            {
              "name": "feeRecipientAddress",
              "type": "address"
            },
            {
              "name": "senderAddress",
              "type": "address"
            },
            {
              "name": "makerAssetAmount",
              "type": "uint256"
            },
            {
              "name": "takerAssetAmount",
              "type": "uint256"
            },
            {
              "name": "makerFee",
              "type": "uint256"
            },
            {
              "name": "takerFee",
              "type": "uint256"
            },
            {
              "name": "expirationTimeSeconds",
              "type": "uint256"
            },
            {
              "name": "salt",
              "type": "uint256"
            },
            {
              "name": "makerAssetData",
              "type": "bytes"
            },
            {
              "name": "takerAssetData",
              "type": "bytes"
            }
          ],
          "name": "order",
          "type": "tuple"
        }
      ],
      "name": "getOrderInfo",
      "outputs": [
        {
          "components": [
            {
              "name": "orderStatus",
              "type": "uint8"
            },
            {
              "name": "orderHash",
              "type": "bytes32"
            },
            {
              "name": "orderTakerAssetFilledAmount",
              "type": "uint256"
            }
          ],
          "name": "orderInfo",
          "type": "tuple"
        }
      ],
      "payable": false,
      "stateMutability": "view",
      "type": "function"
    },
    {
      "constant": false,
      "inputs": [
        {
          "components": [
            {
              "name": "makerAddress",
              "type": "address"
            },
            {
              "name": "takerAddress",
              "type": "address"
            },
            {
              "name": "feeRecipientAddress",
              "type": "address"
            },
            {
              "name": "senderAddress",
              "type": "address"
            },
            {
              "name": "makerAssetAmount",
              "type": "uint256"
            },
            {
              "name": "takerAssetAmount",
              "type": "uint256"
            },
            {
              "name": "makerFee",
              "type": "uint256"
            },
            {
              "name": "takerFee",
              "type": "uint256"
            },
            {
              "name": "expirationTimeSeconds",
              "type": "uint256"
            },
            {
              "name": "salt",
              "type": "uint256"
            },
            {
              "name": "makerAssetData",
              "type": "bytes"
            },
            {
              "name": "takerAssetData",
              "type": "bytes"
            }
          ],
          "name": "order",
          "type": "tuple"
        }
      ],
      "name": "cancelOrder",
      "outputs": [],
      "payable": false,
      "stateMutability": "nonpayable",
      "type": "function"
    },
    {
      "constant": true,
      "inputs": [
        {
          "name": "",
          "type": "address"
        },
        {
          "name": "",
          "type": "address"
        }
      ],
      "name": "orderEpoch",
      "outputs": [
        {
          "name": "",
          "type": "uint256"
        }
      ],
      "payable": false,
      "stateMutability": "view",
      "type": "function"
    },
    {
      "constant": true,
      "inputs": [],
      "name": "ZRX_ASSET_DATA",
      "outputs": [
        {
          "name": "",
          "type": "bytes"
        }
      ],
      "payable": false,
      "stateMutability": "view",
      "type": "function"
    },
    {
      "constant": false,
      "inputs": [
        {
          "components": [
            {
              "name": "makerAddress",
              "type": "address"
            },
            {
              "name": "takerAddress",
              "type": "address"
            },
            {
              "name": "feeRecipientAddress",
              "type": "address"
            },
            {
              "name": "senderAddress",
              "type": "address"
            },
            {
              "name": "makerAssetAmount",
              "type": "uint256"
            },
            {
              "name": "takerAssetAmount",
              "type": "uint256"
            },
            {
              "name": "makerFee",
              "type": "uint256"
            },
            {
              "name": "takerFee",
              "type": "uint256"
            },
            {
              "name": "expirationTimeSeconds",
              "type": "uint256"
            },
            {
              "name": "salt",
              "type": "uint256"
            },
            {
              "name": "makerAssetData",
              "type": "bytes"
            },
            {
              "name": "takerAssetData",
              "type": "bytes"
            }
          ],
          "name": "orders",
          "type": "tuple[]"
        },
        {
          "name": "takerAssetFillAmount",
          "type": "uint256"
        },
        {
          "name": "signatures",
          "type": "bytes[]"
        }
      ],
      "name": "marketSellOrdersNoThrow",
      "outputs": [
        {
          "components": [
            {
              "name": "makerAssetFilledAmount",
              "type": "uint256"
            },
            {
              "name": "takerAssetFilledAmount",
              "type": "uint256"
            },
            {
              "name": "makerFeePaid",
              "type": "uint256"
            },
            {
              "name": "takerFeePaid",
              "type": "uint256"
            }
          ],
          "name": "totalFillResults",
          "type": "tuple"
        }
      ],
      "payable": false,
      "stateMutability": "nonpayable",
      "type": "function"
    },
    {
      "constant": true,
      "inputs": [],
      "name": "EIP712_DOMAIN_HASH",
      "outputs": [
        {
          "name": "",
          "type": "bytes32"
        }
      ],
      "payable": false,
      "stateMutability": "view",
      "type": "function"
    },
    {
      "constant": false,
      "inputs": [
        {
          "components": [
            {
              "name": "makerAddress",
              "type": "address"
            },
            {
              "name": "takerAddress",
              "type": "address"
            },
            {
              "name": "feeRecipientAddress",
              "type": "address"
            },
            {
              "name": "senderAddress",
              "type": "address"
            },
            {
              "name": "makerAssetAmount",
              "type": "uint256"
            },
            {
              "name": "takerAssetAmount",
              "type": "uint256"
            },
            {
              "name": "makerFee",
              "type": "uint256"
            },
            {
              "name": "takerFee",
              "type": "uint256"
            },
            {
              "name": "expirationTimeSeconds",
              "type": "uint256"
            },
            {
              "name": "salt",
              "type": "uint256"
            },
            {
              "name": "makerAssetData",
              "type": "bytes"
            },
            {
              "name": "takerAssetData",
              "type": "bytes"
            }
          ],
          "name": "orders",
          "type": "tuple[]"
        },
        {
          "name": "makerAssetFillAmount",
          "type": "uint256"
        },
        {
          "name": "signatures",
          "type": "bytes[]"
        }
      ],
      "name": "marketBuyOrders",
      "outputs": [
        {
          "components": [
            {
              "name": "makerAssetFilledAmount",
              "type": "uint256"
            },
            {
              "name": "takerAssetFilledAmount",
              "type": "uint256"
            },
            {
              "name": "makerFeePaid",
              "type": "uint256"
            },
            {
              "name": "takerFeePaid",
              "type": "uint256"
            }
          ],
          "name": "totalFillResults",
          "type": "tuple"
        }
      ],
      "payable": false,
      "stateMutability": "nonpayable",
      "type": "function"
    },
    {
      "constant": true,
      "inputs": [],
      "name": "currentContextAddress",
      "outputs": [
        {
          "name": "",
          "type": "address"
        }
      ],
      "payable": false,
      "stateMutability": "view",
      "type": "function"
    },
    {
      "constant": false,
      "inputs": [
        {
          "name": "newOwner",
          "type": "address"
        }
      ],
      "name": "transferOwnership",
      "outputs": [],
      "payable": false,
      "stateMutability": "nonpayable",
      "type": "function"
    },
    {
      "constant": true,
      "inputs": [],
      "name": "VERSION",
      "outputs": [
        {
          "name": "",
          "type": "string"
        }
      ],
      "payable": false,
      "stateMutability": "view",
      "type": "function"
    },
    {
      "inputs": [
        {
          "name": "_zrxAssetData",
          "type": "bytes"
        }
      ],
      "payable": false,
      "stateMutability": "nonpayable",
      "type": "constructor"
    },
    {
      "anonymous": false,
      "inputs": [
        {
          "indexed": true,
          "name": "signerAddress",
          "type": "address"
        },
        {
          "indexed": true,
          "name": "validatorAddress",
          "type": "address"
        },
        {
          "indexed": false,
          "name": "approved",
          "type": "bool"
        }
      ],
      "name": "SignatureValidatorApproval",
      "type": "event"
    },
    {
      "anonymous": false,
      "inputs": [
        {
          "indexed": true,
          "name": "makerAddress",
          "type": "address"
        },
        {
          "indexed": true,
          "name": "feeRecipientAddress",
          "type": "address"
        },
        {
          "indexed": false,
          "name": "takerAddress",
          "type": "address"
        },
        {
          "indexed": false,
          "name": "senderAddress",
          "type": "address"
        },
        {
          "indexed": false,
          "name": "makerAssetFilledAmount",
          "type": "uint256"
        },
        {
          "indexed": false,
          "name": "takerAssetFilledAmount",
          "type": "uint256"
        },
        {
          "indexed": false,
          "name": "makerFeePaid",
          "type": "uint256"
        },
        {
          "indexed": false,
          "name": "takerFeePaid",
          "type": "uint256"
        },
        {
          "indexed": true,
          "name": "orderHash",
          "type": "bytes32"
        },
        {
          "indexed": false,
          "name": "makerAssetData",
          "type": "bytes"
        },
        {
          "indexed": false,
          "name": "takerAssetData",
          "type": "bytes"
        }
      ],
      "name": "Fill",
      "type": "event"
    },
    {
      "anonymous": false,
      "inputs": [
        {
          "indexed": true,
          "name": "makerAddress",
          "type": "address"
        },
        {
          "indexed": true,
          "name": "feeRecipientAddress",
          "type": "address"
        },
        {
          "indexed": false,
          "name": "senderAddress",
          "type": "address"
        },
        {
          "indexed": true,
          "name": "orderHash",
          "type": "bytes32"
        },
        {
          "indexed": false,
          "name": "makerAssetData",
          "type": "bytes"
        },
        {
          "indexed": false,
          "name": "takerAssetData",
          "type": "bytes"
        }
      ],
      "name": "Cancel",
      "type": "event"
    },
    {
      "anonymous": false,
      "inputs": [
        {
          "indexed": true,
          "name": "makerAddress",
          "type": "address"
        },
        {
          "indexed": true,
          "name": "senderAddress",
          "type": "address"
        },
        {
          "indexed": false,
          "name": "orderEpoch",
          "type": "uint256"
        }
      ],
      "name": "CancelUpTo",
      "type": "event"
    },
    {
      "anonymous": false,
      "inputs": [
        {
          "indexed": false,
          "name": "id",
          "type": "bytes4"
        },
        {
          "indexed": false,
          "name": "assetProxy",
          "type": "address"
        }
      ],
      "name": "AssetProxyRegistered",
      "type": "event"
    }
  ],
  "bytecode": "0x608060405260008060006101000a81548160ff0219169083151502179055503480156200002b57600080fd5b50604051620077c2380380620077c2833981018060405262000051919081019062000515565b8080600190805190602001906200006a92919062000408565b505060405160200180807f454950373132446f6d61696e2800000000000000000000000000000000000000815250600d01807f737472696e67206e616d652c0000000000000000000000000000000000000000815250600c01807f737472696e672076657273696f6e2c0000000000000000000000000000000000815250600f01807f6164647265737320766572696679696e67436f6e747261637400000000000000815250601901807f290000000000000000000000000000000000000000000000000000000000000081525060010190506040516020818303038152906040526040518082805190602001908083835b6020831015156200018357805182526020820191506020810190506020830392506200015c565b6001836020036101000a03801982511681845116808217855250505050505090500191505060405180910390206040805190810160405280600b81526020017f30782050726f746f636f6c0000000000000000000000000000000000000000008152506040518082805190602001908083835b6020831015156200021d5780518252602082019150602081019050602083039250620001f6565b6001836020036101000a03801982511681845116808217855250505050505090500191505060405180910390206040805190810160405280600181526020017f32000000000000000000000000000000000000000000000000000000000000008152506040518082805190602001908083835b602083101515620002b7578051825260208201915060208101905060208303925062000290565b6001836020036101000a03801982511681845116808217855250505050505090500191505060405180910390203073ffffffffffffffffffffffffffffffffffffffff166001026040516020018085600019166000191681526020018460001916600019168152602001836000191660001916815260200182600019166000191681526020019450505050506040516020818303038152906040526040518082805190602001908083835b60208310151562000389578051825260208201915060208101905060208303925062000362565b6001836020036101000a03801982511681845116808217855250505050505090500191505060405180910390206002816000191690555033600360006101000a81548173ffffffffffffffffffffffffffffffffffffffff021916908373ffffffffffffffffffffffffffffffffffffffff16021790555050620005eb565b828054600181600116156101000203166002900490600052602060002090601f016020900481019282601f106200044b57805160ff19168380011785556200047c565b828001600101855582156200047c579182015b828111156200047b5782518255916020019190600101906200045e565b5b5090506200048b91906200048f565b5090565b620004b491905b80821115620004b057600081600090555060010162000496565b5090565b90565b600082601f8301121515620004cb57600080fd5b8151620004e2620004dc8262000588565b6200055a565b91508082526020830160208301858383011115620004ff57600080fd5b6200050c838284620005b5565b50505092915050565b6000602082840312156200052857600080fd5b600082015167ffffffffffffffff8111156200054357600080fd5b6200055184828501620004b7565b91505092915050565b6000604051905081810181811067ffffffffffffffff821117156200057e57600080fd5b8060405250919050565b600067ffffffffffffffff821115620005a057600080fd5b601f19601f8301169050602081019050919050565b60005b83811015620005d5578082015181840152602081019050620005b8565b83811115620005e5576000848401525b50505050565b6171c780620005fb6000396000f3006080604052600436106101b7576000357c0100000000000000000000000000000000000000000000000000000000900463ffffffff168063288cdc91146101bc578063297bb70b146101f95780632ac12622146102365780633683ef8e146102735780633c28d8611461029c5780633e228bae146102d95780633fd3c997146103165780634ac14782146103535780634d0ae5461461037c5780634f9559b1146103b957806350dde190146103e2578063607041081461041f578063642f2eaf1461045c57806364a3bc151461049957806377fcce68146104d65780637b8e3514146104ff5780637e1d98081461053c5780637e9d74dc1461057957806382c174d0146105b65780638da5cb5b146105f3578063936347021461061e578063a3e203801461065b578063b4be83d514610698578063bfc8bfce146106d5578063c585bb93146106fe578063c75e0a8114610727578063d46b02c314610764578063d9bfa73e1461078d578063db123b1a146107ca578063dd1c7d18146107f5578063e306f77914610832578063e5fa431b1461085d578063eea086ba1461089a578063f2fde38b146108c5578063ffa1ad74146108ee575b600080fd5b3480156101c857600080fd5b506101e360048036036101de91908101906159c2565b610919565b6040516101f09190616ee5565b60405180910390f35b34801561020557600080fd5b50610220600480360361021b91908101906158ac565b610931565b60405161022d9190616e93565b60405180910390f35b34801561024257600080fd5b5061025d600480360361025891908101906159c2565b610a51565b60405161026a9190616902565b60405180910390f35b34801561027f57600080fd5b5061029a60048036036102959190810190615a27565b610a71565b005b3480156102a857600080fd5b506102c360048036036102be9190810190615b8d565b610b9c565b6040516102d09190616eae565b60405180910390f35b3480156102e557600080fd5b5061030060048036036102fb9190810190615c50565b610d47565b60405161030d9190616e93565b60405180910390f35b34801561032257600080fd5b5061033d60048036036103389190810190615afa565b610d9f565b60405161034a9190616a36565b60405180910390f35b34801561035f57600080fd5b5061037a6004803603610375919081019061586b565b610dd2565b005b34801561038857600080fd5b506103a3600480360361039e91908101906158ac565b610e9e565b6040516103b09190616e93565b60405180910390f35b3480156103c557600080fd5b506103e060048036036103db9190810190615ccf565b610fbe565b005b3480156103ee57600080fd5b50610409600480360361040491908101906158ac565b611247565b6040516104169190616e93565b60405180910390f35b34801561042b57600080fd5b5061044660048036036104419190810190615afa565b6112e2565b60405161045391906167f4565b60405180910390f35b34801561046857600080fd5b50610483600480360361047e91908101906159c2565b61135d565b6040516104909190616902565b60405180910390f35b3480156104a557600080fd5b506104c060048036036104bb9190810190615c50565b61137d565b6040516104cd9190616e93565b60405180910390f35b3480156104e257600080fd5b506104fd60048036036104f8919081019061582f565b611421565b005b34801561050b57600080fd5b50610526600480360361052191908101906157f3565b6115b0565b6040516105339190616902565b60405180910390f35b34801561054857600080fd5b50610563600480360361055e9190810190615943565b6115df565b6040516105709190616e93565b60405180910390f35b34801561058557600080fd5b506105a0600480360361059b919081019061586b565b611751565b6040516105ad91906168e0565b60405180910390f35b3480156105c257600080fd5b506105dd60048036036105d891908101906159eb565b6117fb565b6040516105ea9190616902565b60405180910390f35b3480156105ff57600080fd5b5061060861182a565b60405161061591906167f4565b60405180910390f35b34801561062a57600080fd5b5061064560048036036106409190810190615a93565b611850565b6040516106529190616902565b60405180910390f35b34801561066757600080fd5b50610682600480360361067d9190810190615943565b611fcf565b60405161068f9190616e93565b60405180910390f35b3480156106a457600080fd5b506106bf60048036036106ba9190810190615c50565b612101565b6040516106cc9190616e93565b60405180910390f35b3480156106e157600080fd5b506106fc60048036036106f79190810190615cf8565b6121a5565b005b34801561070a57600080fd5b50610725600480360361072091908101906157ca565b612511565b005b34801561073357600080fd5b5061074e60048036036107499190810190615b4c565b6127fd565b60405161075b9190616eca565b60405180910390f35b34801561077057600080fd5b5061078b60048036036107869190810190615b4c565b612a4f565b005b34801561079957600080fd5b506107b460048036036107af91908101906157f3565b612ae0565b6040516107c19190616ee5565b60405180910390f35b3480156107d657600080fd5b506107df612b05565b6040516107ec9190616a14565b60405180910390f35b34801561080157600080fd5b5061081c60048036036108179190810190615943565b612ba3565b6040516108299190616e93565b60405180910390f35b34801561083e57600080fd5b50610847612c90565b604051610854919061691d565b60405180910390f35b34801561086957600080fd5b50610884600480360361087f9190810190615943565b612c96565b6040516108919190616e93565b60405180910390f35b3480156108a657600080fd5b506108af612e4d565b6040516108bc91906167f4565b60405180910390f35b3480156108d157600080fd5b506108ec60048036036108e791908101906157ca565b612e73565b005b3480156108fa57600080fd5b50610903612f80565b6040516109109190616a51565b60405180910390f35b60046020528060005260406000206000915090505481565b61093961517c565b60008061094461517c565b6000809054906101000a900460ff16151515610995576040517f08c379a000000000000000000000000000000000000000000000000000000000815260040161098c90616d93565b60405180910390fd5b60016000806101000a81548160ff02191690831515021790555086519250600091505b8282141515610a2a57610a1187838151811015156109d257fe5b9060200190602002015187848151811015156109ea57fe5b906020019060200201518785815181101515610a0257fe5b90602001906020020151612fb9565b9050610a1d848261305a565b81806001019250506109b8565b83935060008060006101000a81548160ff0219169083151502179055505050509392505050565b60056020528060005260406000206000915054906101000a900460ff1681565b3373ffffffffffffffffffffffffffffffffffffffff168373ffffffffffffffffffffffffffffffffffffffff16141515610b2557610ae3848484848080601f016020809104026020016040519081016040528093929190818152602001838380828437820191505050505050611850565b1515610b24576040517f08c379a0000000000000000000000000000000000000000000000000000000008152600401610b1b90616bf3565b60405180910390fd5b5b600160076000866000191660001916815260200190815260200160002060008573ffffffffffffffffffffffffffffffffffffffff1673ffffffffffffffffffffffffffffffffffffffff16815260200190815260200160002060006101000a81548160ff02191690831515021790555050505050565b610ba46151a5565b610bac6151d4565b610bb46151d4565b60008060009054906101000a900460ff16151515610c07576040517f08c379a0000000000000000000000000000000000000000000000000000000008152600401610bfe90616d93565b60405180910390fd5b60016000806101000a81548160ff021916908315150217905550876101600151876101400181905250876101400151876101600181905250610c48886127fd565b9250610c53876127fd565b9150610c5d6130ca565b9050610c6b8884838961313a565b610c778783838861313a565b610c81888861335a565b610c958888856040015185604001516133c5565b9350610cbc88848660000151602001518760000151602001518860000151600001516135b2565b610ce187838660200151602001518760200151602001518860200151600001516135b2565b610cfa88828560200151866040015188600001516136f9565b610d1387828460200151856040015188602001516136f9565b610d1f888883876137c7565b83935060008060006101000a81548160ff021916908315150217905550505050949350505050565b610d4f61517c565b6060610d5c85858561399b565b9050608081825160208401305af48015610d9357815183526020820151602084015260408201516040840152606082015160608401525b50819150509392505050565b600b6020528060005260406000206000915054906101000a900473ffffffffffffffffffffffffffffffffffffffff1681565b6000806000809054906101000a900460ff16151515610e26576040517f08c379a0000000000000000000000000000000000000000000000000000000008152600401610e1d90616d93565b60405180910390fd5b60016000806101000a81548160ff02191690831515021790555082519150600090505b8181141515610e7f57610e728382815181101515610e6357fe5b90602001906020020151613b8a565b8080600101915050610e49565b60008060006101000a81548160ff021916908315150217905550505050565b610ea661517c565b600080610eb161517c565b6000809054906101000a900460ff16151515610f02576040517f08c379a0000000000000000000000000000000000000000000000000000000008152600401610ef990616d93565b60405180910390fd5b60016000806101000a81548160ff02191690831515021790555086519250600091505b8282141515610f9757610f7e8783815181101515610f3f57fe5b906020019060200201518784815181101515610f5757fe5b906020019060200201518785815181101515610f6f57fe5b90602001906020020151613bb9565b9050610f8a848261305a565b8180600101925050610f25565b83935060008060006101000a81548160ff0219169083151502179055505050509392505050565b6000806000806000809054906101000a900460ff16151515611015576040517f08c379a000000000000000000000000000000000000000000000000000000000815260040161100c90616d93565b60405180910390fd5b60016000806101000a81548160ff0219169083151502179055506110376130ca565b93503373ffffffffffffffffffffffffffffffffffffffff168473ffffffffffffffffffffffffffffffffffffffff16146110725733611075565b60005b9250600185019150600660008573ffffffffffffffffffffffffffffffffffffffff1673ffffffffffffffffffffffffffffffffffffffff16815260200190815260200160002060008473ffffffffffffffffffffffffffffffffffffffff1673ffffffffffffffffffffffffffffffffffffffff1681526020019081526020016000205490508082111515611140576040517f08c379a000000000000000000000000000000000000000000000000000000000815260040161113790616d13565b60405180910390fd5b81600660008673ffffffffffffffffffffffffffffffffffffffff1673ffffffffffffffffffffffffffffffffffffffff16815260200190815260200160002060008573ffffffffffffffffffffffffffffffffffffffff1673ffffffffffffffffffffffffffffffffffffffff168152602001908152602001600020819055508273ffffffffffffffffffffffffffffffffffffffff168473ffffffffffffffffffffffffffffffffffffffff167f82af639571738f4ebd4268fb0363d8957ebe1bbb9e78dba5ebd69eed39b154f08460405161121e9190616ee5565b60405180910390a360008060006101000a81548160ff0219169083151502179055505050505050565b61124f61517c565b60008061125a61517c565b86519250600091505b82821415156112d5576112bc878381518110151561127d57fe5b90602001906020020151878481518110151561129557fe5b9060200190602002015187858151811015156112ad57fe5b90602001906020020151610d47565b90506112c8848261305a565b8180600101925050611263565b8393505050509392505050565b6000600b6000837bffffffffffffffffffffffffffffffffffffffffffffffffffffffff19167bffffffffffffffffffffffffffffffffffffffffffffffffffffffff1916815260200190815260200160002060009054906101000a900473ffffffffffffffffffffffffffffffffffffffff169050919050565b60096020528060005260406000206000915054906101000a900460ff1681565b61138561517c565b6000809054906101000a900460ff161515156113d6576040517f08c379a00000000000000000000000000000000000000000000000000000000081526004016113cd90616d93565b60405180910390fd5b60016000806101000a81548160ff0219169083151502179055506113fb848484613bb9565b905080905060008060006101000a81548160ff0219169083151502179055509392505050565b60008060009054906101000a900460ff16151515611474576040517f08c379a000000000000000000000000000000000000000000000000000000000815260040161146b90616d93565b60405180910390fd5b60016000806101000a81548160ff0219169083151502179055506114966130ca565b905081600860008373ffffffffffffffffffffffffffffffffffffffff1673ffffffffffffffffffffffffffffffffffffffff16815260200190815260200160002060008573ffffffffffffffffffffffffffffffffffffffff1673ffffffffffffffffffffffffffffffffffffffff16815260200190815260200160002060006101000a81548160ff0219169083151502179055508273ffffffffffffffffffffffffffffffffffffffff168173ffffffffffffffffffffffffffffffffffffffff167fa8656e308026eeabce8f0bc18048433252318ab80ac79da0b3d3d8697dfba891846040516115899190616902565b60405180910390a360008060006101000a81548160ff021916908315150217905550505050565b60086020528160005260406000206020528060005260406000206000915091509054906101000a900460ff1681565b6115e761517c565b606060008060006115f661517c565b6000809054906101000a900460ff16151515611647576040517f08c379a000000000000000000000000000000000000000000000000000000000815260040161163e90616d93565b60405180910390fd5b60016000806101000a81548160ff02191690831515021790555088600081518110151561167057fe5b906020019060200201516101600151945088519350600092505b8383141515611728578489848151811015156116a257fe5b9060200190602002015161016001819052506116c2888760200151613c20565b91506116fd89848151811015156116d557fe5b906020019060200201518389868151811015156116ee57fe5b90602001906020020151612fb9565b9050611709868261305a565b87866020015110151561171b57611728565b828060010193505061168a565b85955060008060006101000a81548160ff02191690831515021790555050505050509392505050565b6060600060606000845192508260405190808252806020026020018201604052801561179757816020015b6117846151fc565b81526020019060019003908161177c5790505b509150600090505b82811415156117f0576117c885828151811015156117b957fe5b906020019060200201516127fd565b82828151811015156117d657fe5b90602001906020020181905250808060010191505061179f565b819350505050919050565b60076020528160005260406000206020528060005260406000206000915091509054906101000a900460ff1681565b600360009054906101000a900473ffffffffffffffffffffffffffffffffffffffff1681565b600080600080600080600080600089511115156118a2576040517f08c379a000000000000000000000000000000000000000000000000000000000815260040161189990616cf3565b60405180910390fd5b6118ab89613c72565b7f0100000000000000000000000000000000000000000000000000000000000000900496506007808111156118dc57fe5b60ff168760ff16101515611925576040517f08c379a000000000000000000000000000000000000000000000000000000000815260040161191c90616b33565b60405180910390fd5b8660ff16600781111561193457fe5b95506000600781111561194357fe5b86600781111561194f57fe5b1415611990576040517f08c379a000000000000000000000000000000000000000000000000000000000815260040161198790616cd3565b60405180910390fd5b6001600781111561199d57fe5b8660078111156119a957fe5b1415611a0157600089511415156119f5576040517f08c379a00000000000000000000000000000000000000000000000000000000081526004016119ec90616e73565b60405180910390fd5b60009750879750611fc1565b60026007811115611a0e57fe5b866007811115611a1a57fe5b1415611b9d5760418951141515611a66576040517f08c379a0000000000000000000000000000000000000000000000000000000008152600401611a5d90616a73565b60405180910390fd5b886000815181101515611a7557fe5b9060200101517f010000000000000000000000000000000000000000000000000000000000000090047f0100000000000000000000000000000000000000000000000000000000000000027f010000000000000000000000000000000000000000000000000000000000000090049450611af960018a613d2990919063ffffffff16565b9350611b0f60218a613d2990919063ffffffff16565b925060018b86868660405160008152602001604052604051611b3494939291906169a6565b60206040516020810390808403906000865af1158015611b58573d6000803e3d6000fd5b5050506020604051035191508173ffffffffffffffffffffffffffffffffffffffff168a73ffffffffffffffffffffffffffffffffffffffff16149750879750611fc1565b60036007811115611baa57fe5b866007811115611bb657fe5b1415611dea5760418951141515611c02576040517f08c379a0000000000000000000000000000000000000000000000000000000008152600401611bf990616a73565b60405180910390fd5b886000815181101515611c1157fe5b9060200101517f010000000000000000000000000000000000000000000000000000000000000090047f0100000000000000000000000000000000000000000000000000000000000000027f010000000000000000000000000000000000000000000000000000000000000090049450611c9560018a613d2990919063ffffffff16565b9350611cab60218a613d2990919063ffffffff16565b925060018b60405160200180807f19457468657265756d205369676e6564204d6573736167653a0a333200000000815250601c0182600019166000191681526020019150506040516020818303038152906040526040518082805190602001908083835b602083101515611d345780518252602082019150602081019050602083039250611d0f565b6001836020036101000a038019825116818451168082178552505050505050905001915050604051809103902086868660405160008152602001604052604051611d8194939291906169a6565b60206040516020810390808403906000865af1158015611da5573d6000803e3d6000fd5b5050506020604051035191508173ffffffffffffffffffffffffffffffffffffffff168a73ffffffffffffffffffffffffffffffffffffffff16149750879750611fc1565b60046007811115611df757fe5b866007811115611e0357fe5b1415611e1e57611e148b8b8b613d89565b9750879750611fc1565b60056007811115611e2b57fe5b866007811115611e3757fe5b1415611ef757611e4689613ee3565b9050600860008b73ffffffffffffffffffffffffffffffffffffffff1673ffffffffffffffffffffffffffffffffffffffff16815260200190815260200160002060008273ffffffffffffffffffffffffffffffffffffffff1673ffffffffffffffffffffffffffffffffffffffff16815260200190815260200160002060009054906101000a900460ff161515611ee15760009750611fc1565b611eed818c8c8c613f4d565b9750879750611fc1565b60066007811115611f0457fe5b866007811115611f1057fe5b1415611f8657600760008c6000191660001916815260200190815260200160002060008b73ffffffffffffffffffffffffffffffffffffffff1673ffffffffffffffffffffffffffffffffffffffff16815260200190815260200160002060009054906101000a900460ff169750879750611fc1565b6040517f08c379a0000000000000000000000000000000000000000000000000000000008152600401611fb890616b33565b60405180910390fd5b505050505050509392505050565b611fd761517c565b6060600080600080611fe761517c565b896000815181101515611ff657fe5b906020019060200201516101400151955089519450600093505b84841415156120f157858a8581518110151561202857fe5b906020019060200201516101400181905250612048898860000151613c20565b925061208b8a8581518110151561205b57fe5b9060200190602002015160a001518b8681518110151561207757fe5b9060200190602002015160800151856140aa565b91506120c68a8581518110151561209e57fe5b90602001906020020151838a878151811015156120b757fe5b90602001906020020151610d47565b90506120d2878261305a565b8887600001511015156120e4576120f1565b8380600101945050612010565b8696505050505050509392505050565b61210961517c565b6000809054906101000a900460ff1615151561215a576040517f08c379a000000000000000000000000000000000000000000000000000000000815260040161215190616d93565b60405180910390fd5b60016000806101000a81548160ff02191690831515021790555061217f848484612fb9565b905080905060008060006101000a81548160ff0219169083151502179055509392505050565b60008073ffffffffffffffffffffffffffffffffffffffff16600a60009054906101000a900473ffffffffffffffffffffffffffffffffffffffff1673ffffffffffffffffffffffffffffffffffffffff16141515612239576040517f08c379a000000000000000000000000000000000000000000000000000000000815260040161223090616d93565b60405180910390fd5b61227e612279888888888080601f01602080910402602001604051908101604052809392919081815260200183838082843782019150505050505061410f565b6142fe565b905060096000826000191660001916815260200190815260200160002060009054906101000a900460ff161515156122eb576040517f08c379a00000000000000000000000000000000000000000000000000000000081526004016122e290616bd3565b60405180910390fd5b3373ffffffffffffffffffffffffffffffffffffffff168673ffffffffffffffffffffffffffffffffffffffff161415156123e05761235d818785858080601f016020809104026020016040519081016040528093929190818152602001838380828437820191505050505050611850565b151561239e576040517f08c379a000000000000000000000000000000000000000000000000000000000815260040161239590616e53565b60405180910390fd5b85600a60006101000a81548173ffffffffffffffffffffffffffffffffffffffff021916908373ffffffffffffffffffffffffffffffffffffffff1602179055505b600160096000836000191660001916815260200190815260200160002060006101000a81548160ff0219169083151502179055503073ffffffffffffffffffffffffffffffffffffffff16858560405180838380828437820191505092505050600060405180830381855af49150501515612490576040517f08c379a000000000000000000000000000000000000000000000000000000000815260040161248790616c33565b60405180910390fd5b3373ffffffffffffffffffffffffffffffffffffffff168673ffffffffffffffffffffffffffffffffffffffff16141515612508576000600a60006101000a81548173ffffffffffffffffffffffffffffffffffffffff021916908373ffffffffffffffffffffffffffffffffffffffff1602179055505b50505050505050565b6000806000600360009054906101000a900473ffffffffffffffffffffffffffffffffffffffff1673ffffffffffffffffffffffffffffffffffffffff163373ffffffffffffffffffffffffffffffffffffffff161415156125a8576040517f08c379a000000000000000000000000000000000000000000000000000000000815260040161259f90616db3565b60405180910390fd5b8392508273ffffffffffffffffffffffffffffffffffffffff1663ae25532e6040518163ffffffff167c0100000000000000000000000000000000000000000000000000000000028152600401602060405180830381600087803b15801561260f57600080fd5b505af1158015612623573d6000803e3d6000fd5b505050506040513d601f19601f820116820180604052506126479190810190615b23565b9150600b6000837bffffffffffffffffffffffffffffffffffffffffffffffffffffffff19167bffffffffffffffffffffffffffffffffffffffffffffffffffffffff1916815260200190815260200160002060009054906101000a900473ffffffffffffffffffffffffffffffffffffffff169050600073ffffffffffffffffffffffffffffffffffffffff168173ffffffffffffffffffffffffffffffffffffffff1614151561272e576040517f08c379a000000000000000000000000000000000000000000000000000000000815260040161272590616af3565b60405180910390fd5b82600b6000847bffffffffffffffffffffffffffffffffffffffffffffffffffffffff19167bffffffffffffffffffffffffffffffffffffffffffffffffffffffff1916815260200190815260200160002060006101000a81548173ffffffffffffffffffffffffffffffffffffffff021916908373ffffffffffffffffffffffffffffffffffffffff1602179055507fd2c6b762299c609bdb96520b58a49bfb80186934d4f71a86a367571a15c0319482856040516127ef9291906169eb565b60405180910390a150505050565b6128056151d4565b61280e82614348565b81602001906000191690816000191681525050600460008260200151600019166000191681526020019081526020016000205481604001818152505060008260800151141561287d576001600681111561286457fe5b816000019060ff16908160ff1681525050809050612a4a565b60008260a0015114156128b0576002600681111561289757fe5b816000019060ff16908160ff1681525050809050612a4a565b8160a0015181604001511015156128e757600560068111156128ce57fe5b816000019060ff16908160ff1681525050809050612a4a565b8161010001514210151561291b576004600681111561290257fe5b816000019060ff16908160ff1681525050809050612a4a565b6005600082602001516000191660001916815260200190815260200160002060009054906101000a900460ff16156129725760068081111561295957fe5b816000019060ff16908160ff1681525050809050612a4a565b81610120015160066000846000015173ffffffffffffffffffffffffffffffffffffffff1673ffffffffffffffffffffffffffffffffffffffff1681526020019081526020016000206000846060015173ffffffffffffffffffffffffffffffffffffffff1673ffffffffffffffffffffffffffffffffffffffff168152602001908152602001600020541115612a2857600680811115612a0f57fe5b816000019060ff16908160ff1681525050809050612a4a565b60036006811115612a3557fe5b816000019060ff16908160ff16815250508090505b919050565b6000809054906101000a900460ff16151515612aa0576040517f08c379a0000000000000000000000000000000000000000000000000000000008152600401612a9790616d93565b60405180910390fd5b60016000806101000a81548160ff021916908315150217905550612ac381613b8a565b60008060006101000a81548160ff02191690831515021790555050565b6006602052816000526040600020602052806000526040600020600091509150505481565b60018054600181600116156101000203166002900480601f016020809104026020016040519081016040528092919081815260200182805460018160011615610100020316600290048015612b9b5780601f10612b7057610100808354040283529160200191612b9b565b820191906000526020600020905b815481529060010190602001808311612b7e57829003601f168201915b505050505081565b612bab61517c565b60606000806000612bba61517c565b886000815181101515612bc957fe5b906020019060200201516101600151945088519350600092505b8383141515612c8157848984815181101515612bfb57fe5b906020019060200201516101600181905250612c1b888760200151613c20565b9150612c568984815181101515612c2e57fe5b90602001906020020151838986815181101515612c4757fe5b90602001906020020151610d47565b9050612c62868261305a565b878660200151101515612c7457612c81565b8280600101935050612be3565b85955050505050509392505050565b60025481565b612c9e61517c565b6060600080600080612cae61517c565b6000809054906101000a900460ff16151515612cff576040517f08c379a0000000000000000000000000000000000000000000000000000000008152600401612cf690616d93565b60405180910390fd5b60016000806101000a81548160ff021916908315150217905550896000815181101515612d2857fe5b906020019060200201516101400151955089519450600093505b8484141515612e2357858a85815181101515612d5a57fe5b906020019060200201516101400181905250612d7a898860000151613c20565b9250612dbd8a85815181101515612d8d57fe5b9060200190602002015160a001518b86815181101515612da957fe5b9060200190602002015160800151856140aa565b9150612df88a85815181101515612dd057fe5b90602001906020020151838a87815181101515612de957fe5b90602001906020020151612fb9565b9050612e04878261305a565b888760000151101515612e1657612e23565b8380600101945050612d42565b86965060008060006101000a81548160ff0219169083151502179055505050505050509392505050565b600a60009054906101000a900473ffffffffffffffffffffffffffffffffffffffff1681565b600360009054906101000a900473ffffffffffffffffffffffffffffffffffffffff1673ffffffffffffffffffffffffffffffffffffffff163373ffffffffffffffffffffffffffffffffffffffff16141515612f05576040517f08c379a0000000000000000000000000000000000000000000000000000000008152600401612efc90616db3565b60405180910390fd5b600073ffffffffffffffffffffffffffffffffffffffff168173ffffffffffffffffffffffffffffffffffffffff16141515612f7d5780600360006101000a81548173ffffffffffffffffffffffffffffffffffffffff021916908373ffffffffffffffffffffffffffffffffffffffff1602179055505b50565b6040805190810160405280600b81526020017f322e302e312d616c70686100000000000000000000000000000000000000000081525081565b612fc161517c565b612fc96151d4565b6000806000612fd7886127fd565b9350612fe16130ca565b9250612fef8885858961313a565b6130018860a001518560400151613c20565b915061300d8783614365565b90506130208885898489600001516135b2565b61302a888261437e565b9450613041888486602001518760400151896136f9565b61304c8884876143f1565b849450505050509392505050565b61306c826000015182600001516144f4565b826000018181525050613087826020015182602001516144f4565b8260200181815250506130a2826040015182604001516144f4565b8260400181815250506130bd826060015182606001516144f4565b8260600181815250505050565b6000806000600a60009054906101000a900473ffffffffffffffffffffffffffffffffffffffff169150600073ffffffffffffffffffffffffffffffffffffffff168273ffffffffffffffffffffffffffffffffffffffff161461312e5781613130565b335b9050809250505090565b6003600681111561314757fe5b60ff16836000015160ff16141515613194576040517f08c379a000000000000000000000000000000000000000000000000000000000815260040161318b90616df3565b60405180910390fd5b600073ffffffffffffffffffffffffffffffffffffffff16846060015173ffffffffffffffffffffffffffffffffffffffff16141515613243573373ffffffffffffffffffffffffffffffffffffffff16846060015173ffffffffffffffffffffffffffffffffffffffff16141515613242576040517f08c379a000000000000000000000000000000000000000000000000000000000815260040161323990616e13565b60405180910390fd5b5b600073ffffffffffffffffffffffffffffffffffffffff16846020015173ffffffffffffffffffffffffffffffffffffffff161415156132f2578173ffffffffffffffffffffffffffffffffffffffff16846020015173ffffffffffffffffffffffffffffffffffffffff161415156132f1576040517f08c379a00000000000000000000000000000000000000000000000000000000081526004016132e890616a93565b60405180910390fd5b5b600083604001511415613354576133128360200151856000015183611850565b1515613353576040517f08c379a000000000000000000000000000000000000000000000000000000000815260040161334a90616b73565b60405180910390fd5b5b50505050565b61336c8260a001518260a0015161454b565b61337e8360800151836080015161454b565b101515156133c1576040517f08c379a00000000000000000000000000000000000000000000000000000000081526004016133b890616e33565b60405180910390fd5b5050565b6133cd6151a5565b6000806000806133e18960a0015188613c20565b93506133f689608001518a60a00151866145bf565b92506134068860a0015187613c20565b915061341b88608001518960a00151846145bf565b9050808410151561348557808560200151600001818152505081856020015160200181815250508460200151600001518560000151602001818152505061347389608001518a60a001518760000151602001516145bf565b856000015160000181815250506134e0565b82856000015160000181815250508385600001516020018181525050846000015160200151856020015160000181815250506134d28860a001518960800151876020015160000151614671565b856020015160200181815250505b6134fa856000015160000151866020015160200151613c20565b85604001818152505061351e8560000151600001518a608001518b60c001516145bf565b856000015160400181815250506135468560000151602001518a60a001518b60e001516145bf565b8560000151606001818152505061356e85602001516000015189608001518a60c001516145bf565b856020015160400181815250506135968560200151602001518960a001518a60e001516145bf565b8560200151606001818152505084945050505050949350505050565b600083141515156135f8576040517f08c379a00000000000000000000000000000000000000000000000000000000081526004016135ef90616c73565b60405180910390fd5b82821115151561363d576040517f08c379a000000000000000000000000000000000000000000000000000000000815260040161363490616c53565b60405180910390fd5b8460a001516136508560400151846144f4565b11151515613693576040517f08c379a000000000000000000000000000000000000000000000000000000000815260040161368a90616ab3565b60405180910390fd5b6136a185608001518361454b565b6136af828760a0015161454b565b111515156136f2576040517f08c379a00000000000000000000000000000000000000000000000000000000081526004016136e990616d73565b60405180910390fd5b5050505050565b6137078282602001516144f4565b600460008560001916600019168152602001908152602001600020819055508260001916856040015173ffffffffffffffffffffffffffffffffffffffff16866000015173ffffffffffffffffffffffffffffffffffffffff167f0bcc4c97732e47d9946f229edb95f5b6323f601300e4690de719993f3c371129873386600001518760200151886040015189606001518e61014001518f61016001516040516137b898979695949392919061680f565b60405180910390a45050505050565b606060018054600181600116156101000203166002900480601f01602080910402602001604051908101604052809291908181526020018280546001816001161561010002031660029004801561385f5780601f106138345761010080835404028352916020019161385f565b820191906000526020600020905b81548152906001019060200180831161384257829003601f168201915b5050505050905061388785610140015186600001518660000151856020015160200151614736565b6138a884610140015185600001518760000151856000015160200151614736565b6138c18561014001518660000151858560400151614736565b6138dd8186600001518760400151856000015160400151614736565b6138f98185600001518660400151856020015160400151614736565b836040015173ffffffffffffffffffffffffffffffffffffffff16856040015173ffffffffffffffffffffffffffffffffffffffff1614156139635761395e818487604001516139598660000151606001518760200151606001516144f4565b614736565b613994565b61397b81848760400151856000015160600151614736565b61399381848660400151856020015160600151614736565b5b5050505050565b606060405190507fb4be83d5000000000000000000000000000000000000000000000000000000006020820152602481018060608101818180896000808784038652602086019550825184526020830151602085015260408301516040850152606083015160608501526080830151608085015260a083015160a085015260c083015160c085015260e083015160e085015261010083015161010085015261012083015161012085015261014083015161014085015261016083015161016085015261018084019350610180830192508484036020600a028601526101408d01519250825191506020830192506020601f830104905081845260208401935060005b81811015613ac05783518552602085019450602084019350600181019050613a9d565b508484036020600b028601526101608d01519250825191506020830192506020601f830104905081845260208401935060005b81811015613b165783518552602085019450602084019350600181019050613af3565b508b865260208601955087840386528a9250825191506020830192506020601f830104905081845260208401935060005b81811015613b6a5783518552602085019450602084019350600181019050613b47565b5060208a0184038a52836040525050505050505050508090509392505050565b613b926151d4565b613b9b826127fd565b9050613ba78282614996565b613bb5828260200151614b24565b5050565b613bc161517c565b613bcc848484612fb9565b9050828160200151141515613c16576040517f08c379a0000000000000000000000000000000000000000000000000000000008152600401613c0d90616d53565b60405180910390fd5b8090509392505050565b6000828211151515613c67576040517f08c379a0000000000000000000000000000000000000000000000000000000008152600401613c5e90616ad3565b60405180910390fd5b818303905092915050565b6000808251111515613cb9576040517f08c379a0000000000000000000000000000000000000000000000000000000008152600401613cb090616cb3565b60405180910390fd5b816001835103815181101515613ccb57fe5b9060200101517f010000000000000000000000000000000000000000000000000000000000000090047f0100000000000000000000000000000000000000000000000000000000000000029050600182510380835250809050919050565b600060208201835110151515613d74576040517f08c379a0000000000000000000000000000000000000000000000000000000008152600401613d6b90616b13565b60405180910390fd5b60208201915081830151905080905092915050565b600060608373ffffffffffffffffffffffffffffffffffffffff16631626ba7e90507c0100000000000000000000000000000000000000000000000000000000028584604051602401613ddd929190616976565b604051602081830303815290604052907bffffffffffffffffffffffffffffffffffffffffffffffffffffffff19166020820180517bffffffffffffffffffffffffffffffffffffffffffffffffffffffff8381831617835250505050905060208101602081835183885afa8060008114613e5f5760018114613ed057613ed5565b7f08c379a0000000000000000000000000000000000000000000000000000000006000527c20000000000000000000000000000000000000000000000000000000006020527c0c57414c4c45545f4552524f5200000000000000000000000000000000604052600060605260646000fd5b825194505b505050819150509392505050565b60006014825110151515613f2c576040517f08c379a0000000000000000000000000000000000000000000000000000000008152600401613f2390616dd3565b60405180910390fd5b613f3a826014845103614bdc565b9050601482510380835250809050919050565b600060608373ffffffffffffffffffffffffffffffffffffffff16639363470290507c010000000000000000000000000000000000000000000000000000000002858585604051602401613fa393929190616938565b604051602081830303815290604052907bffffffffffffffffffffffffffffffffffffffffffffffffffffffff19166020820180517bffffffffffffffffffffffffffffffffffffffffffffffffffffffff83818316178352505050509050602081016020818351838a5afa806000811461402557600181146140965761409b565b7f08c379a0000000000000000000000000000000000000000000000000000000006000527c20000000000000000000000000000000000000000000000000000000006020527c0f56414c494441544f525f4552524f5200000000000000000000000000604052600060605260646000fd5b825194505b50505081915050949350505050565b600080831115156140f0576040517f08c379a00000000000000000000000000000000000000000000000000000000081526004016140e790616b53565b60405180910390fd5b6141036140fd858461454b565b84614c52565b90508090509392505050565b600080600060405160200180807f5a65726f45785472616e73616374696f6e280000000000000000000000000000815250601201807f75696e743235362073616c742c00000000000000000000000000000000000000815250600d01807f61646472657373207369676e6572416464726573732c00000000000000000000815250601601807f6279746573206461746100000000000000000000000000000000000000000000815250600a01807f290000000000000000000000000000000000000000000000000000000000000081525060010190506040516020818303038152906040526040518082805190602001908083835b6020831015156142295780518252602082019150602081019050602083039250614204565b6001836020036101000a03801982511681845116808217855250505050505090500191505060405180910390209150836040518082805190602001908083835b60208310151561428e5780518252602082019150602081019050602083039250614269565b6001836020036101000a0380198251168184511680821785525050505050509050019150506040518091039020905060405182815286602082015273ffffffffffffffffffffffffffffffffffffffff861660408201528160608201526080812093505082925050509392505050565b60008060025490506040517f190100000000000000000000000000000000000000000000000000000000000081528160028201528360228201526042812092505081915050919050565b600061435b61435683614c6d565b6142fe565b9050809050919050565b60008183106143745781614376565b825b905092915050565b61438661517c565b818160200181815250506143a3828460a0015185608001516145bf565b8160000181815250506143c3816000015184608001518560c001516145bf565b8160400181815250506143df828460a001518560e001516145bf565b81606001818152505080905092915050565b606060018054600181600116156101000203166002900480601f0160208091040260200160405190810160405280929190818152602001828054600181600116156101000203166002900480156144895780601f1061445e57610100808354040283529160200191614489565b820191906000526020600020905b81548152906001019060200180831161446c57829003601f168201915b505050505090506144a98461014001518560000151858560000151614736565b6144c28461016001518486600001518560200151614736565b6144da81856000015186604001518560400151614736565b6144ee818486604001518560600151614736565b50505050565b6000808284019050838110151515614541576040517f08c379a000000000000000000000000000000000000000000000000000000000815260040161453890616bb3565b60405180910390fd5b8091505092915050565b600080600084141561456057600091506145b8565b828402905082848281151561457157fe5b041415156145b4576040517f08c379a00000000000000000000000000000000000000000000000000000000081526004016145ab90616bb3565b60405180910390fd5b8091505b5092915050565b60008083111515614605576040517f08c379a00000000000000000000000000000000000000000000000000000000081526004016145fc90616b53565b60405180910390fd5b614610848484615031565b151515614652576040517f08c379a000000000000000000000000000000000000000000000000000000000815260040161464990616c13565b60405180910390fd5b61466561465f858461454b565b84614c52565b90508090509392505050565b600080831115156146b7576040517f08c379a00000000000000000000000000000000000000000000000000000000081526004016146ae90616b53565b60405180910390fd5b6146c28484846150cb565b151515614704576040517f08c379a00000000000000000000000000000000000000000000000000000000081526004016146fb90616c13565b60405180910390fd5b61472a614724614714868561454b565b61471f866001613c20565b6144f4565b84614c52565b90508090509392505050565b60008060008311801561477557508373ffffffffffffffffffffffffffffffffffffffff168573ffffffffffffffffffffffffffffffffffffffff1614155b1561498e57600386511115156147c0576040517f08c379a00000000000000000000000000000000000000000000000000000000081526004016147b790616d33565b60405180910390fd5b7fffffffff000000000000000000000000000000000000000000000000000000006020870151169150600b6000837bffffffffffffffffffffffffffffffffffffffffffffffffffffffff19167bffffffffffffffffffffffffffffffffffffffffffffffffffffffff1916815260200190815260200160002060009054906101000a900473ffffffffffffffffffffffffffffffffffffffff169050600073ffffffffffffffffffffffffffffffffffffffff168173ffffffffffffffffffffffffffffffffffffffff16141515156148cf576040517f08c379a00000000000000000000000000000000000000000000000000000000081526004016148c690616c93565b60405180910390fd5b604051660fffffffffffe0603f885101168060840182017fa85e59e40000000000000000000000000000000000000000000000000000000083526080600484015273ffffffffffffffffffffffffffffffffffffffff8816602484015273ffffffffffffffffffffffffffffffffffffffff87166044840152856064840152608483015b81811015614970578951815260208101905060208a019950614953565b61020084858403866000895af1801515614988573d85fd5b50505050505b505050505050565b6000600360068111156149a557fe5b60ff16826000015160ff161415156149f2576040517f08c379a00000000000000000000000000000000000000000000000000000000081526004016149e990616df3565b60405180910390fd5b600073ffffffffffffffffffffffffffffffffffffffff16836060015173ffffffffffffffffffffffffffffffffffffffff16141515614aa1573373ffffffffffffffffffffffffffffffffffffffff16836060015173ffffffffffffffffffffffffffffffffffffffff16141515614aa0576040517f08c379a0000000000000000000000000000000000000000000000000000000008152600401614a9790616e13565b60405180910390fd5b5b614aa96130ca565b90508073ffffffffffffffffffffffffffffffffffffffff16836000015173ffffffffffffffffffffffffffffffffffffffff16141515614b1f576040517f08c379a0000000000000000000000000000000000000000000000000000000008152600401614b1690616b93565b60405180910390fd5b505050565b600160056000836000191660001916815260200190815260200160002060006101000a81548160ff0219169083151502179055508060001916826040015173ffffffffffffffffffffffffffffffffffffffff16836000015173ffffffffffffffffffffffffffffffffffffffff167fdc47b3613d9fe400085f6dbdc99453462279057e6207385042827ed6b1a62cf733866101400151876101600151604051614bd09392919061689b565b60405180910390a45050565b600060148201835110151515614c27576040517f08c379a0000000000000000000000000000000000000000000000000000000008152600401614c1e90616dd3565b60405180910390fd5b60148201915073ffffffffffffffffffffffffffffffffffffffff8284015116905080905092915050565b6000808284811515614c6057fe5b0490508091505092915050565b60008060008060405160200180807f4f72646572280000000000000000000000000000000000000000000000000000815250600601807f61646472657373206d616b6572416464726573732c0000000000000000000000815250601501807f616464726573732074616b6572416464726573732c0000000000000000000000815250601501807f6164647265737320666565526563697069656e74416464726573732c00000000815250601c01807f616464726573732073656e646572416464726573732c00000000000000000000815250601601807f75696e74323536206d616b65724173736574416d6f756e742c00000000000000815250601901807f75696e743235362074616b65724173736574416d6f756e742c00000000000000815250601901807f75696e74323536206d616b65724665652c000000000000000000000000000000815250601101807f75696e743235362074616b65724665652c000000000000000000000000000000815250601101807f75696e743235362065787069726174696f6e54696d655365636f6e64732c0000815250601e01807f75696e743235362073616c742c00000000000000000000000000000000000000815250600d01807f6279746573206d616b65724173736574446174612c0000000000000000000000815250601501807f62797465732074616b6572417373657444617461000000000000000000000000815250601401807f290000000000000000000000000000000000000000000000000000000000000081525060010190506040516020818303038152906040526040518082805190602001908083835b602083101515614ef05780518252602082019150602081019050602083039250614ecb565b6001836020036101000a038019825116818451168082178552505050505050905001915050604051809103902092508461014001516040518082805190602001908083835b602083101515614f5a5780518252602082019150602081019050602083039250614f35565b6001836020036101000a038019825116818451168082178552505050505050905001915050604051809103902091508461016001516040518082805190602001908083835b602083101515614fc45780518252602082019150602081019050602083039250614f9f565b6001836020036101000a0380198251168184511680821785525050505050509050019150506040518091039020905060208503610140860161016087018251825182518886528785528684526101a086209950828652818552808452505050505050839350505050919050565b600080600084111515615079576040517f08c379a000000000000000000000000000000000000000000000000000000000815260040161507090616b53565b60405180910390fd5b60008314806150885750600085145b1561509657600091506150c3565b838015156150a057fe5b85840990506150af858461454b565b6150bb6103e88361454b565b101591508191505b509392505050565b600080600084111515615113576040517f08c379a000000000000000000000000000000000000000000000000000000000815260040161510a90616b53565b60405180910390fd5b60008314806151225750600085145b156151305760009150615174565b8380151561513a57fe5b85840990508361514a8583613c20565b81151561515357fe5b069050615160858461454b565b61516c6103e88361454b565b101591508191505b509392505050565b608060405190810160405280600081526020016000815260200160008152602001600081525090565b610120604051908101604052806151ba615224565b81526020016151c7615224565b8152602001600081525090565b606060405190810160405280600060ff16815260200160008019168152602001600081525090565b606060405190810160405280600060ff16815260200160008019168152602001600081525090565b608060405190810160405280600081526020016000815260200160008152602001600081525090565b600061525982356170bc565b905092915050565b600082601f830112151561527457600080fd5b813561528761528282616f2d565b616f00565b9150818183526020840193506020810190508360005b838110156152cd57813586016152b3888261546e565b84526020840193506020830192505060018101905061529d565b5050505092915050565b600082601f83011215156152ea57600080fd5b81356152fd6152f882616f55565b616f00565b9150818183526020840193506020810190508360005b838110156153435781358601615329888261551a565b845260208401935060208301925050600181019050615313565b5050505092915050565b600082601f830112151561536057600080fd5b813561537361536e82616f7d565b616f00565b9150818183526020840193506020810190508385602084028201111561539857600080fd5b60005b838110156153c857816153ae88826157b6565b84526020840193506020830192505060018101905061539b565b5050505092915050565b60006153de82356170dc565b905092915050565b60006153f282356170e8565b905092915050565b600061540682356170f2565b905092915050565b600061541a82516170f2565b905092915050565b60008083601f840112151561543657600080fd5b8235905067ffffffffffffffff81111561544f57600080fd5b60208301915083600182028301111561546757600080fd5b9250929050565b600082601f830112151561548157600080fd5b813561549461548f82616fa5565b616f00565b915080825260208301602083018583830111156154b057600080fd5b6154bb83828461713a565b50505092915050565b600082601f83011215156154d757600080fd5b81356154ea6154e582616fd1565b616f00565b9150808252602083016020830185838301111561550657600080fd5b61551183828461713a565b50505092915050565b6000610180828403121561552d57600080fd5b615538610180616f00565b905060006155488482850161524d565b600083015250602061555c8482850161524d565b60208301525060406155708482850161524d565b60408301525060606155848482850161524d565b6060830152506080615598848285016157b6565b60808301525060a06155ac848285016157b6565b60a08301525060c06155c0848285016157b6565b60c08301525060e06155d4848285016157b6565b60e0830152506101006155e9848285016157b6565b610100830152506101206155ff848285016157b6565b6101208301525061014082013567ffffffffffffffff81111561562157600080fd5b61562d8482850161546e565b6101408301525061016082013567ffffffffffffffff81111561564f57600080fd5b61565b8482850161546e565b6101608301525092915050565b6000610180828403121561567b57600080fd5b615686610180616f00565b905060006156968482850161524d565b60008301525060206156aa8482850161524d565b60208301525060406156be8482850161524d565b60408301525060606156d28482850161524d565b60608301525060806156e6848285016157b6565b60808301525060a06156fa848285016157b6565b60a08301525060c061570e848285016157b6565b60c08301525060e0615722848285016157b6565b60e083015250610100615737848285016157b6565b6101008301525061012061574d848285016157b6565b6101208301525061014082013567ffffffffffffffff81111561576f57600080fd5b61577b8482850161546e565b6101408301525061016082013567ffffffffffffffff81111561579d57600080fd5b6157a98482850161546e565b6101608301525092915050565b60006157c2823561711e565b905092915050565b6000602082840312156157dc57600080fd5b60006157ea8482850161524d565b91505092915050565b6000806040838503121561580657600080fd5b60006158148582860161524d565b92505060206158258582860161524d565b9150509250929050565b6000806040838503121561584257600080fd5b60006158508582860161524d565b9250506020615861858286016153d2565b9150509250929050565b60006020828403121561587d57600080fd5b600082013567ffffffffffffffff81111561589757600080fd5b6158a3848285016152d7565b91505092915050565b6000806000606084860312156158c157600080fd5b600084013567ffffffffffffffff8111156158db57600080fd5b6158e7868287016152d7565b935050602084013567ffffffffffffffff81111561590457600080fd5b6159108682870161534d565b925050604084013567ffffffffffffffff81111561592d57600080fd5b61593986828701615261565b9150509250925092565b60008060006060848603121561595857600080fd5b600084013567ffffffffffffffff81111561597257600080fd5b61597e868287016152d7565b935050602061598f868287016157b6565b925050604084013567ffffffffffffffff8111156159ac57600080fd5b6159b886828701615261565b9150509250925092565b6000602082840312156159d457600080fd5b60006159e2848285016153e6565b91505092915050565b600080604083850312156159fe57600080fd5b6000615a0c858286016153e6565b9250506020615a1d8582860161524d565b9150509250929050565b60008060008060608587031215615a3d57600080fd5b6000615a4b878288016153e6565b9450506020615a5c8782880161524d565b935050604085013567ffffffffffffffff811115615a7957600080fd5b615a8587828801615422565b925092505092959194509250565b600080600060608486031215615aa857600080fd5b6000615ab6868287016153e6565b9350506020615ac78682870161524d565b925050604084013567ffffffffffffffff811115615ae457600080fd5b615af0868287016154c4565b9150509250925092565b600060208284031215615b0c57600080fd5b6000615b1a848285016153fa565b91505092915050565b600060208284031215615b3557600080fd5b6000615b438482850161540e565b91505092915050565b600060208284031215615b5e57600080fd5b600082013567ffffffffffffffff811115615b7857600080fd5b615b8484828501615668565b91505092915050565b60008060008060808587031215615ba357600080fd5b600085013567ffffffffffffffff811115615bbd57600080fd5b615bc987828801615668565b945050602085013567ffffffffffffffff811115615be657600080fd5b615bf287828801615668565b935050604085013567ffffffffffffffff811115615c0f57600080fd5b615c1b878288016154c4565b925050606085013567ffffffffffffffff811115615c3857600080fd5b615c44878288016154c4565b91505092959194509250565b600080600060608486031215615c6557600080fd5b600084013567ffffffffffffffff811115615c7f57600080fd5b615c8b86828701615668565b9350506020615c9c868287016157b6565b925050604084013567ffffffffffffffff811115615cb957600080fd5b615cc5868287016154c4565b9150509250925092565b600060208284031215615ce157600080fd5b6000615cef848285016157b6565b91505092915050565b60008060008060008060808789031215615d1157600080fd5b6000615d1f89828a016157b6565b9650506020615d3089828a0161524d565b955050604087013567ffffffffffffffff811115615d4d57600080fd5b615d5989828a01615422565b9450945050606087013567ffffffffffffffff811115615d7857600080fd5b615d8489828a01615422565b92509250509295509295509295565b615d9c81617043565b82525050565b6000615dad8261700a565b808452602084019350615dbf83616ffd565b60005b82811015615df157615dd5868351616794565b615dde82617036565b9150606086019550600181019050615dc2565b50849250505092915050565b615e0681617063565b82525050565b615e158161706f565b82525050565b615e2481617079565b82525050565b6000615e3582617020565b808452615e49816020860160208601617149565b615e528161717c565b602085010191505092915050565b6000615e6b82617015565b808452615e7f816020860160208601617149565b615e888161717c565b602085010191505092915050565b615e9f81617128565b82525050565b6000615eb08261702b565b808452615ec4816020860160208601617149565b615ecd8161717c565b602085010191505092915050565b6000601282527f4c454e4754485f36355f524551554952454400000000000000000000000000006020830152604082019050919050565b6000600d82527f494e56414c49445f54414b4552000000000000000000000000000000000000006020830152604082019050919050565b6000600e82527f4f524445525f4f56455246494c4c0000000000000000000000000000000000006020830152604082019050919050565b6000601182527f55494e543235365f554e444552464c4f570000000000000000000000000000006020830152604082019050919050565b6000601a82527f41535345545f50524f58595f414c52454144595f4558495354530000000000006020830152604082019050919050565b6000602682527f475245415445525f4f525f455155414c5f544f5f33325f4c454e4754485f524560208301527f51554952454400000000000000000000000000000000000000000000000000006040830152606082019050919050565b6000601582527f5349474e41545552455f554e535550504f5254454400000000000000000000006020830152604082019050919050565b6000601082527f4449564953494f4e5f42595f5a45524f000000000000000000000000000000006020830152604082019050919050565b6000601782527f494e56414c49445f4f524445525f5349474e41545552450000000000000000006020830152604082019050919050565b6000600d82527f494e56414c49445f4d414b4552000000000000000000000000000000000000006020830152604082019050919050565b6000601082527f55494e543235365f4f564552464c4f57000000000000000000000000000000006020830152604082019050919050565b6000600f82527f494e56414c49445f54585f4841534800000000000000000000000000000000006020830152604082019050919050565b6000601182527f494e56414c49445f5349474e41545552450000000000000000000000000000006020830152604082019050919050565b6000600e82527f524f554e44494e475f4552524f520000000000000000000000000000000000006020830152604082019050919050565b6000601082527f4641494c45445f455845435554494f4e000000000000000000000000000000006020830152604082019050919050565b6000600d82527f54414b45525f4f564552504159000000000000000000000000000000000000006020830152604082019050919050565b6000601482527f494e56414c49445f54414b45525f414d4f554e540000000000000000000000006020830152604082019050919050565b6000601a82527f41535345545f50524f58595f444f45535f4e4f545f45584953540000000000006020830152604082019050919050565b6000602182527f475245415445525f5448414e5f5a45524f5f4c454e4754485f5245515549524560208301527f44000000000000000000000000000000000000000000000000000000000000006040830152606082019050919050565b6000601182527f5349474e41545552455f494c4c4547414c0000000000000000000000000000006020830152604082019050919050565b6000601e82527f4c454e4754485f475245415445525f5448414e5f305f524551554952454400006020830152604082019050919050565b6000601782527f494e56414c49445f4e45575f4f524445525f45504f43480000000000000000006020830152604082019050919050565b6000601e82527f4c454e4754485f475245415445525f5448414e5f335f524551554952454400006020830152604082019050919050565b6000601482527f434f4d504c4554455f46494c4c5f4641494c45440000000000000000000000006020830152604082019050919050565b6000601282527f494e56414c49445f46494c4c5f505249434500000000000000000000000000006020830152604082019050919050565b6000601282527f5245454e5452414e43595f494c4c4547414c00000000000000000000000000006020830152604082019050919050565b6000601382527f4f4e4c595f434f4e54524143545f4f574e4552000000000000000000000000006020830152604082019050919050565b6000602682527f475245415445525f4f525f455155414c5f544f5f32305f4c454e4754485f524560208301527f51554952454400000000000000000000000000000000000000000000000000006040830152606082019050919050565b6000601082527f4f524445525f554e46494c4c41424c45000000000000000000000000000000006020830152604082019050919050565b6000600e82527f494e56414c49445f53454e4445520000000000000000000000000000000000006020830152604082019050919050565b6000601882527f4e454741544956455f5350524541445f524551554952454400000000000000006020830152604082019050919050565b6000601482527f494e56414c49445f54585f5349474e41545552450000000000000000000000006020830152604082019050919050565b6000601182527f4c454e4754485f305f52455155495245440000000000000000000000000000006020830152604082019050919050565b60808201600082015161667a60008501826167d6565b50602082015161668d60208501826167d6565b5060408201516166a060408501826167d6565b5060608201516166b360608501826167d6565b50505050565b6080820160008201516166cf60008501826167d6565b5060208201516166e260208501826167d6565b5060408201516166f560408501826167d6565b50606082015161670860608501826167d6565b50505050565b6101208201600082015161672560008501826166b9565b50602082015161673860808501826166b9565b50604082015161674c6101008501826167d6565b50505050565b60608201600082015161676860008501826167e5565b50602082015161677b6020850182615e0c565b50604082015161678e60408501826167d6565b50505050565b6060820160008201516167aa60008501826167e5565b5060208201516167bd6020850182615e0c565b5060408201516167d060408501826167d6565b50505050565b6167df816170a5565b82525050565b6167ee816170af565b82525050565b60006020820190506168096000830184615d93565b92915050565b600061010082019050616825600083018b615d93565b616832602083018a615d93565b61683f60408301896167d6565b61684c60608301886167d6565b61685960808301876167d6565b61686660a08301866167d6565b81810360c08301526168788185615e60565b905081810360e083015261688c8184615e60565b90509998505050505050505050565b60006060820190506168b06000830186615d93565b81810360208301526168c28185615e60565b905081810360408301526168d68184615e60565b9050949350505050565b600060208201905081810360008301526168fa8184615da2565b905092915050565b60006020820190506169176000830184615dfd565b92915050565b60006020820190506169326000830184615e0c565b92915050565b600060608201905061694d6000830186615e0c565b61695a6020830185615d93565b818103604083015261696c8184615e2a565b9050949350505050565b600060408201905061698b6000830185615e0c565b818103602083015261699d8184615e2a565b90509392505050565b60006080820190506169bb6000830187615e0c565b6169c860208301866167e5565b6169d56040830185615e0c565b6169e26060830184615e0c565b95945050505050565b6000604082019050616a006000830185615e1b565b616a0d6020830184615d93565b9392505050565b60006020820190508181036000830152616a2e8184615e60565b905092915050565b6000602082019050616a4b6000830184615e96565b92915050565b60006020820190508181036000830152616a6b8184615ea5565b905092915050565b60006020820190508181036000830152616a8c81615edb565b9050919050565b60006020820190508181036000830152616aac81615f12565b9050919050565b60006020820190508181036000830152616acc81615f49565b9050919050565b60006020820190508181036000830152616aec81615f80565b9050919050565b60006020820190508181036000830152616b0c81615fb7565b9050919050565b60006020820190508181036000830152616b2c81615fee565b9050919050565b60006020820190508181036000830152616b4c8161604b565b9050919050565b60006020820190508181036000830152616b6c81616082565b9050919050565b60006020820190508181036000830152616b8c816160b9565b9050919050565b60006020820190508181036000830152616bac816160f0565b9050919050565b60006020820190508181036000830152616bcc81616127565b9050919050565b60006020820190508181036000830152616bec8161615e565b9050919050565b60006020820190508181036000830152616c0c81616195565b9050919050565b60006020820190508181036000830152616c2c816161cc565b9050919050565b60006020820190508181036000830152616c4c81616203565b9050919050565b60006020820190508181036000830152616c6c8161623a565b9050919050565b60006020820190508181036000830152616c8c81616271565b9050919050565b60006020820190508181036000830152616cac816162a8565b9050919050565b60006020820190508181036000830152616ccc816162df565b9050919050565b60006020820190508181036000830152616cec8161633c565b9050919050565b60006020820190508181036000830152616d0c81616373565b9050919050565b60006020820190508181036000830152616d2c816163aa565b9050919050565b60006020820190508181036000830152616d4c816163e1565b9050919050565b60006020820190508181036000830152616d6c81616418565b9050919050565b60006020820190508181036000830152616d8c8161644f565b9050919050565b60006020820190508181036000830152616dac81616486565b9050919050565b60006020820190508181036000830152616dcc816164bd565b9050919050565b60006020820190508181036000830152616dec816164f4565b9050919050565b60006020820190508181036000830152616e0c81616551565b9050919050565b60006020820190508181036000830152616e2c81616588565b9050919050565b60006020820190508181036000830152616e4c816165bf565b9050919050565b60006020820190508181036000830152616e6c816165f6565b9050919050565b60006020820190508181036000830152616e8c8161662d565b9050919050565b6000608082019050616ea86000830184616664565b92915050565b600061012082019050616ec4600083018461670e565b92915050565b6000606082019050616edf6000830184616752565b92915050565b6000602082019050616efa60008301846167d6565b92915050565b6000604051905081810181811067ffffffffffffffff82111715616f2357600080fd5b8060405250919050565b600067ffffffffffffffff821115616f4457600080fd5b602082029050602081019050919050565b600067ffffffffffffffff821115616f6c57600080fd5b602082029050602081019050919050565b600067ffffffffffffffff821115616f9457600080fd5b602082029050602081019050919050565b600067ffffffffffffffff821115616fbc57600080fd5b601f19601f8301169050602081019050919050565b600067ffffffffffffffff821115616fe857600080fd5b601f19601f8301169050602081019050919050565b6000602082019050919050565b600081519050919050565b600081519050919050565b600081519050919050565b600081519050919050565b6000602082019050919050565b600073ffffffffffffffffffffffffffffffffffffffff82169050919050565b60008115159050919050565b6000819050919050565b60007fffffffff0000000000000000000000000000000000000000000000000000000082169050919050565b6000819050919050565b600060ff82169050919050565b600073ffffffffffffffffffffffffffffffffffffffff82169050919050565b60008115159050919050565b6000819050919050565b60007fffffffff0000000000000000000000000000000000000000000000000000000082169050919050565b6000819050919050565b600061713382617043565b9050919050565b82818337600083830152505050565b60005b8381101561716757808201518184015260208101905061714c565b83811115617176576000848401525b50505050565b6000601f19601f83011690509190505600a265627a7a72305820361b046a6a4507c681c3a7511df8cb10ab3bf56e64a9388eaceb58d16dfee5146c6578706572696d656e74616cf50037",
  "source": "/*\n\n  Copyright 2018 ZeroEx Intl.\n\n  Licensed under the Apache License, Version 2.0 (the \"License\");\n  you may not use this file except in compliance with the License.\n  You may obtain a copy of the License at\n\n    http://www.apache.org/licenses/LICENSE-2.0\n\n  Unless required by applicable law or agreed to in writing, software\n  distributed under the License is distributed on an \"AS IS\" BASIS,\n  WITHOUT WARRANTIES OR CONDITIONS OF ANY KIND, either express or implied.\n  See the License for the specific language governing permissions and\n  limitations under the License.\n\n*/\n\npragma solidity 0.4.24;\npragma experimental ABIEncoderV2;\n\nimport \"../../../../libs/contracts/libs/LibConstants.sol\";\nimport \"./MixinExchangeCore.sol\";\nimport \"./MixinSignatureValidator.sol\";\nimport \"./MixinWrapperFunctions.sol\";\nimport \"./MixinAssetProxyDispatcher.sol\";\nimport \"./MixinTransactions.sol\";\nimport \"./MixinMatchOrders.sol\";\n\n\n// solhint-disable no-empty-blocks\ncontract Exchange is\n    MixinExchangeCore,\n    MixinMatchOrders,\n    MixinSignatureValidator,\n    MixinTransactions,\n    MixinAssetProxyDispatcher,\n    MixinWrapperFunctions\n{\n    string constant public VERSION = \"2.0.1-alpha\";\n\n    // Mixins are instantiated in the order they are inherited\n    constructor (bytes memory _zrxAssetData)\n        public\n        LibConstants(_zrxAssetData) // @TODO: Remove when we deploy.\n        MixinExchangeCore()\n        MixinMatchOrders()\n        MixinSignatureValidator()\n        MixinTransactions()\n        MixinAssetProxyDispatcher()\n        MixinWrapperFunctions()\n    {}\n}\n",
  "sourcePath": "/Users/lawrenceballou/Desktop/BlockNerds/Clients/AltcoinIo/filter-contract/contracts/protocol/contracts/protocol/Exchange/Exchange.sol",
  "compiler": {
    "name": "solc",
    "version": "0.4.24+commit.e67f0147.Emscripten.clang"
  },
  "schemaVersion": "3.0.0",
  "updatedAt": "2018-12-28T17:39:10.972Z",
  "devdoc": {
    "methods": {
      "batchCancelOrders((address,address,address,address,uint256,uint256,uint256,uint256,uint256,uint256,bytes,bytes)[])": {
        "details": "Synchronously cancels multiple orders in a single transaction.",
        "params": {
          "orders": "Array of order specifications."
        }
      },
      "batchFillOrKillOrders((address,address,address,address,uint256,uint256,uint256,uint256,uint256,uint256,bytes,bytes)[],uint256[],bytes[])": {
        "details": "Synchronously executes multiple calls of fillOrKill.",
        "params": {
          "orders": "Array of order specifications.",
          "signatures": "Proofs that orders have been created by makers.",
          "takerAssetFillAmounts": "Array of desired amounts of takerAsset to sell in orders."
        },
        "return": "Amounts filled and fees paid by makers and taker.         NOTE: makerAssetFilledAmount and takerAssetFilledAmount may include amounts filled of different assets."
      },
      "batchFillOrders((address,address,address,address,uint256,uint256,uint256,uint256,uint256,uint256,bytes,bytes)[],uint256[],bytes[])": {
        "details": "Synchronously executes multiple calls of fillOrder.",
        "params": {
          "orders": "Array of order specifications.",
          "signatures": "Proofs that orders have been created by makers.",
          "takerAssetFillAmounts": "Array of desired amounts of takerAsset to sell in orders."
        },
        "return": "Amounts filled and fees paid by makers and taker.         NOTE: makerAssetFilledAmount and takerAssetFilledAmount may include amounts filled of different assets."
      },
      "batchFillOrdersNoThrow((address,address,address,address,uint256,uint256,uint256,uint256,uint256,uint256,bytes,bytes)[],uint256[],bytes[])": {
        "details": "Fills an order with specified parameters and ECDSA signature.      Returns false if the transaction would otherwise revert.",
        "params": {
          "orders": "Array of order specifications.",
          "signatures": "Proofs that orders have been created by makers.",
          "takerAssetFillAmounts": "Array of desired amounts of takerAsset to sell in orders."
        },
        "return": "Amounts filled and fees paid by makers and taker.         NOTE: makerAssetFilledAmount and takerAssetFilledAmount may include amounts filled of different assets."
      },
      "cancelOrder((address,address,address,address,uint256,uint256,uint256,uint256,uint256,uint256,bytes,bytes))": {
        "details": "After calling, the order can not be filled anymore.      Throws if order is invalid or sender does not have permission to cancel.",
        "params": {
          "order": "Order to cancel. Order must be OrderStatus.FILLABLE."
        }
      },
      "cancelOrdersUpTo(uint256)": {
        "details": "Cancels all orders created by makerAddress with a salt less than or equal to the targetOrderEpoch      and senderAddress equal to msg.sender (or null address if msg.sender == makerAddress).",
        "params": {
          "targetOrderEpoch": "Orders created with a salt less or equal to this value will be cancelled."
        }
      },
      "executeTransaction(uint256,address,bytes,bytes)": {
        "details": "Executes an exchange method call in the context of signer.",
        "params": {
          "data": "AbiV2 encoded calldata.",
          "salt": "Arbitrary number to ensure uniqueness of transaction hash.",
          "signature": "Proof of signer transaction by signer.",
          "signerAddress": "Address of transaction signer."
        }
      },
      "fillOrKillOrder((address,address,address,address,uint256,uint256,uint256,uint256,uint256,uint256,bytes,bytes),uint256,bytes)": {
        "details": "Fills the input order. Reverts if exact takerAssetFillAmount not filled.",
        "params": {
          "order": "Order struct containing order specifications.",
          "signature": "Proof that order has been created by maker.",
          "takerAssetFillAmount": "Desired amount of takerAsset to sell."
        }
      },
      "fillOrder((address,address,address,address,uint256,uint256,uint256,uint256,uint256,uint256,bytes,bytes),uint256,bytes)": {
        "details": "Fills the input order.",
        "params": {
          "order": "Order struct containing order specifications.",
          "signature": "Proof that order has been created by maker.",
          "takerAssetFillAmount": "Desired amount of takerAsset to sell."
        },
        "return": "Amounts filled and fees paid by maker and taker."
      },
      "fillOrderNoThrow((address,address,address,address,uint256,uint256,uint256,uint256,uint256,uint256,bytes,bytes),uint256,bytes)": {
        "details": "Fills the input order.      Returns false if the transaction would otherwise revert.",
        "params": {
          "order": "Order struct containing order specifications.",
          "signature": "Proof that order has been created by maker.",
          "takerAssetFillAmount": "Desired amount of takerAsset to sell."
        },
        "return": "Amounts filled and fees paid by maker and taker."
      },
      "getAssetProxy(bytes4)": {
        "details": "Gets an asset proxy.",
        "params": {
          "assetProxyId": "Id of the asset proxy."
        },
        "return": "The asset proxy registered to assetProxyId. Returns 0x0 if no proxy is registered."
      },
      "getOrderInfo((address,address,address,address,uint256,uint256,uint256,uint256,uint256,uint256,bytes,bytes))": {
        "details": "Gets information about an order: status, hash, and amount filled.",
        "params": {
          "order": "Order to gather information on."
        },
        "return": "OrderInfo Information about the order and its state.         See LibOrder.OrderInfo for a complete description."
      },
      "getOrdersInfo((address,address,address,address,uint256,uint256,uint256,uint256,uint256,uint256,bytes,bytes)[])": {
        "details": "Fetches information for all passed in orders.",
        "params": {
          "orders": "Array of order specifications."
        },
        "return": "Array of OrderInfo instances that correspond to each order."
      },
      "isValidSignature(bytes32,address,bytes)": {
        "details": "Verifies that a hash has been signed by the given signer.",
        "params": {
          "hash": "Any 32 byte hash.",
          "signature": "Proof that the hash has been signed by signer.",
          "signerAddress": "Address that should have signed the given hash."
        },
        "return": "True if the address recovered from the provided signature matches the input signer address."
      },
      "marketBuyOrders((address,address,address,address,uint256,uint256,uint256,uint256,uint256,uint256,bytes,bytes)[],uint256,bytes[])": {
        "details": "Synchronously executes multiple calls of fillOrder until total amount of makerAsset is bought by taker.",
        "params": {
          "makerAssetFillAmount": "Desired amount of makerAsset to buy.",
          "orders": "Array of order specifications.",
          "signatures": "Proofs that orders have been signed by makers."
        },
        "return": "Amounts filled and fees paid by makers and taker."
      },
      "marketBuyOrdersNoThrow((address,address,address,address,uint256,uint256,uint256,uint256,uint256,uint256,bytes,bytes)[],uint256,bytes[])": {
        "details": "Synchronously executes multiple fill orders in a single transaction until total amount is bought by taker.      Returns false if the transaction would otherwise revert.",
        "params": {
          "makerAssetFillAmount": "Desired amount of makerAsset to buy.",
          "orders": "Array of order specifications.",
          "signatures": "Proofs that orders have been signed by makers."
        },
        "return": "Amounts filled and fees paid by makers and taker."
      },
      "marketSellOrders((address,address,address,address,uint256,uint256,uint256,uint256,uint256,uint256,bytes,bytes)[],uint256,bytes[])": {
        "details": "Synchronously executes multiple calls of fillOrder until total amount of takerAsset is sold by taker.",
        "params": {
          "orders": "Array of order specifications.",
          "signatures": "Proofs that orders have been created by makers.",
          "takerAssetFillAmount": "Desired amount of takerAsset to sell."
        },
        "return": "Amounts filled and fees paid by makers and taker."
      },
      "marketSellOrdersNoThrow((address,address,address,address,uint256,uint256,uint256,uint256,uint256,uint256,bytes,bytes)[],uint256,bytes[])": {
        "details": "Synchronously executes multiple calls of fillOrder until total amount of takerAsset is sold by taker.      Returns false if the transaction would otherwise revert.",
        "params": {
          "orders": "Array of order specifications.",
          "signatures": "Proofs that orders have been signed by makers.",
          "takerAssetFillAmount": "Desired amount of takerAsset to sell."
        },
        "return": "Amounts filled and fees paid by makers and taker."
      },
      "matchOrders((address,address,address,address,uint256,uint256,uint256,uint256,uint256,uint256,bytes,bytes),(address,address,address,address,uint256,uint256,uint256,uint256,uint256,uint256,bytes,bytes),bytes,bytes)": {
        "details": "Match two complementary orders that have a profitable spread.      Each order is filled at their respective price point. However, the calculations are      carried out as though the orders are both being filled at the right order's price point.      The profit made by the left order goes to the taker (who matched the two orders).",
        "params": {
          "leftOrder": "First order to match.",
          "leftSignature": "Proof that order was created by the left maker.",
          "rightOrder": "Second order to match.",
          "rightSignature": "Proof that order was created by the right maker."
        },
        "return": "matchedFillResults Amounts filled and fees paid by maker and taker of matched orders."
      },
      "preSign(bytes32,address,bytes)": {
        "details": "Approves a hash on-chain using any valid signature type.      After presigning a hash, the preSign signature type will become valid for that hash and signer.",
        "params": {
          "signature": "Proof that the hash has been signed by signer.",
          "signerAddress": "Address that should have signed the given hash."
        }
      },
      "registerAssetProxy(address)": {
        "details": "Registers an asset proxy to its asset proxy id.      Once an asset proxy is registered, it cannot be unregistered.",
        "params": {
          "assetProxy": "Address of new asset proxy to register."
        }
      },
      "setSignatureValidatorApproval(address,bool)": {
        "details": "Approves/unnapproves a Validator contract to verify signatures on signer's behalf.",
        "params": {
          "approval": "Approval or disapproval of  Validator contract.",
          "validatorAddress": "Address of Validator contract."
        }
      }
    }
  },
  "userdoc": {
    "methods": {}
  }
}