{
  "contractName": "Forwarder",
  "abi": [
    {
      "constant": false,
      "inputs": [
        {
          "components": [
            {
              "name": "makerAddress",
              "type": "address"
            },
            {
              "name": "takerAddress",
              "type": "address"
            },
            {
              "name": "feeRecipientAddress",
              "type": "address"
            },
            {
              "name": "senderAddress",
              "type": "address"
            },
            {
              "name": "makerAssetAmount",
              "type": "uint256"
            },
            {
              "name": "takerAssetAmount",
              "type": "uint256"
            },
            {
              "name": "makerFee",
              "type": "uint256"
            },
            {
              "name": "takerFee",
              "type": "uint256"
            },
            {
              "name": "expirationTimeSeconds",
              "type": "uint256"
            },
            {
              "name": "salt",
              "type": "uint256"
            },
            {
              "name": "makerAssetData",
              "type": "bytes"
            },
            {
              "name": "takerAssetData",
              "type": "bytes"
            }
          ],
          "name": "orders",
          "type": "tuple[]"
        },
        {
          "name": "makerAssetFillAmount",
          "type": "uint256"
        },
        {
          "name": "signatures",
          "type": "bytes[]"
        },
        {
          "components": [
            {
              "name": "makerAddress",
              "type": "address"
            },
            {
              "name": "takerAddress",
              "type": "address"
            },
            {
              "name": "feeRecipientAddress",
              "type": "address"
            },
            {
              "name": "senderAddress",
              "type": "address"
            },
            {
              "name": "makerAssetAmount",
              "type": "uint256"
            },
            {
              "name": "takerAssetAmount",
              "type": "uint256"
            },
            {
              "name": "makerFee",
              "type": "uint256"
            },
            {
              "name": "takerFee",
              "type": "uint256"
            },
            {
              "name": "expirationTimeSeconds",
              "type": "uint256"
            },
            {
              "name": "salt",
              "type": "uint256"
            },
            {
              "name": "makerAssetData",
              "type": "bytes"
            },
            {
              "name": "takerAssetData",
              "type": "bytes"
            }
          ],
          "name": "feeOrders",
          "type": "tuple[]"
        },
        {
          "name": "feeSignatures",
          "type": "bytes[]"
        },
        {
          "name": "feePercentage",
          "type": "uint256"
        },
        {
          "name": "feeRecipient",
          "type": "address"
        }
      ],
      "name": "marketBuyOrdersWithEth",
      "outputs": [
        {
          "components": [
            {
              "name": "makerAssetFilledAmount",
              "type": "uint256"
            },
            {
              "name": "takerAssetFilledAmount",
              "type": "uint256"
            },
            {
              "name": "makerFeePaid",
              "type": "uint256"
            },
            {
              "name": "takerFeePaid",
              "type": "uint256"
            }
          ],
          "name": "orderFillResults",
          "type": "tuple"
        },
        {
          "components": [
            {
              "name": "makerAssetFilledAmount",
              "type": "uint256"
            },
            {
              "name": "takerAssetFilledAmount",
              "type": "uint256"
            },
            {
              "name": "makerFeePaid",
              "type": "uint256"
            },
            {
              "name": "takerFeePaid",
              "type": "uint256"
            }
          ],
          "name": "feeOrderFillResults",
          "type": "tuple"
        }
      ],
      "payable": true,
      "stateMutability": "payable",
      "type": "function"
    },
    {
      "constant": false,
      "inputs": [
        {
          "name": "assetData",
          "type": "bytes"
        },
        {
          "name": "amount",
          "type": "uint256"
        }
      ],
      "name": "withdrawAsset",
      "outputs": [],
      "payable": false,
      "stateMutability": "nonpayable",
      "type": "function"
    },
    {
      "constant": true,
      "inputs": [],
      "name": "owner",
      "outputs": [
        {
          "name": "",
          "type": "address"
        }
      ],
      "payable": false,
      "stateMutability": "view",
      "type": "function"
    },
    {
      "constant": false,
      "inputs": [
        {
          "components": [
            {
              "name": "makerAddress",
              "type": "address"
            },
            {
              "name": "takerAddress",
              "type": "address"
            },
            {
              "name": "feeRecipientAddress",
              "type": "address"
            },
            {
              "name": "senderAddress",
              "type": "address"
            },
            {
              "name": "makerAssetAmount",
              "type": "uint256"
            },
            {
              "name": "takerAssetAmount",
              "type": "uint256"
            },
            {
              "name": "makerFee",
              "type": "uint256"
            },
            {
              "name": "takerFee",
              "type": "uint256"
            },
            {
              "name": "expirationTimeSeconds",
              "type": "uint256"
            },
            {
              "name": "salt",
              "type": "uint256"
            },
            {
              "name": "makerAssetData",
              "type": "bytes"
            },
            {
              "name": "takerAssetData",
              "type": "bytes"
            }
          ],
          "name": "orders",
          "type": "tuple[]"
        },
        {
          "name": "signatures",
          "type": "bytes[]"
        },
        {
          "components": [
            {
              "name": "makerAddress",
              "type": "address"
            },
            {
              "name": "takerAddress",
              "type": "address"
            },
            {
              "name": "feeRecipientAddress",
              "type": "address"
            },
            {
              "name": "senderAddress",
              "type": "address"
            },
            {
              "name": "makerAssetAmount",
              "type": "uint256"
            },
            {
              "name": "takerAssetAmount",
              "type": "uint256"
            },
            {
              "name": "makerFee",
              "type": "uint256"
            },
            {
              "name": "takerFee",
              "type": "uint256"
            },
            {
              "name": "expirationTimeSeconds",
              "type": "uint256"
            },
            {
              "name": "salt",
              "type": "uint256"
            },
            {
              "name": "makerAssetData",
              "type": "bytes"
            },
            {
              "name": "takerAssetData",
              "type": "bytes"
            }
          ],
          "name": "feeOrders",
          "type": "tuple[]"
        },
        {
          "name": "feeSignatures",
          "type": "bytes[]"
        },
        {
          "name": "feePercentage",
          "type": "uint256"
        },
        {
          "name": "feeRecipient",
          "type": "address"
        }
      ],
      "name": "marketSellOrdersWithEth",
      "outputs": [
        {
          "components": [
            {
              "name": "makerAssetFilledAmount",
              "type": "uint256"
            },
            {
              "name": "takerAssetFilledAmount",
              "type": "uint256"
            },
            {
              "name": "makerFeePaid",
              "type": "uint256"
            },
            {
              "name": "takerFeePaid",
              "type": "uint256"
            }
          ],
          "name": "orderFillResults",
          "type": "tuple"
        },
        {
          "components": [
            {
              "name": "makerAssetFilledAmount",
              "type": "uint256"
            },
            {
              "name": "takerAssetFilledAmount",
              "type": "uint256"
            },
            {
              "name": "makerFeePaid",
              "type": "uint256"
            },
            {
              "name": "takerFeePaid",
              "type": "uint256"
            }
          ],
          "name": "feeOrderFillResults",
          "type": "tuple"
        }
      ],
      "payable": true,
      "stateMutability": "payable",
      "type": "function"
    },
    {
      "constant": false,
      "inputs": [
        {
          "name": "newOwner",
          "type": "address"
        }
      ],
      "name": "transferOwnership",
      "outputs": [],
      "payable": false,
      "stateMutability": "nonpayable",
      "type": "function"
    },
    {
      "inputs": [
        {
          "name": "_exchange",
          "type": "address"
        },
        {
          "name": "_zrxAssetData",
          "type": "bytes"
        },
        {
          "name": "_wethAssetData",
          "type": "bytes"
        }
      ],
      "payable": false,
      "stateMutability": "nonpayable",
      "type": "constructor"
    },
    {
      "payable": true,
      "stateMutability": "payable",
      "type": "fallback"
    }
  ],
  "bytecode": "0x60806040523480156200001157600080fd5b506040516200358e3803806200358e83398101806040526200003791908101906200070c565b6000838383600080336000806101000a81548173ffffffffffffffffffffffffffffffffffffffff021916908373ffffffffffffffffffffffffffffffffffffffff16021790555084600160006101000a81548173ffffffffffffffffffffffffffffffffffffffff021916908373ffffffffffffffffffffffffffffffffffffffff1602179055508360049080519060200190620000d8929190620005a7565b508260059080519060200190620000f1929190620005a7565b50620001166010846200052e6401000000000262001c4f179091906401000000009004565b91506200013c6010856200052e6401000000000262001c4f179091906401000000009004565b905081600260006101000a81548173ffffffffffffffffffffffffffffffffffffffff021916908373ffffffffffffffffffffffffffffffffffffffff16021790555080600360006101000a81548173ffffffffffffffffffffffffffffffffffffffff021916908373ffffffffffffffffffffffffffffffffffffffff1602179055505050505050600160009054906101000a900473ffffffffffffffffffffffffffffffffffffffff1673ffffffffffffffffffffffffffffffffffffffff16636070410860405180807f4552433230546f6b656e28616464726573732900000000000000000000000000815250601301905060405180910390206040518263ffffffff167c0100000000000000000000000000000000000000000000000000000000028152600401620002739190620008b4565b602060405180830381600087803b1580156200028e57600080fd5b505af1158015620002a3573d6000803e3d6000fd5b505050506040513d601f19601f82011682018060405250620002c99190810190620006e0565b9050600073ffffffffffffffffffffffffffffffffffffffff168173ffffffffffffffffffffffffffffffffffffffff161415151562000340576040517f08c379a00000000000000000000000000000000000000000000000000000000081526004016200033790620008f3565b60405180910390fd5b600260009054906101000a900473ffffffffffffffffffffffffffffffffffffffff1673ffffffffffffffffffffffffffffffffffffffff1663095ea7b3827fffffffffffffffffffffffffffffffffffffffffffffffffffffffffffffffff6040518363ffffffff167c0100000000000000000000000000000000000000000000000000000000028152600401620003db92919062000887565b602060405180830381600087803b158015620003f657600080fd5b505af11580156200040b573d6000803e3d6000fd5b505050506040513d601f19601f8201168201806040525062000431919081019062000794565b50600360009054906101000a900473ffffffffffffffffffffffffffffffffffffffff1673ffffffffffffffffffffffffffffffffffffffff1663095ea7b3827fffffffffffffffffffffffffffffffffffffffffffffffffffffffffffffffff6040518363ffffffff167c0100000000000000000000000000000000000000000000000000000000028152600401620004cd92919062000887565b602060405180830381600087803b158015620004e857600080fd5b505af1158015620004fd573d6000803e3d6000fd5b505050506040513d601f19601f8201168201806040525062000523919081019062000794565b505050505062000a28565b6000601482018351101515156200057c576040517f08c379a00000000000000000000000000000000000000000000000000000000081526004016200057390620008d1565b60405180910390fd5b60148201915073ffffffffffffffffffffffffffffffffffffffff8284015116905080905092915050565b828054600181600116156101000203166002900490600052602060002090601f016020900481019282601f10620005ea57805160ff19168380011785556200061b565b828001600101855582156200061b579182015b828111156200061a578251825591602001919060010190620005fd565b5b5090506200062a91906200062e565b5090565b6200065391905b808211156200064f57600081600090555060010162000635565b5090565b90565b6000620006648251620009c6565b905092915050565b60006200067a8251620009e6565b905092915050565b600082601f83011215156200069657600080fd5b8151620006ad620006a78262000943565b62000915565b91508082526020830160208301858383011115620006ca57600080fd5b620006d7838284620009f2565b50505092915050565b600060208284031215620006f357600080fd5b6000620007038482850162000656565b91505092915050565b6000806000606084860312156200072257600080fd5b6000620007328682870162000656565b935050602084015167ffffffffffffffff8111156200075057600080fd5b6200075e8682870162000682565b925050604084015167ffffffffffffffff8111156200077c57600080fd5b6200078a8682870162000682565b9150509250925092565b600060208284031215620007a757600080fd5b6000620007b7848285016200066c565b91505092915050565b620007cb8162000970565b82525050565b620007dc8162000990565b82525050565b6000602682527f475245415445525f4f525f455155414c5f544f5f32305f4c454e4754485f524560208301527f51554952454400000000000000000000000000000000000000000000000000006040830152606082019050919050565b6000601882527f554e524547495354455245445f41535345545f50524f585900000000000000006020830152604082019050919050565b6200088181620009bc565b82525050565b60006040820190506200089e6000830185620007c0565b620008ad602083018462000876565b9392505050565b6000602082019050620008cb6000830184620007d1565b92915050565b60006020820190508181036000830152620008ec81620007e2565b9050919050565b600060208201905081810360008301526200090e816200083f565b9050919050565b6000604051905081810181811067ffffffffffffffff821117156200093957600080fd5b8060405250919050565b600067ffffffffffffffff8211156200095b57600080fd5b601f19601f8301169050602081019050919050565b600073ffffffffffffffffffffffffffffffffffffffff82169050919050565b60007fffffffff0000000000000000000000000000000000000000000000000000000082169050919050565b6000819050919050565b600073ffffffffffffffffffffffffffffffffffffffff82169050919050565b60008115159050919050565b60005b8381101562000a12578082015181840152602081019050620009f5565b8381111562000a22576000848401525b50505050565b612b568062000a386000396000f30060806040526004361061006d576000357c0100000000000000000000000000000000000000000000000000000000900463ffffffff16806318978e8214610101578063630f1e6c146101325780638da5cb5b1461015b5780639395525c14610186578063f2fde38b146101b7575b600260009054906101000a900473ffffffffffffffffffffffffffffffffffffffff1673ffffffffffffffffffffffffffffffffffffffff163373ffffffffffffffffffffffffffffffffffffffff161415156100ff576040517f08c379a00000000000000000000000000000000000000000000000000000000081526004016100f6906127cb565b60405180910390fd5b005b61011b6004803603610116919081019061217f565b6101e0565b6040516101299291906129cb565b60405180910390f35b34801561013e57600080fd5b506101596004803603610154919081019061227d565b610362565b005b34801561016757600080fd5b50610170610434565b60405161017d9190612750565b60405180910390f35b6101a0600480360361019b9190810190612096565b610459565b6040516101ae9291906129cb565b60405180910390f35b3480156101c357600080fd5b506101de60048036036101d9919081019061206d565b61062f565b005b6101e8611d40565b6101f0611d40565b6000806101fb61073a565b6102c560048054600181600116156101000203166002900480601f0160208091040260200160405190810160405280929190818152602001828054600181600116156101000203166002900480156102945780601f1061026957610100808354040283529160200191610294565b820191906000526020600020905b81548152906001019060200180831161027757829003601f168201915b50505050508c60008151811015156102a857fe5b90602001906020020151610140015161082090919063ffffffff16565b156102f0576102d58b8b8b610906565b93506102e984600001518560600151610c03565b9050610319565b6102fb8b8b8b610c55565b93508360600151915061030f888389610906565b9250836000015190505b61032d846020015184602001518888610e92565b6103548b600081518110151561033f57fe5b90602001906020020151610140015182611116565b505097509795505050505050565b6000809054906101000a900473ffffffffffffffffffffffffffffffffffffffff1673ffffffffffffffffffffffffffffffffffffffff163373ffffffffffffffffffffffffffffffffffffffff161415156103f3576040517f08c379a00000000000000000000000000000000000000000000000000000000081526004016103ea9061292b565b60405180910390fd5b61042f83838080601f01602080910402602001604051908101604052809392919081815260200183838082843782019150505050505082611116565b505050565b6000809054906101000a900473ffffffffffffffffffffffffffffffffffffffff1681565b610461611d40565b610469611d40565b600080600061047661073a565b61054060048054600181600116156101000203166002900480601f01602080910402602001604051908101604052809291908181526020018280546001816001161561010002031660029004801561050f5780601f106104e45761010080835404028352916020019161050f565b820191906000526020600020905b8154815290600101906020018083116104f257829003601f168201915b50505050508c600081518110151561052357fe5b90602001906020020151610140015161082090919063ffffffff16565b1561059157610569670de0b6b3a7640000610563670de0b6b3a76400008a611283565b346112da565b92506105768b848c61133f565b945061058a85600001518660600151610c03565b90506105e6565b6105bb6064670de0b6b3a7640000605f028115156105ab57fe5b04670de0b6b3a7640000346112da565b92506105c88b848c61133f565b9450846060015191506105dc89838a610906565b9350846000015190505b6105fa856020015185602001518989610e92565b6106218b600081518110151561060c57fe5b90602001906020020151610140015182611116565b505050965096945050505050565b6000809054906101000a900473ffffffffffffffffffffffffffffffffffffffff1673ffffffffffffffffffffffffffffffffffffffff163373ffffffffffffffffffffffffffffffffffffffff161415156106c0576040517f08c379a00000000000000000000000000000000000000000000000000000000081526004016106b79061292b565b60405180910390fd5b600073ffffffffffffffffffffffffffffffffffffffff168173ffffffffffffffffffffffffffffffffffffffff1614151561073757806000806101000a81548173ffffffffffffffffffffffffffffffffffffffff021916908373ffffffffffffffffffffffffffffffffffffffff1602179055505b50565b60003411151561077f576040517f08c379a0000000000000000000000000000000000000000000000000000000008152600401610776906127eb565b60405180910390fd5b600260009054906101000a900473ffffffffffffffffffffffffffffffffffffffff1673ffffffffffffffffffffffffffffffffffffffff1663d0e30db0346040518263ffffffff167c01000000000000000000000000000000000000000000000000000000000281526004016000604051808303818588803b15801561080557600080fd5b505af1158015610819573d6000803e3d6000fd5b5050505050565b6000815183511480156108fe5750816040518082805190602001908083835b602083101515610864578051825260208201915060208101905060208303925061083f565b6001836020036101000a038019825116818451168082178552505050505050905001915050604051809103902060001916836040518082805190602001908083835b6020831015156108cb57805182526020820191506020810190506020830392506108a6565b6001836020036101000a038019825116818451168082178552505050505050905001915050604051809103902060001916145b905092915050565b61090e611d40565b6060806000806000806000610921611d40565b60008b141561093257889850610bf4565b60048054600181600116156101000203166002900480601f0160208091040260200160405190810160405280929190818152602001828054600181600116156101000203166002900480156109c85780601f1061099d576101008083540402835291602001916109c8565b820191906000526020600020905b8154815290600101906020018083116109ab57829003601f168201915b5050505050975060058054600181600116156101000203166002900480601f016020809104026020016040519081016040528092919081815260200182805460018160011615610100020316600290048015610a655780601f10610a3a57610100808354040283529160200191610a65565b820191906000526020600020905b815481529060010190602001808311610a4857829003601f168201915b50505050509650600095508b519450600093505b8484141515610bab57878c85815181101515610a9157fe5b906020019060200201516101400181905250868c85815181101515610ab257fe5b906020019060200201516101600181905250610ace8b87610c03565b9250610b358c85815181101515610ae157fe5b9060200190602002015160a00151610b2f8e87815181101515610b0057fe5b90602001906020020151608001518f88815181101515610b1c57fe5b9060200190602002015160e00151610c03565b856114ec565b9150610b708c85815181101515610b4857fe5b90602001906020020151838c87815181101515610b6157fe5b90602001906020020151611564565b9050610b7c89826115e6565b610b8e89600001518a60600151610c03565b95508a86101515610b9e57610bab565b8380600101945050610a79565b8a8610151515610bf0576040517f08c379a0000000000000000000000000000000000000000000000000000000008152600401610be7906128eb565b60405180910390fd5b8898505b50505050505050509392505050565b6000828211151515610c4a576040517f08c379a0000000000000000000000000000000000000000000000000000000008152600401610c419061282b565b60405180910390fd5b818303905092915050565b610c5d611d40565b606080600080600080610c6e611d40565b60008b6000815181101515610c7f57fe5b906020019060200201516101400151975060058054600181600116156101000203166002900480601f016020809104026020016040519081016040528092919081815260200182805460018160011615610100020316600290048015610d265780601f10610cfb57610100808354040283529160200191610d26565b820191906000526020600020905b815481529060010190602001808311610d0957829003601f168201915b505050505096508b519550600094505b8585141515610e3b57878c86815181101515610d4e57fe5b906020019060200201516101400181905250868c86815181101515610d6f57fe5b906020019060200201516101600181905250610d8f8b8a60000151610c03565b9350610dd28c86815181101515610da257fe5b9060200190602002015160a001518d87815181101515610dbe57fe5b9060200190602002015160800151866114ec565b9250610e0d8c86815181101515610de557fe5b90602001906020020151848c88815181101515610dfe57fe5b90602001906020020151611564565b9150610e1989836115e6565b886000015190508a81101515610e2e57610e3b565b8480600101955050610d36565b8a8110151515610e80576040517f08c379a0000000000000000000000000000000000000000000000000000000008152600401610e77906128eb565b60405180910390fd5b88985050505050505050509392505050565b6000806000806064670de0b6b3a7640000600502811515610eaf57fe5b048611151515610ef4576040517f08c379a0000000000000000000000000000000000000000000000000000000008152600401610eeb9061294b565b60405180910390fd5b610efe8888611283565b9350348411151515610f45576040517f08c379a0000000000000000000000000000000000000000000000000000000008152600401610f3c9061280b565b60405180910390fd5b610f4f3485610c03565b9250610f6486670de0b6b3a76400008a6112da565b9150828211151515610fab576040517f08c379a0000000000000000000000000000000000000000000000000000000008152600401610fa29061290b565b60405180910390fd5b600083111561110c57600260009054906101000a900473ffffffffffffffffffffffffffffffffffffffff1673ffffffffffffffffffffffffffffffffffffffff16632e1a7d4d846040518263ffffffff167c010000000000000000000000000000000000000000000000000000000002815260040161102b91906129f5565b600060405180830381600087803b15801561104557600080fd5b505af1158015611059573d6000803e3d6000fd5b5050505060008211156110ae578473ffffffffffffffffffffffffffffffffffffffff166108fc839081150290604051600060405180830381858888f193505050501580156110ac573d6000803e3d6000fd5b505b6110b88383610c03565b9050600081111561110b573373ffffffffffffffffffffffffffffffffffffffff166108fc829081150290604051600060405180830381858888f19350505050158015611109573d6000803e3d6000fd5b505b5b5050505050505050565b600061112c60008461165690919063ffffffff16565b905060405180807f4552433230546f6b656e28616464726573732900000000000000000000000000815250601301905060405180910390207bffffffffffffffffffffffffffffffffffffffffffffffffffffffff1916817bffffffffffffffffffffffffffffffffffffffffffffffffffffffff191614156111b8576111b383836116db565b61127e565b60405180807f455243373231546f6b656e28616464726573732c75696e743235362900000000815250601c01905060405180910390207bffffffffffffffffffffffffffffffffffffffffffffffffffffffff1916817bffffffffffffffffffffffffffffffffffffffffffffffffffffffff191614156112425761123d83836118cc565b61127d565b6040517f08c379a0000000000000000000000000000000000000000000000000000000008152600401611274906128ab565b60405180910390fd5b5b505050565b60008082840190508381101515156112d0576040517f08c379a00000000000000000000000000000000000000000000000000000000081526004016112c79061288b565b60405180910390fd5b8091505092915050565b60008083111515611320576040517f08c379a00000000000000000000000000000000000000000000000000000000081526004016113179061286b565b60405180910390fd5b61133361132d85846119d1565b84611a45565b90508090509392505050565b611347611d40565b6060806000806000611357611d40565b89600081518110151561136657fe5b906020019060200201516101400151955060058054600181600116156101000203166002900480601f01602080910402602001604051908101604052809291908181526020018280546001816001161561010002031660029004801561140d5780601f106113e25761010080835404028352916020019161140d565b820191906000526020600020905b8154815290600101906020018083116113f057829003601f168201915b5050505050945089519350600092505b83831415156114dc57858a8481518110151561143557fe5b906020019060200201516101400181905250848a8481518110151561145657fe5b906020019060200201516101600181905250611476898860200151610c03565b91506114b18a8481518110151561148957fe5b90602001906020020151838a868151811015156114a257fe5b90602001906020020151611564565b90506114bd87826115e6565b8887602001511015156114cf576114dc565b828060010193505061141d565b8696505050505050509392505050565b60008083111515611532576040517f08c379a00000000000000000000000000000000000000000000000000000000081526004016115299061286b565b60405180910390fd5b61155861155261154286856119d1565b61154d866001610c03565b611283565b84611a45565b90508090509392505050565b61156c611d40565b6060600061157b868686611a60565b9150600160009054906101000a900473ffffffffffffffffffffffffffffffffffffffff1690506080828351602085016000855af180156115d957825184526020830151602085015260408301516040850152606083015160608501525b5082925050509392505050565b6115f882600001518260000151611283565b82600001818152505061161382602001518260200151611283565b82602001818152505061162e82604001518260400151611283565b82604001818152505061164982606001518260600151611283565b8260600181815250505050565b6000600482018351101515156116a1576040517f08c379a00000000000000000000000000000000000000000000000000000000081526004016116989061298b565b60405180910390fd5b6020820191508183015190507fffffffff000000000000000000000000000000000000000000000000000000008116905080905092915050565b6000806116f2601085611c4f90919063ffffffff16565b91508173ffffffffffffffffffffffffffffffffffffffff1660405180807f7472616e7366657228616464726573732c75696e7432353629000000000000008152506019019050604051809103902033856040516024016117549291906127a2565b604051602081830303815290604052907bffffffffffffffffffffffffffffffffffffffffffffffffffffffff19166020820180517bffffffffffffffffffffffffffffffffffffffffffffffffffffffff838183161783525050505060405180828051906020019080838360005b838110156117de5780820151818401526020810190506117c3565b50505050905090810190601f16801561180b5780820380516001836020036101000a031916815260200191505b509150506000604051808303816000865af19150509050801515611864576040517f08c379a000000000000000000000000000000000000000000000000000000000815260040161185b906128cb565b60405180910390fd5b3d15611884576000905060203d14156118835760206000803e60005190505b5b8015156118c6576040517f08c379a00000000000000000000000000000000000000000000000000000000081526004016118bd906128cb565b60405180910390fd5b50505050565b600080600183141515611914576040517f08c379a000000000000000000000000000000000000000000000000000000000815260040161190b906129ab565b60405180910390fd5b611928601085611c4f90919063ffffffff16565b915061193e602485611cc590919063ffffffff16565b90508173ffffffffffffffffffffffffffffffffffffffff166323b872dd3033846040518463ffffffff167c01000000000000000000000000000000000000000000000000000000000281526004016119999392919061276b565b600060405180830381600087803b1580156119b357600080fd5b505af11580156119c7573d6000803e3d6000fd5b5050505050505050565b60008060008414156119e65760009150611a3e565b82840290508284828115156119f757fe5b04141515611a3a576040517f08c379a0000000000000000000000000000000000000000000000000000000008152600401611a319061288b565b60405180910390fd5b8091505b5092915050565b6000808284811515611a5357fe5b0490508091505092915050565b606060405190507fb4be83d5000000000000000000000000000000000000000000000000000000006020820152602481018060608101818180896000808784038652602086019550825184526020830151602085015260408301516040850152606083015160608501526080830151608085015260a083015160a085015260c083015160c085015260e083015160e085015261010083015161010085015261012083015161012085015261014083015161014085015261016083015161016085015261018084019350610180830192508484036020600a028601526101408d01519250825191506020830192506020601f830104905081845260208401935060005b81811015611b855783518552602085019450602084019350600181019050611b62565b508484036020600b028601526101608d01519250825191506020830192506020601f830104905081845260208401935060005b81811015611bdb5783518552602085019450602084019350600181019050611bb8565b508b865260208601955087840386528a9250825191506020830192506020601f830104905081845260208401935060005b81811015611c2f5783518552602085019450602084019350600181019050611c0c565b5060208a0184038a52836040525050505050505050508090509392505050565b600060148201835110151515611c9a576040517f08c379a0000000000000000000000000000000000000000000000000000000008152600401611c919061296b565b60405180910390fd5b60148201915073ffffffffffffffffffffffffffffffffffffffff8284015116905080905092915050565b6000611cd18383611ce0565b60019004905080905092915050565b600060208201835110151515611d2b576040517f08c379a0000000000000000000000000000000000000000000000000000000008152600401611d229061284b565b60405180910390fd5b60208201915081830151905080905092915050565b608060405190810160405280600081526020016000815260200160008152602001600081525090565b6000611d758235612ae3565b905092915050565b600082601f8301121515611d9057600080fd5b8135611da3611d9e82612a3d565b612a10565b9150818183526020840193506020810190508360005b83811015611de95781358601611dcf8882611eb5565b845260208401935060208301925050600181019050611db9565b5050505092915050565b600082601f8301121515611e0657600080fd5b8135611e19611e1482612a65565b612a10565b9150818183526020840193506020810190508360005b83811015611e5f5781358601611e458882611f0b565b845260208401935060208301925050600181019050611e2f565b5050505092915050565b60008083601f8401121515611e7d57600080fd5b8235905067ffffffffffffffff811115611e9657600080fd5b602083019150836001820283011115611eae57600080fd5b9250929050565b600082601f8301121515611ec857600080fd5b8135611edb611ed682612a8d565b612a10565b91508082526020830160208301858383011115611ef757600080fd5b611f02838284612b0d565b50505092915050565b60006101808284031215611f1e57600080fd5b611f29610180612a10565b90506000611f3984828501611d69565b6000830152506020611f4d84828501611d69565b6020830152506040611f6184828501611d69565b6040830152506060611f7584828501611d69565b6060830152506080611f8984828501612059565b60808301525060a0611f9d84828501612059565b60a08301525060c0611fb184828501612059565b60c08301525060e0611fc584828501612059565b60e083015250610100611fda84828501612059565b61010083015250610120611ff084828501612059565b6101208301525061014082013567ffffffffffffffff81111561201257600080fd5b61201e84828501611eb5565b6101408301525061016082013567ffffffffffffffff81111561204057600080fd5b61204c84828501611eb5565b6101608301525092915050565b60006120658235612b03565b905092915050565b60006020828403121561207f57600080fd5b600061208d84828501611d69565b91505092915050565b60008060008060008060c087890312156120af57600080fd5b600087013567ffffffffffffffff8111156120c957600080fd5b6120d589828a01611df3565b965050602087013567ffffffffffffffff8111156120f257600080fd5b6120fe89828a01611d7d565b955050604087013567ffffffffffffffff81111561211b57600080fd5b61212789828a01611df3565b945050606087013567ffffffffffffffff81111561214457600080fd5b61215089828a01611d7d565b935050608061216189828a01612059565b92505060a061217289828a01611d69565b9150509295509295509295565b600080600080600080600060e0888a03121561219a57600080fd5b600088013567ffffffffffffffff8111156121b457600080fd5b6121c08a828b01611df3565b97505060206121d18a828b01612059565b965050604088013567ffffffffffffffff8111156121ee57600080fd5b6121fa8a828b01611d7d565b955050606088013567ffffffffffffffff81111561221757600080fd5b6122238a828b01611df3565b945050608088013567ffffffffffffffff81111561224057600080fd5b61224c8a828b01611d7d565b93505060a061225d8a828b01612059565b92505060c061226e8a828b01611d69565b91505092959891949750929550565b60008060006040848603121561229257600080fd5b600084013567ffffffffffffffff8111156122ac57600080fd5b6122b886828701611e69565b935093505060206122cb86828701612059565b9150509250925092565b6122de81612ab9565b82525050565b6000602382527f44454641554c545f46554e4354494f4e5f574554485f434f4e54524143545f4f60208301527f4e4c5900000000000000000000000000000000000000000000000000000000006040830152606082019050919050565b6000601182527f494e56414c49445f4d53475f56414c55450000000000000000000000000000006020830152604082019050919050565b6000600d82527f4f564552534f4c445f57455448000000000000000000000000000000000000006020830152604082019050919050565b6000601182527f55494e543235365f554e444552464c4f570000000000000000000000000000006020830152604082019050919050565b6000602682527f475245415445525f4f525f455155414c5f544f5f33325f4c454e4754485f524560208301527f51554952454400000000000000000000000000000000000000000000000000006040830152606082019050919050565b6000601082527f4449564953494f4e5f42595f5a45524f000000000000000000000000000000006020830152604082019050919050565b6000601082527f55494e543235365f4f564552464c4f57000000000000000000000000000000006020830152604082019050919050565b6000601782527f554e535550504f525445445f41535345545f50524f58590000000000000000006020830152604082019050919050565b6000600f82527f5452414e534645525f4641494c454400000000000000000000000000000000006020830152604082019050919050565b6000601482527f434f4d504c4554455f46494c4c5f4641494c45440000000000000000000000006020830152604082019050919050565b6000601a82527f494e53554646494349454e545f4554485f52454d41494e494e470000000000006020830152604082019050919050565b6000601382527f4f4e4c595f434f4e54524143545f4f574e4552000000000000000000000000006020830152604082019050919050565b6000601882527f4645455f50455243454e544147455f544f4f5f4c4152474500000000000000006020830152604082019050919050565b6000602682527f475245415445525f4f525f455155414c5f544f5f32305f4c454e4754485f524560208301527f51554952454400000000000000000000000000000000000000000000000000006040830152606082019050919050565b6000602582527f475245415445525f4f525f455155414c5f544f5f345f4c454e4754485f52455160208301527f55495245440000000000000000000000000000000000000000000000000000006040830152606082019050919050565b6000600e82527f494e56414c49445f414d4f554e540000000000000000000000000000000000006020830152604082019050919050565b6080820160008201516127026000850182612741565b5060208201516127156020850182612741565b5060408201516127286040850182612741565b50606082015161273b6060850182612741565b50505050565b61274a81612ad9565b82525050565b600060208201905061276560008301846122d5565b92915050565b600060608201905061278060008301866122d5565b61278d60208301856122d5565b61279a6040830184612741565b949350505050565b60006040820190506127b760008301856122d5565b6127c46020830184612741565b9392505050565b600060208201905081810360008301526127e4816122e4565b9050919050565b6000602082019050818103600083015261280481612341565b9050919050565b6000602082019050818103600083015261282481612378565b9050919050565b60006020820190508181036000830152612844816123af565b9050919050565b60006020820190508181036000830152612864816123e6565b9050919050565b6000602082019050818103600083015261288481612443565b9050919050565b600060208201905081810360008301526128a48161247a565b9050919050565b600060208201905081810360008301526128c4816124b1565b9050919050565b600060208201905081810360008301526128e4816124e8565b9050919050565b600060208201905081810360008301526129048161251f565b9050919050565b6000602082019050818103600083015261292481612556565b9050919050565b600060208201905081810360008301526129448161258d565b9050919050565b60006020820190508181036000830152612964816125c4565b9050919050565b60006020820190508181036000830152612984816125fb565b9050919050565b600060208201905081810360008301526129a481612658565b9050919050565b600060208201905081810360008301526129c4816126b5565b9050919050565b6000610100820190506129e160008301856126ec565b6129ee60808301846126ec565b9392505050565b6000602082019050612a0a6000830184612741565b92915050565b6000604051905081810181811067ffffffffffffffff82111715612a3357600080fd5b8060405250919050565b600067ffffffffffffffff821115612a5457600080fd5b602082029050602081019050919050565b600067ffffffffffffffff821115612a7c57600080fd5b602082029050602081019050919050565b600067ffffffffffffffff821115612aa457600080fd5b601f19601f8301169050602081019050919050565b600073ffffffffffffffffffffffffffffffffffffffff82169050919050565b6000819050919050565b600073ffffffffffffffffffffffffffffffffffffffff82169050919050565b6000819050919050565b828183376000838301525050505600a265627a7a72305820f91e03f67c9591bac9f88d4593ffcd5154f07e4fb5ba1c0505e310648a10090d6c6578706572696d656e74616cf50037",
  "source": "/*\n\n  Copyright 2018 ZeroEx Intl.\n\n  Licensed under the Apache License, Version 2.0 (the \"License\");\n  you may not use this file except in compliance with the License.\n  You may obtain a copy of the License at\n\n    http://www.apache.org/licenses/LICENSE-2.0\n\n  Unless required by applicable law or agreed to in writing, software\n  distributed under the License is distributed on an \"AS IS\" BASIS,\n  WITHOUT WARRANTIES OR CONDITIONS OF ANY KIND, either express or implied.\n  See the License for the specific language governing permissions and\n  limitations under the License.\n\n*/\n\npragma solidity 0.4.24;\npragma experimental ABIEncoderV2;\n\nimport \"./MixinWeth.sol\";\nimport \"./MixinForwarderCore.sol\";\nimport \"./libs/LibConstants.sol\";\nimport \"./MixinAssets.sol\";\nimport \"./MixinExchangeWrapper.sol\";\n\n\n// solhint-disable no-empty-blocks\ncontract Forwarder is\n    LibConstants,\n    MixinWeth,\n    MixinAssets,\n    MixinExchangeWrapper,\n    MixinForwarderCore\n{\n    constructor (\n        address _exchange,\n        bytes memory _zrxAssetData,\n        bytes memory _wethAssetData\n    )\n        public\n        LibConstants(\n            _exchange,\n            _zrxAssetData,\n            _wethAssetData\n        )\n        MixinForwarderCore()\n    {}\n}\n",
  "sourcePath": "/Users/lawrenceballou/Desktop/BlockNerds/Clients/AltcoinIo/filter-contract/contracts/extensions/contracts/Forwarder/Forwarder.sol",
  "compiler": {
    "name": "solc",
    "version": "0.4.24+commit.e67f0147.Emscripten.clang"
  },
  "schemaVersion": "3.0.0",
  "updatedAt": "2018-12-28T17:39:48.690Z",
  "devdoc": {
    "methods": {
      "marketBuyOrdersWithEth((address,address,address,address,uint256,uint256,uint256,uint256,uint256,uint256,bytes,bytes)[],uint256,bytes[],(address,address,address,address,uint256,uint256,uint256,uint256,uint256,uint256,bytes,bytes)[],bytes[],uint256,address)": {
        "details": "Attempt to purchase makerAssetFillAmount of makerAsset by selling ETH provided with transaction.      Any ZRX required to pay fees for primary orders will automatically be purchased by this contract.      Any ETH not spent will be refunded to sender.",
        "params": {
          "feeOrders": "Array of order specifications containing ZRX as makerAsset and WETH as takerAsset. Used to purchase ZRX for primary order fees.",
          "feePercentage": "Percentage of WETH sold that will payed as fee to forwarding contract feeRecipient.",
          "feeRecipient": "Address that will receive ETH when orders are filled.",
          "feeSignatures": "Proofs that feeOrders have been created by makers.",
          "makerAssetFillAmount": "Desired amount of makerAsset to purchase.",
          "orders": "Array of order specifications used containing desired makerAsset and WETH as takerAsset. ",
          "signatures": "Proofs that orders have been created by makers."
        },
        "return": "Amounts filled and fees paid by maker and taker for both sets of orders."
      },
      "marketSellOrdersWithEth((address,address,address,address,uint256,uint256,uint256,uint256,uint256,uint256,bytes,bytes)[],bytes[],(address,address,address,address,uint256,uint256,uint256,uint256,uint256,uint256,bytes,bytes)[],bytes[],uint256,address)": {
        "details": "Purchases as much of orders' makerAssets as possible by selling up to 95% of transaction's ETH value.      Any ZRX required to pay fees for primary orders will automatically be purchased by this contract.      5% of ETH value is reserved for paying fees to order feeRecipients (in ZRX) and forwarding contract feeRecipient (in ETH).      Any ETH not spent will be refunded to sender.",
        "params": {
          "feeOrders": "Array of order specifications containing ZRX as makerAsset and WETH as takerAsset. Used to purchase ZRX for primary order fees.",
          "feePercentage": "Percentage of WETH sold that will payed as fee to forwarding contract feeRecipient.",
          "feeRecipient": "Address that will receive ETH when orders are filled.",
          "feeSignatures": "Proofs that feeOrders have been created by makers.",
          "orders": "Array of order specifications used containing desired makerAsset and WETH as takerAsset. ",
          "signatures": "Proofs that orders have been created by makers."
        },
        "return": "Amounts filled and fees paid by maker and taker for both sets of orders."
      },
      "withdrawAsset(bytes,uint256)": {
        "details": "Withdraws assets from this contract. The contract requires a ZRX balance in order to       function optimally, and this function allows the ZRX to be withdrawn by owner. It may also be      used to withdraw assets that were accidentally sent to this contract.",
        "params": {
          "amount": "Amount of ERC20 token to withdraw.",
          "assetData": "Byte array encoded for the respective asset proxy."
        }
      }
    }
  },
  "userdoc": {
    "methods": {}
  }
}