{
  "contractName": "LibExchangeSelectors",
  "abi": [
    {
      "constant": true,
      "inputs": [],
      "name": "FILL_ORDER_SELECTOR",
      "outputs": [
        {
          "name": "",
          "type": "bytes4"
        }
      ],
      "payable": false,
      "stateMutability": "view",
      "type": "function"
    },
    {
      "constant": true,
      "inputs": [],
      "name": "MARKET_BUY_ORDERS_NO_THROW_SELECTOR_GENERATOR",
      "outputs": [
        {
          "name": "",
          "type": "bytes4"
        }
      ],
      "payable": false,
      "stateMutability": "view",
      "type": "function"
    },
    {
      "constant": true,
      "inputs": [],
      "name": "PRE_SIGNED_SELECTOR_GENERATOR",
      "outputs": [
        {
          "name": "",
          "type": "bytes4"
        }
      ],
      "payable": false,
      "stateMutability": "view",
      "type": "function"
    },
    {
      "constant": true,
      "inputs": [],
      "name": "ORDER_EPOCH_SELECTOR_GENERATOR",
      "outputs": [
        {
          "name": "",
          "type": "bytes4"
        }
      ],
      "payable": false,
      "stateMutability": "view",
      "type": "function"
    },
    {
      "constant": true,
      "inputs": [],
      "name": "TRANSFER_OWNERSHIP_SELECTOR_GENERATOR",
      "outputs": [
        {
          "name": "",
          "type": "bytes4"
        }
      ],
      "payable": false,
      "stateMutability": "view",
      "type": "function"
    },
    {
      "constant": true,
      "inputs": [],
      "name": "ASSET_PROXIES_SELECTOR_GENERATOR",
      "outputs": [
        {
          "name": "",
          "type": "bytes4"
        }
      ],
      "payable": false,
      "stateMutability": "view",
      "type": "function"
    },
    {
      "constant": true,
      "inputs": [],
      "name": "MATCH_ORDERS_SELECTOR",
      "outputs": [
        {
          "name": "",
          "type": "bytes4"
        }
      ],
      "payable": false,
      "stateMutability": "view",
      "type": "function"
    },
    {
      "constant": true,
      "inputs": [],
      "name": "MARKET_BUY_ORDERS_SELECTOR",
      "outputs": [
        {
          "name": "",
          "type": "bytes4"
        }
      ],
      "payable": false,
      "stateMutability": "view",
      "type": "function"
    },
    {
      "constant": true,
      "inputs": [],
      "name": "CANCEL_ORDERS_UP_TO_SELECTOR",
      "outputs": [
        {
          "name": "",
          "type": "bytes4"
        }
      ],
      "payable": false,
      "stateMutability": "view",
      "type": "function"
    },
    {
      "constant": true,
      "inputs": [],
      "name": "FILL_ORDER_NO_THROW_SELECTOR_GENERATOR",
      "outputs": [
        {
          "name": "",
          "type": "bytes4"
        }
      ],
      "payable": false,
      "stateMutability": "view",
      "type": "function"
    },
    {
      "constant": true,
      "inputs": [],
      "name": "REGISTER_ASSET_PROXY_SELECTOR",
      "outputs": [
        {
          "name": "",
          "type": "bytes4"
        }
      ],
      "payable": false,
      "stateMutability": "view",
      "type": "function"
    },
    {
      "constant": true,
      "inputs": [],
      "name": "REGISTER_ASSET_PROXY_SELECTOR_GENERATOR",
      "outputs": [
        {
          "name": "",
          "type": "bytes4"
        }
      ],
      "payable": false,
      "stateMutability": "view",
      "type": "function"
    },
    {
      "constant": true,
      "inputs": [],
      "name": "BATCH_FILL_ORDERS_NO_THROW_SELECTOR",
      "outputs": [
        {
          "name": "",
          "type": "bytes4"
        }
      ],
      "payable": false,
      "stateMutability": "view",
      "type": "function"
    },
    {
      "constant": true,
      "inputs": [],
      "name": "ORDER_EPOCH_SELECTOR",
      "outputs": [
        {
          "name": "",
          "type": "bytes4"
        }
      ],
      "payable": false,
      "stateMutability": "view",
      "type": "function"
    },
    {
      "constant": true,
      "inputs": [],
      "name": "GET_ASSET_PROXY_SELECTOR",
      "outputs": [
        {
          "name": "",
          "type": "bytes4"
        }
      ],
      "payable": false,
      "stateMutability": "view",
      "type": "function"
    },
    {
      "constant": true,
      "inputs": [],
      "name": "FILLED_SELECTOR",
      "outputs": [
        {
          "name": "",
          "type": "bytes4"
        }
      ],
      "payable": false,
      "stateMutability": "view",
      "type": "function"
    },
    {
      "constant": true,
      "inputs": [],
      "name": "ALLOWED_VALIDATORS_SELECTOR_GENERATOR",
      "outputs": [
        {
          "name": "",
          "type": "bytes4"
        }
      ],
      "payable": false,
      "stateMutability": "view",
      "type": "function"
    },
    {
      "constant": true,
      "inputs": [],
      "name": "PRE_SIGNED_SELECTOR",
      "outputs": [
        {
          "name": "",
          "type": "bytes4"
        }
      ],
      "payable": false,
      "stateMutability": "view",
      "type": "function"
    },
    {
      "constant": true,
      "inputs": [],
      "name": "SET_SIGNATURE_VALIDATOR_APPROVAL_SELECTOR",
      "outputs": [
        {
          "name": "",
          "type": "bytes4"
        }
      ],
      "payable": false,
      "stateMutability": "view",
      "type": "function"
    },
    {
      "constant": true,
      "inputs": [],
      "name": "MARKET_SELL_ORDERS_NO_THROW_SELECTOR_GENERATOR",
      "outputs": [
        {
          "name": "",
          "type": "bytes4"
        }
      ],
      "payable": false,
      "stateMutability": "view",
      "type": "function"
    },
    {
      "constant": true,
      "inputs": [],
      "name": "FILL_OR_KILL_ORDER_SELECTOR_GENERATOR",
      "outputs": [
        {
          "name": "",
          "type": "bytes4"
        }
      ],
      "payable": false,
      "stateMutability": "view",
      "type": "function"
    },
    {
      "constant": true,
      "inputs": [],
      "name": "PRE_SIGN_SELECTOR",
      "outputs": [
        {
          "name": "",
          "type": "bytes4"
        }
      ],
      "payable": false,
      "stateMutability": "view",
      "type": "function"
    },
    {
      "constant": true,
      "inputs": [],
      "name": "GET_ASSET_PROXY_SELECTOR_GENERATOR",
      "outputs": [
        {
          "name": "",
          "type": "bytes4"
        }
      ],
      "payable": false,
      "stateMutability": "view",
      "type": "function"
    },
    {
      "constant": true,
      "inputs": [],
      "name": "BATCH_FILL_ORDERS_SELECTOR_GENERATOR",
      "outputs": [
        {
          "name": "",
          "type": "bytes4"
        }
      ],
      "payable": false,
      "stateMutability": "view",
      "type": "function"
    },
    {
      "constant": true,
      "inputs": [],
      "name": "BATCH_FILL_ORDERS_NO_THROW_SELECTOR_GENERATOR",
      "outputs": [
        {
          "name": "",
          "type": "bytes4"
        }
      ],
      "payable": false,
      "stateMutability": "view",
      "type": "function"
    },
    {
      "constant": true,
      "inputs": [],
      "name": "EXECUTE_TRANSACTION_SELECTOR_GENERATOR",
      "outputs": [
        {
          "name": "",
          "type": "bytes4"
        }
      ],
      "payable": false,
      "stateMutability": "view",
      "type": "function"
    },
    {
      "constant": true,
      "inputs": [],
      "name": "MARKET_SELL_ORDERS_NO_THROW_SELECTOR",
      "outputs": [
        {
          "name": "",
          "type": "bytes4"
        }
      ],
      "payable": false,
      "stateMutability": "view",
      "type": "function"
    },
    {
      "constant": true,
      "inputs": [],
      "name": "BATCH_CANCEL_ORDERS_SELECTOR_GENERATOR",
      "outputs": [
        {
          "name": "",
          "type": "bytes4"
        }
      ],
      "payable": false,
      "stateMutability": "view",
      "type": "function"
    },
    {
      "constant": true,
      "inputs": [],
      "name": "BATCH_FILL_OR_KILL_ORDERS_SELECTOR_GENERATOR",
      "outputs": [
        {
          "name": "",
          "type": "bytes4"
        }
      ],
      "payable": false,
      "stateMutability": "view",
      "type": "function"
    },
    {
      "constant": true,
      "inputs": [],
      "name": "IS_VALID_SIGNATURE_SELECTOR_GENERATOR",
      "outputs": [
        {
          "name": "",
          "type": "bytes4"
        }
      ],
      "payable": false,
      "stateMutability": "view",
      "type": "function"
    },
    {
      "constant": true,
      "inputs": [],
      "name": "FILLED_SELECTOR_GENERATOR",
      "outputs": [
        {
          "name": "",
          "type": "bytes4"
        }
      ],
      "payable": false,
      "stateMutability": "view",
      "type": "function"
    },
    {
      "constant": true,
      "inputs": [],
      "name": "GET_ORDERS_INFO_SELECTOR_GENERATOR",
      "outputs": [
        {
          "name": "",
          "type": "bytes4"
        }
      ],
      "payable": false,
      "stateMutability": "view",
      "type": "function"
    },
    {
      "constant": true,
      "inputs": [],
      "name": "PRE_SIGN_SELECTOR_GENERATOR",
      "outputs": [
        {
          "name": "",
          "type": "bytes4"
        }
      ],
      "payable": false,
      "stateMutability": "view",
      "type": "function"
    },
    {
      "constant": true,
      "inputs": [],
      "name": "GET_ORDER_INFO_SELECTOR",
      "outputs": [
        {
          "name": "",
          "type": "bytes4"
        }
      ],
      "payable": false,
      "stateMutability": "view",
      "type": "function"
    },
    {
      "constant": true,
      "inputs": [],
      "name": "SET_SIGNATURE_VALIDATOR_APPROVAL_SELECTOR_GENERATOR",
      "outputs": [
        {
          "name": "",
          "type": "bytes4"
        }
      ],
      "payable": false,
      "stateMutability": "view",
      "type": "function"
    },
    {
      "constant": true,
      "inputs": [],
      "name": "MARKET_BUY_ORDERS_SELECTOR_GENERATOR",
      "outputs": [
        {
          "name": "",
          "type": "bytes4"
        }
      ],
      "payable": false,
      "stateMutability": "view",
      "type": "function"
    },
    {
      "constant": true,
      "inputs": [],
      "name": "MATCH_ORDERS_SELECTOR_GENERATOR",
      "outputs": [
        {
          "name": "",
          "type": "bytes4"
        }
      ],
      "payable": false,
      "stateMutability": "view",
      "type": "function"
    },
    {
      "constant": true,
      "inputs": [],
      "name": "EXECUTE_TRANSACTION_SELECTOR",
      "outputs": [
        {
          "name": "",
          "type": "bytes4"
        }
      ],
      "payable": false,
      "stateMutability": "view",
      "type": "function"
    },
    {
      "constant": true,
      "inputs": [],
      "name": "MARKET_SELL_ORDERS_SELECTOR_GENERATOR",
      "outputs": [
        {
          "name": "",
          "type": "bytes4"
        }
      ],
      "payable": false,
      "stateMutability": "view",
      "type": "function"
    },
    {
      "constant": true,
      "inputs": [],
      "name": "CANCEL_ORDER_SELECTOR",
      "outputs": [
        {
          "name": "",
          "type": "bytes4"
        }
      ],
      "payable": false,
      "stateMutability": "view",
      "type": "function"
    },
    {
      "constant": true,
      "inputs": [],
      "name": "BATCH_CANCEL_ORDERS_SELECTOR",
      "outputs": [
        {
          "name": "",
          "type": "bytes4"
        }
      ],
      "payable": false,
      "stateMutability": "view",
      "type": "function"
    },
    {
      "constant": true,
      "inputs": [],
      "name": "IS_VALID_SIGNATURE_SELECTOR",
      "outputs": [
        {
          "name": "",
          "type": "bytes4"
        }
      ],
      "payable": false,
      "stateMutability": "view",
      "type": "function"
    },
    {
      "constant": true,
      "inputs": [],
      "name": "ALLOWED_VALIDATORS_SELECTOR",
      "outputs": [
        {
          "name": "",
          "type": "bytes4"
        }
      ],
      "payable": false,
      "stateMutability": "view",
      "type": "function"
    },
    {
      "constant": true,
      "inputs": [],
      "name": "CANCELLED_SELECTOR",
      "outputs": [
        {
          "name": "",
          "type": "bytes4"
        }
      ],
      "payable": false,
      "stateMutability": "view",
      "type": "function"
    },
    {
      "constant": true,
      "inputs": [],
      "name": "TRANSACTIONS_SELECTOR",
      "outputs": [
        {
          "name": "",
          "type": "bytes4"
        }
      ],
      "payable": false,
      "stateMutability": "view",
      "type": "function"
    },
    {
      "constant": true,
      "inputs": [],
      "name": "MARKET_BUY_ORDERS_NO_THROW_SELECTOR",
      "outputs": [
        {
          "name": "",
          "type": "bytes4"
        }
      ],
      "payable": false,
      "stateMutability": "view",
      "type": "function"
    },
    {
      "constant": true,
      "inputs": [],
      "name": "CURRENT_CONTEXT_ADDRESS_SELECTOR_GENERATOR",
      "outputs": [
        {
          "name": "",
          "type": "bytes4"
        }
      ],
      "payable": false,
      "stateMutability": "view",
      "type": "function"
    },
    {
      "constant": true,
      "inputs": [],
      "name": "OWNER_SELECTOR",
      "outputs": [
        {
          "name": "",
          "type": "bytes4"
        }
      ],
      "payable": false,
      "stateMutability": "view",
      "type": "function"
    },
    {
      "constant": true,
      "inputs": [],
      "name": "TRANSFER_OWNERSHIP_SELECTOR",
      "outputs": [
        {
          "name": "",
          "type": "bytes4"
        }
      ],
      "payable": false,
      "stateMutability": "view",
      "type": "function"
    },
    {
      "constant": true,
      "inputs": [],
      "name": "FILL_ORDER_SELECTOR_GENERATOR",
      "outputs": [
        {
          "name": "",
          "type": "bytes4"
        }
      ],
      "payable": false,
      "stateMutability": "view",
      "type": "function"
    },
    {
      "constant": true,
      "inputs": [],
      "name": "MARKET_SELL_ORDERS_SELECTOR",
      "outputs": [
        {
          "name": "",
          "type": "bytes4"
        }
      ],
      "payable": false,
      "stateMutability": "view",
      "type": "function"
    },
    {
      "constant": true,
      "inputs": [],
      "name": "ASSET_PROXIES_SELECTOR",
      "outputs": [
        {
          "name": "",
          "type": "bytes4"
        }
      ],
      "payable": false,
      "stateMutability": "view",
      "type": "function"
    },
    {
      "constant": true,
      "inputs": [],
      "name": "GET_ORDERS_INFO_SELECTOR",
      "outputs": [
        {
          "name": "",
          "type": "bytes4"
        }
      ],
      "payable": false,
      "stateMutability": "view",
      "type": "function"
    },
    {
      "constant": true,
      "inputs": [],
      "name": "CANCEL_ORDERS_UP_TO_SELECTOR_GENERATOR",
      "outputs": [
        {
          "name": "",
          "type": "bytes4"
        }
      ],
      "payable": false,
      "stateMutability": "view",
      "type": "function"
    },
    {
      "constant": true,
      "inputs": [],
      "name": "FILL_ORDER_NO_THROW_SELECTOR",
      "outputs": [
        {
          "name": "",
          "type": "bytes4"
        }
      ],
      "payable": false,
      "stateMutability": "view",
      "type": "function"
    },
    {
      "constant": true,
      "inputs": [],
      "name": "TRANSACTIONS_SELECTOR_GENERATOR",
      "outputs": [
        {
          "name": "",
          "type": "bytes4"
        }
      ],
      "payable": false,
      "stateMutability": "view",
      "type": "function"
    },
    {
      "constant": true,
      "inputs": [],
      "name": "CANCELLED_SELECTOR_GENERATOR",
      "outputs": [
        {
          "name": "",
          "type": "bytes4"
        }
      ],
      "payable": false,
      "stateMutability": "view",
      "type": "function"
    },
    {
      "constant": true,
      "inputs": [],
      "name": "CURRENT_CONTEXT_ADDRESS_SELECTOR",
      "outputs": [
        {
          "name": "",
          "type": "bytes4"
        }
      ],
      "payable": false,
      "stateMutability": "view",
      "type": "function"
    },
    {
      "constant": true,
      "inputs": [],
      "name": "FILL_OR_KILL_ORDER_SELECTOR",
      "outputs": [
        {
          "name": "",
          "type": "bytes4"
        }
      ],
      "payable": false,
      "stateMutability": "view",
      "type": "function"
    },
    {
      "constant": true,
      "inputs": [],
      "name": "CANCEL_ORDER_SELECTOR_GENERATOR",
      "outputs": [
        {
          "name": "",
          "type": "bytes4"
        }
      ],
      "payable": false,
      "stateMutability": "view",
      "type": "function"
    },
    {
      "constant": true,
      "inputs": [],
      "name": "BATCH_FILL_OR_KILL_ORDERS_SELECTOR",
      "outputs": [
        {
          "name": "",
          "type": "bytes4"
        }
      ],
      "payable": false,
      "stateMutability": "view",
      "type": "function"
    },
    {
      "constant": true,
      "inputs": [],
      "name": "BATCH_FILL_ORDERS_SELECTOR",
      "outputs": [
        {
          "name": "",
          "type": "bytes4"
        }
      ],
      "payable": false,
      "stateMutability": "view",
      "type": "function"
    },
    {
      "constant": true,
      "inputs": [],
      "name": "GET_ORDER_INFO_SELECTOR_GENERATOR",
      "outputs": [
        {
          "name": "",
          "type": "bytes4"
        }
      ],
      "payable": false,
      "stateMutability": "view",
      "type": "function"
    },
    {
      "constant": true,
      "inputs": [],
      "name": "OWNER_SELECTOR_GENERATOR",
      "outputs": [
        {
          "name": "",
          "type": "bytes4"
        }
      ],
      "payable": false,
      "stateMutability": "view",
      "type": "function"
    }
  ],
  "bytecode": "0x608060405234801561001057600080fd5b506130bb806100206000396000f3006080604052600436106102f6576000357c0100000000000000000000000000000000000000000000000000000000900463ffffffff16806304d46ba3146102fb57806304f1b6f71461036457806309e0f3ef146103cd578063113334b8146104365780631285f2ce1461049f57806312c234ff14610508578063171ba7c014610571578063191a14d7146105da5780631b589ebf1461064357806320443e1f146106ac5780632186a24214610715578063231f9d141461077e57806329bdb08f146107e75780633a38ed9b146108505780633a57a058146108b957806344c2761d146109225780634dd7aab91461098b57806356aa0ba6146109f457806357cc29d414610a5d5780635dcdb03a14610ac657806361652a7914610b2f578063616a18a814610b98578063657b192014610c0157806368d2ca3814610c6a5780636e3a299814610cd357806373f8f49114610d3c5780637c7b4d0c14610da5578063821b48e514610e0e57806382f9f7d214610e775780638586ca9e14610ee05780638902c94014610f495780638927924a14610fb25780638e00ed6b1461101b57806390cbbb621461108457806391f96680146110ed578063960a90731461115657806396231768146111bf57806396afa9631461122857806399c6475014611291578063a1307460146112fa578063aec65a1b14611363578063afb49fb7146113cc578063b24b134114611435578063b3459ad51461149e578063b7745b9814611507578063bbbe32e614611570578063bc1db3e7146115d9578063bcf1d98e14611642578063bf23985e146116ab578063c04ad9e014611714578063c0ebf1bb1461177d578063c3ce6994146117e6578063c4de76eb1461184f578063c7c5dd2e146118b8578063cde07ff114611921578063cfa024111461198a578063d7208f48146119f3578063ede2db0c14611a5c578063ee59f1d214611ac5578063f613644f14611b2e578063f68a349a14611b97578063fcb6a7fa14611c00578063fcda482114611c69578063ff6db9ae14611cd2575b600080fd5b34801561030757600080fd5b50610310611d3b565b60405180827bffffffffffffffffffffffffffffffffffffffffffffffffffffffff19167bffffffffffffffffffffffffffffffffffffffffffffffffffffffff1916815260200191505060405180910390f35b34801561037057600080fd5b50610379611d62565b60405180827bffffffffffffffffffffffffffffffffffffffffffffffffffffffff19167bffffffffffffffffffffffffffffffffffffffffffffffffffffffff1916815260200191505060405180910390f35b3480156103d957600080fd5b506103e2611d7e565b60405180827bffffffffffffffffffffffffffffffffffffffffffffffffffffffff19167bffffffffffffffffffffffffffffffffffffffffffffffffffffffff1916815260200191505060405180910390f35b34801561044257600080fd5b5061044b611db7565b60405180827bffffffffffffffffffffffffffffffffffffffffffffffffffffffff19167bffffffffffffffffffffffffffffffffffffffffffffffffffffffff1916815260200191505060405180910390f35b3480156104ab57600080fd5b506104b4611df0565b60405180827bffffffffffffffffffffffffffffffffffffffffffffffffffffffff19167bffffffffffffffffffffffffffffffffffffffffffffffffffffffff1916815260200191505060405180910390f35b34801561051457600080fd5b5061051d611e29565b60405180827bffffffffffffffffffffffffffffffffffffffffffffffffffffffff19167bffffffffffffffffffffffffffffffffffffffffffffffffffffffff1916815260200191505060405180910390f35b34801561057d57600080fd5b50610586611e62565b60405180827bffffffffffffffffffffffffffffffffffffffffffffffffffffffff19167bffffffffffffffffffffffffffffffffffffffffffffffffffffffff1916815260200191505060405180910390f35b3480156105e657600080fd5b506105ef611e89565b60405180827bffffffffffffffffffffffffffffffffffffffffffffffffffffffff19167bffffffffffffffffffffffffffffffffffffffffffffffffffffffff1916815260200191505060405180910390f35b34801561064f57600080fd5b50610658611eb0565b60405180827bffffffffffffffffffffffffffffffffffffffffffffffffffffffff19167bffffffffffffffffffffffffffffffffffffffffffffffffffffffff1916815260200191505060405180910390f35b3480156106b857600080fd5b506106c1611ed7565b60405180827bffffffffffffffffffffffffffffffffffffffffffffffffffffffff19167bffffffffffffffffffffffffffffffffffffffffffffffffffffffff1916815260200191505060405180910390f35b34801561072157600080fd5b5061072a611f82565b60405180827bffffffffffffffffffffffffffffffffffffffffffffffffffffffff19167bffffffffffffffffffffffffffffffffffffffffffffffffffffffff1916815260200191505060405180910390f35b34801561078a57600080fd5b50610793611fa9565b60405180827bffffffffffffffffffffffffffffffffffffffffffffffffffffffff19167bffffffffffffffffffffffffffffffffffffffffffffffffffffffff1916815260200191505060405180910390f35b3480156107f357600080fd5b506107fc611fe2565b60405180827bffffffffffffffffffffffffffffffffffffffffffffffffffffffff19167bffffffffffffffffffffffffffffffffffffffffffffffffffffffff1916815260200191505060405180910390f35b34801561085c57600080fd5b50610865612009565b60405180827bffffffffffffffffffffffffffffffffffffffffffffffffffffffff19167bffffffffffffffffffffffffffffffffffffffffffffffffffffffff1916815260200191505060405180910390f35b3480156108c557600080fd5b506108ce612030565b60405180827bffffffffffffffffffffffffffffffffffffffffffffffffffffffff19167bffffffffffffffffffffffffffffffffffffffffffffffffffffffff1916815260200191505060405180910390f35b34801561092e57600080fd5b50610937612057565b60405180827bffffffffffffffffffffffffffffffffffffffffffffffffffffffff19167bffffffffffffffffffffffffffffffffffffffffffffffffffffffff1916815260200191505060405180910390f35b34801561099757600080fd5b506109a061207e565b60405180827bffffffffffffffffffffffffffffffffffffffffffffffffffffffff19167bffffffffffffffffffffffffffffffffffffffffffffffffffffffff1916815260200191505060405180910390f35b348015610a0057600080fd5b50610a096120dd565b60405180827bffffffffffffffffffffffffffffffffffffffffffffffffffffffff19167bffffffffffffffffffffffffffffffffffffffffffffffffffffffff1916815260200191505060405180910390f35b348015610a6957600080fd5b50610a72612104565b60405180827bffffffffffffffffffffffffffffffffffffffffffffffffffffffff19167bffffffffffffffffffffffffffffffffffffffffffffffffffffffff1916815260200191505060405180910390f35b348015610ad257600080fd5b50610adb61212b565b60405180827bffffffffffffffffffffffffffffffffffffffffffffffffffffffff19167bffffffffffffffffffffffffffffffffffffffffffffffffffffffff1916815260200191505060405180910390f35b348015610b3b57600080fd5b50610b44612147565b60405180827bffffffffffffffffffffffffffffffffffffffffffffffffffffffff19167bffffffffffffffffffffffffffffffffffffffffffffffffffffffff1916815260200191505060405180910390f35b348015610ba457600080fd5b50610bad6121f2565b60405180827bffffffffffffffffffffffffffffffffffffffffffffffffffffffff19167bffffffffffffffffffffffffffffffffffffffffffffffffffffffff1916815260200191505060405180910390f35b348015610c0d57600080fd5b50610c16612219565b60405180827bffffffffffffffffffffffffffffffffffffffffffffffffffffffff19167bffffffffffffffffffffffffffffffffffffffffffffffffffffffff1916815260200191505060405180910390f35b348015610c7657600080fd5b50610c7f612252565b60405180827bffffffffffffffffffffffffffffffffffffffffffffffffffffffff19167bffffffffffffffffffffffffffffffffffffffffffffffffffffffff1916815260200191505060405180910390f35b348015610cdf57600080fd5b50610ce861226e565b60405180827bffffffffffffffffffffffffffffffffffffffffffffffffffffffff19167bffffffffffffffffffffffffffffffffffffffffffffffffffffffff1916815260200191505060405180910390f35b348015610d4857600080fd5b50610d5161228a565b60405180827bffffffffffffffffffffffffffffffffffffffffffffffffffffffff19167bffffffffffffffffffffffffffffffffffffffffffffffffffffffff1916815260200191505060405180910390f35b348015610db157600080fd5b50610dba6122e9565b60405180827bffffffffffffffffffffffffffffffffffffffffffffffffffffffff19167bffffffffffffffffffffffffffffffffffffffffffffffffffffffff1916815260200191505060405180910390f35b348015610e1a57600080fd5b50610e23612310565b60405180827bffffffffffffffffffffffffffffffffffffffffffffffffffffffff19167bffffffffffffffffffffffffffffffffffffffffffffffffffffffff1916815260200191505060405180910390f35b348015610e8357600080fd5b50610e8c6123bb565b60405180827bffffffffffffffffffffffffffffffffffffffffffffffffffffffff19167bffffffffffffffffffffffffffffffffffffffffffffffffffffffff1916815260200191505060405180910390f35b348015610eec57600080fd5b50610ef56123d7565b60405180827bffffffffffffffffffffffffffffffffffffffffffffffffffffffff19167bffffffffffffffffffffffffffffffffffffffffffffffffffffffff1916815260200191505060405180910390f35b348015610f5557600080fd5b50610f5e612436565b60405180827bffffffffffffffffffffffffffffffffffffffffffffffffffffffff19167bffffffffffffffffffffffffffffffffffffffffffffffffffffffff1916815260200191505060405180910390f35b348015610fbe57600080fd5b50610fc761246f565b60405180827bffffffffffffffffffffffffffffffffffffffffffffffffffffffff19167bffffffffffffffffffffffffffffffffffffffffffffffffffffffff1916815260200191505060405180910390f35b34801561102757600080fd5b5061103061251a565b60405180827bffffffffffffffffffffffffffffffffffffffffffffffffffffffff19167bffffffffffffffffffffffffffffffffffffffffffffffffffffffff1916815260200191505060405180910390f35b34801561109057600080fd5b50611099612553565b60405180827bffffffffffffffffffffffffffffffffffffffffffffffffffffffff19167bffffffffffffffffffffffffffffffffffffffffffffffffffffffff1916815260200191505060405180910390f35b3480156110f957600080fd5b5061110261257a565b60405180827bffffffffffffffffffffffffffffffffffffffffffffffffffffffff19167bffffffffffffffffffffffffffffffffffffffffffffffffffffffff1916815260200191505060405180910390f35b34801561116257600080fd5b5061116b6125d9565b60405180827bffffffffffffffffffffffffffffffffffffffffffffffffffffffff19167bffffffffffffffffffffffffffffffffffffffffffffffffffffffff1916815260200191505060405180910390f35b3480156111cb57600080fd5b506111d4612684565b60405180827bffffffffffffffffffffffffffffffffffffffffffffffffffffffff19167bffffffffffffffffffffffffffffffffffffffffffffffffffffffff1916815260200191505060405180910390f35b34801561123457600080fd5b5061123d6126a0565b60405180827bffffffffffffffffffffffffffffffffffffffffffffffffffffffff19167bffffffffffffffffffffffffffffffffffffffffffffffffffffffff1916815260200191505060405180910390f35b34801561129d57600080fd5b506112a66126c7565b60405180827bffffffffffffffffffffffffffffffffffffffffffffffffffffffff19167bffffffffffffffffffffffffffffffffffffffffffffffffffffffff1916815260200191505060405180910390f35b34801561130657600080fd5b5061130f6126e3565b60405180827bffffffffffffffffffffffffffffffffffffffffffffffffffffffff19167bffffffffffffffffffffffffffffffffffffffffffffffffffffffff1916815260200191505060405180910390f35b34801561136f57600080fd5b5061137861270a565b60405180827bffffffffffffffffffffffffffffffffffffffffffffffffffffffff19167bffffffffffffffffffffffffffffffffffffffffffffffffffffffff1916815260200191505060405180910390f35b3480156113d857600080fd5b506113e1612731565b60405180827bffffffffffffffffffffffffffffffffffffffffffffffffffffffff19167bffffffffffffffffffffffffffffffffffffffffffffffffffffffff1916815260200191505060405180910390f35b34801561144157600080fd5b5061144a612758565b60405180827bffffffffffffffffffffffffffffffffffffffffffffffffffffffff19167bffffffffffffffffffffffffffffffffffffffffffffffffffffffff1916815260200191505060405180910390f35b3480156114aa57600080fd5b506114b361277f565b60405180827bffffffffffffffffffffffffffffffffffffffffffffffffffffffff19167bffffffffffffffffffffffffffffffffffffffffffffffffffffffff1916815260200191505060405180910390f35b34801561151357600080fd5b5061151c6127a6565b60405180827bffffffffffffffffffffffffffffffffffffffffffffffffffffffff19167bffffffffffffffffffffffffffffffffffffffffffffffffffffffff1916815260200191505060405180910390f35b34801561157c57600080fd5b506115856127cd565b60405180827bffffffffffffffffffffffffffffffffffffffffffffffffffffffff19167bffffffffffffffffffffffffffffffffffffffffffffffffffffffff1916815260200191505060405180910390f35b3480156115e557600080fd5b506115ee6127f4565b60405180827bffffffffffffffffffffffffffffffffffffffffffffffffffffffff19167bffffffffffffffffffffffffffffffffffffffffffffffffffffffff1916815260200191505060405180910390f35b34801561164e57600080fd5b5061165761282d565b60405180827bffffffffffffffffffffffffffffffffffffffffffffffffffffffff19167bffffffffffffffffffffffffffffffffffffffffffffffffffffffff1916815260200191505060405180910390f35b3480156116b757600080fd5b506116c0612854565b60405180827bffffffffffffffffffffffffffffffffffffffffffffffffffffffff19167bffffffffffffffffffffffffffffffffffffffffffffffffffffffff1916815260200191505060405180910390f35b34801561172057600080fd5b5061172961287b565b60405180827bffffffffffffffffffffffffffffffffffffffffffffffffffffffff19167bffffffffffffffffffffffffffffffffffffffffffffffffffffffff1916815260200191505060405180910390f35b34801561178957600080fd5b50611792612926565b60405180827bffffffffffffffffffffffffffffffffffffffffffffffffffffffff19167bffffffffffffffffffffffffffffffffffffffffffffffffffffffff1916815260200191505060405180910390f35b3480156117f257600080fd5b506117fb61294d565b60405180827bffffffffffffffffffffffffffffffffffffffffffffffffffffffff19167bffffffffffffffffffffffffffffffffffffffffffffffffffffffff1916815260200191505060405180910390f35b34801561185b57600080fd5b50611864612974565b60405180827bffffffffffffffffffffffffffffffffffffffffffffffffffffffff19167bffffffffffffffffffffffffffffffffffffffffffffffffffffffff1916815260200191505060405180910390f35b3480156118c457600080fd5b506118cd61299b565b60405180827bffffffffffffffffffffffffffffffffffffffffffffffffffffffff19167bffffffffffffffffffffffffffffffffffffffffffffffffffffffff1916815260200191505060405180910390f35b34801561192d57600080fd5b506119366129d4565b60405180827bffffffffffffffffffffffffffffffffffffffffffffffffffffffff19167bffffffffffffffffffffffffffffffffffffffffffffffffffffffff1916815260200191505060405180910390f35b34801561199657600080fd5b5061199f6129fb565b60405180827bffffffffffffffffffffffffffffffffffffffffffffffffffffffff19167bffffffffffffffffffffffffffffffffffffffffffffffffffffffff1916815260200191505060405180910390f35b3480156119ff57600080fd5b50611a08612a34565b60405180827bffffffffffffffffffffffffffffffffffffffffffffffffffffffff19167bffffffffffffffffffffffffffffffffffffffffffffffffffffffff1916815260200191505060405180910390f35b348015611a6857600080fd5b50611a71612a6d565b60405180827bffffffffffffffffffffffffffffffffffffffffffffffffffffffff19167bffffffffffffffffffffffffffffffffffffffffffffffffffffffff1916815260200191505060405180910390f35b348015611ad157600080fd5b50611ada612a94565b60405180827bffffffffffffffffffffffffffffffffffffffffffffffffffffffff19167bffffffffffffffffffffffffffffffffffffffffffffffffffffffff1916815260200191505060405180910390f35b348015611b3a57600080fd5b50611b43612abb565b60405180827bffffffffffffffffffffffffffffffffffffffffffffffffffffffff19167bffffffffffffffffffffffffffffffffffffffffffffffffffffffff1916815260200191505060405180910390f35b348015611ba357600080fd5b50611bac612b66565b60405180827bffffffffffffffffffffffffffffffffffffffffffffffffffffffff19167bffffffffffffffffffffffffffffffffffffffffffffffffffffffff1916815260200191505060405180910390f35b348015611c0c57600080fd5b50611c15612b8d565b60405180827bffffffffffffffffffffffffffffffffffffffffffffffffffffffff19167bffffffffffffffffffffffffffffffffffffffffffffffffffffffff1916815260200191505060405180910390f35b348015611c7557600080fd5b50611c7e612bb4565b60405180827bffffffffffffffffffffffffffffffffffffffffffffffffffffffff19167bffffffffffffffffffffffffffffffffffffffffffffffffffffffff1916815260200191505060405180910390f35b348015611cde57600080fd5b50611ce7612c5f565b60405180827bffffffffffffffffffffffffffffffffffffffffffffffffffffffff19167bffffffffffffffffffffffffffffffffffffffffffffffffffffffff1916815260200191505060405180910390f35b63b4be83d57c01000000000000000000000000000000000000000000000000000000000281565b6040518080612f81608791396087019050604051809103902081565b60405180807f7072655369676e656428627974657333322c6164647265737329000000000000815250601a019050604051809103902081565b60405180807f6f7264657245706f636828616464726573732c61646472657373290000000000815250601b019050604051809103902081565b60405180807f7472616e736665724f776e657273686970286164647265737329000000000000815250601a019050604051809103902081565b60405180807f617373657450726f7869657328627974657334290000000000000000000000008152506014019050604051809103902081565b633c28d8617c01000000000000000000000000000000000000000000000000000000000281565b63e5fa431b7c01000000000000000000000000000000000000000000000000000000000281565b634f9559b17c01000000000000000000000000000000000000000000000000000000000281565b60405180807f66696c6c4f726465724e6f5468726f772828616464726573732c61646472657381526020017f732c616464726573732c616464726573732c75696e743235362c75696e74323581526020017f362c75696e743235362c75696e743235362c75696e743235362c75696e74323581526020017f362c62797465732c6279746573292c75696e743235362c627974657329000000815250607d019050604051809103902081565b63c585bb937c01000000000000000000000000000000000000000000000000000000000281565b60405180807f7265676973746572417373657450726f78792861646472657373290000000000815250601b019050604051809103902081565b6350dde1907c01000000000000000000000000000000000000000000000000000000000281565b63d9bfa73e7c01000000000000000000000000000000000000000000000000000000000281565b63607041087c01000000000000000000000000000000000000000000000000000000000281565b63288cdc917c01000000000000000000000000000000000000000000000000000000000281565b60405180807f616c6c6f77656456616c696461746f727328616464726573732c61646472657381526020017f73290000000000000000000000000000000000000000000000000000000000008152506022019050604051809103902081565b6382c174d07c01000000000000000000000000000000000000000000000000000000000281565b6377fcce687c01000000000000000000000000000000000000000000000000000000000281565b6040518080613008608891396088019050604051809103902081565b60405180807f66696c6c4f724b696c6c4f726465722828616464726573732c6164647265737381526020017f2c616464726573732c616464726573732c75696e743235362c75696e7432353681526020017f2c75696e743235362c75696e743235362c75696e743235362c75696e7432353681526020017f2c62797465732c6279746573292c75696e743235362c62797465732900000000815250607c019050604051809103902081565b633683ef8e7c01000000000000000000000000000000000000000000000000000000000281565b60405180807f676574417373657450726f7879286279746573342900000000000000000000008152506015019050604051809103902081565b6040518080612c99608291396082019050604051809103902081565b6040518080612e77608991396089019050604051809103902081565b60405180807f657865637574655472616e73616374696f6e2875696e743235362c616464726581526020017f73732c62797465732c6279746573290000000000000000000000000000000000815250602f019050604051809103902081565b63dd1c7d187c01000000000000000000000000000000000000000000000000000000000281565b60405180807f626174636843616e63656c4f72646572732828616464726573732c616464726581526020017f73732c616464726573732c616464726573732c75696e743235362c75696e743281526020017f35362c75696e743235362c75696e743235362c75696e743235362c75696e743281526020017f35362c62797465732c6279746573295b5d2900000000000000000000000000008152506072019050604051809103902081565b6040518080612def608891396088019050604051809103902081565b60405180807f697356616c69645369676e617475726528627974657333322c6164647265737381526020017f2c627974657329000000000000000000000000000000000000000000000000008152506027019050604051809103902081565b60405180807f66696c6c65642862797465733332290000000000000000000000000000000000815250600f019050604051809103902081565b60405180807f6765744f7264657273496e666f2828616464726573732c616464726573732c6181526020017f6464726573732c616464726573732c75696e743235362c75696e743235362c7581526020017f696e743235362c75696e743235362c75696e743235362c75696e743235362c6281526020017f797465732c6279746573295b5d29000000000000000000000000000000000000815250606e019050604051809103902081565b60405180807f7072655369676e28627974657333322c616464726573732c6279746573290000815250601e019050604051809103902081565b63c75e0a817c01000000000000000000000000000000000000000000000000000000000281565b60405180807f7365745369676e617475726556616c696461746f72417070726f76616c28616481526020017f64726573732c626f6f6c29000000000000000000000000000000000000000000815250602b019050604051809103902081565b60405180807f6d61726b65744275794f72646572732828616464726573732c6164647265737381526020017f2c616464726573732c616464726573732c75696e743235362c75696e7432353681526020017f2c75696e743235362c75696e743235362c75696e743235362c75696e7432353681526020017f2c62797465732c6279746573295b5d2c75696e743235362c62797465735b5d298152506080019050604051809103902081565b6040518080612d1b60d4913960d4019050604051809103902081565b63bfc8bfce7c01000000000000000000000000000000000000000000000000000000000281565b6040518080612f00608191396081019050604051809103902081565b63d46b02c37c01000000000000000000000000000000000000000000000000000000000281565b634ac147827c01000000000000000000000000000000000000000000000000000000000281565b63936347027c01000000000000000000000000000000000000000000000000000000000281565b637b8e35147c01000000000000000000000000000000000000000000000000000000000281565b632ac126227c01000000000000000000000000000000000000000000000000000000000281565b63642f2eaf7c01000000000000000000000000000000000000000000000000000000000281565b63a3e203807c01000000000000000000000000000000000000000000000000000000000281565b60405180807f63757272656e74436f6e746578744164647265737328290000000000000000008152506017019050604051809103902081565b638da5cb5b7c01000000000000000000000000000000000000000000000000000000000281565b63f2fde38b7c01000000000000000000000000000000000000000000000000000000000281565b60405180807f66696c6c4f726465722828616464726573732c616464726573732c616464726581526020017f73732c616464726573732c75696e743235362c75696e743235362c75696e743281526020017f35362c75696e743235362c75696e743235362c75696e743235362c627974657381526020017f2c6279746573292c75696e743235362c627974657329000000000000000000008152506076019050604051809103902081565b637e1d98087c01000000000000000000000000000000000000000000000000000000000281565b633fd3c9977c01000000000000000000000000000000000000000000000000000000000281565b637e9d74dc7c01000000000000000000000000000000000000000000000000000000000281565b60405180807f63616e63656c4f72646572735570546f2875696e7432353629000000000000008152506019019050604051809103902081565b633e228bae7c01000000000000000000000000000000000000000000000000000000000281565b60405180807f7472616e73616374696f6e7328627974657333322900000000000000000000008152506015019050604051809103902081565b60405180807f63616e63656c6c656428627974657333322900000000000000000000000000008152506012019050604051809103902081565b63eea086ba7c01000000000000000000000000000000000000000000000000000000000281565b6364a3bc157c01000000000000000000000000000000000000000000000000000000000281565b60405180807f63616e63656c4f726465722828616464726573732c616464726573732c61646481526020017f726573732c616464726573732c75696e743235362c75696e743235362c75696e81526020017f743235362c75696e743235362c75696e743235362c75696e743235362c62797481526020017f65732c6279746573292900000000000000000000000000000000000000000000815250606a019050604051809103902081565b634d0ae5467c01000000000000000000000000000000000000000000000000000000000281565b63297bb70b7c01000000000000000000000000000000000000000000000000000000000281565b60405180807f6765744f72646572496e666f2828616464726573732c616464726573732c616481526020017f64726573732c616464726573732c75696e743235362c75696e743235362c756981526020017f6e743235362c75696e743235362c75696e743235362c75696e743235362c627981526020017f7465732c62797465732929000000000000000000000000000000000000000000815250606b019050604051809103902081565b60405180807f6f776e657228290000000000000000000000000000000000000000000000000081525060070190506040518091039020815600626174636846696c6c4f72646572732828616464726573732c616464726573732c616464726573732c616464726573732c75696e743235362c75696e743235362c75696e743235362c75696e743235362c75696e743235362c75696e743235362c62797465732c6279746573295b5d2c75696e743235365b5d2c62797465735b5d296d617463684f72646572732828616464726573732c616464726573732c616464726573732c616464726573732c75696e743235362c75696e743235362c75696e743235362c75696e743235362c75696e743235362c75696e743235362c62797465732c6279746573292c28616464726573732c616464726573732c616464726573732c616464726573732c75696e743235362c75696e743235362c75696e743235362c75696e743235362c75696e743235362c75696e743235362c62797465732c6279746573292c62797465732c627974657329626174636846696c6c4f724b696c6c4f72646572732828616464726573732c616464726573732c616464726573732c616464726573732c75696e743235362c75696e743235362c75696e743235362c75696e743235362c75696e743235362c75696e743235362c62797465732c6279746573295b5d2c75696e743235365b5d2c62797465735b5d29626174636846696c6c4f72646572734e6f5468726f772828616464726573732c616464726573732c616464726573732c616464726573732c75696e743235362c75696e743235362c75696e743235362c75696e743235362c75696e743235362c75696e743235362c62797465732c6279746573295b5d2c75696e743235365b5d2c62797465735b5d296d61726b657453656c6c4f72646572732828616464726573732c616464726573732c616464726573732c616464726573732c75696e743235362c75696e743235362c75696e743235362c75696e743235362c75696e743235362c75696e743235362c62797465732c6279746573295b5d2c75696e743235362c62797465735b5d296d61726b65744275794f72646572734e6f5468726f772828616464726573732c616464726573732c616464726573732c616464726573732c75696e743235362c75696e743235362c75696e743235362c75696e743235362c75696e743235362c75696e743235362c62797465732c6279746573295b5d2c75696e743235362c62797465735b5d296d61726b657453656c6c4f72646572734e6f5468726f772828616464726573732c616464726573732c616464726573732c616464726573732c75696e743235362c75696e743235362c75696e743235362c75696e743235362c75696e743235362c75696e743235362c62797465732c6279746573295b5d2c75696e743235362c62797465735b5d29a165627a7a7230582087d9463288d95be80bb364073bfe9a650b54d615dac96cfdc0dca616d2b4f0910029",
  "source": "/*\n\n  Copyright 2018 ZeroEx Intl.\n\n  Licensed under the Apache License, Version 2.0 (the \"License\");\n  you may not use this file except in compliance with the License.\n  You may obtain a copy of the License at\n\n    http://www.apache.org/licenses/LICENSE-2.0\n\n  Unless required by applicable law or agreed to in writing, software\n  distributed under the License is distributed on an \"AS IS\" BASIS,\n  WITHOUT WARRANTIES OR CONDITIONS OF ANY KIND, either express or implied.\n  See the License for the specific language governing permissions and\n  limitations under the License.\n\n*/\n\npragma solidity ^0.4.24;\n\n\ncontract LibExchangeSelectors {\n\n    // solhint-disable max-line-length\n    // allowedValidators\n    bytes4 constant public ALLOWED_VALIDATORS_SELECTOR = 0x7b8e3514;\n    bytes4 constant public ALLOWED_VALIDATORS_SELECTOR_GENERATOR = bytes4(keccak256(\"allowedValidators(address,address)\"));\n\n    // assetProxies\n    bytes4 constant public ASSET_PROXIES_SELECTOR = 0x3fd3c997;\n    bytes4 constant public ASSET_PROXIES_SELECTOR_GENERATOR = bytes4(keccak256(\"assetProxies(bytes4)\"));\n\n    // batchCancelOrders\n    bytes4 constant public BATCH_CANCEL_ORDERS_SELECTOR = 0x4ac14782;\n    bytes4 constant public BATCH_CANCEL_ORDERS_SELECTOR_GENERATOR = bytes4(keccak256(\"batchCancelOrders((address,address,address,address,uint256,uint256,uint256,uint256,uint256,uint256,bytes,bytes)[])\"));\n\n    // batchFillOrKillOrders\n    bytes4 constant public BATCH_FILL_OR_KILL_ORDERS_SELECTOR = 0x4d0ae546;\n    bytes4 constant public BATCH_FILL_OR_KILL_ORDERS_SELECTOR_GENERATOR = bytes4(keccak256(\"batchFillOrKillOrders((address,address,address,address,uint256,uint256,uint256,uint256,uint256,uint256,bytes,bytes)[],uint256[],bytes[])\"));\n\n    // batchFillOrders\n    bytes4 constant public BATCH_FILL_ORDERS_SELECTOR = 0x297bb70b;\n    bytes4 constant public BATCH_FILL_ORDERS_SELECTOR_GENERATOR = bytes4(keccak256(\"batchFillOrders((address,address,address,address,uint256,uint256,uint256,uint256,uint256,uint256,bytes,bytes)[],uint256[],bytes[])\"));\n\n    // batchFillOrdersNoThrow\n    bytes4 constant public BATCH_FILL_ORDERS_NO_THROW_SELECTOR = 0x50dde190;\n    bytes4 constant public BATCH_FILL_ORDERS_NO_THROW_SELECTOR_GENERATOR = bytes4(keccak256(\"batchFillOrdersNoThrow((address,address,address,address,uint256,uint256,uint256,uint256,uint256,uint256,bytes,bytes)[],uint256[],bytes[])\"));\n\n    // cancelOrder\n    bytes4 constant public CANCEL_ORDER_SELECTOR = 0xd46b02c3;\n    bytes4 constant public CANCEL_ORDER_SELECTOR_GENERATOR = bytes4(keccak256(\"cancelOrder((address,address,address,address,uint256,uint256,uint256,uint256,uint256,uint256,bytes,bytes))\"));\n\n    // cancelOrdersUpTo\n    bytes4 constant public CANCEL_ORDERS_UP_TO_SELECTOR = 0x4f9559b1;\n    bytes4 constant public CANCEL_ORDERS_UP_TO_SELECTOR_GENERATOR = bytes4(keccak256(\"cancelOrdersUpTo(uint256)\"));\n\n    // cancelled\n    bytes4 constant public CANCELLED_SELECTOR = 0x2ac12622;\n    bytes4 constant public CANCELLED_SELECTOR_GENERATOR = bytes4(keccak256(\"cancelled(bytes32)\"));\n\n    // currentContextAddress\n    bytes4 constant public CURRENT_CONTEXT_ADDRESS_SELECTOR = 0xeea086ba;\n    bytes4 constant public CURRENT_CONTEXT_ADDRESS_SELECTOR_GENERATOR = bytes4(keccak256(\"currentContextAddress()\"));\n\n    // executeTransaction\n    bytes4 constant public EXECUTE_TRANSACTION_SELECTOR = 0xbfc8bfce;\n    bytes4 constant public EXECUTE_TRANSACTION_SELECTOR_GENERATOR = bytes4(keccak256(\"executeTransaction(uint256,address,bytes,bytes)\"));\n\n    // fillOrKillOrder\n    bytes4 constant public FILL_OR_KILL_ORDER_SELECTOR = 0x64a3bc15;\n    bytes4 constant public FILL_OR_KILL_ORDER_SELECTOR_GENERATOR = bytes4(keccak256(\"fillOrKillOrder((address,address,address,address,uint256,uint256,uint256,uint256,uint256,uint256,bytes,bytes),uint256,bytes)\"));\n\n    // fillOrder\n    bytes4 constant public FILL_ORDER_SELECTOR = 0xb4be83d5;\n    bytes4 constant public FILL_ORDER_SELECTOR_GENERATOR = bytes4(keccak256(\"fillOrder((address,address,address,address,uint256,uint256,uint256,uint256,uint256,uint256,bytes,bytes),uint256,bytes)\"));\n\n    // fillOrderNoThrow\n    bytes4 constant public FILL_ORDER_NO_THROW_SELECTOR = 0x3e228bae;\n    bytes4 constant public FILL_ORDER_NO_THROW_SELECTOR_GENERATOR = bytes4(keccak256(\"fillOrderNoThrow((address,address,address,address,uint256,uint256,uint256,uint256,uint256,uint256,bytes,bytes),uint256,bytes)\"));\n\n    // filled\n    bytes4 constant public FILLED_SELECTOR = 0x288cdc91;\n    bytes4 constant public FILLED_SELECTOR_GENERATOR = bytes4(keccak256(\"filled(bytes32)\"));\n\n    // getAssetProxy\n    bytes4 constant public GET_ASSET_PROXY_SELECTOR = 0x60704108;\n    bytes4 constant public GET_ASSET_PROXY_SELECTOR_GENERATOR = bytes4(keccak256(\"getAssetProxy(bytes4)\"));\n\n    // getOrderInfo\n    bytes4 constant public GET_ORDER_INFO_SELECTOR = 0xc75e0a81;\n    bytes4 constant public GET_ORDER_INFO_SELECTOR_GENERATOR = bytes4(keccak256(\"getOrderInfo((address,address,address,address,uint256,uint256,uint256,uint256,uint256,uint256,bytes,bytes))\"));\n\n    // getOrdersInfo\n    bytes4 constant public GET_ORDERS_INFO_SELECTOR = 0x7e9d74dc;\n    bytes4 constant public GET_ORDERS_INFO_SELECTOR_GENERATOR = bytes4(keccak256(\"getOrdersInfo((address,address,address,address,uint256,uint256,uint256,uint256,uint256,uint256,bytes,bytes)[])\"));\n\n    // isValidSignature\n    bytes4 constant public IS_VALID_SIGNATURE_SELECTOR = 0x93634702;\n    bytes4 constant public IS_VALID_SIGNATURE_SELECTOR_GENERATOR = bytes4(keccak256(\"isValidSignature(bytes32,address,bytes)\"));\n\n    // marketBuyOrders\n    bytes4 constant public MARKET_BUY_ORDERS_SELECTOR = 0xe5fa431b;\n    bytes4 constant public MARKET_BUY_ORDERS_SELECTOR_GENERATOR = bytes4(keccak256(\"marketBuyOrders((address,address,address,address,uint256,uint256,uint256,uint256,uint256,uint256,bytes,bytes)[],uint256,bytes[])\"));\n\n    // marketBuyOrdersNoThrow\n    bytes4 constant public MARKET_BUY_ORDERS_NO_THROW_SELECTOR = 0xa3e20380;\n    bytes4 constant public MARKET_BUY_ORDERS_NO_THROW_SELECTOR_GENERATOR = bytes4(keccak256(\"marketBuyOrdersNoThrow((address,address,address,address,uint256,uint256,uint256,uint256,uint256,uint256,bytes,bytes)[],uint256,bytes[])\"));\n\n    // marketSellOrders\n    bytes4 constant public MARKET_SELL_ORDERS_SELECTOR = 0x7e1d9808;\n    bytes4 constant public MARKET_SELL_ORDERS_SELECTOR_GENERATOR = bytes4(keccak256(\"marketSellOrders((address,address,address,address,uint256,uint256,uint256,uint256,uint256,uint256,bytes,bytes)[],uint256,bytes[])\"));\n\n    // marketSellOrdersNoThrow\n    bytes4 constant public MARKET_SELL_ORDERS_NO_THROW_SELECTOR = 0xdd1c7d18;\n    bytes4 constant public MARKET_SELL_ORDERS_NO_THROW_SELECTOR_GENERATOR = bytes4(keccak256(\"marketSellOrdersNoThrow((address,address,address,address,uint256,uint256,uint256,uint256,uint256,uint256,bytes,bytes)[],uint256,bytes[])\"));\n\n    // matchOrders\n    bytes4 constant public MATCH_ORDERS_SELECTOR = 0x3c28d861;\n    bytes4 constant public MATCH_ORDERS_SELECTOR_GENERATOR = bytes4(keccak256(\"matchOrders((address,address,address,address,uint256,uint256,uint256,uint256,uint256,uint256,bytes,bytes),(address,address,address,address,uint256,uint256,uint256,uint256,uint256,uint256,bytes,bytes),bytes,bytes)\"));\n\n    // orderEpoch\n    bytes4 constant public ORDER_EPOCH_SELECTOR = 0xd9bfa73e;\n    bytes4 constant public ORDER_EPOCH_SELECTOR_GENERATOR = bytes4(keccak256(\"orderEpoch(address,address)\"));\n\n    // owner\n    bytes4 constant public OWNER_SELECTOR = 0x8da5cb5b;\n    bytes4 constant public OWNER_SELECTOR_GENERATOR = bytes4(keccak256(\"owner()\"));\n\n    // preSign\n    bytes4 constant public PRE_SIGN_SELECTOR = 0x3683ef8e;\n    bytes4 constant public PRE_SIGN_SELECTOR_GENERATOR = bytes4(keccak256(\"preSign(bytes32,address,bytes)\"));\n\n    // preSigned\n    bytes4 constant public PRE_SIGNED_SELECTOR = 0x82c174d0;\n    bytes4 constant public PRE_SIGNED_SELECTOR_GENERATOR = bytes4(keccak256(\"preSigned(bytes32,address)\"));\n\n    // registerAssetProxy\n    bytes4 constant public REGISTER_ASSET_PROXY_SELECTOR = 0xc585bb93;\n    bytes4 constant public REGISTER_ASSET_PROXY_SELECTOR_GENERATOR = bytes4(keccak256(\"registerAssetProxy(address)\"));\n\n    // setSignatureValidatorApproval\n    bytes4 constant public SET_SIGNATURE_VALIDATOR_APPROVAL_SELECTOR = 0x77fcce68;\n    bytes4 constant public SET_SIGNATURE_VALIDATOR_APPROVAL_SELECTOR_GENERATOR = bytes4(keccak256(\"setSignatureValidatorApproval(address,bool)\"));\n\n    // transactions\n    bytes4 constant public TRANSACTIONS_SELECTOR = 0x642f2eaf;\n    bytes4 constant public TRANSACTIONS_SELECTOR_GENERATOR = bytes4(keccak256(\"transactions(bytes32)\"));\n\n    // transferOwnership\n    bytes4 constant public TRANSFER_OWNERSHIP_SELECTOR = 0xf2fde38b;\n    bytes4 constant public TRANSFER_OWNERSHIP_SELECTOR_GENERATOR = bytes4(keccak256(\"transferOwnership(address)\"));\n}",
  "sourcePath": "/Users/lawrenceballou/Desktop/BlockNerds/Clients/AltcoinIo/filter-contract/contracts/libs/contracts/libs/LibExchangeSelectors.sol",
  "compiler": {
    "name": "solc",
    "version": "0.4.24+commit.e67f0147.Emscripten.clang"
  },
  "schemaVersion": "3.0.0",
  "updatedAt": "2018-12-28T17:39:10.947Z",
  "devdoc": {
    "methods": {}
  },
  "userdoc": {
    "methods": {}
  }
}