{
  "contractName": "MixinAuthorizable",
  "abi": [
    {
      "constant": true,
      "inputs": [
        {
          "name": "",
          "type": "uint256"
        }
      ],
      "name": "authorities",
      "outputs": [
        {
          "name": "",
          "type": "address"
        }
      ],
      "payable": false,
      "stateMutability": "view",
      "type": "function"
    },
    {
      "constant": true,
      "inputs": [],
      "name": "owner",
      "outputs": [
        {
          "name": "",
          "type": "address"
        }
      ],
      "payable": false,
      "stateMutability": "view",
      "type": "function"
    },
    {
      "constant": true,
      "inputs": [
        {
          "name": "",
          "type": "address"
        }
      ],
      "name": "authorized",
      "outputs": [
        {
          "name": "",
          "type": "bool"
        }
      ],
      "payable": false,
      "stateMutability": "view",
      "type": "function"
    },
    {
      "constant": false,
      "inputs": [
        {
          "name": "newOwner",
          "type": "address"
        }
      ],
      "name": "transferOwnership",
      "outputs": [],
      "payable": false,
      "stateMutability": "nonpayable",
      "type": "function"
    },
    {
      "anonymous": false,
      "inputs": [
        {
          "indexed": true,
          "name": "target",
          "type": "address"
        },
        {
          "indexed": true,
          "name": "caller",
          "type": "address"
        }
      ],
      "name": "AuthorizedAddressAdded",
      "type": "event"
    },
    {
      "anonymous": false,
      "inputs": [
        {
          "indexed": true,
          "name": "target",
          "type": "address"
        },
        {
          "indexed": true,
          "name": "caller",
          "type": "address"
        }
      ],
      "name": "AuthorizedAddressRemoved",
      "type": "event"
    },
    {
      "constant": false,
      "inputs": [
        {
          "name": "target",
          "type": "address"
        }
      ],
      "name": "addAuthorizedAddress",
      "outputs": [],
      "payable": false,
      "stateMutability": "nonpayable",
      "type": "function"
    },
    {
      "constant": false,
      "inputs": [
        {
          "name": "target",
          "type": "address"
        }
      ],
      "name": "removeAuthorizedAddress",
      "outputs": [],
      "payable": false,
      "stateMutability": "nonpayable",
      "type": "function"
    },
    {
      "constant": false,
      "inputs": [
        {
          "name": "target",
          "type": "address"
        },
        {
          "name": "index",
          "type": "uint256"
        }
      ],
      "name": "removeAuthorizedAddressAtIndex",
      "outputs": [],
      "payable": false,
      "stateMutability": "nonpayable",
      "type": "function"
    },
    {
      "constant": true,
      "inputs": [],
      "name": "getAuthorizedAddresses",
      "outputs": [
        {
          "name": "",
          "type": "address[]"
        }
      ],
      "payable": false,
      "stateMutability": "view",
      "type": "function"
    }
  ],
  "bytecode": "0x6080604052336000806101000a81548173ffffffffffffffffffffffffffffffffffffffff021916908373ffffffffffffffffffffffffffffffffffffffff160217905550611053806100536000396000f30060806040526004361061008e576000357c0100000000000000000000000000000000000000000000000000000000900463ffffffff16806342f1181e14610093578063494503d4146100d657806370712939146101435780638da5cb5b146101865780639ad26744146101dd578063b91816111461022a578063d39de6e914610285578063f2fde38b146102f1575b600080fd5b34801561009f57600080fd5b506100d4600480360381019080803573ffffffffffffffffffffffffffffffffffffffff169060200190929190505050610334565b005b3480156100e257600080fd5b50610101600480360381019080803590602001909291905050506105d4565b604051808273ffffffffffffffffffffffffffffffffffffffff1673ffffffffffffffffffffffffffffffffffffffff16815260200191505060405180910390f35b34801561014f57600080fd5b50610184600480360381019080803573ffffffffffffffffffffffffffffffffffffffff169060200190929190505050610612565b005b34801561019257600080fd5b5061019b610989565b604051808273ffffffffffffffffffffffffffffffffffffffff1673ffffffffffffffffffffffffffffffffffffffff16815260200191505060405180910390f35b3480156101e957600080fd5b50610228600480360381019080803573ffffffffffffffffffffffffffffffffffffffff169060200190929190803590602001909291905050506109ae565b005b34801561023657600080fd5b5061026b600480360381019080803573ffffffffffffffffffffffffffffffffffffffff169060200190929190505050610dea565b604051808215151515815260200191505060405180910390f35b34801561029157600080fd5b5061029a610e0a565b6040518080602001828103825283818151815260200191508051906020019060200280838360005b838110156102dd5780820151818401526020810190506102c2565b505050509050019250505060405180910390f35b3480156102fd57600080fd5b50610332600480360381019080803573ffffffffffffffffffffffffffffffffffffffff169060200190929190505050610e98565b005b6000809054906101000a900473ffffffffffffffffffffffffffffffffffffffff1673ffffffffffffffffffffffffffffffffffffffff163373ffffffffffffffffffffffffffffffffffffffff161415156103f8576040517f08c379a00000000000000000000000000000000000000000000000000000000081526004018080602001828103825260138152602001807f4f4e4c595f434f4e54524143545f4f574e45520000000000000000000000000081525060200191505060405180910390fd5b600160008273ffffffffffffffffffffffffffffffffffffffff1673ffffffffffffffffffffffffffffffffffffffff16815260200190815260200160002060009054906101000a900460ff161515156104ba576040517f08c379a00000000000000000000000000000000000000000000000000000000081526004018080602001828103825260198152602001807f5441524745545f414c52454144595f415554484f52495a45440000000000000081525060200191505060405180910390fd5b60018060008373ffffffffffffffffffffffffffffffffffffffff1673ffffffffffffffffffffffffffffffffffffffff16815260200190815260200160002060006101000a81548160ff02191690831515021790555060028190806001815401808255809150509060018203906000526020600020016000909192909190916101000a81548173ffffffffffffffffffffffffffffffffffffffff021916908373ffffffffffffffffffffffffffffffffffffffff160217905550503373ffffffffffffffffffffffffffffffffffffffff168173ffffffffffffffffffffffffffffffffffffffff167f3147867c59d17e8fa9d522465651d44aae0a9e38f902f3475b97e58072f0ed4c60405160405180910390a350565b6002818154811015156105e357fe5b906000526020600020016000915054906101000a900473ffffffffffffffffffffffffffffffffffffffff1681565b60008060009054906101000a900473ffffffffffffffffffffffffffffffffffffffff1673ffffffffffffffffffffffffffffffffffffffff163373ffffffffffffffffffffffffffffffffffffffff161415156106d8576040517f08c379a00000000000000000000000000000000000000000000000000000000081526004018080602001828103825260138152602001807f4f4e4c595f434f4e54524143545f4f574e45520000000000000000000000000081525060200191505060405180910390fd5b600160008373ffffffffffffffffffffffffffffffffffffffff1673ffffffffffffffffffffffffffffffffffffffff16815260200190815260200160002060009054906101000a900460ff161515610799576040517f08c379a00000000000000000000000000000000000000000000000000000000081526004018080602001828103825260158152602001807f5441524745545f4e4f545f415554484f52495a4544000000000000000000000081525060200191505060405180910390fd5b600160008373ffffffffffffffffffffffffffffffffffffffff1673ffffffffffffffffffffffffffffffffffffffff16815260200190815260200160002060006101000a81549060ff0219169055600090505b60028054905081101561092b578173ffffffffffffffffffffffffffffffffffffffff1660028281548110151561082057fe5b9060005260206000200160009054906101000a900473ffffffffffffffffffffffffffffffffffffffff1673ffffffffffffffffffffffffffffffffffffffff16141561091e57600260016002805490500381548110151561087e57fe5b9060005260206000200160009054906101000a900473ffffffffffffffffffffffffffffffffffffffff166002828154811015156108b857fe5b9060005260206000200160006101000a81548173ffffffffffffffffffffffffffffffffffffffff021916908373ffffffffffffffffffffffffffffffffffffffff16021790555060016002818180549050039150816109189190610fd6565b5061092b565b80806001019150506107ed565b3373ffffffffffffffffffffffffffffffffffffffff168273ffffffffffffffffffffffffffffffffffffffff167f1f32c1b084e2de0713b8fb16bd46bb9df710a3dbeae2f3ca93af46e016dcc6b060405160405180910390a35050565b6000809054906101000a900473ffffffffffffffffffffffffffffffffffffffff1681565b6000809054906101000a900473ffffffffffffffffffffffffffffffffffffffff1673ffffffffffffffffffffffffffffffffffffffff163373ffffffffffffffffffffffffffffffffffffffff16141515610a72576040517f08c379a00000000000000000000000000000000000000000000000000000000081526004018080602001828103825260138152602001807f4f4e4c595f434f4e54524143545f4f574e45520000000000000000000000000081525060200191505060405180910390fd5b600160008373ffffffffffffffffffffffffffffffffffffffff1673ffffffffffffffffffffffffffffffffffffffff16815260200190815260200160002060009054906101000a900460ff161515610b33576040517f08c379a00000000000000000000000000000000000000000000000000000000081526004018080602001828103825260158152602001807f5441524745545f4e4f545f415554484f52495a4544000000000000000000000081525060200191505060405180910390fd5b60028054905081101515610baf576040517f08c379a00000000000000000000000000000000000000000000000000000000081526004018080602001828103825260138152602001807f494e4445585f4f55545f4f465f424f554e44530000000000000000000000000081525060200191505060405180910390fd5b8173ffffffffffffffffffffffffffffffffffffffff16600282815481101515610bd557fe5b9060005260206000200160009054906101000a900473ffffffffffffffffffffffffffffffffffffffff1673ffffffffffffffffffffffffffffffffffffffff16141515610c8b576040517f08c379a000000000000000000000000000000000000000000000000000000000815260040180806020018281038252601b8152602001807f415554484f52495a45445f414444524553535f4d49534d41544348000000000081525060200191505060405180910390fd5b600160008373ffffffffffffffffffffffffffffffffffffffff1673ffffffffffffffffffffffffffffffffffffffff16815260200190815260200160002060006101000a81549060ff02191690556002600160028054905003815481101515610cf157fe5b9060005260206000200160009054906101000a900473ffffffffffffffffffffffffffffffffffffffff16600282815481101515610d2b57fe5b9060005260206000200160006101000a81548173ffffffffffffffffffffffffffffffffffffffff021916908373ffffffffffffffffffffffffffffffffffffffff1602179055506001600281818054905003915081610d8b9190610fd6565b503373ffffffffffffffffffffffffffffffffffffffff168273ffffffffffffffffffffffffffffffffffffffff167f1f32c1b084e2de0713b8fb16bd46bb9df710a3dbeae2f3ca93af46e016dcc6b060405160405180910390a35050565b60016020528060005260406000206000915054906101000a900460ff1681565b60606002805480602002602001604051908101604052809291908181526020018280548015610e8e57602002820191906000526020600020905b8160009054906101000a900473ffffffffffffffffffffffffffffffffffffffff1673ffffffffffffffffffffffffffffffffffffffff1681526020019060010190808311610e44575b5050505050905090565b6000809054906101000a900473ffffffffffffffffffffffffffffffffffffffff1673ffffffffffffffffffffffffffffffffffffffff163373ffffffffffffffffffffffffffffffffffffffff16141515610f5c576040517f08c379a00000000000000000000000000000000000000000000000000000000081526004018080602001828103825260138152602001807f4f4e4c595f434f4e54524143545f4f574e45520000000000000000000000000081525060200191505060405180910390fd5b600073ffffffffffffffffffffffffffffffffffffffff168173ffffffffffffffffffffffffffffffffffffffff16141515610fd357806000806101000a81548173ffffffffffffffffffffffffffffffffffffffff021916908373ffffffffffffffffffffffffffffffffffffffff1602179055505b50565b815481835581811115610ffd57818360005260206000209182019101610ffc9190611002565b5b505050565b61102491905b80821115611020576000816000905550600101611008565b5090565b905600a165627a7a72305820f946e89d875b982a737d7e8ddd43e994b3d2e866b22732f1b1230c183a6a7d1a0029",
  "source": "/*\n\n  Copyright 2018 ZeroEx Intl.\n\n  Licensed under the Apache License, Version 2.0 (the \"License\");\n  you may not use this file except in compliance with the License.\n  You may obtain a copy of the License at\n\n    http://www.apache.org/licenses/LICENSE-2.0\n\n  Unless required by applicable law or agreed to in writing, software\n  distributed under the License is distributed on an \"AS IS\" BASIS,\n  WITHOUT WARRANTIES OR CONDITIONS OF ANY KIND, either express or implied.\n  See the License for the specific language governing permissions and\n  limitations under the License.\n\n*/\n\npragma solidity ^0.4.24;\n\nimport \"../../../../utils/contracts/utils/Ownable/Ownable.sol\";\nimport \"./mixins/MAuthorizable.sol\";\n\n\ncontract MixinAuthorizable is\n    Ownable,\n    MAuthorizable\n{\n    /// @dev Only authorized addresses can invoke functions with this modifier.\n    modifier onlyAuthorized {\n        require(\n            authorized[msg.sender],\n            \"SENDER_NOT_AUTHORIZED\"\n        );\n        _;\n    }\n\n    mapping (address => bool) public authorized;\n    address[] public authorities;\n\n    /// @dev Authorizes an address.\n    /// @param target Address to authorize.\n    function addAuthorizedAddress(address target)\n        external\n        onlyOwner\n    {\n        require(\n            !authorized[target],\n            \"TARGET_ALREADY_AUTHORIZED\"\n        );\n\n        authorized[target] = true;\n        authorities.push(target);\n        emit AuthorizedAddressAdded(target, msg.sender);\n    }\n\n    /// @dev Removes authorizion of an address.\n    /// @param target Address to remove authorization from.\n    function removeAuthorizedAddress(address target)\n        external\n        onlyOwner\n    {\n        require(\n            authorized[target],\n            \"TARGET_NOT_AUTHORIZED\"\n        );\n\n        delete authorized[target];\n        for (uint256 i = 0; i < authorities.length; i++) {\n            if (authorities[i] == target) {\n                authorities[i] = authorities[authorities.length - 1];\n                authorities.length -= 1;\n                break;\n            }\n        }\n        emit AuthorizedAddressRemoved(target, msg.sender);\n    }\n\n    /// @dev Removes authorizion of an address.\n    /// @param target Address to remove authorization from.\n    /// @param index Index of target in authorities array.\n    function removeAuthorizedAddressAtIndex(\n        address target,\n        uint256 index\n    )\n        external\n        onlyOwner\n    {\n        require(\n            authorized[target],\n            \"TARGET_NOT_AUTHORIZED\"\n        );\n        require(\n            index < authorities.length,\n            \"INDEX_OUT_OF_BOUNDS\"\n        );\n        require(\n            authorities[index] == target,\n            \"AUTHORIZED_ADDRESS_MISMATCH\"\n        );\n\n        delete authorized[target];\n        authorities[index] = authorities[authorities.length - 1];\n        authorities.length -= 1;\n        emit AuthorizedAddressRemoved(target, msg.sender);\n    }\n\n    /// @dev Gets all authorized addresses.\n    /// @return Array of authorized addresses.\n    function getAuthorizedAddresses()\n        external\n        view\n        returns (address[] memory)\n    {\n        return authorities;\n    }\n}\n",
  "sourcePath": "/Users/lawrenceballou/Desktop/BlockNerds/Clients/AltcoinIo/filter-contract/contracts/protocol/contracts/protocol/AssetProxy/MixinAuthorizable.sol",
  "compiler": {
    "name": "solc",
    "version": "0.4.24+commit.e67f0147.Emscripten.clang"
  },
  "schemaVersion": "3.0.0",
  "updatedAt": "2018-12-28T17:39:10.970Z",
  "devdoc": {
    "methods": {
      "addAuthorizedAddress(address)": {
        "details": "Authorizes an address.",
        "params": {
          "target": "Address to authorize."
        }
      },
      "getAuthorizedAddresses()": {
        "details": "Gets all authorized addresses.",
        "return": "Array of authorized addresses."
      },
      "removeAuthorizedAddress(address)": {
        "details": "Removes authorizion of an address.",
        "params": {
          "target": "Address to remove authorization from."
        }
      },
      "removeAuthorizedAddressAtIndex(address,uint256)": {
        "details": "Removes authorizion of an address.",
        "params": {
          "index": "Index of target in authorities array.",
          "target": "Address to remove authorization from."
        }
      }
    }
  },
  "userdoc": {
    "methods": {}
  }
}