{
  "contractName": "MixinBalanceThresholdFilterCore",
  "abi": [
    {
      "constant": true,
      "inputs": [],
      "name": "FILL_ORDER_SELECTOR",
      "outputs": [
        {
          "name": "",
          "type": "bytes4"
        }
      ],
      "payable": false,
      "stateMutability": "view",
      "type": "function"
    },
    {
      "constant": true,
      "inputs": [],
      "name": "MARKET_BUY_ORDERS_NO_THROW_SELECTOR_GENERATOR",
      "outputs": [
        {
          "name": "",
          "type": "bytes4"
        }
      ],
      "payable": false,
      "stateMutability": "view",
      "type": "function"
    },
    {
      "constant": true,
      "inputs": [],
      "name": "PRE_SIGNED_SELECTOR_GENERATOR",
      "outputs": [
        {
          "name": "",
          "type": "bytes4"
        }
      ],
      "payable": false,
      "stateMutability": "view",
      "type": "function"
    },
    {
      "constant": true,
      "inputs": [],
      "name": "ORDER_EPOCH_SELECTOR_GENERATOR",
      "outputs": [
        {
          "name": "",
          "type": "bytes4"
        }
      ],
      "payable": false,
      "stateMutability": "view",
      "type": "function"
    },
    {
      "constant": true,
      "inputs": [],
      "name": "TRANSFER_OWNERSHIP_SELECTOR_GENERATOR",
      "outputs": [
        {
          "name": "",
          "type": "bytes4"
        }
      ],
      "payable": false,
      "stateMutability": "view",
      "type": "function"
    },
    {
      "constant": true,
      "inputs": [],
      "name": "ASSET_PROXIES_SELECTOR_GENERATOR",
      "outputs": [
        {
          "name": "",
          "type": "bytes4"
        }
      ],
      "payable": false,
      "stateMutability": "view",
      "type": "function"
    },
    {
      "constant": true,
      "inputs": [],
      "name": "MATCH_ORDERS_SELECTOR",
      "outputs": [
        {
          "name": "",
          "type": "bytes4"
        }
      ],
      "payable": false,
      "stateMutability": "view",
      "type": "function"
    },
    {
      "constant": true,
      "inputs": [],
      "name": "MARKET_BUY_ORDERS_SELECTOR",
      "outputs": [
        {
          "name": "",
          "type": "bytes4"
        }
      ],
      "payable": false,
      "stateMutability": "view",
      "type": "function"
    },
    {
      "constant": true,
      "inputs": [],
      "name": "CANCEL_ORDERS_UP_TO_SELECTOR",
      "outputs": [
        {
          "name": "",
          "type": "bytes4"
        }
      ],
      "payable": false,
      "stateMutability": "view",
      "type": "function"
    },
    {
      "constant": true,
      "inputs": [],
      "name": "FILL_ORDER_NO_THROW_SELECTOR_GENERATOR",
      "outputs": [
        {
          "name": "",
          "type": "bytes4"
        }
      ],
      "payable": false,
      "stateMutability": "view",
      "type": "function"
    },
    {
      "constant": true,
      "inputs": [],
      "name": "REGISTER_ASSET_PROXY_SELECTOR",
      "outputs": [
        {
          "name": "",
          "type": "bytes4"
        }
      ],
      "payable": false,
      "stateMutability": "view",
      "type": "function"
    },
    {
      "constant": true,
      "inputs": [],
      "name": "REGISTER_ASSET_PROXY_SELECTOR_GENERATOR",
      "outputs": [
        {
          "name": "",
          "type": "bytes4"
        }
      ],
      "payable": false,
      "stateMutability": "view",
      "type": "function"
    },
    {
      "constant": true,
      "inputs": [],
      "name": "BATCH_FILL_ORDERS_NO_THROW_SELECTOR",
      "outputs": [
        {
          "name": "",
          "type": "bytes4"
        }
      ],
      "payable": false,
      "stateMutability": "view",
      "type": "function"
    },
    {
      "constant": true,
      "inputs": [],
      "name": "ORDER_EPOCH_SELECTOR",
      "outputs": [
        {
          "name": "",
          "type": "bytes4"
        }
      ],
      "payable": false,
      "stateMutability": "view",
      "type": "function"
    },
    {
      "constant": true,
      "inputs": [],
      "name": "GET_ASSET_PROXY_SELECTOR",
      "outputs": [
        {
          "name": "",
          "type": "bytes4"
        }
      ],
      "payable": false,
      "stateMutability": "view",
      "type": "function"
    },
    {
      "constant": true,
      "inputs": [],
      "name": "FILLED_SELECTOR",
      "outputs": [
        {
          "name": "",
          "type": "bytes4"
        }
      ],
      "payable": false,
      "stateMutability": "view",
      "type": "function"
    },
    {
      "constant": true,
      "inputs": [],
      "name": "ALLOWED_VALIDATORS_SELECTOR_GENERATOR",
      "outputs": [
        {
          "name": "",
          "type": "bytes4"
        }
      ],
      "payable": false,
      "stateMutability": "view",
      "type": "function"
    },
    {
      "constant": true,
      "inputs": [],
      "name": "PRE_SIGNED_SELECTOR",
      "outputs": [
        {
          "name": "",
          "type": "bytes4"
        }
      ],
      "payable": false,
      "stateMutability": "view",
      "type": "function"
    },
    {
      "constant": true,
      "inputs": [],
      "name": "SET_SIGNATURE_VALIDATOR_APPROVAL_SELECTOR",
      "outputs": [
        {
          "name": "",
          "type": "bytes4"
        }
      ],
      "payable": false,
      "stateMutability": "view",
      "type": "function"
    },
    {
      "constant": true,
      "inputs": [],
      "name": "MARKET_SELL_ORDERS_NO_THROW_SELECTOR_GENERATOR",
      "outputs": [
        {
          "name": "",
          "type": "bytes4"
        }
      ],
      "payable": false,
      "stateMutability": "view",
      "type": "function"
    },
    {
      "constant": true,
      "inputs": [],
      "name": "FILL_OR_KILL_ORDER_SELECTOR_GENERATOR",
      "outputs": [
        {
          "name": "",
          "type": "bytes4"
        }
      ],
      "payable": false,
      "stateMutability": "view",
      "type": "function"
    },
    {
      "constant": true,
      "inputs": [],
      "name": "PRE_SIGN_SELECTOR",
      "outputs": [
        {
          "name": "",
          "type": "bytes4"
        }
      ],
      "payable": false,
      "stateMutability": "view",
      "type": "function"
    },
    {
      "constant": true,
      "inputs": [],
      "name": "GET_ASSET_PROXY_SELECTOR_GENERATOR",
      "outputs": [
        {
          "name": "",
          "type": "bytes4"
        }
      ],
      "payable": false,
      "stateMutability": "view",
      "type": "function"
    },
    {
      "constant": true,
      "inputs": [],
      "name": "BATCH_FILL_ORDERS_SELECTOR_GENERATOR",
      "outputs": [
        {
          "name": "",
          "type": "bytes4"
        }
      ],
      "payable": false,
      "stateMutability": "view",
      "type": "function"
    },
    {
      "constant": true,
      "inputs": [],
      "name": "BATCH_FILL_ORDERS_NO_THROW_SELECTOR_GENERATOR",
      "outputs": [
        {
          "name": "",
          "type": "bytes4"
        }
      ],
      "payable": false,
      "stateMutability": "view",
      "type": "function"
    },
    {
      "constant": true,
      "inputs": [],
      "name": "EXECUTE_TRANSACTION_SELECTOR_GENERATOR",
      "outputs": [
        {
          "name": "",
          "type": "bytes4"
        }
      ],
      "payable": false,
      "stateMutability": "view",
      "type": "function"
    },
    {
      "constant": true,
      "inputs": [],
      "name": "MARKET_SELL_ORDERS_NO_THROW_SELECTOR",
      "outputs": [
        {
          "name": "",
          "type": "bytes4"
        }
      ],
      "payable": false,
      "stateMutability": "view",
      "type": "function"
    },
    {
      "constant": true,
      "inputs": [],
      "name": "BATCH_CANCEL_ORDERS_SELECTOR_GENERATOR",
      "outputs": [
        {
          "name": "",
          "type": "bytes4"
        }
      ],
      "payable": false,
      "stateMutability": "view",
      "type": "function"
    },
    {
      "constant": true,
      "inputs": [],
      "name": "BATCH_FILL_OR_KILL_ORDERS_SELECTOR_GENERATOR",
      "outputs": [
        {
          "name": "",
          "type": "bytes4"
        }
      ],
      "payable": false,
      "stateMutability": "view",
      "type": "function"
    },
    {
      "constant": true,
      "inputs": [],
      "name": "IS_VALID_SIGNATURE_SELECTOR_GENERATOR",
      "outputs": [
        {
          "name": "",
          "type": "bytes4"
        }
      ],
      "payable": false,
      "stateMutability": "view",
      "type": "function"
    },
    {
      "constant": true,
      "inputs": [],
      "name": "FILLED_SELECTOR_GENERATOR",
      "outputs": [
        {
          "name": "",
          "type": "bytes4"
        }
      ],
      "payable": false,
      "stateMutability": "view",
      "type": "function"
    },
    {
      "constant": true,
      "inputs": [],
      "name": "GET_ORDERS_INFO_SELECTOR_GENERATOR",
      "outputs": [
        {
          "name": "",
          "type": "bytes4"
        }
      ],
      "payable": false,
      "stateMutability": "view",
      "type": "function"
    },
    {
      "constant": true,
      "inputs": [],
      "name": "PRE_SIGN_SELECTOR_GENERATOR",
      "outputs": [
        {
          "name": "",
          "type": "bytes4"
        }
      ],
      "payable": false,
      "stateMutability": "view",
      "type": "function"
    },
    {
      "constant": true,
      "inputs": [],
      "name": "GET_ORDER_INFO_SELECTOR",
      "outputs": [
        {
          "name": "",
          "type": "bytes4"
        }
      ],
      "payable": false,
      "stateMutability": "view",
      "type": "function"
    },
    {
      "constant": true,
      "inputs": [],
      "name": "SET_SIGNATURE_VALIDATOR_APPROVAL_SELECTOR_GENERATOR",
      "outputs": [
        {
          "name": "",
          "type": "bytes4"
        }
      ],
      "payable": false,
      "stateMutability": "view",
      "type": "function"
    },
    {
      "constant": true,
      "inputs": [],
      "name": "MARKET_BUY_ORDERS_SELECTOR_GENERATOR",
      "outputs": [
        {
          "name": "",
          "type": "bytes4"
        }
      ],
      "payable": false,
      "stateMutability": "view",
      "type": "function"
    },
    {
      "constant": true,
      "inputs": [],
      "name": "MATCH_ORDERS_SELECTOR_GENERATOR",
      "outputs": [
        {
          "name": "",
          "type": "bytes4"
        }
      ],
      "payable": false,
      "stateMutability": "view",
      "type": "function"
    },
    {
      "constant": true,
      "inputs": [],
      "name": "EXECUTE_TRANSACTION_SELECTOR",
      "outputs": [
        {
          "name": "",
          "type": "bytes4"
        }
      ],
      "payable": false,
      "stateMutability": "view",
      "type": "function"
    },
    {
      "constant": true,
      "inputs": [],
      "name": "MARKET_SELL_ORDERS_SELECTOR_GENERATOR",
      "outputs": [
        {
          "name": "",
          "type": "bytes4"
        }
      ],
      "payable": false,
      "stateMutability": "view",
      "type": "function"
    },
    {
      "constant": true,
      "inputs": [],
      "name": "CANCEL_ORDER_SELECTOR",
      "outputs": [
        {
          "name": "",
          "type": "bytes4"
        }
      ],
      "payable": false,
      "stateMutability": "view",
      "type": "function"
    },
    {
      "constant": true,
      "inputs": [],
      "name": "BATCH_CANCEL_ORDERS_SELECTOR",
      "outputs": [
        {
          "name": "",
          "type": "bytes4"
        }
      ],
      "payable": false,
      "stateMutability": "view",
      "type": "function"
    },
    {
      "constant": true,
      "inputs": [],
      "name": "IS_VALID_SIGNATURE_SELECTOR",
      "outputs": [
        {
          "name": "",
          "type": "bytes4"
        }
      ],
      "payable": false,
      "stateMutability": "view",
      "type": "function"
    },
    {
      "constant": true,
      "inputs": [],
      "name": "ALLOWED_VALIDATORS_SELECTOR",
      "outputs": [
        {
          "name": "",
          "type": "bytes4"
        }
      ],
      "payable": false,
      "stateMutability": "view",
      "type": "function"
    },
    {
      "constant": true,
      "inputs": [],
      "name": "CANCELLED_SELECTOR",
      "outputs": [
        {
          "name": "",
          "type": "bytes4"
        }
      ],
      "payable": false,
      "stateMutability": "view",
      "type": "function"
    },
    {
      "constant": true,
      "inputs": [],
      "name": "TRANSACTIONS_SELECTOR",
      "outputs": [
        {
          "name": "",
          "type": "bytes4"
        }
      ],
      "payable": false,
      "stateMutability": "view",
      "type": "function"
    },
    {
      "constant": true,
      "inputs": [],
      "name": "MARKET_BUY_ORDERS_NO_THROW_SELECTOR",
      "outputs": [
        {
          "name": "",
          "type": "bytes4"
        }
      ],
      "payable": false,
      "stateMutability": "view",
      "type": "function"
    },
    {
      "constant": true,
      "inputs": [],
      "name": "CURRENT_CONTEXT_ADDRESS_SELECTOR_GENERATOR",
      "outputs": [
        {
          "name": "",
          "type": "bytes4"
        }
      ],
      "payable": false,
      "stateMutability": "view",
      "type": "function"
    },
    {
      "constant": true,
      "inputs": [],
      "name": "OWNER_SELECTOR",
      "outputs": [
        {
          "name": "",
          "type": "bytes4"
        }
      ],
      "payable": false,
      "stateMutability": "view",
      "type": "function"
    },
    {
      "constant": true,
      "inputs": [],
      "name": "TRANSFER_OWNERSHIP_SELECTOR",
      "outputs": [
        {
          "name": "",
          "type": "bytes4"
        }
      ],
      "payable": false,
      "stateMutability": "view",
      "type": "function"
    },
    {
      "constant": true,
      "inputs": [],
      "name": "FILL_ORDER_SELECTOR_GENERATOR",
      "outputs": [
        {
          "name": "",
          "type": "bytes4"
        }
      ],
      "payable": false,
      "stateMutability": "view",
      "type": "function"
    },
    {
      "constant": true,
      "inputs": [],
      "name": "MARKET_SELL_ORDERS_SELECTOR",
      "outputs": [
        {
          "name": "",
          "type": "bytes4"
        }
      ],
      "payable": false,
      "stateMutability": "view",
      "type": "function"
    },
    {
      "constant": true,
      "inputs": [],
      "name": "ASSET_PROXIES_SELECTOR",
      "outputs": [
        {
          "name": "",
          "type": "bytes4"
        }
      ],
      "payable": false,
      "stateMutability": "view",
      "type": "function"
    },
    {
      "constant": true,
      "inputs": [],
      "name": "GET_ORDERS_INFO_SELECTOR",
      "outputs": [
        {
          "name": "",
          "type": "bytes4"
        }
      ],
      "payable": false,
      "stateMutability": "view",
      "type": "function"
    },
    {
      "constant": true,
      "inputs": [],
      "name": "CANCEL_ORDERS_UP_TO_SELECTOR_GENERATOR",
      "outputs": [
        {
          "name": "",
          "type": "bytes4"
        }
      ],
      "payable": false,
      "stateMutability": "view",
      "type": "function"
    },
    {
      "constant": true,
      "inputs": [],
      "name": "FILL_ORDER_NO_THROW_SELECTOR",
      "outputs": [
        {
          "name": "",
          "type": "bytes4"
        }
      ],
      "payable": false,
      "stateMutability": "view",
      "type": "function"
    },
    {
      "constant": true,
      "inputs": [],
      "name": "TRANSACTIONS_SELECTOR_GENERATOR",
      "outputs": [
        {
          "name": "",
          "type": "bytes4"
        }
      ],
      "payable": false,
      "stateMutability": "view",
      "type": "function"
    },
    {
      "constant": true,
      "inputs": [],
      "name": "CANCELLED_SELECTOR_GENERATOR",
      "outputs": [
        {
          "name": "",
          "type": "bytes4"
        }
      ],
      "payable": false,
      "stateMutability": "view",
      "type": "function"
    },
    {
      "constant": true,
      "inputs": [],
      "name": "EIP712_DOMAIN_HASH",
      "outputs": [
        {
          "name": "",
          "type": "bytes32"
        }
      ],
      "payable": false,
      "stateMutability": "view",
      "type": "function"
    },
    {
      "constant": true,
      "inputs": [],
      "name": "CURRENT_CONTEXT_ADDRESS_SELECTOR",
      "outputs": [
        {
          "name": "",
          "type": "bytes4"
        }
      ],
      "payable": false,
      "stateMutability": "view",
      "type": "function"
    },
    {
      "constant": true,
      "inputs": [],
      "name": "FILL_OR_KILL_ORDER_SELECTOR",
      "outputs": [
        {
          "name": "",
          "type": "bytes4"
        }
      ],
      "payable": false,
      "stateMutability": "view",
      "type": "function"
    },
    {
      "constant": true,
      "inputs": [],
      "name": "CANCEL_ORDER_SELECTOR_GENERATOR",
      "outputs": [
        {
          "name": "",
          "type": "bytes4"
        }
      ],
      "payable": false,
      "stateMutability": "view",
      "type": "function"
    },
    {
      "constant": true,
      "inputs": [],
      "name": "BATCH_FILL_OR_KILL_ORDERS_SELECTOR",
      "outputs": [
        {
          "name": "",
          "type": "bytes4"
        }
      ],
      "payable": false,
      "stateMutability": "view",
      "type": "function"
    },
    {
      "constant": true,
      "inputs": [],
      "name": "BATCH_FILL_ORDERS_SELECTOR",
      "outputs": [
        {
          "name": "",
          "type": "bytes4"
        }
      ],
      "payable": false,
      "stateMutability": "view",
      "type": "function"
    },
    {
      "constant": true,
      "inputs": [],
      "name": "GET_ORDER_INFO_SELECTOR_GENERATOR",
      "outputs": [
        {
          "name": "",
          "type": "bytes4"
        }
      ],
      "payable": false,
      "stateMutability": "view",
      "type": "function"
    },
    {
      "constant": true,
      "inputs": [],
      "name": "OWNER_SELECTOR_GENERATOR",
      "outputs": [
        {
          "name": "",
          "type": "bytes4"
        }
      ],
      "payable": false,
      "stateMutability": "view",
      "type": "function"
    },
    {
      "anonymous": false,
      "inputs": [
        {
          "indexed": false,
          "name": "addresses",
          "type": "address[]"
        }
      ],
      "name": "ValidatedAddresses",
      "type": "event"
    },
    {
      "constant": false,
      "inputs": [
        {
          "name": "salt",
          "type": "uint256"
        },
        {
          "name": "signerAddress",
          "type": "address"
        },
        {
          "name": "signedExchangeTransaction",
          "type": "bytes"
        },
        {
          "name": "signature",
          "type": "bytes"
        }
      ],
      "name": "executeTransaction",
      "outputs": [],
      "payable": false,
      "stateMutability": "nonpayable",
      "type": "function"
    }
  ],
  "bytecode": "0x608060405260405160200180807f454950373132446f6d61696e2800000000000000000000000000000000000000815250600d01807f737472696e67206e616d652c0000000000000000000000000000000000000000815250600c01807f737472696e672076657273696f6e2c0000000000000000000000000000000000815250600f01807f6164647265737320766572696679696e67436f6e747261637400000000000000815250601901807f290000000000000000000000000000000000000000000000000000000000000081525060010190506040516020818303038152906040526040518082805190602001908083835b6020831015156200011b5780518252602082019150602081019050602083039250620000f4565b6001836020036101000a03801982511681845116808217855250505050505090500191505060405180910390206040805190810160405280600b81526020017f30782050726f746f636f6c0000000000000000000000000000000000000000008152506040518082805190602001908083835b602083101515620001b557805182526020820191506020810190506020830392506200018e565b6001836020036101000a03801982511681845116808217855250505050505090500191505060405180910390206040805190810160405280600181526020017f32000000000000000000000000000000000000000000000000000000000000008152506040518082805190602001908083835b6020831015156200024f578051825260208201915060208101905060208303925062000228565b6001836020036101000a03801982511681845116808217855250505050505090500191505060405180910390203073ffffffffffffffffffffffffffffffffffffffff166001026040516020018085600019166000191681526020018460001916600019168152602001836000191660001916815260200182600019166000191681526020019450505050506040516020818303038152906040526040518082805190602001908083835b602083101515620003215780518252602082019150602081019050602083039250620002fa565b6001836020036101000a038019825116818451168082178552505050505050905001915050604051809103902060038160001916905550613f4880620003686000396000f30060806040526004361061030c576000357c0100000000000000000000000000000000000000000000000000000000900463ffffffff16806304d46ba31461031157806304f1b6f71461037a57806309e0f3ef146103e3578063113334b81461044c5780631285f2ce146104b557806312c234ff1461051e578063171ba7c014610587578063191a14d7146105f05780631b589ebf1461065957806320443e1f146106c25780632186a2421461072b578063231f9d141461079457806329bdb08f146107fd5780633a38ed9b146108665780633a57a058146108cf57806344c2761d146109385780634dd7aab9146109a157806356aa0ba614610a0a57806357cc29d414610a735780635dcdb03a14610adc57806361652a7914610b45578063616a18a814610bae578063657b192014610c1757806368d2ca3814610c805780636e3a299814610ce957806373f8f49114610d525780637c7b4d0c14610dbb578063821b48e514610e2457806382f9f7d214610e8d5780638586ca9e14610ef65780638902c94014610f5f5780638927924a14610fc85780638e00ed6b1461103157806390cbbb621461109a57806391f9668014611103578063960a90731461116c57806396231768146111d557806396afa9631461123e57806399c64750146112a7578063a130746014611310578063aec65a1b14611379578063afb49fb7146113e2578063b24b13411461144b578063b3459ad5146114b4578063b7745b981461151d578063bbbe32e614611586578063bc1db3e7146115ef578063bcf1d98e14611658578063bf23985e146116c1578063bfc8bfce1461172a578063c04ad9e0146117a7578063c0ebf1bb14611810578063c3ce699414611879578063c4de76eb146118e2578063c7c5dd2e1461194b578063cde07ff1146119b4578063cfa0241114611a1d578063d7208f4814611a86578063e306f77914611aef578063ede2db0c14611b22578063ee59f1d214611b8b578063f613644f14611bf4578063f68a349a14611c5d578063fcb6a7fa14611cc6578063fcda482114611d2f578063ff6db9ae14611d98575b600080fd5b34801561031d57600080fd5b50610326611e01565b60405180827bffffffffffffffffffffffffffffffffffffffffffffffffffffffff19167bffffffffffffffffffffffffffffffffffffffffffffffffffffffff1916815260200191505060405180910390f35b34801561038657600080fd5b5061038f611e28565b60405180827bffffffffffffffffffffffffffffffffffffffffffffffffffffffff19167bffffffffffffffffffffffffffffffffffffffffffffffffffffffff1916815260200191505060405180910390f35b3480156103ef57600080fd5b506103f8611e44565b60405180827bffffffffffffffffffffffffffffffffffffffffffffffffffffffff19167bffffffffffffffffffffffffffffffffffffffffffffffffffffffff1916815260200191505060405180910390f35b34801561045857600080fd5b50610461611e7d565b60405180827bffffffffffffffffffffffffffffffffffffffffffffffffffffffff19167bffffffffffffffffffffffffffffffffffffffffffffffffffffffff1916815260200191505060405180910390f35b3480156104c157600080fd5b506104ca611eb6565b60405180827bffffffffffffffffffffffffffffffffffffffffffffffffffffffff19167bffffffffffffffffffffffffffffffffffffffffffffffffffffffff1916815260200191505060405180910390f35b34801561052a57600080fd5b50610533611eef565b60405180827bffffffffffffffffffffffffffffffffffffffffffffffffffffffff19167bffffffffffffffffffffffffffffffffffffffffffffffffffffffff1916815260200191505060405180910390f35b34801561059357600080fd5b5061059c611f28565b60405180827bffffffffffffffffffffffffffffffffffffffffffffffffffffffff19167bffffffffffffffffffffffffffffffffffffffffffffffffffffffff1916815260200191505060405180910390f35b3480156105fc57600080fd5b50610605611f4f565b60405180827bffffffffffffffffffffffffffffffffffffffffffffffffffffffff19167bffffffffffffffffffffffffffffffffffffffffffffffffffffffff1916815260200191505060405180910390f35b34801561066557600080fd5b5061066e611f76565b60405180827bffffffffffffffffffffffffffffffffffffffffffffffffffffffff19167bffffffffffffffffffffffffffffffffffffffffffffffffffffffff1916815260200191505060405180910390f35b3480156106ce57600080fd5b506106d7611f9d565b60405180827bffffffffffffffffffffffffffffffffffffffffffffffffffffffff19167bffffffffffffffffffffffffffffffffffffffffffffffffffffffff1916815260200191505060405180910390f35b34801561073757600080fd5b50610740612048565b60405180827bffffffffffffffffffffffffffffffffffffffffffffffffffffffff19167bffffffffffffffffffffffffffffffffffffffffffffffffffffffff1916815260200191505060405180910390f35b3480156107a057600080fd5b506107a961206f565b60405180827bffffffffffffffffffffffffffffffffffffffffffffffffffffffff19167bffffffffffffffffffffffffffffffffffffffffffffffffffffffff1916815260200191505060405180910390f35b34801561080957600080fd5b506108126120a8565b60405180827bffffffffffffffffffffffffffffffffffffffffffffffffffffffff19167bffffffffffffffffffffffffffffffffffffffffffffffffffffffff1916815260200191505060405180910390f35b34801561087257600080fd5b5061087b6120cf565b60405180827bffffffffffffffffffffffffffffffffffffffffffffffffffffffff19167bffffffffffffffffffffffffffffffffffffffffffffffffffffffff1916815260200191505060405180910390f35b3480156108db57600080fd5b506108e46120f6565b60405180827bffffffffffffffffffffffffffffffffffffffffffffffffffffffff19167bffffffffffffffffffffffffffffffffffffffffffffffffffffffff1916815260200191505060405180910390f35b34801561094457600080fd5b5061094d61211d565b60405180827bffffffffffffffffffffffffffffffffffffffffffffffffffffffff19167bffffffffffffffffffffffffffffffffffffffffffffffffffffffff1916815260200191505060405180910390f35b3480156109ad57600080fd5b506109b6612144565b60405180827bffffffffffffffffffffffffffffffffffffffffffffffffffffffff19167bffffffffffffffffffffffffffffffffffffffffffffffffffffffff1916815260200191505060405180910390f35b348015610a1657600080fd5b50610a1f6121a3565b60405180827bffffffffffffffffffffffffffffffffffffffffffffffffffffffff19167bffffffffffffffffffffffffffffffffffffffffffffffffffffffff1916815260200191505060405180910390f35b348015610a7f57600080fd5b50610a886121ca565b60405180827bffffffffffffffffffffffffffffffffffffffffffffffffffffffff19167bffffffffffffffffffffffffffffffffffffffffffffffffffffffff1916815260200191505060405180910390f35b348015610ae857600080fd5b50610af16121f1565b60405180827bffffffffffffffffffffffffffffffffffffffffffffffffffffffff19167bffffffffffffffffffffffffffffffffffffffffffffffffffffffff1916815260200191505060405180910390f35b348015610b5157600080fd5b50610b5a61220d565b60405180827bffffffffffffffffffffffffffffffffffffffffffffffffffffffff19167bffffffffffffffffffffffffffffffffffffffffffffffffffffffff1916815260200191505060405180910390f35b348015610bba57600080fd5b50610bc36122b8565b60405180827bffffffffffffffffffffffffffffffffffffffffffffffffffffffff19167bffffffffffffffffffffffffffffffffffffffffffffffffffffffff1916815260200191505060405180910390f35b348015610c2357600080fd5b50610c2c6122df565b60405180827bffffffffffffffffffffffffffffffffffffffffffffffffffffffff19167bffffffffffffffffffffffffffffffffffffffffffffffffffffffff1916815260200191505060405180910390f35b348015610c8c57600080fd5b50610c95612318565b60405180827bffffffffffffffffffffffffffffffffffffffffffffffffffffffff19167bffffffffffffffffffffffffffffffffffffffffffffffffffffffff1916815260200191505060405180910390f35b348015610cf557600080fd5b50610cfe612334565b60405180827bffffffffffffffffffffffffffffffffffffffffffffffffffffffff19167bffffffffffffffffffffffffffffffffffffffffffffffffffffffff1916815260200191505060405180910390f35b348015610d5e57600080fd5b50610d67612350565b60405180827bffffffffffffffffffffffffffffffffffffffffffffffffffffffff19167bffffffffffffffffffffffffffffffffffffffffffffffffffffffff1916815260200191505060405180910390f35b348015610dc757600080fd5b50610dd06123af565b60405180827bffffffffffffffffffffffffffffffffffffffffffffffffffffffff19167bffffffffffffffffffffffffffffffffffffffffffffffffffffffff1916815260200191505060405180910390f35b348015610e3057600080fd5b50610e396123d6565b60405180827bffffffffffffffffffffffffffffffffffffffffffffffffffffffff19167bffffffffffffffffffffffffffffffffffffffffffffffffffffffff1916815260200191505060405180910390f35b348015610e9957600080fd5b50610ea2612481565b60405180827bffffffffffffffffffffffffffffffffffffffffffffffffffffffff19167bffffffffffffffffffffffffffffffffffffffffffffffffffffffff1916815260200191505060405180910390f35b348015610f0257600080fd5b50610f0b61249d565b60405180827bffffffffffffffffffffffffffffffffffffffffffffffffffffffff19167bffffffffffffffffffffffffffffffffffffffffffffffffffffffff1916815260200191505060405180910390f35b348015610f6b57600080fd5b50610f746124fc565b60405180827bffffffffffffffffffffffffffffffffffffffffffffffffffffffff19167bffffffffffffffffffffffffffffffffffffffffffffffffffffffff1916815260200191505060405180910390f35b348015610fd457600080fd5b50610fdd612535565b60405180827bffffffffffffffffffffffffffffffffffffffffffffffffffffffff19167bffffffffffffffffffffffffffffffffffffffffffffffffffffffff1916815260200191505060405180910390f35b34801561103d57600080fd5b506110466125e0565b60405180827bffffffffffffffffffffffffffffffffffffffffffffffffffffffff19167bffffffffffffffffffffffffffffffffffffffffffffffffffffffff1916815260200191505060405180910390f35b3480156110a657600080fd5b506110af612619565b60405180827bffffffffffffffffffffffffffffffffffffffffffffffffffffffff19167bffffffffffffffffffffffffffffffffffffffffffffffffffffffff1916815260200191505060405180910390f35b34801561110f57600080fd5b50611118612640565b60405180827bffffffffffffffffffffffffffffffffffffffffffffffffffffffff19167bffffffffffffffffffffffffffffffffffffffffffffffffffffffff1916815260200191505060405180910390f35b34801561117857600080fd5b5061118161269f565b60405180827bffffffffffffffffffffffffffffffffffffffffffffffffffffffff19167bffffffffffffffffffffffffffffffffffffffffffffffffffffffff1916815260200191505060405180910390f35b3480156111e157600080fd5b506111ea61274a565b60405180827bffffffffffffffffffffffffffffffffffffffffffffffffffffffff19167bffffffffffffffffffffffffffffffffffffffffffffffffffffffff1916815260200191505060405180910390f35b34801561124a57600080fd5b50611253612766565b60405180827bffffffffffffffffffffffffffffffffffffffffffffffffffffffff19167bffffffffffffffffffffffffffffffffffffffffffffffffffffffff1916815260200191505060405180910390f35b3480156112b357600080fd5b506112bc61278d565b60405180827bffffffffffffffffffffffffffffffffffffffffffffffffffffffff19167bffffffffffffffffffffffffffffffffffffffffffffffffffffffff1916815260200191505060405180910390f35b34801561131c57600080fd5b506113256127a9565b60405180827bffffffffffffffffffffffffffffffffffffffffffffffffffffffff19167bffffffffffffffffffffffffffffffffffffffffffffffffffffffff1916815260200191505060405180910390f35b34801561138557600080fd5b5061138e6127d0565b60405180827bffffffffffffffffffffffffffffffffffffffffffffffffffffffff19167bffffffffffffffffffffffffffffffffffffffffffffffffffffffff1916815260200191505060405180910390f35b3480156113ee57600080fd5b506113f76127f7565b60405180827bffffffffffffffffffffffffffffffffffffffffffffffffffffffff19167bffffffffffffffffffffffffffffffffffffffffffffffffffffffff1916815260200191505060405180910390f35b34801561145757600080fd5b5061146061281e565b60405180827bffffffffffffffffffffffffffffffffffffffffffffffffffffffff19167bffffffffffffffffffffffffffffffffffffffffffffffffffffffff1916815260200191505060405180910390f35b3480156114c057600080fd5b506114c9612845565b60405180827bffffffffffffffffffffffffffffffffffffffffffffffffffffffff19167bffffffffffffffffffffffffffffffffffffffffffffffffffffffff1916815260200191505060405180910390f35b34801561152957600080fd5b5061153261286c565b60405180827bffffffffffffffffffffffffffffffffffffffffffffffffffffffff19167bffffffffffffffffffffffffffffffffffffffffffffffffffffffff1916815260200191505060405180910390f35b34801561159257600080fd5b5061159b612893565b60405180827bffffffffffffffffffffffffffffffffffffffffffffffffffffffff19167bffffffffffffffffffffffffffffffffffffffffffffffffffffffff1916815260200191505060405180910390f35b3480156115fb57600080fd5b506116046128ba565b60405180827bffffffffffffffffffffffffffffffffffffffffffffffffffffffff19167bffffffffffffffffffffffffffffffffffffffffffffffffffffffff1916815260200191505060405180910390f35b34801561166457600080fd5b5061166d6128f3565b60405180827bffffffffffffffffffffffffffffffffffffffffffffffffffffffff19167bffffffffffffffffffffffffffffffffffffffffffffffffffffffff1916815260200191505060405180910390f35b3480156116cd57600080fd5b506116d661291a565b60405180827bffffffffffffffffffffffffffffffffffffffffffffffffffffffff19167bffffffffffffffffffffffffffffffffffffffffffffffffffffffff1916815260200191505060405180910390f35b34801561173657600080fd5b506117a560048036038101908080359060200190929190803573ffffffffffffffffffffffffffffffffffffffff169060200190929190803590602001908201803590602001919091929391929390803590602001908201803590602001919091929391929390505050612941565b005b3480156117b357600080fd5b506117bc612cc9565b60405180827bffffffffffffffffffffffffffffffffffffffffffffffffffffffff19167bffffffffffffffffffffffffffffffffffffffffffffffffffffffff1916815260200191505060405180910390f35b34801561181c57600080fd5b50611825612d74565b60405180827bffffffffffffffffffffffffffffffffffffffffffffffffffffffff19167bffffffffffffffffffffffffffffffffffffffffffffffffffffffff1916815260200191505060405180910390f35b34801561188557600080fd5b5061188e612d9b565b60405180827bffffffffffffffffffffffffffffffffffffffffffffffffffffffff19167bffffffffffffffffffffffffffffffffffffffffffffffffffffffff1916815260200191505060405180910390f35b3480156118ee57600080fd5b506118f7612dc2565b60405180827bffffffffffffffffffffffffffffffffffffffffffffffffffffffff19167bffffffffffffffffffffffffffffffffffffffffffffffffffffffff1916815260200191505060405180910390f35b34801561195757600080fd5b50611960612de9565b60405180827bffffffffffffffffffffffffffffffffffffffffffffffffffffffff19167bffffffffffffffffffffffffffffffffffffffffffffffffffffffff1916815260200191505060405180910390f35b3480156119c057600080fd5b506119c9612e22565b60405180827bffffffffffffffffffffffffffffffffffffffffffffffffffffffff19167bffffffffffffffffffffffffffffffffffffffffffffffffffffffff1916815260200191505060405180910390f35b348015611a2957600080fd5b50611a32612e49565b60405180827bffffffffffffffffffffffffffffffffffffffffffffffffffffffff19167bffffffffffffffffffffffffffffffffffffffffffffffffffffffff1916815260200191505060405180910390f35b348015611a9257600080fd5b50611a9b612e82565b60405180827bffffffffffffffffffffffffffffffffffffffffffffffffffffffff19167bffffffffffffffffffffffffffffffffffffffffffffffffffffffff1916815260200191505060405180910390f35b348015611afb57600080fd5b50611b04612ebb565b60405180826000191660001916815260200191505060405180910390f35b348015611b2e57600080fd5b50611b37612ec1565b60405180827bffffffffffffffffffffffffffffffffffffffffffffffffffffffff19167bffffffffffffffffffffffffffffffffffffffffffffffffffffffff1916815260200191505060405180910390f35b348015611b9757600080fd5b50611ba0612ee8565b60405180827bffffffffffffffffffffffffffffffffffffffffffffffffffffffff19167bffffffffffffffffffffffffffffffffffffffffffffffffffffffff1916815260200191505060405180910390f35b348015611c0057600080fd5b50611c09612f0f565b60405180827bffffffffffffffffffffffffffffffffffffffffffffffffffffffff19167bffffffffffffffffffffffffffffffffffffffffffffffffffffffff1916815260200191505060405180910390f35b348015611c6957600080fd5b50611c72612fba565b60405180827bffffffffffffffffffffffffffffffffffffffffffffffffffffffff19167bffffffffffffffffffffffffffffffffffffffffffffffffffffffff1916815260200191505060405180910390f35b348015611cd257600080fd5b50611cdb612fe1565b60405180827bffffffffffffffffffffffffffffffffffffffffffffffffffffffff19167bffffffffffffffffffffffffffffffffffffffffffffffffffffffff1916815260200191505060405180910390f35b348015611d3b57600080fd5b50611d44613008565b60405180827bffffffffffffffffffffffffffffffffffffffffffffffffffffffff19167bffffffffffffffffffffffffffffffffffffffffffffffffffffffff1916815260200191505060405180910390f35b348015611da457600080fd5b50611dad6130b3565b60405180827bffffffffffffffffffffffffffffffffffffffffffffffffffffffff19167bffffffffffffffffffffffffffffffffffffffffffffffffffffffff1916815260200191505060405180910390f35b63b4be83d57c01000000000000000000000000000000000000000000000000000000000281565b6040518080613e0e608791396087019050604051809103902081565b60405180807f7072655369676e656428627974657333322c6164647265737329000000000000815250601a019050604051809103902081565b60405180807f6f7264657245706f636828616464726573732c61646472657373290000000000815250601b019050604051809103902081565b60405180807f7472616e736665724f776e657273686970286164647265737329000000000000815250601a019050604051809103902081565b60405180807f617373657450726f7869657328627974657334290000000000000000000000008152506014019050604051809103902081565b633c28d8617c01000000000000000000000000000000000000000000000000000000000281565b63e5fa431b7c01000000000000000000000000000000000000000000000000000000000281565b634f9559b17c01000000000000000000000000000000000000000000000000000000000281565b60405180807f66696c6c4f726465724e6f5468726f772828616464726573732c61646472657381526020017f732c616464726573732c616464726573732c75696e743235362c75696e74323581526020017f362c75696e743235362c75696e743235362c75696e743235362c75696e74323581526020017f362c62797465732c6279746573292c75696e743235362c627974657329000000815250607d019050604051809103902081565b63c585bb937c01000000000000000000000000000000000000000000000000000000000281565b60405180807f7265676973746572417373657450726f78792861646472657373290000000000815250601b019050604051809103902081565b6350dde1907c01000000000000000000000000000000000000000000000000000000000281565b63d9bfa73e7c01000000000000000000000000000000000000000000000000000000000281565b63607041087c01000000000000000000000000000000000000000000000000000000000281565b63288cdc917c01000000000000000000000000000000000000000000000000000000000281565b60405180807f616c6c6f77656456616c696461746f727328616464726573732c61646472657381526020017f73290000000000000000000000000000000000000000000000000000000000008152506022019050604051809103902081565b6382c174d07c01000000000000000000000000000000000000000000000000000000000281565b6377fcce687c01000000000000000000000000000000000000000000000000000000000281565b6040518080613e95608891396088019050604051809103902081565b60405180807f66696c6c4f724b696c6c4f726465722828616464726573732c6164647265737381526020017f2c616464726573732c616464726573732c75696e743235362c75696e7432353681526020017f2c75696e743235362c75696e743235362c75696e743235362c75696e7432353681526020017f2c62797465732c6279746573292c75696e743235362c62797465732900000000815250607c019050604051809103902081565b633683ef8e7c01000000000000000000000000000000000000000000000000000000000281565b60405180807f676574417373657450726f7879286279746573342900000000000000000000008152506015019050604051809103902081565b6040518080613b26608291396082019050604051809103902081565b6040518080613d04608991396089019050604051809103902081565b60405180807f657865637574655472616e73616374696f6e2875696e743235362c616464726581526020017f73732c62797465732c6279746573290000000000000000000000000000000000815250602f019050604051809103902081565b63dd1c7d187c01000000000000000000000000000000000000000000000000000000000281565b60405180807f626174636843616e63656c4f72646572732828616464726573732c616464726581526020017f73732c616464726573732c616464726573732c75696e743235362c75696e743281526020017f35362c75696e743235362c75696e743235362c75696e743235362c75696e743281526020017f35362c62797465732c6279746573295b5d2900000000000000000000000000008152506072019050604051809103902081565b6040518080613c7c608891396088019050604051809103902081565b60405180807f697356616c69645369676e617475726528627974657333322c6164647265737381526020017f2c627974657329000000000000000000000000000000000000000000000000008152506027019050604051809103902081565b60405180807f66696c6c65642862797465733332290000000000000000000000000000000000815250600f019050604051809103902081565b60405180807f6765744f7264657273496e666f2828616464726573732c616464726573732c6181526020017f6464726573732c616464726573732c75696e743235362c75696e743235362c7581526020017f696e743235362c75696e743235362c75696e743235362c75696e743235362c6281526020017f797465732c6279746573295b5d29000000000000000000000000000000000000815250606e019050604051809103902081565b60405180807f7072655369676e28627974657333322c616464726573732c6279746573290000815250601e019050604051809103902081565b63c75e0a817c01000000000000000000000000000000000000000000000000000000000281565b60405180807f7365745369676e617475726556616c696461746f72417070726f76616c28616481526020017f64726573732c626f6f6c29000000000000000000000000000000000000000000815250602b019050604051809103902081565b60405180807f6d61726b65744275794f72646572732828616464726573732c6164647265737381526020017f2c616464726573732c616464726573732c75696e743235362c75696e7432353681526020017f2c75696e743235362c75696e743235362c75696e743235362c75696e7432353681526020017f2c62797465732c6279746573295b5d2c75696e743235362c62797465735b5d298152506080019050604051809103902081565b6040518080613ba860d4913960d4019050604051809103902081565b63bfc8bfce7c01000000000000000000000000000000000000000000000000000000000281565b6040518080613d8d608191396081019050604051809103902081565b63d46b02c37c01000000000000000000000000000000000000000000000000000000000281565b634ac147827c01000000000000000000000000000000000000000000000000000000000281565b63936347027c01000000000000000000000000000000000000000000000000000000000281565b637b8e35147c01000000000000000000000000000000000000000000000000000000000281565b632ac126227c01000000000000000000000000000000000000000000000000000000000281565b63642f2eaf7c01000000000000000000000000000000000000000000000000000000000281565b63a3e203807c01000000000000000000000000000000000000000000000000000000000281565b60405180807f63757272656e74436f6e746578744164647265737328290000000000000000008152506017019050604051809103902081565b638da5cb5b7c01000000000000000000000000000000000000000000000000000000000281565b63f2fde38b7c01000000000000000000000000000000000000000000000000000000000281565b60606000806000806129528a6130ec565b94506002549350600160009054906101000a900473ffffffffffffffffffffffffffffffffffffffff169250600091505b8451821015612b24578273ffffffffffffffffffffffffffffffffffffffff166370a0823186848151811015156129b657fe5b906020019060200201516040518263ffffffff167c0100000000000000000000000000000000000000000000000000000000028152600401808273ffffffffffffffffffffffffffffffffffffffff1673ffffffffffffffffffffffffffffffffffffffff168152602001915050602060405180830381600087803b158015612a3e57600080fd5b505af1158015612a52573d6000803e3d6000fd5b505050506040513d6020811015612a6857600080fd5b81019080805190602001909291905050509050838110151515612b19576040517f08c379a00000000000000000000000000000000000000000000000000000000081526004018080602001828103825260348152602001807f41545f4c454153545f4f4e455f414444524553535f444f45535f4e4f545f4d4581526020017f45545f42414c414e43455f5448524553484f4c4400000000000000000000000081525060400191505060405180910390fd5b816001019150612983565b7fb5bca926a5a29eff8c614aef43556aeedf0f69698fdac068b64e63cc3daa1c8f856040518080602001828103825283818151815260200191508051906020019060200280838360005b83811015612b89578082015181840152602081019050612b6e565b505050509050019250505060405180910390a16000809054906101000a900473ffffffffffffffffffffffffffffffffffffffff1673ffffffffffffffffffffffffffffffffffffffff1663bfc8bfce8c8c8c8c8c8c6040518763ffffffff167c0100000000000000000000000000000000000000000000000000000000028152600401808781526020018673ffffffffffffffffffffffffffffffffffffffff1673ffffffffffffffffffffffffffffffffffffffff1681526020018060200180602001838103835287878281815260200192508082843782019150508381038252858582818152602001925080828437820191505098505050505050505050600060405180830381600087803b158015612ca457600080fd5b505af1158015612cb8573d6000803e3d6000fd5b505050505050505050505050505050565b60405180807f66696c6c4f726465722828616464726573732c616464726573732c616464726581526020017f73732c616464726573732c75696e743235362c75696e743235362c75696e743281526020017f35362c75696e743235362c75696e743235362c75696e743235362c627974657381526020017f2c6279746573292c75696e743235362c627974657329000000000000000000008152506076019050604051809103902081565b637e1d98087c01000000000000000000000000000000000000000000000000000000000281565b633fd3c9977c01000000000000000000000000000000000000000000000000000000000281565b637e9d74dc7c01000000000000000000000000000000000000000000000000000000000281565b60405180807f63616e63656c4f72646572735570546f2875696e7432353629000000000000008152506019019050604051809103902081565b633e228bae7c01000000000000000000000000000000000000000000000000000000000281565b60405180807f7472616e73616374696f6e7328627974657333322900000000000000000000008152506015019050604051809103902081565b60405180807f63616e63656c6c656428627974657333322900000000000000000000000000008152506012019050604051809103902081565b60035481565b63eea086ba7c01000000000000000000000000000000000000000000000000000000000281565b6364a3bc157c01000000000000000000000000000000000000000000000000000000000281565b60405180807f63616e63656c4f726465722828616464726573732c616464726573732c61646481526020017f726573732c616464726573732c75696e743235362c75696e743235362c75696e81526020017f743235362c75696e743235362c75696e743235362c75696e743235362c62797481526020017f65732c6279746573292900000000000000000000000000000000000000000000815250606a019050604051809103902081565b634d0ae5467c01000000000000000000000000000000000000000000000000000000000281565b63297bb70b7c01000000000000000000000000000000000000000000000000000000000281565b60405180807f6765744f72646572496e666f2828616464726573732c616464726573732c616481526020017f64726573732c616464726573732c75696e743235362c75696e743235362c756981526020017f6e743235362c75696e743235362c75696e743235362c75696e743235362c627981526020017f7465732c62797465732929000000000000000000000000000000000000000000815250606b019050604051809103902081565b60405180807f6f776e65722829000000000000000000000000000000000000000000000000008152506007019050604051809103902081565b60606000806000806130fe6000613837565b935063297bb70b7c0100000000000000000000000000000000000000000000000000000000027bffffffffffffffffffffffffffffffffffffffffffffffffffffffff1916847bffffffffffffffffffffffffffffffffffffffffffffffffffffffff191614806131cf57506350dde1907c0100000000000000000000000000000000000000000000000000000000027bffffffffffffffffffffffffffffffffffffffffffffffffffffffff1916847bffffffffffffffffffffffffffffffffffffffffffffffffffffffff1916145b8061323a5750634d0ae5467c0100000000000000000000000000000000000000000000000000000000027bffffffffffffffffffffffffffffffffffffffffffffffffffffffff1916847bffffffffffffffffffffffffffffffffffffffffffffffffffffffff1916145b806132a5575063e5fa431b7c0100000000000000000000000000000000000000000000000000000000027bffffffffffffffffffffffffffffffffffffffffffffffffffffffff1916847bffffffffffffffffffffffffffffffffffffffffffffffffffffffff1916145b80613310575063a3e203807c0100000000000000000000000000000000000000000000000000000000027bffffffffffffffffffffffffffffffffffffffffffffffffffffffff1916847bffffffffffffffffffffffffffffffffffffffffffffffffffffffff1916145b8061337b5750637e1d98087c0100000000000000000000000000000000000000000000000000000000027bffffffffffffffffffffffffffffffffffffffffffffffffffffffff1916847bffffffffffffffffffffffffffffffffffffffffffffffffffffffff1916145b806133e6575063dd1c7d187c0100000000000000000000000000000000000000000000000000000000027bffffffffffffffffffffffffffffffffffffffffffffffffffffffff1916847bffffffffffffffffffffffffffffffffffffffffffffffffffffffff1916145b15613411576133f56000613850565b945061340a86866138f290919063ffffffff16565b945061382b565b63b4be83d57c0100000000000000000000000000000000000000000000000000000000027bffffffffffffffffffffffffffffffffffffffffffffffffffffffff1916847bffffffffffffffffffffffffffffffffffffffffffffffffffffffff191614806134e05750633e228bae7c0100000000000000000000000000000000000000000000000000000000027bffffffffffffffffffffffffffffffffffffffffffffffffffffffff1916847bffffffffffffffffffffffffffffffffffffffffffffffffffffffff1916145b8061354b57506364a3bc157c0100000000000000000000000000000000000000000000000000000000027bffffffffffffffffffffffffffffffffffffffffffffffffffffffff1916847bffffffffffffffffffffffffffffffffffffffffffffffffffffffff1916145b1561358b5761355a6000613a2a565b925061356f83866138f290919063ffffffff16565b945061358486866138f290919063ffffffff16565b945061382a565b633c28d8617c0100000000000000000000000000000000000000000000000000000000027bffffffffffffffffffffffffffffffffffffffffffffffffffffffff1916847bffffffffffffffffffffffffffffffffffffffffffffffffffffffff19161415613650576135fe6000613a2a565b915061361382866138f290919063ffffffff16565b945061361f6001613a2a565b905061363481866138f290919063ffffffff16565b945061364986866138f290919063ffffffff16565b9450613829565b63d46b02c37c0100000000000000000000000000000000000000000000000000000000027bffffffffffffffffffffffffffffffffffffffffffffffffffffffff1916847bffffffffffffffffffffffffffffffffffffffffffffffffffffffff1916141580156137225750634ac147827c0100000000000000000000000000000000000000000000000000000000027bffffffffffffffffffffffffffffffffffffffffffffffffffffffff1916847bffffffffffffffffffffffffffffffffffffffffffffffffffffffff191614155b801561378f5750634f9559b17c0100000000000000000000000000000000000000000000000000000000027bffffffffffffffffffffffffffffffffffffffffffffffffffffffff1916847bffffffffffffffffffffffffffffffffffffffffffffffffffffffff191614155b15613828576040517f08c379a00000000000000000000000000000000000000000000000000000000081526004018080602001828103825260248152602001807f494e56414c49445f4f525f424c4f434b45445f45584348414e47455f53454c4581526020017f43544f520000000000000000000000000000000000000000000000000000000081525060400191505060405180910390fd5b5b5b5b84945050505050919050565b6000604435826024018101803592505050809050919050565b6060600080600080600080600080600060208b02985061386f89613a5d565b60019004975061387e88613a5d565b60019004965060208702955060208801945085850193508492505b838310156138e1576138aa83613a5d565b6001900491506138bb858301613a5d565b6001900490506138d4818b6138f290919063ffffffff16565b9950602083019250613899565b899950505050505050505050919050565b6060600080600080600080945060009350600092508751915081602002602001905060405194508793508088019250828510151515613999576040517f08c379a00000000000000000000000000000000000000000000000000000000081526004018080602001828103825260178152602001807f494e56414c49445f465245455f4d454d4f52595f50545200000000000000000081525060200191505060405180910390fd5b828511156139b3576139ac858583613a75565b8497508793505b6001820191506020810190508084019250829450818852846040528688600184038151811015156139e057fe5b9060200190602002019073ffffffffffffffffffffffffffffffffffffffff16908173ffffffffffffffffffffffffffffffffffffffff1681525050879550505050505092915050565b6000806000602084029150613a3e82613a5d565b600190049050613a4d81613a5d565b6001900492508292505050919050565b6000613a6b60048301613837565b9050809050919050565b6020811015613a9f576001816020036101000a038019835116818551168082178652505050613b1f565b82821415613aac57613b20565b82821115613aeb5760208103905080820181840181515b82851015613ae05784518652602085019450602086019550613ac3565b808252505050613b1e565b60208103905080820181840183515b81861215613b175782518252602083039250602082039150613afa565b8086525050505b5b5b5050505600626174636846696c6c4f72646572732828616464726573732c616464726573732c616464726573732c616464726573732c75696e743235362c75696e743235362c75696e743235362c75696e743235362c75696e743235362c75696e743235362c62797465732c6279746573295b5d2c75696e743235365b5d2c62797465735b5d296d617463684f72646572732828616464726573732c616464726573732c616464726573732c616464726573732c75696e743235362c75696e743235362c75696e743235362c75696e743235362c75696e743235362c75696e743235362c62797465732c6279746573292c28616464726573732c616464726573732c616464726573732c616464726573732c75696e743235362c75696e743235362c75696e743235362c75696e743235362c75696e743235362c75696e743235362c62797465732c6279746573292c62797465732c627974657329626174636846696c6c4f724b696c6c4f72646572732828616464726573732c616464726573732c616464726573732c616464726573732c75696e743235362c75696e743235362c75696e743235362c75696e743235362c75696e743235362c75696e743235362c62797465732c6279746573295b5d2c75696e743235365b5d2c62797465735b5d29626174636846696c6c4f72646572734e6f5468726f772828616464726573732c616464726573732c616464726573732c616464726573732c75696e743235362c75696e743235362c75696e743235362c75696e743235362c75696e743235362c75696e743235362c62797465732c6279746573295b5d2c75696e743235365b5d2c62797465735b5d296d61726b657453656c6c4f72646572732828616464726573732c616464726573732c616464726573732c616464726573732c75696e743235362c75696e743235362c75696e743235362c75696e743235362c75696e743235362c75696e743235362c62797465732c6279746573295b5d2c75696e743235362c62797465735b5d296d61726b65744275794f72646572734e6f5468726f772828616464726573732c616464726573732c616464726573732c616464726573732c75696e743235362c75696e743235362c75696e743235362c75696e743235362c75696e743235362c75696e743235362c62797465732c6279746573295b5d2c75696e743235362c62797465735b5d296d61726b657453656c6c4f72646572734e6f5468726f772828616464726573732c616464726573732c616464726573732c616464726573732c75696e743235362c75696e743235362c75696e743235362c75696e743235362c75696e743235362c75696e743235362c62797465732c6279746573295b5d2c75696e743235362c62797465735b5d29a165627a7a7230582012e3426f3d73bfc8a363528278784d7313bf5b56ee70c93fd3d59b2f0930f5e90029",
  "source": "/*\n\n  Copyright 2018 ZeroEx Intl.\n\n  Licensed under the Apache License, Version 2.0 (the \"License\");\n  you may not use this file except in compliance with the License.\n  You may obtain a copy of the License at\n\n    http://www.apache.org/licenses/LICENSE2.0\n\n  Unless required by applicable law or agreed to in writing, software\n  distributed under the License is distributed on an \"AS IS\" BASIS,\n  WITHOUT WARRANTIES OR CONDITIONS OF ANY KIND, either express or implied.\n  See the License for the specific language governing permissions and\n  limitations under the License.\n\n*/\n\npragma solidity ^0.4.24;\n\nimport \"../../../libs/contracts/libs/LibExchangeSelectors.sol\";\nimport \"../../../libs/contracts/libs/LibOrder.sol\";\nimport \"./mixins/MBalanceThresholdFilterCore.sol\";\nimport \"./MixinExchangeCalldata.sol\";\n\n\ncontract MixinBalanceThresholdFilterCore is\n    MBalanceThresholdFilterCore,\n    MixinExchangeCalldata,\n    LibOrder,\n    LibExchangeSelectors\n{\n\n    /// @dev Executes an Exchange transaction iff the maker and taker meet \n    ///      the hold at least `BALANCE_THRESHOLD` of the asset `THRESHOLD_ASSET` OR \n    ///      the exchange function is a cancellation.\n    ///      Supported Exchange functions:\n    ///          batchFillOrders\n    ///          batchFillOrdersNoThrow\n    ///          batchFillOrKillOrders\n    ///          fillOrder\n    ///          fillOrderNoThrow\n    ///          fillOrKillOrder\n    ///          marketBuyOrders\n    ///          marketBuyOrdersNoThrow\n    ///          marketSellOrders\n    ///          marketSellOrdersNoThrow\n    ///          matchOrders\n    ///          cancelOrder\n    ///          batchCancelOrders\n    ///          cancelOrdersUpTo\n    ///     Trying to call any other exchange function will throw.\n    /// @param salt Arbitrary number to ensure uniqueness of transaction hash.\n    /// @param signerAddress Address of transaction signer.\n    /// @param signedExchangeTransaction AbiV2 encoded calldata.\n    /// @param signature Proof of signer transaction by signer.\n    function executeTransaction(\n        uint256 salt,\n        address signerAddress,\n        bytes signedExchangeTransaction,\n        bytes signature\n    ) \n        external\n    {\n        // Get accounts whose balances must be validated\n        address[] memory addressesToValidate = getAddressesToValidate(signerAddress);\n\n        // Validate account balances\n        uint256 balanceThreshold = BALANCE_THRESHOLD;\n        IThresholdAsset thresholdAsset = THRESHOLD_ASSET;\n        for (uint256 i = 0; i < addressesToValidate.length; ++i) {\n            uint256 addressBalance = thresholdAsset.balanceOf(addressesToValidate[i]);\n            require(\n                addressBalance >= balanceThreshold,\n                \"AT_LEAST_ONE_ADDRESS_DOES_NOT_MEET_BALANCE_THRESHOLD\"\n            );\n        }\n        emit ValidatedAddresses(addressesToValidate);\n        \n        // All addresses are valid. Execute exchange function.\n        EXCHANGE.executeTransaction(\n            salt,\n            signerAddress,\n            signedExchangeTransaction,\n            signature\n        );\n    }\n\n    /// @dev Constructs an array of addresses to be validated.\n    ///      Addresses depend on which Exchange function is to be called\n    ///      (defined by `signedExchangeTransaction` above).\n    /// @param signerAddress Address of transaction signer.\n    /// @return addressesToValidate Array of addresses to validate.\n    function getAddressesToValidate(address signerAddress)\n        internal pure\n        returns (address[] memory addressesToValidate)\n    {\n        bytes4 exchangeFunctionSelector = bytes4(exchangeCalldataload(0));\n        // solhint-disable expression-indent\n        if (\n            exchangeFunctionSelector == BATCH_FILL_ORDERS_SELECTOR              ||\n            exchangeFunctionSelector == BATCH_FILL_ORDERS_NO_THROW_SELECTOR     ||\n            exchangeFunctionSelector == BATCH_FILL_OR_KILL_ORDERS_SELECTOR      ||\n            exchangeFunctionSelector == MARKET_BUY_ORDERS_SELECTOR              ||\n            exchangeFunctionSelector == MARKET_BUY_ORDERS_NO_THROW_SELECTOR     ||\n            exchangeFunctionSelector == MARKET_SELL_ORDERS_SELECTOR             ||\n            exchangeFunctionSelector == MARKET_SELL_ORDERS_NO_THROW_SELECTOR\n        ) {\n            addressesToValidate = loadMakerAddressesFromOrderArray(0);\n            addressesToValidate = addressesToValidate.append(signerAddress);\n        } else if (\n            exchangeFunctionSelector == FILL_ORDER_SELECTOR             ||\n            exchangeFunctionSelector == FILL_ORDER_NO_THROW_SELECTOR    ||\n            exchangeFunctionSelector == FILL_OR_KILL_ORDER_SELECTOR\n        ) {\n            address makerAddress = loadMakerAddressFromOrder(0);\n            addressesToValidate = addressesToValidate.append(makerAddress);\n            addressesToValidate = addressesToValidate.append(signerAddress);\n        } else if (exchangeFunctionSelector == MATCH_ORDERS_SELECTOR) {\n            address leftMakerAddress = loadMakerAddressFromOrder(0);\n            addressesToValidate = addressesToValidate.append(leftMakerAddress);\n            address rightMakerAddress = loadMakerAddressFromOrder(1);\n            addressesToValidate = addressesToValidate.append(rightMakerAddress);\n            addressesToValidate = addressesToValidate.append(signerAddress);\n        } else if (\n            exchangeFunctionSelector != CANCEL_ORDER_SELECTOR           &&\n            exchangeFunctionSelector != BATCH_CANCEL_ORDERS_SELECTOR    &&\n            exchangeFunctionSelector != CANCEL_ORDERS_UP_TO_SELECTOR\n        ) {\n            revert(\"INVALID_OR_BLOCKED_EXCHANGE_SELECTOR\");\n        }\n        // solhint-enable expression-indent\n        return addressesToValidate;\n    }\n}\n",
  "sourcePath": "/Users/lawrenceballou/Desktop/BlockNerds/Clients/AltcoinIo/filter-contract/contracts/extensions/contracts/BalanceThresholdFilter/MixinBalanceThresholdFilterCore.sol",
  "compiler": {
    "name": "solc",
    "version": "0.4.24+commit.e67f0147.Emscripten.clang"
  },
  "schemaVersion": "3.0.0",
  "updatedAt": "2018-12-28T17:39:10.913Z",
  "devdoc": {
    "methods": {
      "executeTransaction(uint256,address,bytes,bytes)": {
        "details": "Executes an Exchange transaction iff the maker and taker meet       the hold at least `BALANCE_THRESHOLD` of the asset `THRESHOLD_ASSET` OR       the exchange function is a cancellation.      Supported Exchange functions:          batchFillOrders          batchFillOrdersNoThrow          batchFillOrKillOrders          fillOrder          fillOrderNoThrow          fillOrKillOrder          marketBuyOrders          marketBuyOrdersNoThrow          marketSellOrders          marketSellOrdersNoThrow          matchOrders          cancelOrder          batchCancelOrders          cancelOrdersUpTo     Trying to call any other exchange function will throw.",
        "params": {
          "salt": "Arbitrary number to ensure uniqueness of transaction hash.",
          "signature": "Proof of signer transaction by signer.",
          "signedExchangeTransaction": "AbiV2 encoded calldata.",
          "signerAddress": "Address of transaction signer."
        }
      }
    }
  },
  "userdoc": {
    "methods": {}
  }
}