{
  "contractName": "MultiAssetProxy",
  "abi": [
    {
      "constant": true,
      "inputs": [
        {
          "name": "",
          "type": "bytes4"
        }
      ],
      "name": "assetProxies",
      "outputs": [
        {
          "name": "",
          "type": "address"
        }
      ],
      "payable": false,
      "stateMutability": "view",
      "type": "function"
    },
    {
      "constant": false,
      "inputs": [
        {
          "name": "target",
          "type": "address"
        }
      ],
      "name": "addAuthorizedAddress",
      "outputs": [],
      "payable": false,
      "stateMutability": "nonpayable",
      "type": "function"
    },
    {
      "constant": true,
      "inputs": [
        {
          "name": "",
          "type": "uint256"
        }
      ],
      "name": "authorities",
      "outputs": [
        {
          "name": "",
          "type": "address"
        }
      ],
      "payable": false,
      "stateMutability": "view",
      "type": "function"
    },
    {
      "constant": true,
      "inputs": [
        {
          "name": "assetProxyId",
          "type": "bytes4"
        }
      ],
      "name": "getAssetProxy",
      "outputs": [
        {
          "name": "",
          "type": "address"
        }
      ],
      "payable": false,
      "stateMutability": "view",
      "type": "function"
    },
    {
      "constant": false,
      "inputs": [
        {
          "name": "target",
          "type": "address"
        }
      ],
      "name": "removeAuthorizedAddress",
      "outputs": [],
      "payable": false,
      "stateMutability": "nonpayable",
      "type": "function"
    },
    {
      "constant": true,
      "inputs": [],
      "name": "owner",
      "outputs": [
        {
          "name": "",
          "type": "address"
        }
      ],
      "payable": false,
      "stateMutability": "view",
      "type": "function"
    },
    {
      "constant": false,
      "inputs": [
        {
          "name": "target",
          "type": "address"
        },
        {
          "name": "index",
          "type": "uint256"
        }
      ],
      "name": "removeAuthorizedAddressAtIndex",
      "outputs": [],
      "payable": false,
      "stateMutability": "nonpayable",
      "type": "function"
    },
    {
      "constant": true,
      "inputs": [
        {
          "name": "",
          "type": "address"
        }
      ],
      "name": "authorized",
      "outputs": [
        {
          "name": "",
          "type": "bool"
        }
      ],
      "payable": false,
      "stateMutability": "view",
      "type": "function"
    },
    {
      "constant": false,
      "inputs": [
        {
          "name": "assetProxy",
          "type": "address"
        }
      ],
      "name": "registerAssetProxy",
      "outputs": [],
      "payable": false,
      "stateMutability": "nonpayable",
      "type": "function"
    },
    {
      "constant": true,
      "inputs": [],
      "name": "getAuthorizedAddresses",
      "outputs": [
        {
          "name": "",
          "type": "address[]"
        }
      ],
      "payable": false,
      "stateMutability": "view",
      "type": "function"
    },
    {
      "constant": false,
      "inputs": [
        {
          "name": "newOwner",
          "type": "address"
        }
      ],
      "name": "transferOwnership",
      "outputs": [],
      "payable": false,
      "stateMutability": "nonpayable",
      "type": "function"
    },
    {
      "payable": false,
      "stateMutability": "nonpayable",
      "type": "fallback"
    },
    {
      "anonymous": false,
      "inputs": [
        {
          "indexed": true,
          "name": "target",
          "type": "address"
        },
        {
          "indexed": true,
          "name": "caller",
          "type": "address"
        }
      ],
      "name": "AuthorizedAddressAdded",
      "type": "event"
    },
    {
      "anonymous": false,
      "inputs": [
        {
          "indexed": true,
          "name": "target",
          "type": "address"
        },
        {
          "indexed": true,
          "name": "caller",
          "type": "address"
        }
      ],
      "name": "AuthorizedAddressRemoved",
      "type": "event"
    },
    {
      "anonymous": false,
      "inputs": [
        {
          "indexed": false,
          "name": "id",
          "type": "bytes4"
        },
        {
          "indexed": false,
          "name": "assetProxy",
          "type": "address"
        }
      ],
      "name": "AssetProxyRegistered",
      "type": "event"
    },
    {
      "constant": true,
      "inputs": [],
      "name": "getProxyId",
      "outputs": [
        {
          "name": "",
          "type": "bytes4"
        }
      ],
      "payable": false,
      "stateMutability": "pure",
      "type": "function"
    }
  ],
  "bytecode": "0x6080604052336000806101000a81548173ffffffffffffffffffffffffffffffffffffffff021916908373ffffffffffffffffffffffffffffffffffffffff160217905550611abc806100536000396000f3006080604052600436106100ba576000357c0100000000000000000000000000000000000000000000000000000000900463ffffffff1680633fd3c9971461048857806342f1181e14610514578063494503d41461055757806360704108146105c457806370712939146106505780638da5cb5b146106935780639ad26744146106ea578063ae25532e14610737578063b9181611146107a0578063c585bb93146107fb578063d39de6e91461083e578063f2fde38b146108aa575b3480156100c657600080fd5b507fffffffff00000000000000000000000000000000000000000000000000000000600035167fa85e59e40000000000000000000000000000000000000000000000000000000081141561048357336000526002602052604060002054151561019a577f08c379a0000000000000000000000000000000000000000000000000000000006000527c20000000000000000000000000000000000000000000000000000000006020527c1553454e4445525f4e4f545f415554484f52495a454400000000000000604052600060605260646000fd5b600435602881013560488201356048820183016020810335604883018501602081033580830315610236577f08c379a0000000000000000000000000000000000000000000000000000000006000527c20000000000000000000000000000000000000000000000000000000006020527c0f4c454e4754485f4d49534d4154434800000000000000000000000000604052600060605260646000fd5b60646000803760806004526064356020840260008060005b8381101561047d5780890135858102818782041487151715156102dc577f08c379a0000000000000000000000000000000000000000000000000000000006000527c20000000000000000000000000000000000000000000000000000000006020527c1055494e543235365f4f564552464c4f57000000000000000000000000604052600060605260646000fd5b8060645282890135606881018d018f01602081038035600481101561038b577f08c379a0000000000000000000000000000000000000000000000000000000006000527c20000000000000000000000000000000000000000000000000000000006020527c1e4c454e4754485f475245415445525f5448414e5f335f5245515549526040527f454400000000000000000000000000000000000000000000000000000000000060605260646000fd5b7fffffffff00000000000000000000000000000000000000000000000000000000833516898103156103cc5780995089608452600160a45260406084205498505b881515610444577f08c379a0000000000000000000000000000000000000000000000000000000006000527c20000000000000000000000000000000000000000000000000000000006020527c1a41535345545f50524f58595f444f45535f4e4f545f45584953540000604052600060605260646000fd5b60208201836084376000808360a4016000808d5af180151561046a573d6000803e3d6000fd5b505050505050505060208101905061024e565b50600080f35b600080fd5b34801561049457600080fd5b506104d260048036038101908080357bffffffffffffffffffffffffffffffffffffffffffffffffffffffff191690602001909291905050506108ed565b604051808273ffffffffffffffffffffffffffffffffffffffff1673ffffffffffffffffffffffffffffffffffffffff16815260200191505060405180910390f35b34801561052057600080fd5b50610555600480360381019080803573ffffffffffffffffffffffffffffffffffffffff169060200190929190505050610920565b005b34801561056357600080fd5b5061058260048036038101908080359060200190929190505050610bc1565b604051808273ffffffffffffffffffffffffffffffffffffffff1673ffffffffffffffffffffffffffffffffffffffff16815260200191505060405180910390f35b3480156105d057600080fd5b5061060e60048036038101908080357bffffffffffffffffffffffffffffffffffffffffffffffffffffffff19169060200190929190505050610bff565b604051808273ffffffffffffffffffffffffffffffffffffffff1673ffffffffffffffffffffffffffffffffffffffff16815260200191505060405180910390f35b34801561065c57600080fd5b50610691600480360381019080803573ffffffffffffffffffffffffffffffffffffffff169060200190929190505050610c7a565b005b34801561069f57600080fd5b506106a8610ff1565b604051808273ffffffffffffffffffffffffffffffffffffffff1673ffffffffffffffffffffffffffffffffffffffff16815260200191505060405180910390f35b3480156106f657600080fd5b50610735600480360381019080803573ffffffffffffffffffffffffffffffffffffffff16906020019092919080359060200190929190505050611016565b005b34801561074357600080fd5b5061074c611452565b60405180827bffffffffffffffffffffffffffffffffffffffffffffffffffffffff19167bffffffffffffffffffffffffffffffffffffffffffffffffffffffff1916815260200191505060405180910390f35b3480156107ac57600080fd5b506107e1600480360381019080803573ffffffffffffffffffffffffffffffffffffffff16906020019092919050505061148f565b604051808215151515815260200191505060405180910390f35b34801561080757600080fd5b5061083c600480360381019080803573ffffffffffffffffffffffffffffffffffffffff1690602001909291905050506114af565b005b34801561084a57600080fd5b50610853611873565b6040518080602001828103825283818151815260200191508051906020019060200280838360005b8381101561089657808201518184015260208101905061087b565b505050509050019250505060405180910390f35b3480156108b657600080fd5b506108eb600480360381019080803573ffffffffffffffffffffffffffffffffffffffff169060200190929190505050611901565b005b60016020528060005260406000206000915054906101000a900473ffffffffffffffffffffffffffffffffffffffff1681565b6000809054906101000a900473ffffffffffffffffffffffffffffffffffffffff1673ffffffffffffffffffffffffffffffffffffffff163373ffffffffffffffffffffffffffffffffffffffff161415156109e4576040517f08c379a00000000000000000000000000000000000000000000000000000000081526004018080602001828103825260138152602001807f4f4e4c595f434f4e54524143545f4f574e45520000000000000000000000000081525060200191505060405180910390fd5b600260008273ffffffffffffffffffffffffffffffffffffffff1673ffffffffffffffffffffffffffffffffffffffff16815260200190815260200160002060009054906101000a900460ff16151515610aa6576040517f08c379a00000000000000000000000000000000000000000000000000000000081526004018080602001828103825260198152602001807f5441524745545f414c52454144595f415554484f52495a45440000000000000081525060200191505060405180910390fd5b6001600260008373ffffffffffffffffffffffffffffffffffffffff1673ffffffffffffffffffffffffffffffffffffffff16815260200190815260200160002060006101000a81548160ff02191690831515021790555060038190806001815401808255809150509060018203906000526020600020016000909192909190916101000a81548173ffffffffffffffffffffffffffffffffffffffff021916908373ffffffffffffffffffffffffffffffffffffffff160217905550503373ffffffffffffffffffffffffffffffffffffffff168173ffffffffffffffffffffffffffffffffffffffff167f3147867c59d17e8fa9d522465651d44aae0a9e38f902f3475b97e58072f0ed4c60405160405180910390a350565b600381815481101515610bd057fe5b906000526020600020016000915054906101000a900473ffffffffffffffffffffffffffffffffffffffff1681565b600060016000837bffffffffffffffffffffffffffffffffffffffffffffffffffffffff19167bffffffffffffffffffffffffffffffffffffffffffffffffffffffff1916815260200190815260200160002060009054906101000a900473ffffffffffffffffffffffffffffffffffffffff169050919050565b60008060009054906101000a900473ffffffffffffffffffffffffffffffffffffffff1673ffffffffffffffffffffffffffffffffffffffff163373ffffffffffffffffffffffffffffffffffffffff16141515610d40576040517f08c379a00000000000000000000000000000000000000000000000000000000081526004018080602001828103825260138152602001807f4f4e4c595f434f4e54524143545f4f574e45520000000000000000000000000081525060200191505060405180910390fd5b600260008373ffffffffffffffffffffffffffffffffffffffff1673ffffffffffffffffffffffffffffffffffffffff16815260200190815260200160002060009054906101000a900460ff161515610e01576040517f08c379a00000000000000000000000000000000000000000000000000000000081526004018080602001828103825260158152602001807f5441524745545f4e4f545f415554484f52495a4544000000000000000000000081525060200191505060405180910390fd5b600260008373ffffffffffffffffffffffffffffffffffffffff1673ffffffffffffffffffffffffffffffffffffffff16815260200190815260200160002060006101000a81549060ff0219169055600090505b600380549050811015610f93578173ffffffffffffffffffffffffffffffffffffffff16600382815481101515610e8857fe5b9060005260206000200160009054906101000a900473ffffffffffffffffffffffffffffffffffffffff1673ffffffffffffffffffffffffffffffffffffffff161415610f86576003600160038054905003815481101515610ee657fe5b9060005260206000200160009054906101000a900473ffffffffffffffffffffffffffffffffffffffff16600382815481101515610f2057fe5b9060005260206000200160006101000a81548173ffffffffffffffffffffffffffffffffffffffff021916908373ffffffffffffffffffffffffffffffffffffffff1602179055506001600381818054905003915081610f809190611a3f565b50610f93565b8080600101915050610e55565b3373ffffffffffffffffffffffffffffffffffffffff168273ffffffffffffffffffffffffffffffffffffffff167f1f32c1b084e2de0713b8fb16bd46bb9df710a3dbeae2f3ca93af46e016dcc6b060405160405180910390a35050565b6000809054906101000a900473ffffffffffffffffffffffffffffffffffffffff1681565b6000809054906101000a900473ffffffffffffffffffffffffffffffffffffffff1673ffffffffffffffffffffffffffffffffffffffff163373ffffffffffffffffffffffffffffffffffffffff161415156110da576040517f08c379a00000000000000000000000000000000000000000000000000000000081526004018080602001828103825260138152602001807f4f4e4c595f434f4e54524143545f4f574e45520000000000000000000000000081525060200191505060405180910390fd5b600260008373ffffffffffffffffffffffffffffffffffffffff1673ffffffffffffffffffffffffffffffffffffffff16815260200190815260200160002060009054906101000a900460ff16151561119b576040517f08c379a00000000000000000000000000000000000000000000000000000000081526004018080602001828103825260158152602001807f5441524745545f4e4f545f415554484f52495a4544000000000000000000000081525060200191505060405180910390fd5b60038054905081101515611217576040517f08c379a00000000000000000000000000000000000000000000000000000000081526004018080602001828103825260138152602001807f494e4445585f4f55545f4f465f424f554e44530000000000000000000000000081525060200191505060405180910390fd5b8173ffffffffffffffffffffffffffffffffffffffff1660038281548110151561123d57fe5b9060005260206000200160009054906101000a900473ffffffffffffffffffffffffffffffffffffffff1673ffffffffffffffffffffffffffffffffffffffff161415156112f3576040517f08c379a000000000000000000000000000000000000000000000000000000000815260040180806020018281038252601b8152602001807f415554484f52495a45445f414444524553535f4d49534d41544348000000000081525060200191505060405180910390fd5b600260008373ffffffffffffffffffffffffffffffffffffffff1673ffffffffffffffffffffffffffffffffffffffff16815260200190815260200160002060006101000a81549060ff0219169055600360016003805490500381548110151561135957fe5b9060005260206000200160009054906101000a900473ffffffffffffffffffffffffffffffffffffffff1660038281548110151561139357fe5b9060005260206000200160006101000a81548173ffffffffffffffffffffffffffffffffffffffff021916908373ffffffffffffffffffffffffffffffffffffffff16021790555060016003818180549050039150816113f39190611a3f565b503373ffffffffffffffffffffffffffffffffffffffff168273ffffffffffffffffffffffffffffffffffffffff167f1f32c1b084e2de0713b8fb16bd46bb9df710a3dbeae2f3ca93af46e016dcc6b060405160405180910390a35050565b600060405180807f4d756c746941737365742875696e743235365b5d2c62797465735b5d29000000815250601d0190506040518091039020905090565b60026020528060005260406000206000915054906101000a900460ff1681565b60008060008060009054906101000a900473ffffffffffffffffffffffffffffffffffffffff1673ffffffffffffffffffffffffffffffffffffffff163373ffffffffffffffffffffffffffffffffffffffff16141515611578576040517f08c379a00000000000000000000000000000000000000000000000000000000081526004018080602001828103825260138152602001807f4f4e4c595f434f4e54524143545f4f574e45520000000000000000000000000081525060200191505060405180910390fd5b8392508273ffffffffffffffffffffffffffffffffffffffff1663ae25532e6040518163ffffffff167c0100000000000000000000000000000000000000000000000000000000028152600401602060405180830381600087803b1580156115df57600080fd5b505af11580156115f3573d6000803e3d6000fd5b505050506040513d602081101561160957600080fd5b8101908080519060200190929190505050915060016000837bffffffffffffffffffffffffffffffffffffffffffffffffffffffff19167bffffffffffffffffffffffffffffffffffffffffffffffffffffffff1916815260200190815260200160002060009054906101000a900473ffffffffffffffffffffffffffffffffffffffff169050600073ffffffffffffffffffffffffffffffffffffffff168173ffffffffffffffffffffffffffffffffffffffff16141515611734576040517f08c379a000000000000000000000000000000000000000000000000000000000815260040180806020018281038252601a8152602001807f41535345545f50524f58595f414c52454144595f45584953545300000000000081525060200191505060405180910390fd5b8260016000847bffffffffffffffffffffffffffffffffffffffffffffffffffffffff19167bffffffffffffffffffffffffffffffffffffffffffffffffffffffff1916815260200190815260200160002060006101000a81548173ffffffffffffffffffffffffffffffffffffffff021916908373ffffffffffffffffffffffffffffffffffffffff1602179055507fd2c6b762299c609bdb96520b58a49bfb80186934d4f71a86a367571a15c03194828560405180837bffffffffffffffffffffffffffffffffffffffffffffffffffffffff19167bffffffffffffffffffffffffffffffffffffffffffffffffffffffff191681526020018273ffffffffffffffffffffffffffffffffffffffff1673ffffffffffffffffffffffffffffffffffffffff1681526020019250505060405180910390a150505050565b606060038054806020026020016040519081016040528092919081815260200182805480156118f757602002820191906000526020600020905b8160009054906101000a900473ffffffffffffffffffffffffffffffffffffffff1673ffffffffffffffffffffffffffffffffffffffff16815260200190600101908083116118ad575b5050505050905090565b6000809054906101000a900473ffffffffffffffffffffffffffffffffffffffff1673ffffffffffffffffffffffffffffffffffffffff163373ffffffffffffffffffffffffffffffffffffffff161415156119c5576040517f08c379a00000000000000000000000000000000000000000000000000000000081526004018080602001828103825260138152602001807f4f4e4c595f434f4e54524143545f4f574e45520000000000000000000000000081525060200191505060405180910390fd5b600073ffffffffffffffffffffffffffffffffffffffff168173ffffffffffffffffffffffffffffffffffffffff16141515611a3c57806000806101000a81548173ffffffffffffffffffffffffffffffffffffffff021916908373ffffffffffffffffffffffffffffffffffffffff1602179055505b50565b815481835581811115611a6657818360005260206000209182019101611a659190611a6b565b5b505050565b611a8d91905b80821115611a89576000816000905550600101611a71565b5090565b905600a165627a7a72305820764fbf3ccc9e594c9becb1d7f54700f13c75463708afaec28449ad2a6f4b30580029",
  "source": "/*\n\n  Copyright 2018 ZeroEx Intl.\n\n  Licensed under the Apache License, Version 2.0 (the \"License\");\n  you may not use this file except in compliance with the License.\n  You may obtain a copy of the License at\n\n    http://www.apache.org/licenses/LICENSE-2.0\n\n  Unless required by applicable law or agreed to in writing, software\n  distributed under the License is distributed on an \"AS IS\" BASIS,\n  WITHOUT WARRANTIES OR CONDITIONS OF ANY KIND, either express or implied.\n  See the License for the specific language governing permissions and\n  limitations under the License.\n\n*/\n\npragma solidity 0.4.24;\n\nimport \"../Exchange/MixinAssetProxyDispatcher.sol\";\nimport \"./MixinAuthorizable.sol\";\n\n\ncontract MultiAssetProxy is\n    MixinAssetProxyDispatcher,\n    MixinAuthorizable\n{\n    // Id of this proxy.\n    bytes4 constant internal PROXY_ID = bytes4(keccak256(\"MultiAsset(uint256[],bytes[])\"));\n\n    // solhint-disable-next-line payable-fallback\n    function ()\n        external\n    {\n        // NOTE: The below assembly assumes that clients do some input validation and that the input is properly encoded according to the AbiV2 specification.\n        // It is technically possible for inputs with very large lengths and offsets to cause overflows. However, this would make the calldata prohibitively\n        // expensive and we therefore do not check for overflows in these scenarios.\n        assembly {\n            // The first 4 bytes of calldata holds the function selector\n            let selector := and(calldataload(0), 0xffffffff00000000000000000000000000000000000000000000000000000000)\n\n            // `transferFrom` will be called with the following parameters:\n            // assetData Encoded byte array.\n            // from Address to transfer asset from.\n            // to Address to transfer asset to.\n            // amount Amount of asset to transfer.\n            // bytes4(keccak256(\"transferFrom(bytes,address,address,uint256)\")) = 0xa85e59e4\n            if eq(selector, 0xa85e59e400000000000000000000000000000000000000000000000000000000) {\n\n                // To lookup a value in a mapping, we load from the storage location keccak256(k, p),\n                // where k is the key left padded to 32 bytes and p is the storage slot\n                mstore(0, caller)\n                mstore(32, authorized_slot)\n\n                // Revert if authorized[msg.sender] == false\n                if iszero(sload(keccak256(0, 64))) {\n                    // Revert with `Error(\"SENDER_NOT_AUTHORIZED\")`\n                    mstore(0, 0x08c379a000000000000000000000000000000000000000000000000000000000)\n                    mstore(32, 0x0000002000000000000000000000000000000000000000000000000000000000)\n                    mstore(64, 0x0000001553454e4445525f4e4f545f415554484f52495a454400000000000000)\n                    mstore(96, 0)\n                    revert(0, 100)\n                }\n\n                // `transferFrom`.\n                // The function is marked `external`, so no abi decoding is done for\n                // us. Instead, we expect the `calldata` memory to contain the\n                // following:\n                //\n                // | Area     | Offset | Length  | Contents                            |\n                // |----------|--------|---------|-------------------------------------|\n                // | Header   | 0      | 4       | function selector                   |\n                // | Params   |        | 4 * 32  | function parameters:                |\n                // |          | 4      |         |   1. offset to assetData (*)        |\n                // |          | 36     |         |   2. from                           |\n                // |          | 68     |         |   3. to                             |\n                // |          | 100    |         |   4. amount                         |\n                // | Data     |        |         | assetData:                          |\n                // |          | 132    | 32      | assetData Length                    |\n                // |          | 164    | **      | assetData Contents                  |\n                //\n                // (*): offset is computed from start of function parameters, so offset\n                //      by an additional 4 bytes in the calldata.\n                //\n                // (**): see table below to compute length of assetData Contents\n                //\n                // WARNING: The ABIv2 specification allows additional padding between\n                //          the Params and Data section. This will result in a larger\n                //          offset to assetData.\n\n                // Load offset to `assetData`\n                let assetDataOffset := calldataload(4)\n\n                // Asset data itself is encoded as follows:\n                //\n                // | Area     | Offset      | Length  | Contents                            |\n                // |----------|-------------|---------|-------------------------------------|\n                // | Header   | 0           | 4       | assetProxyId                        |\n                // | Params   |             | 2 * 32  | function parameters:                |\n                // |          | 4           |         |   1. offset to amounts (*)          |\n                // |          | 36          |         |   2. offset to nestedAssetData (*)  |\n                // | Data     |             |         | amounts:                            |\n                // |          | 68          | 32      | amounts Length                      |\n                // |          | 100         | a       | amounts Contents                    | \n                // |          |             |         | nestedAssetData:                    |\n                // |          | 100 + a     | 32      | nestedAssetData Length              |\n                // |          | 132 + a     | b       | nestedAssetData Contents (offsets)  |\n                // |          | 132 + a + b |         | nestedAssetData[0, ..., len]        |\n\n                // In order to find the offset to `amounts`, we must add:\n                // 4 (function selector)\n                // + assetDataOffset\n                // + 32 (assetData len)\n                // + 4 (assetProxyId)\n                let amountsOffset := calldataload(add(assetDataOffset, 40))\n\n                // In order to find the offset to `nestedAssetData`, we must add:\n                // 4 (function selector)\n                // + assetDataOffset\n                // + 32 (assetData len)\n                // + 4 (assetProxyId)\n                // + 32 (amounts offset)\n                let nestedAssetDataOffset := calldataload(add(assetDataOffset, 72))\n\n                // In order to find the start of the `amounts` contents, we must add: \n                // 4 (function selector) \n                // + assetDataOffset \n                // + 32 (assetData len)\n                // + 4 (assetProxyId)\n                // + amountsOffset\n                // + 32 (amounts len)\n                let amountsContentsStart := add(assetDataOffset, add(amountsOffset, 72))\n\n                // Load number of elements in `amounts`\n                let amountsLen := calldataload(sub(amountsContentsStart, 32))\n\n                // In order to find the start of the `nestedAssetData` contents, we must add: \n                // 4 (function selector) \n                // + assetDataOffset \n                // + 32 (assetData len)\n                // + 4 (assetProxyId)\n                // + nestedAssetDataOffset\n                // + 32 (nestedAssetData len)\n                let nestedAssetDataContentsStart := add(assetDataOffset, add(nestedAssetDataOffset, 72))\n\n                // Load number of elements in `nestedAssetData`\n                let nestedAssetDataLen := calldataload(sub(nestedAssetDataContentsStart, 32))\n\n                // Revert if number of elements in `amounts` differs from number of elements in `nestedAssetData`\n                if sub(amountsLen, nestedAssetDataLen) {\n                    // Revert with `Error(\"LENGTH_MISMATCH\")`\n                    mstore(0, 0x08c379a000000000000000000000000000000000000000000000000000000000)\n                    mstore(32, 0x0000002000000000000000000000000000000000000000000000000000000000)\n                    mstore(64, 0x0000000f4c454e4754485f4d49534d4154434800000000000000000000000000)\n                    mstore(96, 0)\n                    revert(0, 100)\n                }\n\n                // Copy `transferFrom` selector, offset to `assetData`, `from`, and `to` from calldata to memory\n                calldatacopy(\n                    0,   // memory can safely be overwritten from beginning\n                    0,   // start of calldata\n                    100  // length of selector (4) and 3 params (32 * 3)\n                )\n\n                // Overwrite existing offset to `assetData` with our own\n                mstore(4, 128)\n                \n                // Load `amount`\n                let amount := calldataload(100)\n        \n                // Calculate number of bytes in `amounts` contents\n                let amountsByteLen := mul(amountsLen, 32)\n\n                // Initialize `assetProxyId` and `assetProxy` to 0\n                let assetProxyId := 0\n                let assetProxy := 0\n\n                // Loop through `amounts` and `nestedAssetData`, calling `transferFrom` for each respective element\n                for {let i := 0} lt(i, amountsByteLen) {i := add(i, 32)} {\n\n                    // Calculate the total amount\n                    let amountsElement := calldataload(add(amountsContentsStart, i))\n                    let totalAmount := mul(amountsElement, amount)\n\n                    // Revert if `amount` != 0 and multiplication resulted in an overflow \n                    if iszero(or(\n                        iszero(amount),\n                        eq(div(totalAmount, amount), amountsElement)\n                    )) {\n                        // Revert with `Error(\"UINT256_OVERFLOW\")`\n                        mstore(0, 0x08c379a000000000000000000000000000000000000000000000000000000000)\n                        mstore(32, 0x0000002000000000000000000000000000000000000000000000000000000000)\n                        mstore(64, 0x0000001055494e543235365f4f564552464c4f57000000000000000000000000)\n                        mstore(96, 0)\n                        revert(0, 100)\n                    }\n\n                    // Write `totalAmount` to memory\n                    mstore(100, totalAmount)\n\n                    // Load offset to `nestedAssetData[i]`\n                    let nestedAssetDataElementOffset := calldataload(add(nestedAssetDataContentsStart, i))\n\n                    // In order to find the start of the `nestedAssetData[i]` contents, we must add:\n                    // 4 (function selector) \n                    // + assetDataOffset \n                    // + 32 (assetData len)\n                    // + 4 (assetProxyId)\n                    // + nestedAssetDataOffset\n                    // + 32 (nestedAssetData len)\n                    // + nestedAssetDataElementOffset\n                    // + 32 (nestedAssetDataElement len)\n                    let nestedAssetDataElementContentsStart := add(assetDataOffset, add(nestedAssetDataOffset, add(nestedAssetDataElementOffset, 104)))\n\n                    // Load length of `nestedAssetData[i]`\n                    let nestedAssetDataElementLenStart := sub(nestedAssetDataElementContentsStart, 32)\n                    let nestedAssetDataElementLen := calldataload(nestedAssetDataElementLenStart)\n\n                    // Revert if the `nestedAssetData` does not contain a 4 byte `assetProxyId`\n                    if lt(nestedAssetDataElementLen, 4) {\n                        // Revert with `Error(\"LENGTH_GREATER_THAN_3_REQUIRED\")`\n                        mstore(0, 0x08c379a000000000000000000000000000000000000000000000000000000000)\n                        mstore(32, 0x0000002000000000000000000000000000000000000000000000000000000000)\n                        mstore(64, 0x0000001e4c454e4754485f475245415445525f5448414e5f335f524551554952)\n                        mstore(96, 0x4544000000000000000000000000000000000000000000000000000000000000)\n                        revert(0, 100)\n                    }\n\n                    // Load AssetProxy id\n                    let currentAssetProxyId := and(\n                        calldataload(nestedAssetDataElementContentsStart),\n                        0xffffffff00000000000000000000000000000000000000000000000000000000\n                    )\n\n                    // Only load `assetProxy` if `currentAssetProxyId` does not equal `assetProxyId`\n                    // We do not need to check if `currentAssetProxyId` is 0 since `assetProxy` is also initialized to 0\n                    if sub(currentAssetProxyId, assetProxyId) {\n                        // Update `assetProxyId`\n                        assetProxyId := currentAssetProxyId\n                        // To lookup a value in a mapping, we load from the storage location keccak256(k, p),\n                        // where k is the key left padded to 32 bytes and p is the storage slot\n                        mstore(132, assetProxyId)\n                        mstore(164, assetProxies_slot)\n                        assetProxy := sload(keccak256(132, 64))\n                    }\n                    \n                    // Revert if AssetProxy with given id does not exist\n                    if iszero(assetProxy) {\n                        // Revert with `Error(\"ASSET_PROXY_DOES_NOT_EXIST\")`\n                        mstore(0, 0x08c379a000000000000000000000000000000000000000000000000000000000)\n                        mstore(32, 0x0000002000000000000000000000000000000000000000000000000000000000)\n                        mstore(64, 0x0000001a41535345545f50524f58595f444f45535f4e4f545f45584953540000)\n                        mstore(96, 0)\n                        revert(0, 100)\n                    }\n    \n                    // Copy `nestedAssetData[i]` from calldata to memory\n                    calldatacopy(\n                        132,                                // memory slot after `amounts[i]`\n                        nestedAssetDataElementLenStart,     // location of `nestedAssetData[i]` in calldata\n                        add(nestedAssetDataElementLen, 32)  // `nestedAssetData[i].length` plus 32 byte length\n                    )\n\n                    // call `assetProxy.transferFrom`\n                    let success := call(\n                        gas,                                    // forward all gas\n                        assetProxy,                             // call address of asset proxy\n                        0,                                      // don't send any ETH\n                        0,                                      // pointer to start of input\n                        add(164, nestedAssetDataElementLen),    // length of input  \n                        0,                                      // write output over memory that won't be reused\n                        0                                       // don't copy output to memory\n                    )\n\n                    // Revert with reason given by AssetProxy if `transferFrom` call failed\n                    if iszero(success) {\n                        returndatacopy(\n                            0,                // copy to memory at 0\n                            0,                // copy from return data at 0\n                            returndatasize()  // copy all return data\n                        )\n                        revert(0, returndatasize())\n                    }\n                }\n\n                // Return if no `transferFrom` calls reverted\n                return(0, 0)\n            }\n\n            // Revert if undefined function is called\n            revert(0, 0)\n        }\n    }\n\n    /// @dev Gets the proxy id associated with the proxy address.\n    /// @return Proxy id.\n    function getProxyId()\n        external\n        pure\n        returns (bytes4)\n    {\n        return PROXY_ID;\n    }\n}\n",
  "sourcePath": "/Users/lawrenceballou/Desktop/BlockNerds/Clients/AltcoinIo/filter-contract/contracts/protocol/contracts/protocol/AssetProxy/MultiAssetProxy.sol",
  "compiler": {
    "name": "solc",
    "version": "0.4.24+commit.e67f0147.Emscripten.clang"
  },
  "schemaVersion": "3.0.0",
  "updatedAt": "2018-12-28T17:39:10.971Z",
  "devdoc": {
    "methods": {
      "addAuthorizedAddress(address)": {
        "details": "Authorizes an address.",
        "params": {
          "target": "Address to authorize."
        }
      },
      "getAssetProxy(bytes4)": {
        "details": "Gets an asset proxy.",
        "params": {
          "assetProxyId": "Id of the asset proxy."
        },
        "return": "The asset proxy registered to assetProxyId. Returns 0x0 if no proxy is registered."
      },
      "getAuthorizedAddresses()": {
        "details": "Gets all authorized addresses.",
        "return": "Array of authorized addresses."
      },
      "getProxyId()": {
        "details": "Gets the proxy id associated with the proxy address.",
        "return": "Proxy id."
      },
      "registerAssetProxy(address)": {
        "details": "Registers an asset proxy to its asset proxy id.      Once an asset proxy is registered, it cannot be unregistered.",
        "params": {
          "assetProxy": "Address of new asset proxy to register."
        }
      },
      "removeAuthorizedAddress(address)": {
        "details": "Removes authorizion of an address.",
        "params": {
          "target": "Address to remove authorization from."
        }
      },
      "removeAuthorizedAddressAtIndex(address,uint256)": {
        "details": "Removes authorizion of an address.",
        "params": {
          "index": "Index of target in authorities array.",
          "target": "Address to remove authorization from."
        }
      }
    }
  },
  "userdoc": {
    "methods": {}
  }
}