{
  "contractName": "OrderMatcher",
  "abi": [
    {
      "constant": false,
      "inputs": [
        {
          "components": [
            {
              "name": "makerAddress",
              "type": "address"
            },
            {
              "name": "takerAddress",
              "type": "address"
            },
            {
              "name": "feeRecipientAddress",
              "type": "address"
            },
            {
              "name": "senderAddress",
              "type": "address"
            },
            {
              "name": "makerAssetAmount",
              "type": "uint256"
            },
            {
              "name": "takerAssetAmount",
              "type": "uint256"
            },
            {
              "name": "makerFee",
              "type": "uint256"
            },
            {
              "name": "takerFee",
              "type": "uint256"
            },
            {
              "name": "expirationTimeSeconds",
              "type": "uint256"
            },
            {
              "name": "salt",
              "type": "uint256"
            },
            {
              "name": "makerAssetData",
              "type": "bytes"
            },
            {
              "name": "takerAssetData",
              "type": "bytes"
            }
          ],
          "name": "leftOrder",
          "type": "tuple"
        },
        {
          "components": [
            {
              "name": "makerAddress",
              "type": "address"
            },
            {
              "name": "takerAddress",
              "type": "address"
            },
            {
              "name": "feeRecipientAddress",
              "type": "address"
            },
            {
              "name": "senderAddress",
              "type": "address"
            },
            {
              "name": "makerAssetAmount",
              "type": "uint256"
            },
            {
              "name": "takerAssetAmount",
              "type": "uint256"
            },
            {
              "name": "makerFee",
              "type": "uint256"
            },
            {
              "name": "takerFee",
              "type": "uint256"
            },
            {
              "name": "expirationTimeSeconds",
              "type": "uint256"
            },
            {
              "name": "salt",
              "type": "uint256"
            },
            {
              "name": "makerAssetData",
              "type": "bytes"
            },
            {
              "name": "takerAssetData",
              "type": "bytes"
            }
          ],
          "name": "rightOrder",
          "type": "tuple"
        },
        {
          "name": "leftSignature",
          "type": "bytes"
        },
        {
          "name": "rightSignature",
          "type": "bytes"
        }
      ],
      "name": "matchOrders",
      "outputs": [],
      "payable": false,
      "stateMutability": "nonpayable",
      "type": "function"
    },
    {
      "constant": false,
      "inputs": [
        {
          "name": "assetData",
          "type": "bytes"
        },
        {
          "name": "amount",
          "type": "uint256"
        }
      ],
      "name": "withdrawAsset",
      "outputs": [],
      "payable": false,
      "stateMutability": "nonpayable",
      "type": "function"
    },
    {
      "constant": true,
      "inputs": [],
      "name": "owner",
      "outputs": [
        {
          "name": "",
          "type": "address"
        }
      ],
      "payable": false,
      "stateMutability": "view",
      "type": "function"
    },
    {
      "constant": false,
      "inputs": [
        {
          "name": "assetData",
          "type": "bytes"
        },
        {
          "name": "amount",
          "type": "uint256"
        }
      ],
      "name": "approveAssetProxy",
      "outputs": [],
      "payable": false,
      "stateMutability": "nonpayable",
      "type": "function"
    },
    {
      "constant": false,
      "inputs": [
        {
          "name": "newOwner",
          "type": "address"
        }
      ],
      "name": "transferOwnership",
      "outputs": [],
      "payable": false,
      "stateMutability": "nonpayable",
      "type": "function"
    },
    {
      "inputs": [
        {
          "name": "_exchange",
          "type": "address"
        }
      ],
      "payable": false,
      "stateMutability": "nonpayable",
      "type": "constructor"
    }
  ],
  "bytecode": "0x60806040523480156200001157600080fd5b50604051602080620024fe833981018060405262000033919081019062000465565b80336000806101000a81548173ffffffffffffffffffffffffffffffffffffffff021916908373ffffffffffffffffffffffffffffffffffffffff16021790555080600160006101000a81548173ffffffffffffffffffffffffffffffffffffffff021916908373ffffffffffffffffffffffffffffffffffffffff160217905550600160009054906101000a900473ffffffffffffffffffffffffffffffffffffffff1673ffffffffffffffffffffffffffffffffffffffff16636070410863f47261b07c0100000000000000000000000000000000000000000000000000000000026040518263ffffffff167c0100000000000000000000000000000000000000000000000000000000028152600401620001519190620004d9565b602060405180830381600087803b1580156200016c57600080fd5b505af115801562000181573d6000803e3d6000fd5b505050506040513d601f19601f82011682018060405250620001a7919081019062000465565b600260006101000a81548173ffffffffffffffffffffffffffffffffffffffff021916908373ffffffffffffffffffffffffffffffffffffffff160217905550600073ffffffffffffffffffffffffffffffffffffffff16600260009054906101000a900473ffffffffffffffffffffffffffffffffffffffff1673ffffffffffffffffffffffffffffffffffffffff16141515156200027e576040517f08c379a00000000000000000000000000000000000000000000000000000000081526004016200027590620004f6565b60405180910390fd5b600160009054906101000a900473ffffffffffffffffffffffffffffffffffffffff1673ffffffffffffffffffffffffffffffffffffffff16636070410863025717927c0100000000000000000000000000000000000000000000000000000000026040518263ffffffff167c01000000000000000000000000000000000000000000000000000000000281526004016200031a9190620004d9565b602060405180830381600087803b1580156200033557600080fd5b505af11580156200034a573d6000803e3d6000fd5b505050506040513d601f19601f8201168201806040525062000370919081019062000465565b600360006101000a81548173ffffffffffffffffffffffffffffffffffffffff021916908373ffffffffffffffffffffffffffffffffffffffff160217905550600073ffffffffffffffffffffffffffffffffffffffff16600360009054906101000a900473ffffffffffffffffffffffffffffffffffffffff1673ffffffffffffffffffffffffffffffffffffffff161415151562000447576040517f08c379a00000000000000000000000000000000000000000000000000000000081526004016200043e90620004f6565b60405180910390fd5b505062000564565b60006200045d825162000544565b905092915050565b6000602082840312156200047857600080fd5b600062000488848285016200044f565b91505092915050565b6200049c8162000518565b82525050565b6000601882527f554e524547495354455245445f41535345545f50524f585900000000000000006020830152604082019050919050565b6000602082019050620004f0600083018462000491565b92915050565b600060208201905081810360008301526200051181620004a2565b9050919050565b60007fffffffff0000000000000000000000000000000000000000000000000000000082169050919050565b600073ffffffffffffffffffffffffffffffffffffffff82169050919050565b611f8a80620005746000396000f30060806040526004361061006d576000357c0100000000000000000000000000000000000000000000000000000000900463ffffffff1680633c28d86114610072578063630f1e6c1461009b5780638da5cb5b146100c4578063dd9fc3e3146100ef578063f2fde38b14610118575b600080fd5b34801561007e57600080fd5b50610099600480360361009491908101906116d4565b610141565b005b3480156100a757600080fd5b506100c260048036036100bd9190810190611600565b6104b6565b005b3480156100d057600080fd5b506100d9610588565b6040516100e69190611b75565b60405180910390f35b3480156100fb57600080fd5b5061011660048036036101119190810190611600565b6105ad565b005b34801561012457600080fd5b5061013f600480360361013a91908101906115ae565b61081e565b005b6101496110c6565b6000806101546110f5565b6000809054906101000a900473ffffffffffffffffffffffffffffffffffffffff1673ffffffffffffffffffffffffffffffffffffffff163373ffffffffffffffffffffffffffffffffffffffff161415156101e5576040517f08c379a00000000000000000000000000000000000000000000000000000000081526004016101dc90611c99565b60405180910390fd5b600160009054906101000a900473ffffffffffffffffffffffffffffffffffffffff1673ffffffffffffffffffffffffffffffffffffffff16633c28d861898989896040518563ffffffff167c01000000000000000000000000000000000000000000000000000000000281526004016102629493929190611d3b565b61012060405180830381600087803b15801561027d57600080fd5b505af1158015610291573d6000803e3d6000fd5b505050506040513d601f19601f820116820180604052506102b59190810190611681565b9350836040015192508660a00151915060008314806102db575081846020015160200151145b156102e5576104ac565b876101600151876101400181905250876101400151876101600181905250600160009054906101000a900473ffffffffffffffffffffffffffffffffffffffff1673ffffffffffffffffffffffffffffffffffffffff1663c75e0a81886040518263ffffffff167c010000000000000000000000000000000000000000000000000000000002815260040161037a9190611d19565b606060405180830381600087803b15801561039457600080fd5b505af11580156103a8573d6000803e3d6000fd5b505050506040513d601f19601f820116820180604052506103cc91908101906116ab565b905081816040015114156103df576104ac565b600160009054906101000a900473ffffffffffffffffffffffffffffffffffffffff1673ffffffffffffffffffffffffffffffffffffffff1663b4be83d588856040518363ffffffff167c0100000000000000000000000000000000000000000000000000000000028152600401610458929190611d9c565b608060405180830381600087803b15801561047257600080fd5b505af1158015610486573d6000803e3d6000fd5b505050506040513d601f19601f820116820180604052506104aa9190810190611658565b505b5050505050505050565b6000809054906101000a900473ffffffffffffffffffffffffffffffffffffffff1673ffffffffffffffffffffffffffffffffffffffff163373ffffffffffffffffffffffffffffffffffffffff16141515610547576040517f08c379a000000000000000000000000000000000000000000000000000000000815260040161053e90611c99565b60405180910390fd5b61058383838080601f01602080910402602001604051908101604052809392919081815260200183838082843782019150505050505082610929565b505050565b6000809054906101000a900473ffffffffffffffffffffffffffffffffffffffff1681565b60008060009054906101000a900473ffffffffffffffffffffffffffffffffffffffff1673ffffffffffffffffffffffffffffffffffffffff163373ffffffffffffffffffffffffffffffffffffffff16141515610640576040517f08c379a000000000000000000000000000000000000000000000000000000000815260040161063790611c99565b60405180910390fd5b610686600085858080601f016020809104026020016040519081016040528093929190818152602001838380828437820191505050505050610a7290919063ffffffff16565b905063f47261b07c0100000000000000000000000000000000000000000000000000000000027bffffffffffffffffffffffffffffffffffffffffffffffffffffffff1916817bffffffffffffffffffffffffffffffffffffffffffffffffffffffff191614156107325761072d84848080601f01602080910402602001604051908101604052809392919081815260200183838082843782019150505050505083610af7565b610818565b63025717927c0100000000000000000000000000000000000000000000000000000000027bffffffffffffffffffffffffffffffffffffffffffffffffffffffff1916817bffffffffffffffffffffffffffffffffffffffffffffffffffffffff191614156107dc576107d784848080601f01602080910402602001604051908101604052809392919081815260200183838082843782019150505050505083610c20565b610817565b6040517f08c379a000000000000000000000000000000000000000000000000000000000815260040161080e90611c39565b60405180910390fd5b5b50505050565b6000809054906101000a900473ffffffffffffffffffffffffffffffffffffffff1673ffffffffffffffffffffffffffffffffffffffff163373ffffffffffffffffffffffffffffffffffffffff161415156108af576040517f08c379a00000000000000000000000000000000000000000000000000000000081526004016108a690611c99565b60405180910390fd5b600073ffffffffffffffffffffffffffffffffffffffff168173ffffffffffffffffffffffffffffffffffffffff1614151561092657806000806101000a81548173ffffffffffffffffffffffffffffffffffffffff021916908373ffffffffffffffffffffffffffffffffffffffff1602179055505b50565b600061093f600084610a7290919063ffffffff16565b905063f47261b07c0100000000000000000000000000000000000000000000000000000000027bffffffffffffffffffffffffffffffffffffffffffffffffffffffff1916817bffffffffffffffffffffffffffffffffffffffffffffffffffffffff191614156109b9576109b48383610cf1565b610a6d565b63025717927c0100000000000000000000000000000000000000000000000000000000027bffffffffffffffffffffffffffffffffffffffffffffffffffffffff1916817bffffffffffffffffffffffffffffffffffffffffffffffffffffffff19161415610a3157610a2c8383610ed0565b610a6c565b6040517f08c379a0000000000000000000000000000000000000000000000000000000008152600401610a6390611c39565b60405180910390fd5b5b505050565b600060048201835110151515610abd576040517f08c379a0000000000000000000000000000000000000000000000000000000008152600401610ab490611cd9565b60405180910390fd5b6020820191508183015190507fffffffff000000000000000000000000000000000000000000000000000000008116905080905092915050565b6000610b0d601084610fd590919063ffffffff16565b90508073ffffffffffffffffffffffffffffffffffffffff1663095ea7b3600260009054906101000a900473ffffffffffffffffffffffffffffffffffffffff16846040518363ffffffff167c0100000000000000000000000000000000000000000000000000000000028152600401610b88929190611bf0565b602060405180830381600087803b158015610ba257600080fd5b505af1158015610bb6573d6000803e3d6000fd5b505050506040513d601f19601f82011682018060405250610bda91908101906115d7565b1515610c1b576040517f08c379a0000000000000000000000000000000000000000000000000000000008152600401610c1290611c79565b60405180910390fd5b505050565b600080610c37601085610fd590919063ffffffff16565b9150600183101590508173ffffffffffffffffffffffffffffffffffffffff1663a22cb465600360009054906101000a900473ffffffffffffffffffffffffffffffffffffffff16836040518363ffffffff167c0100000000000000000000000000000000000000000000000000000000028152600401610cb9929190611bc7565b600060405180830381600087803b158015610cd357600080fd5b505af1158015610ce7573d6000803e3d6000fd5b5050505050505050565b600080610d08601085610fd590919063ffffffff16565b91508173ffffffffffffffffffffffffffffffffffffffff1663a9059cbb7c0100000000000000000000000000000000000000000000000000000000023385604051602401610d58929190611bf0565b604051602081830303815290604052907bffffffffffffffffffffffffffffffffffffffffffffffffffffffff19166020820180517bffffffffffffffffffffffffffffffffffffffffffffffffffffffff838183161783525050505060405180828051906020019080838360005b83811015610de2578082015181840152602081019050610dc7565b50505050905090810190601f168015610e0f5780820380516001836020036101000a031916815260200191505b509150506000604051808303816000865af19150509050801515610e68576040517f08c379a0000000000000000000000000000000000000000000000000000000008152600401610e5f90611c59565b60405180910390fd5b3d15610e88576000905060203d1415610e875760206000803e60005190505b5b801515610eca576040517f08c379a0000000000000000000000000000000000000000000000000000000008152600401610ec190611c59565b60405180910390fd5b50505050565b600080600183141515610f18576040517f08c379a0000000000000000000000000000000000000000000000000000000008152600401610f0f90611cf9565b60405180910390fd5b610f2c601085610fd590919063ffffffff16565b9150610f4260248561104b90919063ffffffff16565b90508173ffffffffffffffffffffffffffffffffffffffff166323b872dd3033846040518463ffffffff167c0100000000000000000000000000000000000000000000000000000000028152600401610f9d93929190611b90565b600060405180830381600087803b158015610fb757600080fd5b505af1158015610fcb573d6000803e3d6000fd5b5050505050505050565b600060148201835110151515611020576040517f08c379a000000000000000000000000000000000000000000000000000000000815260040161101790611cb9565b60405180910390fd5b60148201915073ffffffffffffffffffffffffffffffffffffffff8284015116905080905092915050565b60006110578383611066565b60019004905080905092915050565b6000602082018351101515156110b1576040517f08c379a00000000000000000000000000000000000000000000000000000000081526004016110a890611c19565b60405180910390fd5b60208201915081830151905080905092915050565b610120604051908101604052806110db61111d565b81526020016110e861111d565b8152602001600081525090565b606060405190810160405280600060ff16815260200160008019168152602001600081525090565b608060405190810160405280600081526020016000815260200160008152602001600081525090565b60006111528235611eb0565b905092915050565b60006111668251611ed0565b905092915050565b600061117a8251611edc565b905092915050565b60008083601f840112151561119657600080fd5b8235905067ffffffffffffffff8111156111af57600080fd5b6020830191508360018202830111156111c757600080fd5b9250929050565b600082601f83011215156111e157600080fd5b81356111f46111ef82611e0c565b611ddf565b9150808252602083016020830185838301111561121057600080fd5b61121b838284611efd565b50505092915050565b600082601f830112151561123757600080fd5b813561124a61124582611e38565b611ddf565b9150808252602083016020830185838301111561126657600080fd5b611271838284611efd565b50505092915050565b60006080828403121561128c57600080fd5b6112966080611ddf565b905060006112a684828501611586565b60008301525060206112ba84828501611586565b60208301525060406112ce84828501611586565b60408301525060606112e284828501611586565b60608301525092915050565b60006080828403121561130057600080fd5b61130a6080611ddf565b9050600061131a84828501611586565b600083015250602061132e84828501611586565b602083015250604061134284828501611586565b604083015250606061135684828501611586565b60608301525092915050565b6000610120828403121561137557600080fd5b61137f6060611ddf565b9050600061138f8482850161127a565b60008301525060806113a38482850161127a565b6020830152506101006113b884828501611586565b60408301525092915050565b6000606082840312156113d657600080fd5b6113e06060611ddf565b905060006113f08482850161159a565b60008301525060206114048482850161116e565b602083015250604061141884828501611586565b60408301525092915050565b6000610180828403121561143757600080fd5b611442610180611ddf565b9050600061145284828501611146565b600083015250602061146684828501611146565b602083015250604061147a84828501611146565b604083015250606061148e84828501611146565b60608301525060806114a284828501611572565b60808301525060a06114b684828501611572565b60a08301525060c06114ca84828501611572565b60c08301525060e06114de84828501611572565b60e0830152506101006114f384828501611572565b6101008301525061012061150984828501611572565b6101208301525061014082013567ffffffffffffffff81111561152b57600080fd5b611537848285016111ce565b6101408301525061016082013567ffffffffffffffff81111561155957600080fd5b611565848285016111ce565b6101608301525092915050565b600061157e8235611ee6565b905092915050565b60006115928251611ee6565b905092915050565b60006115a68251611ef0565b905092915050565b6000602082840312156115c057600080fd5b60006115ce84828501611146565b91505092915050565b6000602082840312156115e957600080fd5b60006115f78482850161115a565b91505092915050565b60008060006040848603121561161557600080fd5b600084013567ffffffffffffffff81111561162f57600080fd5b61163b86828701611182565b9350935050602061164e86828701611572565b9150509250925092565b60006080828403121561166a57600080fd5b6000611678848285016112ee565b91505092915050565b6000610120828403121561169457600080fd5b60006116a284828501611362565b91505092915050565b6000606082840312156116bd57600080fd5b60006116cb848285016113c4565b91505092915050565b600080600080608085870312156116ea57600080fd5b600085013567ffffffffffffffff81111561170457600080fd5b61171087828801611424565b945050602085013567ffffffffffffffff81111561172d57600080fd5b61173987828801611424565b935050604085013567ffffffffffffffff81111561175657600080fd5b61176287828801611224565b925050606085013567ffffffffffffffff81111561177f57600080fd5b61178b87828801611224565b91505092959194509250565b6117a081611e7a565b82525050565b6117af81611e9a565b82525050565b60006117c082611e6f565b8084526117d4816020860160208601611f0c565b6117dd81611f3f565b602085010191505092915050565b60006117f682611e64565b80845261180a816020860160208601611f0c565b61181381611f3f565b602085010191505092915050565b6000602682527f475245415445525f4f525f455155414c5f544f5f33325f4c454e4754485f524560208301527f51554952454400000000000000000000000000000000000000000000000000006040830152606082019050919050565b6000601782527f554e535550504f525445445f41535345545f50524f58590000000000000000006020830152604082019050919050565b6000600f82527f5452414e534645525f4641494c454400000000000000000000000000000000006020830152604082019050919050565b6000600f82527f415050524f56414c5f4641494c454400000000000000000000000000000000006020830152604082019050919050565b6000601382527f4f4e4c595f434f4e54524143545f4f574e4552000000000000000000000000006020830152604082019050919050565b6000602682527f475245415445525f4f525f455155414c5f544f5f32305f4c454e4754485f524560208301527f51554952454400000000000000000000000000000000000000000000000000006040830152606082019050919050565b6000808252602082019050919050565b6000602582527f475245415445525f4f525f455155414c5f544f5f345f4c454e4754485f52455160208301527f55495245440000000000000000000000000000000000000000000000000000006040830152606082019050919050565b6000600e82527f494e56414c49445f414d4f554e540000000000000000000000000000000000006020830152604082019050919050565b600061018083016000830151611a746000860182611797565b506020830151611a876020860182611797565b506040830151611a9a6040860182611797565b506060830151611aad6060860182611797565b506080830151611ac06080860182611b66565b5060a0830151611ad360a0860182611b66565b5060c0830151611ae660c0860182611b66565b5060e0830151611af960e0860182611b66565b50610100830151611b0e610100860182611b66565b50610120830151611b23610120860182611b66565b50610140830151848203610140860152611b3d82826117eb565b915050610160830151848203610160860152611b5982826117eb565b9150508091505092915050565b611b6f81611ea6565b82525050565b6000602082019050611b8a6000830184611797565b92915050565b6000606082019050611ba56000830186611797565b611bb26020830185611797565b611bbf6040830184611b66565b949350505050565b6000604082019050611bdc6000830185611797565b611be960208301846117a6565b9392505050565b6000604082019050611c056000830185611797565b611c126020830184611b66565b9392505050565b60006020820190508181036000830152611c3281611821565b9050919050565b60006020820190508181036000830152611c528161187e565b9050919050565b60006020820190508181036000830152611c72816118b5565b9050919050565b60006020820190508181036000830152611c92816118ec565b9050919050565b60006020820190508181036000830152611cb281611923565b9050919050565b60006020820190508181036000830152611cd28161195a565b9050919050565b60006020820190508181036000830152611cf2816119c7565b9050919050565b60006020820190508181036000830152611d1281611a24565b9050919050565b60006020820190508181036000830152611d338184611a5b565b905092915050565b60006080820190508181036000830152611d558187611a5b565b90508181036020830152611d698186611a5b565b90508181036040830152611d7d81856117b5565b90508181036060830152611d9181846117b5565b905095945050505050565b60006060820190508181036000830152611db68185611a5b565b9050611dc56020830184611b66565b8181036040830152611dd6816119b7565b90509392505050565b6000604051905081810181811067ffffffffffffffff82111715611e0257600080fd5b8060405250919050565b600067ffffffffffffffff821115611e2357600080fd5b601f19601f8301169050602081019050919050565b600067ffffffffffffffff821115611e4f57600080fd5b601f19601f8301169050602081019050919050565b600081519050919050565b600081519050919050565b600073ffffffffffffffffffffffffffffffffffffffff82169050919050565b60008115159050919050565b6000819050919050565b600073ffffffffffffffffffffffffffffffffffffffff82169050919050565b60008115159050919050565b6000819050919050565b6000819050919050565b600060ff82169050919050565b82818337600083830152505050565b60005b83811015611f2a578082015181840152602081019050611f0f565b83811115611f39576000848401525b50505050565b6000601f19601f83011690509190505600a265627a7a72305820dc35a50686cc6933464f9db6d7b9d3873aff30dabf8b48e9f8af55c0b101b07c6c6578706572696d656e74616cf50037",
  "source": "/*\n\n  Copyright 2018 ZeroEx Intl.\n\n  Licensed under the Apache License, Version 2.0 (the \"License\");\n  you may not use this file except in compliance with the License.\n  You may obtain a copy of the License at\n\n    http://www.apache.org/licenses/LICENSE-2.0\n\n  Unless required by applicable law or agreed to in writing, software\n  distributed under the License is distributed on an \"AS IS\" BASIS,\n  WITHOUT WARRANTIES OR CONDITIONS OF ANY KIND, either express or implied.\n  See the License for the specific language governing permissions and\n  limitations under the License.\n\n*/\n\npragma solidity 0.4.24;\npragma experimental ABIEncoderV2;\n\nimport \"../../../utils/contracts/utils/Ownable/Ownable.sol\";\nimport \"./libs/LibConstants.sol\";\nimport \"./MixinMatchOrders.sol\";\nimport \"./MixinAssets.sol\";\n\n\n// solhint-disable no-empty-blocks\ncontract OrderMatcher is\n    MixinMatchOrders,\n    MixinAssets\n{\n    constructor (address _exchange)\n        public\n        LibConstants(_exchange)\n        Ownable()\n    {}\n}\n",
  "sourcePath": "/Users/lawrenceballou/Desktop/BlockNerds/Clients/AltcoinIo/filter-contract/contracts/extensions/contracts/OrderMatcher/OrderMatcher.sol",
  "compiler": {
    "name": "solc",
    "version": "0.4.24+commit.e67f0147.Emscripten.clang"
  },
  "schemaVersion": "3.0.0",
  "updatedAt": "2018-12-28T17:39:48.689Z",
  "devdoc": {
    "methods": {
      "approveAssetProxy(bytes,uint256)": {
        "details": "Approves or disapproves an AssetProxy to spend asset.",
        "params": {
          "amount": "Amount of asset to approve for respective proxy.",
          "assetData": "Byte array encoded for the respective asset proxy."
        }
      },
      "matchOrders((address,address,address,address,uint256,uint256,uint256,uint256,uint256,uint256,bytes,bytes),(address,address,address,address,uint256,uint256,uint256,uint256,uint256,uint256,bytes,bytes),bytes,bytes)": {
        "details": "Match two complementary orders that have a profitable spread.      Each order is filled at their respective price point. However, the calculations are      carried out as though the orders are both being filled at the right order's price point.      The profit made by the left order is then used to fill the right order as much as possible.      This results in a spread being taken in terms of both assets. The spread is held within this contract.",
        "params": {
          "leftOrder": "First order to match.",
          "leftSignature": "Proof that order was created by the left maker.",
          "rightOrder": "Second order to match.",
          "rightSignature": "Proof that order was created by the right maker."
        }
      },
      "withdrawAsset(bytes,uint256)": {
        "details": "Withdraws assets from this contract. The contract requires a ZRX balance in order to       function optimally, and this function allows the ZRX to be withdrawn by owner. It may also be      used to withdraw assets that were accidentally sent to this contract.",
        "params": {
          "amount": "Amount of asset to withdraw.",
          "assetData": "Byte array encoded for the respective asset proxy."
        }
      }
    }
  },
  "userdoc": {
    "methods": {}
  }
}