{
  "contractName": "TestExchangeInternals",
  "abi": [
    {
      "constant": true,
      "inputs": [
        {
          "name": "",
          "type": "bytes32"
        }
      ],
      "name": "filled",
      "outputs": [
        {
          "name": "",
          "type": "uint256"
        }
      ],
      "payable": false,
      "stateMutability": "view",
      "type": "function"
    },
    {
      "constant": false,
      "inputs": [
        {
          "components": [
            {
              "name": "makerAddress",
              "type": "address"
            },
            {
              "name": "takerAddress",
              "type": "address"
            },
            {
              "name": "feeRecipientAddress",
              "type": "address"
            },
            {
              "name": "senderAddress",
              "type": "address"
            },
            {
              "name": "makerAssetAmount",
              "type": "uint256"
            },
            {
              "name": "takerAssetAmount",
              "type": "uint256"
            },
            {
              "name": "makerFee",
              "type": "uint256"
            },
            {
              "name": "takerFee",
              "type": "uint256"
            },
            {
              "name": "expirationTimeSeconds",
              "type": "uint256"
            },
            {
              "name": "salt",
              "type": "uint256"
            },
            {
              "name": "makerAssetData",
              "type": "bytes"
            },
            {
              "name": "takerAssetData",
              "type": "bytes"
            }
          ],
          "name": "orders",
          "type": "tuple[]"
        },
        {
          "name": "takerAssetFillAmounts",
          "type": "uint256[]"
        },
        {
          "name": "signatures",
          "type": "bytes[]"
        }
      ],
      "name": "batchFillOrders",
      "outputs": [
        {
          "components": [
            {
              "name": "makerAssetFilledAmount",
              "type": "uint256"
            },
            {
              "name": "takerAssetFilledAmount",
              "type": "uint256"
            },
            {
              "name": "makerFeePaid",
              "type": "uint256"
            },
            {
              "name": "takerFeePaid",
              "type": "uint256"
            }
          ],
          "name": "totalFillResults",
          "type": "tuple"
        }
      ],
      "payable": false,
      "stateMutability": "nonpayable",
      "type": "function"
    },
    {
      "constant": true,
      "inputs": [
        {
          "name": "",
          "type": "bytes32"
        }
      ],
      "name": "cancelled",
      "outputs": [
        {
          "name": "",
          "type": "bool"
        }
      ],
      "payable": false,
      "stateMutability": "view",
      "type": "function"
    },
    {
      "constant": false,
      "inputs": [
        {
          "name": "hash",
          "type": "bytes32"
        },
        {
          "name": "signerAddress",
          "type": "address"
        },
        {
          "name": "signature",
          "type": "bytes"
        }
      ],
      "name": "preSign",
      "outputs": [],
      "payable": false,
      "stateMutability": "nonpayable",
      "type": "function"
    },
    {
      "constant": false,
      "inputs": [
        {
          "components": [
            {
              "name": "makerAddress",
              "type": "address"
            },
            {
              "name": "takerAddress",
              "type": "address"
            },
            {
              "name": "feeRecipientAddress",
              "type": "address"
            },
            {
              "name": "senderAddress",
              "type": "address"
            },
            {
              "name": "makerAssetAmount",
              "type": "uint256"
            },
            {
              "name": "takerAssetAmount",
              "type": "uint256"
            },
            {
              "name": "makerFee",
              "type": "uint256"
            },
            {
              "name": "takerFee",
              "type": "uint256"
            },
            {
              "name": "expirationTimeSeconds",
              "type": "uint256"
            },
            {
              "name": "salt",
              "type": "uint256"
            },
            {
              "name": "makerAssetData",
              "type": "bytes"
            },
            {
              "name": "takerAssetData",
              "type": "bytes"
            }
          ],
          "name": "leftOrder",
          "type": "tuple"
        },
        {
          "components": [
            {
              "name": "makerAddress",
              "type": "address"
            },
            {
              "name": "takerAddress",
              "type": "address"
            },
            {
              "name": "feeRecipientAddress",
              "type": "address"
            },
            {
              "name": "senderAddress",
              "type": "address"
            },
            {
              "name": "makerAssetAmount",
              "type": "uint256"
            },
            {
              "name": "takerAssetAmount",
              "type": "uint256"
            },
            {
              "name": "makerFee",
              "type": "uint256"
            },
            {
              "name": "takerFee",
              "type": "uint256"
            },
            {
              "name": "expirationTimeSeconds",
              "type": "uint256"
            },
            {
              "name": "salt",
              "type": "uint256"
            },
            {
              "name": "makerAssetData",
              "type": "bytes"
            },
            {
              "name": "takerAssetData",
              "type": "bytes"
            }
          ],
          "name": "rightOrder",
          "type": "tuple"
        },
        {
          "name": "leftSignature",
          "type": "bytes"
        },
        {
          "name": "rightSignature",
          "type": "bytes"
        }
      ],
      "name": "matchOrders",
      "outputs": [
        {
          "components": [
            {
              "components": [
                {
                  "name": "makerAssetFilledAmount",
                  "type": "uint256"
                },
                {
                  "name": "takerAssetFilledAmount",
                  "type": "uint256"
                },
                {
                  "name": "makerFeePaid",
                  "type": "uint256"
                },
                {
                  "name": "takerFeePaid",
                  "type": "uint256"
                }
              ],
              "name": "left",
              "type": "tuple"
            },
            {
              "components": [
                {
                  "name": "makerAssetFilledAmount",
                  "type": "uint256"
                },
                {
                  "name": "takerAssetFilledAmount",
                  "type": "uint256"
                },
                {
                  "name": "makerFeePaid",
                  "type": "uint256"
                },
                {
                  "name": "takerFeePaid",
                  "type": "uint256"
                }
              ],
              "name": "right",
              "type": "tuple"
            },
            {
              "name": "leftMakerAssetSpreadAmount",
              "type": "uint256"
            }
          ],
          "name": "matchedFillResults",
          "type": "tuple"
        }
      ],
      "payable": false,
      "stateMutability": "nonpayable",
      "type": "function"
    },
    {
      "constant": false,
      "inputs": [
        {
          "components": [
            {
              "name": "makerAddress",
              "type": "address"
            },
            {
              "name": "takerAddress",
              "type": "address"
            },
            {
              "name": "feeRecipientAddress",
              "type": "address"
            },
            {
              "name": "senderAddress",
              "type": "address"
            },
            {
              "name": "makerAssetAmount",
              "type": "uint256"
            },
            {
              "name": "takerAssetAmount",
              "type": "uint256"
            },
            {
              "name": "makerFee",
              "type": "uint256"
            },
            {
              "name": "takerFee",
              "type": "uint256"
            },
            {
              "name": "expirationTimeSeconds",
              "type": "uint256"
            },
            {
              "name": "salt",
              "type": "uint256"
            },
            {
              "name": "makerAssetData",
              "type": "bytes"
            },
            {
              "name": "takerAssetData",
              "type": "bytes"
            }
          ],
          "name": "order",
          "type": "tuple"
        },
        {
          "name": "takerAssetFillAmount",
          "type": "uint256"
        },
        {
          "name": "signature",
          "type": "bytes"
        }
      ],
      "name": "fillOrderNoThrow",
      "outputs": [
        {
          "components": [
            {
              "name": "makerAssetFilledAmount",
              "type": "uint256"
            },
            {
              "name": "takerAssetFilledAmount",
              "type": "uint256"
            },
            {
              "name": "makerFeePaid",
              "type": "uint256"
            },
            {
              "name": "takerFeePaid",
              "type": "uint256"
            }
          ],
          "name": "fillResults",
          "type": "tuple"
        }
      ],
      "payable": false,
      "stateMutability": "nonpayable",
      "type": "function"
    },
    {
      "constant": true,
      "inputs": [
        {
          "name": "",
          "type": "bytes4"
        }
      ],
      "name": "assetProxies",
      "outputs": [
        {
          "name": "",
          "type": "address"
        }
      ],
      "payable": false,
      "stateMutability": "view",
      "type": "function"
    },
    {
      "constant": false,
      "inputs": [
        {
          "components": [
            {
              "name": "makerAddress",
              "type": "address"
            },
            {
              "name": "takerAddress",
              "type": "address"
            },
            {
              "name": "feeRecipientAddress",
              "type": "address"
            },
            {
              "name": "senderAddress",
              "type": "address"
            },
            {
              "name": "makerAssetAmount",
              "type": "uint256"
            },
            {
              "name": "takerAssetAmount",
              "type": "uint256"
            },
            {
              "name": "makerFee",
              "type": "uint256"
            },
            {
              "name": "takerFee",
              "type": "uint256"
            },
            {
              "name": "expirationTimeSeconds",
              "type": "uint256"
            },
            {
              "name": "salt",
              "type": "uint256"
            },
            {
              "name": "makerAssetData",
              "type": "bytes"
            },
            {
              "name": "takerAssetData",
              "type": "bytes"
            }
          ],
          "name": "orders",
          "type": "tuple[]"
        }
      ],
      "name": "batchCancelOrders",
      "outputs": [],
      "payable": false,
      "stateMutability": "nonpayable",
      "type": "function"
    },
    {
      "constant": false,
      "inputs": [
        {
          "components": [
            {
              "name": "makerAddress",
              "type": "address"
            },
            {
              "name": "takerAddress",
              "type": "address"
            },
            {
              "name": "feeRecipientAddress",
              "type": "address"
            },
            {
              "name": "senderAddress",
              "type": "address"
            },
            {
              "name": "makerAssetAmount",
              "type": "uint256"
            },
            {
              "name": "takerAssetAmount",
              "type": "uint256"
            },
            {
              "name": "makerFee",
              "type": "uint256"
            },
            {
              "name": "takerFee",
              "type": "uint256"
            },
            {
              "name": "expirationTimeSeconds",
              "type": "uint256"
            },
            {
              "name": "salt",
              "type": "uint256"
            },
            {
              "name": "makerAssetData",
              "type": "bytes"
            },
            {
              "name": "takerAssetData",
              "type": "bytes"
            }
          ],
          "name": "orders",
          "type": "tuple[]"
        },
        {
          "name": "takerAssetFillAmounts",
          "type": "uint256[]"
        },
        {
          "name": "signatures",
          "type": "bytes[]"
        }
      ],
      "name": "batchFillOrKillOrders",
      "outputs": [
        {
          "components": [
            {
              "name": "makerAssetFilledAmount",
              "type": "uint256"
            },
            {
              "name": "takerAssetFilledAmount",
              "type": "uint256"
            },
            {
              "name": "makerFeePaid",
              "type": "uint256"
            },
            {
              "name": "takerFeePaid",
              "type": "uint256"
            }
          ],
          "name": "totalFillResults",
          "type": "tuple"
        }
      ],
      "payable": false,
      "stateMutability": "nonpayable",
      "type": "function"
    },
    {
      "constant": false,
      "inputs": [
        {
          "name": "targetOrderEpoch",
          "type": "uint256"
        }
      ],
      "name": "cancelOrdersUpTo",
      "outputs": [],
      "payable": false,
      "stateMutability": "nonpayable",
      "type": "function"
    },
    {
      "constant": false,
      "inputs": [
        {
          "components": [
            {
              "name": "makerAddress",
              "type": "address"
            },
            {
              "name": "takerAddress",
              "type": "address"
            },
            {
              "name": "feeRecipientAddress",
              "type": "address"
            },
            {
              "name": "senderAddress",
              "type": "address"
            },
            {
              "name": "makerAssetAmount",
              "type": "uint256"
            },
            {
              "name": "takerAssetAmount",
              "type": "uint256"
            },
            {
              "name": "makerFee",
              "type": "uint256"
            },
            {
              "name": "takerFee",
              "type": "uint256"
            },
            {
              "name": "expirationTimeSeconds",
              "type": "uint256"
            },
            {
              "name": "salt",
              "type": "uint256"
            },
            {
              "name": "makerAssetData",
              "type": "bytes"
            },
            {
              "name": "takerAssetData",
              "type": "bytes"
            }
          ],
          "name": "orders",
          "type": "tuple[]"
        },
        {
          "name": "takerAssetFillAmounts",
          "type": "uint256[]"
        },
        {
          "name": "signatures",
          "type": "bytes[]"
        }
      ],
      "name": "batchFillOrdersNoThrow",
      "outputs": [
        {
          "components": [
            {
              "name": "makerAssetFilledAmount",
              "type": "uint256"
            },
            {
              "name": "takerAssetFilledAmount",
              "type": "uint256"
            },
            {
              "name": "makerFeePaid",
              "type": "uint256"
            },
            {
              "name": "takerFeePaid",
              "type": "uint256"
            }
          ],
          "name": "totalFillResults",
          "type": "tuple"
        }
      ],
      "payable": false,
      "stateMutability": "nonpayable",
      "type": "function"
    },
    {
      "constant": true,
      "inputs": [
        {
          "name": "assetProxyId",
          "type": "bytes4"
        }
      ],
      "name": "getAssetProxy",
      "outputs": [
        {
          "name": "",
          "type": "address"
        }
      ],
      "payable": false,
      "stateMutability": "view",
      "type": "function"
    },
    {
      "constant": true,
      "inputs": [
        {
          "name": "",
          "type": "bytes32"
        }
      ],
      "name": "transactions",
      "outputs": [
        {
          "name": "",
          "type": "bool"
        }
      ],
      "payable": false,
      "stateMutability": "view",
      "type": "function"
    },
    {
      "constant": false,
      "inputs": [
        {
          "components": [
            {
              "name": "makerAddress",
              "type": "address"
            },
            {
              "name": "takerAddress",
              "type": "address"
            },
            {
              "name": "feeRecipientAddress",
              "type": "address"
            },
            {
              "name": "senderAddress",
              "type": "address"
            },
            {
              "name": "makerAssetAmount",
              "type": "uint256"
            },
            {
              "name": "takerAssetAmount",
              "type": "uint256"
            },
            {
              "name": "makerFee",
              "type": "uint256"
            },
            {
              "name": "takerFee",
              "type": "uint256"
            },
            {
              "name": "expirationTimeSeconds",
              "type": "uint256"
            },
            {
              "name": "salt",
              "type": "uint256"
            },
            {
              "name": "makerAssetData",
              "type": "bytes"
            },
            {
              "name": "takerAssetData",
              "type": "bytes"
            }
          ],
          "name": "order",
          "type": "tuple"
        },
        {
          "name": "takerAssetFillAmount",
          "type": "uint256"
        },
        {
          "name": "signature",
          "type": "bytes"
        }
      ],
      "name": "fillOrKillOrder",
      "outputs": [
        {
          "components": [
            {
              "name": "makerAssetFilledAmount",
              "type": "uint256"
            },
            {
              "name": "takerAssetFilledAmount",
              "type": "uint256"
            },
            {
              "name": "makerFeePaid",
              "type": "uint256"
            },
            {
              "name": "takerFeePaid",
              "type": "uint256"
            }
          ],
          "name": "fillResults",
          "type": "tuple"
        }
      ],
      "payable": false,
      "stateMutability": "nonpayable",
      "type": "function"
    },
    {
      "constant": false,
      "inputs": [
        {
          "name": "validatorAddress",
          "type": "address"
        },
        {
          "name": "approval",
          "type": "bool"
        }
      ],
      "name": "setSignatureValidatorApproval",
      "outputs": [],
      "payable": false,
      "stateMutability": "nonpayable",
      "type": "function"
    },
    {
      "constant": true,
      "inputs": [
        {
          "name": "",
          "type": "address"
        },
        {
          "name": "",
          "type": "address"
        }
      ],
      "name": "allowedValidators",
      "outputs": [
        {
          "name": "",
          "type": "bool"
        }
      ],
      "payable": false,
      "stateMutability": "view",
      "type": "function"
    },
    {
      "constant": false,
      "inputs": [
        {
          "components": [
            {
              "name": "makerAddress",
              "type": "address"
            },
            {
              "name": "takerAddress",
              "type": "address"
            },
            {
              "name": "feeRecipientAddress",
              "type": "address"
            },
            {
              "name": "senderAddress",
              "type": "address"
            },
            {
              "name": "makerAssetAmount",
              "type": "uint256"
            },
            {
              "name": "takerAssetAmount",
              "type": "uint256"
            },
            {
              "name": "makerFee",
              "type": "uint256"
            },
            {
              "name": "takerFee",
              "type": "uint256"
            },
            {
              "name": "expirationTimeSeconds",
              "type": "uint256"
            },
            {
              "name": "salt",
              "type": "uint256"
            },
            {
              "name": "makerAssetData",
              "type": "bytes"
            },
            {
              "name": "takerAssetData",
              "type": "bytes"
            }
          ],
          "name": "orders",
          "type": "tuple[]"
        },
        {
          "name": "takerAssetFillAmount",
          "type": "uint256"
        },
        {
          "name": "signatures",
          "type": "bytes[]"
        }
      ],
      "name": "marketSellOrders",
      "outputs": [
        {
          "components": [
            {
              "name": "makerAssetFilledAmount",
              "type": "uint256"
            },
            {
              "name": "takerAssetFilledAmount",
              "type": "uint256"
            },
            {
              "name": "makerFeePaid",
              "type": "uint256"
            },
            {
              "name": "takerFeePaid",
              "type": "uint256"
            }
          ],
          "name": "totalFillResults",
          "type": "tuple"
        }
      ],
      "payable": false,
      "stateMutability": "nonpayable",
      "type": "function"
    },
    {
      "constant": true,
      "inputs": [
        {
          "components": [
            {
              "name": "makerAddress",
              "type": "address"
            },
            {
              "name": "takerAddress",
              "type": "address"
            },
            {
              "name": "feeRecipientAddress",
              "type": "address"
            },
            {
              "name": "senderAddress",
              "type": "address"
            },
            {
              "name": "makerAssetAmount",
              "type": "uint256"
            },
            {
              "name": "takerAssetAmount",
              "type": "uint256"
            },
            {
              "name": "makerFee",
              "type": "uint256"
            },
            {
              "name": "takerFee",
              "type": "uint256"
            },
            {
              "name": "expirationTimeSeconds",
              "type": "uint256"
            },
            {
              "name": "salt",
              "type": "uint256"
            },
            {
              "name": "makerAssetData",
              "type": "bytes"
            },
            {
              "name": "takerAssetData",
              "type": "bytes"
            }
          ],
          "name": "orders",
          "type": "tuple[]"
        }
      ],
      "name": "getOrdersInfo",
      "outputs": [
        {
          "components": [
            {
              "name": "orderStatus",
              "type": "uint8"
            },
            {
              "name": "orderHash",
              "type": "bytes32"
            },
            {
              "name": "orderTakerAssetFilledAmount",
              "type": "uint256"
            }
          ],
          "name": "",
          "type": "tuple[]"
        }
      ],
      "payable": false,
      "stateMutability": "view",
      "type": "function"
    },
    {
      "constant": true,
      "inputs": [
        {
          "name": "",
          "type": "bytes32"
        },
        {
          "name": "",
          "type": "address"
        }
      ],
      "name": "preSigned",
      "outputs": [
        {
          "name": "",
          "type": "bool"
        }
      ],
      "payable": false,
      "stateMutability": "view",
      "type": "function"
    },
    {
      "constant": true,
      "inputs": [],
      "name": "owner",
      "outputs": [
        {
          "name": "",
          "type": "address"
        }
      ],
      "payable": false,
      "stateMutability": "view",
      "type": "function"
    },
    {
      "constant": true,
      "inputs": [
        {
          "name": "hash",
          "type": "bytes32"
        },
        {
          "name": "signerAddress",
          "type": "address"
        },
        {
          "name": "signature",
          "type": "bytes"
        }
      ],
      "name": "isValidSignature",
      "outputs": [
        {
          "name": "isValid",
          "type": "bool"
        }
      ],
      "payable": false,
      "stateMutability": "view",
      "type": "function"
    },
    {
      "constant": false,
      "inputs": [
        {
          "components": [
            {
              "name": "makerAddress",
              "type": "address"
            },
            {
              "name": "takerAddress",
              "type": "address"
            },
            {
              "name": "feeRecipientAddress",
              "type": "address"
            },
            {
              "name": "senderAddress",
              "type": "address"
            },
            {
              "name": "makerAssetAmount",
              "type": "uint256"
            },
            {
              "name": "takerAssetAmount",
              "type": "uint256"
            },
            {
              "name": "makerFee",
              "type": "uint256"
            },
            {
              "name": "takerFee",
              "type": "uint256"
            },
            {
              "name": "expirationTimeSeconds",
              "type": "uint256"
            },
            {
              "name": "salt",
              "type": "uint256"
            },
            {
              "name": "makerAssetData",
              "type": "bytes"
            },
            {
              "name": "takerAssetData",
              "type": "bytes"
            }
          ],
          "name": "orders",
          "type": "tuple[]"
        },
        {
          "name": "makerAssetFillAmount",
          "type": "uint256"
        },
        {
          "name": "signatures",
          "type": "bytes[]"
        }
      ],
      "name": "marketBuyOrdersNoThrow",
      "outputs": [
        {
          "components": [
            {
              "name": "makerAssetFilledAmount",
              "type": "uint256"
            },
            {
              "name": "takerAssetFilledAmount",
              "type": "uint256"
            },
            {
              "name": "makerFeePaid",
              "type": "uint256"
            },
            {
              "name": "takerFeePaid",
              "type": "uint256"
            }
          ],
          "name": "totalFillResults",
          "type": "tuple"
        }
      ],
      "payable": false,
      "stateMutability": "nonpayable",
      "type": "function"
    },
    {
      "constant": false,
      "inputs": [
        {
          "components": [
            {
              "name": "makerAddress",
              "type": "address"
            },
            {
              "name": "takerAddress",
              "type": "address"
            },
            {
              "name": "feeRecipientAddress",
              "type": "address"
            },
            {
              "name": "senderAddress",
              "type": "address"
            },
            {
              "name": "makerAssetAmount",
              "type": "uint256"
            },
            {
              "name": "takerAssetAmount",
              "type": "uint256"
            },
            {
              "name": "makerFee",
              "type": "uint256"
            },
            {
              "name": "takerFee",
              "type": "uint256"
            },
            {
              "name": "expirationTimeSeconds",
              "type": "uint256"
            },
            {
              "name": "salt",
              "type": "uint256"
            },
            {
              "name": "makerAssetData",
              "type": "bytes"
            },
            {
              "name": "takerAssetData",
              "type": "bytes"
            }
          ],
          "name": "order",
          "type": "tuple"
        },
        {
          "name": "takerAssetFillAmount",
          "type": "uint256"
        },
        {
          "name": "signature",
          "type": "bytes"
        }
      ],
      "name": "fillOrder",
      "outputs": [
        {
          "components": [
            {
              "name": "makerAssetFilledAmount",
              "type": "uint256"
            },
            {
              "name": "takerAssetFilledAmount",
              "type": "uint256"
            },
            {
              "name": "makerFeePaid",
              "type": "uint256"
            },
            {
              "name": "takerFeePaid",
              "type": "uint256"
            }
          ],
          "name": "fillResults",
          "type": "tuple"
        }
      ],
      "payable": false,
      "stateMutability": "nonpayable",
      "type": "function"
    },
    {
      "constant": false,
      "inputs": [
        {
          "name": "salt",
          "type": "uint256"
        },
        {
          "name": "signerAddress",
          "type": "address"
        },
        {
          "name": "data",
          "type": "bytes"
        },
        {
          "name": "signature",
          "type": "bytes"
        }
      ],
      "name": "executeTransaction",
      "outputs": [],
      "payable": false,
      "stateMutability": "nonpayable",
      "type": "function"
    },
    {
      "constant": false,
      "inputs": [
        {
          "name": "assetProxy",
          "type": "address"
        }
      ],
      "name": "registerAssetProxy",
      "outputs": [],
      "payable": false,
      "stateMutability": "nonpayable",
      "type": "function"
    },
    {
      "constant": true,
      "inputs": [
        {
          "components": [
            {
              "name": "makerAddress",
              "type": "address"
            },
            {
              "name": "takerAddress",
              "type": "address"
            },
            {
              "name": "feeRecipientAddress",
              "type": "address"
            },
            {
              "name": "senderAddress",
              "type": "address"
            },
            {
              "name": "makerAssetAmount",
              "type": "uint256"
            },
            {
              "name": "takerAssetAmount",
              "type": "uint256"
            },
            {
              "name": "makerFee",
              "type": "uint256"
            },
            {
              "name": "takerFee",
              "type": "uint256"
            },
            {
              "name": "expirationTimeSeconds",
              "type": "uint256"
            },
            {
              "name": "salt",
              "type": "uint256"
            },
            {
              "name": "makerAssetData",
              "type": "bytes"
            },
            {
              "name": "takerAssetData",
              "type": "bytes"
            }
          ],
          "name": "order",
          "type": "tuple"
        }
      ],
      "name": "getOrderInfo",
      "outputs": [
        {
          "components": [
            {
              "name": "orderStatus",
              "type": "uint8"
            },
            {
              "name": "orderHash",
              "type": "bytes32"
            },
            {
              "name": "orderTakerAssetFilledAmount",
              "type": "uint256"
            }
          ],
          "name": "orderInfo",
          "type": "tuple"
        }
      ],
      "payable": false,
      "stateMutability": "view",
      "type": "function"
    },
    {
      "constant": false,
      "inputs": [
        {
          "components": [
            {
              "name": "makerAddress",
              "type": "address"
            },
            {
              "name": "takerAddress",
              "type": "address"
            },
            {
              "name": "feeRecipientAddress",
              "type": "address"
            },
            {
              "name": "senderAddress",
              "type": "address"
            },
            {
              "name": "makerAssetAmount",
              "type": "uint256"
            },
            {
              "name": "takerAssetAmount",
              "type": "uint256"
            },
            {
              "name": "makerFee",
              "type": "uint256"
            },
            {
              "name": "takerFee",
              "type": "uint256"
            },
            {
              "name": "expirationTimeSeconds",
              "type": "uint256"
            },
            {
              "name": "salt",
              "type": "uint256"
            },
            {
              "name": "makerAssetData",
              "type": "bytes"
            },
            {
              "name": "takerAssetData",
              "type": "bytes"
            }
          ],
          "name": "order",
          "type": "tuple"
        }
      ],
      "name": "cancelOrder",
      "outputs": [],
      "payable": false,
      "stateMutability": "nonpayable",
      "type": "function"
    },
    {
      "constant": true,
      "inputs": [
        {
          "name": "",
          "type": "address"
        },
        {
          "name": "",
          "type": "address"
        }
      ],
      "name": "orderEpoch",
      "outputs": [
        {
          "name": "",
          "type": "uint256"
        }
      ],
      "payable": false,
      "stateMutability": "view",
      "type": "function"
    },
    {
      "constant": true,
      "inputs": [],
      "name": "ZRX_ASSET_DATA",
      "outputs": [
        {
          "name": "",
          "type": "bytes"
        }
      ],
      "payable": false,
      "stateMutability": "view",
      "type": "function"
    },
    {
      "constant": false,
      "inputs": [
        {
          "components": [
            {
              "name": "makerAddress",
              "type": "address"
            },
            {
              "name": "takerAddress",
              "type": "address"
            },
            {
              "name": "feeRecipientAddress",
              "type": "address"
            },
            {
              "name": "senderAddress",
              "type": "address"
            },
            {
              "name": "makerAssetAmount",
              "type": "uint256"
            },
            {
              "name": "takerAssetAmount",
              "type": "uint256"
            },
            {
              "name": "makerFee",
              "type": "uint256"
            },
            {
              "name": "takerFee",
              "type": "uint256"
            },
            {
              "name": "expirationTimeSeconds",
              "type": "uint256"
            },
            {
              "name": "salt",
              "type": "uint256"
            },
            {
              "name": "makerAssetData",
              "type": "bytes"
            },
            {
              "name": "takerAssetData",
              "type": "bytes"
            }
          ],
          "name": "orders",
          "type": "tuple[]"
        },
        {
          "name": "takerAssetFillAmount",
          "type": "uint256"
        },
        {
          "name": "signatures",
          "type": "bytes[]"
        }
      ],
      "name": "marketSellOrdersNoThrow",
      "outputs": [
        {
          "components": [
            {
              "name": "makerAssetFilledAmount",
              "type": "uint256"
            },
            {
              "name": "takerAssetFilledAmount",
              "type": "uint256"
            },
            {
              "name": "makerFeePaid",
              "type": "uint256"
            },
            {
              "name": "takerFeePaid",
              "type": "uint256"
            }
          ],
          "name": "totalFillResults",
          "type": "tuple"
        }
      ],
      "payable": false,
      "stateMutability": "nonpayable",
      "type": "function"
    },
    {
      "constant": true,
      "inputs": [],
      "name": "EIP712_DOMAIN_HASH",
      "outputs": [
        {
          "name": "",
          "type": "bytes32"
        }
      ],
      "payable": false,
      "stateMutability": "view",
      "type": "function"
    },
    {
      "constant": false,
      "inputs": [
        {
          "components": [
            {
              "name": "makerAddress",
              "type": "address"
            },
            {
              "name": "takerAddress",
              "type": "address"
            },
            {
              "name": "feeRecipientAddress",
              "type": "address"
            },
            {
              "name": "senderAddress",
              "type": "address"
            },
            {
              "name": "makerAssetAmount",
              "type": "uint256"
            },
            {
              "name": "takerAssetAmount",
              "type": "uint256"
            },
            {
              "name": "makerFee",
              "type": "uint256"
            },
            {
              "name": "takerFee",
              "type": "uint256"
            },
            {
              "name": "expirationTimeSeconds",
              "type": "uint256"
            },
            {
              "name": "salt",
              "type": "uint256"
            },
            {
              "name": "makerAssetData",
              "type": "bytes"
            },
            {
              "name": "takerAssetData",
              "type": "bytes"
            }
          ],
          "name": "orders",
          "type": "tuple[]"
        },
        {
          "name": "makerAssetFillAmount",
          "type": "uint256"
        },
        {
          "name": "signatures",
          "type": "bytes[]"
        }
      ],
      "name": "marketBuyOrders",
      "outputs": [
        {
          "components": [
            {
              "name": "makerAssetFilledAmount",
              "type": "uint256"
            },
            {
              "name": "takerAssetFilledAmount",
              "type": "uint256"
            },
            {
              "name": "makerFeePaid",
              "type": "uint256"
            },
            {
              "name": "takerFeePaid",
              "type": "uint256"
            }
          ],
          "name": "totalFillResults",
          "type": "tuple"
        }
      ],
      "payable": false,
      "stateMutability": "nonpayable",
      "type": "function"
    },
    {
      "constant": true,
      "inputs": [],
      "name": "currentContextAddress",
      "outputs": [
        {
          "name": "",
          "type": "address"
        }
      ],
      "payable": false,
      "stateMutability": "view",
      "type": "function"
    },
    {
      "constant": false,
      "inputs": [
        {
          "name": "newOwner",
          "type": "address"
        }
      ],
      "name": "transferOwnership",
      "outputs": [],
      "payable": false,
      "stateMutability": "nonpayable",
      "type": "function"
    },
    {
      "constant": true,
      "inputs": [],
      "name": "VERSION",
      "outputs": [
        {
          "name": "",
          "type": "string"
        }
      ],
      "payable": false,
      "stateMutability": "view",
      "type": "function"
    },
    {
      "inputs": [],
      "payable": false,
      "stateMutability": "nonpayable",
      "type": "constructor"
    },
    {
      "anonymous": false,
      "inputs": [
        {
          "indexed": true,
          "name": "signerAddress",
          "type": "address"
        },
        {
          "indexed": true,
          "name": "validatorAddress",
          "type": "address"
        },
        {
          "indexed": false,
          "name": "approved",
          "type": "bool"
        }
      ],
      "name": "SignatureValidatorApproval",
      "type": "event"
    },
    {
      "anonymous": false,
      "inputs": [
        {
          "indexed": true,
          "name": "makerAddress",
          "type": "address"
        },
        {
          "indexed": true,
          "name": "feeRecipientAddress",
          "type": "address"
        },
        {
          "indexed": false,
          "name": "takerAddress",
          "type": "address"
        },
        {
          "indexed": false,
          "name": "senderAddress",
          "type": "address"
        },
        {
          "indexed": false,
          "name": "makerAssetFilledAmount",
          "type": "uint256"
        },
        {
          "indexed": false,
          "name": "takerAssetFilledAmount",
          "type": "uint256"
        },
        {
          "indexed": false,
          "name": "makerFeePaid",
          "type": "uint256"
        },
        {
          "indexed": false,
          "name": "takerFeePaid",
          "type": "uint256"
        },
        {
          "indexed": true,
          "name": "orderHash",
          "type": "bytes32"
        },
        {
          "indexed": false,
          "name": "makerAssetData",
          "type": "bytes"
        },
        {
          "indexed": false,
          "name": "takerAssetData",
          "type": "bytes"
        }
      ],
      "name": "Fill",
      "type": "event"
    },
    {
      "anonymous": false,
      "inputs": [
        {
          "indexed": true,
          "name": "makerAddress",
          "type": "address"
        },
        {
          "indexed": true,
          "name": "feeRecipientAddress",
          "type": "address"
        },
        {
          "indexed": false,
          "name": "senderAddress",
          "type": "address"
        },
        {
          "indexed": true,
          "name": "orderHash",
          "type": "bytes32"
        },
        {
          "indexed": false,
          "name": "makerAssetData",
          "type": "bytes"
        },
        {
          "indexed": false,
          "name": "takerAssetData",
          "type": "bytes"
        }
      ],
      "name": "Cancel",
      "type": "event"
    },
    {
      "anonymous": false,
      "inputs": [
        {
          "indexed": true,
          "name": "makerAddress",
          "type": "address"
        },
        {
          "indexed": true,
          "name": "senderAddress",
          "type": "address"
        },
        {
          "indexed": false,
          "name": "orderEpoch",
          "type": "uint256"
        }
      ],
      "name": "CancelUpTo",
      "type": "event"
    },
    {
      "anonymous": false,
      "inputs": [
        {
          "indexed": false,
          "name": "id",
          "type": "bytes4"
        },
        {
          "indexed": false,
          "name": "assetProxy",
          "type": "address"
        }
      ],
      "name": "AssetProxyRegistered",
      "type": "event"
    },
    {
      "constant": true,
      "inputs": [
        {
          "components": [
            {
              "name": "makerAssetFilledAmount",
              "type": "uint256"
            },
            {
              "name": "takerAssetFilledAmount",
              "type": "uint256"
            },
            {
              "name": "makerFeePaid",
              "type": "uint256"
            },
            {
              "name": "takerFeePaid",
              "type": "uint256"
            }
          ],
          "name": "totalFillResults",
          "type": "tuple"
        },
        {
          "components": [
            {
              "name": "makerAssetFilledAmount",
              "type": "uint256"
            },
            {
              "name": "takerAssetFilledAmount",
              "type": "uint256"
            },
            {
              "name": "makerFeePaid",
              "type": "uint256"
            },
            {
              "name": "takerFeePaid",
              "type": "uint256"
            }
          ],
          "name": "singleFillResults",
          "type": "tuple"
        }
      ],
      "name": "publicAddFillResults",
      "outputs": [
        {
          "components": [
            {
              "name": "makerAssetFilledAmount",
              "type": "uint256"
            },
            {
              "name": "takerAssetFilledAmount",
              "type": "uint256"
            },
            {
              "name": "makerFeePaid",
              "type": "uint256"
            },
            {
              "name": "takerFeePaid",
              "type": "uint256"
            }
          ],
          "name": "",
          "type": "tuple"
        }
      ],
      "payable": false,
      "stateMutability": "pure",
      "type": "function"
    },
    {
      "constant": true,
      "inputs": [
        {
          "components": [
            {
              "name": "makerAddress",
              "type": "address"
            },
            {
              "name": "takerAddress",
              "type": "address"
            },
            {
              "name": "feeRecipientAddress",
              "type": "address"
            },
            {
              "name": "senderAddress",
              "type": "address"
            },
            {
              "name": "makerAssetAmount",
              "type": "uint256"
            },
            {
              "name": "takerAssetAmount",
              "type": "uint256"
            },
            {
              "name": "makerFee",
              "type": "uint256"
            },
            {
              "name": "takerFee",
              "type": "uint256"
            },
            {
              "name": "expirationTimeSeconds",
              "type": "uint256"
            },
            {
              "name": "salt",
              "type": "uint256"
            },
            {
              "name": "makerAssetData",
              "type": "bytes"
            },
            {
              "name": "takerAssetData",
              "type": "bytes"
            }
          ],
          "name": "order",
          "type": "tuple"
        },
        {
          "name": "takerAssetFilledAmount",
          "type": "uint256"
        }
      ],
      "name": "publicCalculateFillResults",
      "outputs": [
        {
          "components": [
            {
              "name": "makerAssetFilledAmount",
              "type": "uint256"
            },
            {
              "name": "takerAssetFilledAmount",
              "type": "uint256"
            },
            {
              "name": "makerFeePaid",
              "type": "uint256"
            },
            {
              "name": "takerFeePaid",
              "type": "uint256"
            }
          ],
          "name": "fillResults",
          "type": "tuple"
        }
      ],
      "payable": false,
      "stateMutability": "pure",
      "type": "function"
    },
    {
      "constant": true,
      "inputs": [
        {
          "name": "numerator",
          "type": "uint256"
        },
        {
          "name": "denominator",
          "type": "uint256"
        },
        {
          "name": "target",
          "type": "uint256"
        }
      ],
      "name": "publicSafeGetPartialAmountFloor",
      "outputs": [
        {
          "name": "partialAmount",
          "type": "uint256"
        }
      ],
      "payable": false,
      "stateMutability": "pure",
      "type": "function"
    },
    {
      "constant": true,
      "inputs": [
        {
          "name": "numerator",
          "type": "uint256"
        },
        {
          "name": "denominator",
          "type": "uint256"
        },
        {
          "name": "target",
          "type": "uint256"
        }
      ],
      "name": "publicSafeGetPartialAmountCeil",
      "outputs": [
        {
          "name": "partialAmount",
          "type": "uint256"
        }
      ],
      "payable": false,
      "stateMutability": "pure",
      "type": "function"
    },
    {
      "constant": true,
      "inputs": [
        {
          "name": "numerator",
          "type": "uint256"
        },
        {
          "name": "denominator",
          "type": "uint256"
        },
        {
          "name": "target",
          "type": "uint256"
        }
      ],
      "name": "publicGetPartialAmountFloor",
      "outputs": [
        {
          "name": "partialAmount",
          "type": "uint256"
        }
      ],
      "payable": false,
      "stateMutability": "pure",
      "type": "function"
    },
    {
      "constant": true,
      "inputs": [
        {
          "name": "numerator",
          "type": "uint256"
        },
        {
          "name": "denominator",
          "type": "uint256"
        },
        {
          "name": "target",
          "type": "uint256"
        }
      ],
      "name": "publicGetPartialAmountCeil",
      "outputs": [
        {
          "name": "partialAmount",
          "type": "uint256"
        }
      ],
      "payable": false,
      "stateMutability": "pure",
      "type": "function"
    },
    {
      "constant": true,
      "inputs": [
        {
          "name": "numerator",
          "type": "uint256"
        },
        {
          "name": "denominator",
          "type": "uint256"
        },
        {
          "name": "target",
          "type": "uint256"
        }
      ],
      "name": "publicIsRoundingErrorFloor",
      "outputs": [
        {
          "name": "isError",
          "type": "bool"
        }
      ],
      "payable": false,
      "stateMutability": "pure",
      "type": "function"
    },
    {
      "constant": true,
      "inputs": [
        {
          "name": "numerator",
          "type": "uint256"
        },
        {
          "name": "denominator",
          "type": "uint256"
        },
        {
          "name": "target",
          "type": "uint256"
        }
      ],
      "name": "publicIsRoundingErrorCeil",
      "outputs": [
        {
          "name": "isError",
          "type": "bool"
        }
      ],
      "payable": false,
      "stateMutability": "pure",
      "type": "function"
    },
    {
      "constant": false,
      "inputs": [
        {
          "components": [
            {
              "name": "makerAddress",
              "type": "address"
            },
            {
              "name": "takerAddress",
              "type": "address"
            },
            {
              "name": "feeRecipientAddress",
              "type": "address"
            },
            {
              "name": "senderAddress",
              "type": "address"
            },
            {
              "name": "makerAssetAmount",
              "type": "uint256"
            },
            {
              "name": "takerAssetAmount",
              "type": "uint256"
            },
            {
              "name": "makerFee",
              "type": "uint256"
            },
            {
              "name": "takerFee",
              "type": "uint256"
            },
            {
              "name": "expirationTimeSeconds",
              "type": "uint256"
            },
            {
              "name": "salt",
              "type": "uint256"
            },
            {
              "name": "makerAssetData",
              "type": "bytes"
            },
            {
              "name": "takerAssetData",
              "type": "bytes"
            }
          ],
          "name": "order",
          "type": "tuple"
        },
        {
          "name": "takerAddress",
          "type": "address"
        },
        {
          "name": "orderHash",
          "type": "bytes32"
        },
        {
          "name": "orderTakerAssetFilledAmount",
          "type": "uint256"
        },
        {
          "components": [
            {
              "name": "makerAssetFilledAmount",
              "type": "uint256"
            },
            {
              "name": "takerAssetFilledAmount",
              "type": "uint256"
            },
            {
              "name": "makerFeePaid",
              "type": "uint256"
            },
            {
              "name": "takerFeePaid",
              "type": "uint256"
            }
          ],
          "name": "fillResults",
          "type": "tuple"
        }
      ],
      "name": "publicUpdateFilledState",
      "outputs": [],
      "payable": false,
      "stateMutability": "nonpayable",
      "type": "function"
    }
  ],
  "bytecode": "0x608060405260008060006101000a81548160ff0219169083151502179055503480156200002b57600080fd5b50602060405190810160405280600081525080806001908051906020019062000056929190620003f4565b505060405160200180807f454950373132446f6d61696e2800000000000000000000000000000000000000815250600d01807f737472696e67206e616d652c0000000000000000000000000000000000000000815250600c01807f737472696e672076657273696f6e2c0000000000000000000000000000000000815250600f01807f6164647265737320766572696679696e67436f6e747261637400000000000000815250601901807f290000000000000000000000000000000000000000000000000000000000000081525060010190506040516020818303038152906040526040518082805190602001908083835b6020831015156200016f578051825260208201915060208101905060208303925062000148565b6001836020036101000a03801982511681845116808217855250505050505090500191505060405180910390206040805190810160405280600b81526020017f30782050726f746f636f6c0000000000000000000000000000000000000000008152506040518082805190602001908083835b602083101515620002095780518252602082019150602081019050602083039250620001e2565b6001836020036101000a03801982511681845116808217855250505050505090500191505060405180910390206040805190810160405280600181526020017f32000000000000000000000000000000000000000000000000000000000000008152506040518082805190602001908083835b602083101515620002a357805182526020820191506020810190506020830392506200027c565b6001836020036101000a03801982511681845116808217855250505050505090500191505060405180910390203073ffffffffffffffffffffffffffffffffffffffff166001026040516020018085600019166000191681526020018460001916600019168152602001836000191660001916815260200182600019166000191681526020019450505050506040516020818303038152906040526040518082805190602001908083835b6020831015156200037557805182526020820191506020810190506020830392506200034e565b6001836020036101000a03801982511681845116808217855250505050505090500191505060405180910390206002816000191690555033600360006101000a81548173ffffffffffffffffffffffffffffffffffffffff021916908373ffffffffffffffffffffffffffffffffffffffff16021790555050620004a3565b828054600181600116156101000203166002900490600052602060002090601f016020900481019282601f106200043757805160ff191683800117855562000468565b8280016001018555821562000468579182015b82811115620004675782518255916020019190600101906200044a565b5b5090506200047791906200047b565b5090565b620004a091905b808211156200049c57600081600090555060010162000482565b5090565b90565b61776480620004b36000396000f30060806040526004361061021a576000357c0100000000000000000000000000000000000000000000000000000000900463ffffffff1680631be239011461021f5780631ea1e3d81461025c57806320777f7014610285578063288cdc91146102c2578063297bb70b146102ff5780632ac126221461033c5780633683ef8e146103795780633c28d861146103a25780633e228bae146103df5780633fd3c9971461041c5780634ac14782146104595780634d0ae546146104825780634f9559b1146104bf57806350dde190146104e85780636070410814610525578063642f2eaf1461056257806364a3bc151461059f57806366758d7b146105dc578063679d2f9a1461061957806377fcce68146106565780637b8e35141461067f5780637e1d9808146106bc5780637e9d74dc146106f957806382c174d0146107365780638da5cb5b14610773578063936347021461079e578063a3e20380146107db578063b4be83d514610818578063be7ada1e14610855578063bfc8bfce14610892578063c585bb93146108bb578063c75e0a81146108e4578063d46b02c314610921578063d9bfa73e1461094a578063db123b1a14610987578063dd1c7d18146109b2578063de30200d146109ef578063e0acd33d14610a2c578063e0b701e314610a69578063e306f77914610aa6578063e5fa431b14610ad1578063eea086ba14610b0e578063f2fde38b14610b39578063ffa1ad7414610b62575b600080fd5b34801561022b57600080fd5b50610246600480360361024191908101906162e1565b610b8d565b6040516102539190616e9f565b60405180910390f35b34801561026857600080fd5b50610283600480360361027e9190810190615ff7565b610ba3565b005b34801561029157600080fd5b506102ac60048036036102a791908101906162e1565b610bb7565b6040516102b99190617482565b60405180910390f35b3480156102ce57600080fd5b506102e960048036036102e49190810190615def565b610bcd565b6040516102f69190617482565b60405180910390f35b34801561030b57600080fd5b5061032660048036036103219190810190615cd9565b610be5565b6040516103339190617430565b60405180910390f35b34801561034857600080fd5b50610363600480360361035e9190810190615def565b610d05565b6040516103709190616e9f565b60405180910390f35b34801561038557600080fd5b506103a0600480360361039b9190810190615e54565b610d25565b005b3480156103ae57600080fd5b506103c960048036036103c49190810190616087565b610e50565b6040516103d6919061744b565b60405180910390f35b3480156103eb57600080fd5b506104066004803603610401919081019061619e565b610ffb565b6040516104139190617430565b60405180910390f35b34801561042857600080fd5b50610443600480360361043e9190810190615f27565b611053565b6040516104509190616fd3565b60405180910390f35b34801561046557600080fd5b50610480600480360361047b9190810190615c98565b611086565b005b34801561048e57600080fd5b506104a960048036036104a49190810190615cd9565b611152565b6040516104b69190617430565b60405180910390f35b3480156104cb57600080fd5b506104e660048036036104e1919081019061621d565b611272565b005b3480156104f457600080fd5b5061050f600480360361050a9190810190615cd9565b6114fb565b60405161051c9190617430565b60405180910390f35b34801561053157600080fd5b5061054c60048036036105479190810190615f27565b611596565b6040516105599190616d91565b60405180910390f35b34801561056e57600080fd5b5061058960048036036105849190810190615def565b611611565b6040516105969190616e9f565b60405180910390f35b3480156105ab57600080fd5b506105c660048036036105c1919081019061619e565b611631565b6040516105d39190617430565b60405180910390f35b3480156105e857600080fd5b5061060360048036036105fe9190810190615f79565b6116d5565b6040516106109190617430565b60405180910390f35b34801561062557600080fd5b50610640600480360361063b91908101906162e1565b6116f0565b60405161064d9190616e9f565b60405180910390f35b34801561066257600080fd5b5061067d60048036036106789190810190615c5c565b611706565b005b34801561068b57600080fd5b506106a660048036036106a19190810190615c20565b611895565b6040516106b39190616e9f565b60405180910390f35b3480156106c857600080fd5b506106e360048036036106de9190810190615d70565b6118c4565b6040516106f09190617430565b60405180910390f35b34801561070557600080fd5b50610720600480360361071b9190810190615c98565b611a36565b60405161072d9190616e7d565b60405180910390f35b34801561074257600080fd5b5061075d60048036036107589190810190615e18565b611ae0565b60405161076a9190616e9f565b60405180910390f35b34801561077f57600080fd5b50610788611b0f565b6040516107959190616d91565b60405180910390f35b3480156107aa57600080fd5b506107c560048036036107c09190810190615ec0565b611b35565b6040516107d29190616e9f565b60405180910390f35b3480156107e757600080fd5b5061080260048036036107fd9190810190615d70565b6122b4565b60405161080f9190617430565b60405180910390f35b34801561082457600080fd5b5061083f600480360361083a919081019061619e565b6123e6565b60405161084c9190617430565b60405180910390f35b34801561086157600080fd5b5061087c600480360361087791908101906162e1565b61248a565b6040516108899190617482565b60405180910390f35b34801561089e57600080fd5b506108b960048036036108b49190810190616246565b6124a0565b005b3480156108c757600080fd5b506108e260048036036108dd9190810190615bf7565b61280c565b005b3480156108f057600080fd5b5061090b60048036036109069190810190615fb6565b612af8565b6040516109189190617467565b60405180910390f35b34801561092d57600080fd5b5061094860048036036109439190810190615fb6565b612d4a565b005b34801561095657600080fd5b50610971600480360361096c9190810190615c20565b612ddb565b60405161097e9190617482565b60405180910390f35b34801561099357600080fd5b5061099c612e00565b6040516109a99190616fb1565b60405180910390f35b3480156109be57600080fd5b506109d960048036036109d49190810190615d70565b612e9e565b6040516109e69190617430565b60405180910390f35b3480156109fb57600080fd5b50610a166004803603610a1191908101906162e1565b612f8b565b604051610a239190617482565b60405180910390f35b348015610a3857600080fd5b50610a536004803603610a4e91908101906162e1565b612fa1565b604051610a609190617482565b60405180910390f35b348015610a7557600080fd5b50610a906004803603610a8b919081019061614a565b612fb7565b604051610a9d9190617430565b60405180910390f35b348015610ab257600080fd5b50610abb612fd1565b604051610ac89190616eba565b60405180910390f35b348015610add57600080fd5b50610af86004803603610af39190810190615d70565b612fd7565b604051610b059190617430565b60405180910390f35b348015610b1a57600080fd5b50610b2361318e565b604051610b309190616d91565b60405180910390f35b348015610b4557600080fd5b50610b606004803603610b5b9190810190615bf7565b6131b4565b005b348015610b6e57600080fd5b50610b776132c1565b604051610b849190616fee565b60405180910390f35b6000610b9a8484846132fa565b90509392505050565b610bb08585858585613394565b5050505050565b6000610bc4848484613462565b90509392505050565b60046020528060005260406000206000915090505481565b610bed615535565b600080610bf8615535565b6000809054906101000a900460ff16151515610c49576040517f08c379a0000000000000000000000000000000000000000000000000000000008152600401610c4090617330565b60405180910390fd5b60016000806101000a81548160ff02191690831515021790555086519250600091505b8282141515610cde57610cc58783815181101515610c8657fe5b906020019060200201518784815181101515610c9e57fe5b906020019060200201518785815181101515610cb657fe5b906020019060200201516134da565b9050610cd1848261357b565b8180600101925050610c6c565b83935060008060006101000a81548160ff0219169083151502179055505050509392505050565b60056020528060005260406000206000915054906101000a900460ff1681565b3373ffffffffffffffffffffffffffffffffffffffff168373ffffffffffffffffffffffffffffffffffffffff16141515610dd957610d97848484848080601f016020809104026020016040519081016040528093929190818152602001838380828437820191505050505050611b35565b1515610dd8576040517f08c379a0000000000000000000000000000000000000000000000000000000008152600401610dcf90617190565b60405180910390fd5b5b600160076000866000191660001916815260200190815260200160002060008573ffffffffffffffffffffffffffffffffffffffff1673ffffffffffffffffffffffffffffffffffffffff16815260200190815260200160002060006101000a81548160ff02191690831515021790555050505050565b610e5861555e565b610e6061558d565b610e6861558d565b60008060009054906101000a900460ff16151515610ebb576040517f08c379a0000000000000000000000000000000000000000000000000000000008152600401610eb290617330565b60405180910390fd5b60016000806101000a81548160ff021916908315150217905550876101600151876101400181905250876101400151876101600181905250610efc88612af8565b9250610f0787612af8565b9150610f116135eb565b9050610f1f8884838961365b565b610f2b8783838861365b565b610f35888861387b565b610f498888856040015185604001516138e6565b9350610f708884866000015160200151876000015160200151886000015160000151613ad3565b610f958783866020015160200151876020015160200151886020015160000151613ad3565b610fae8882856020015186604001518860000151613394565b610fc78782846020015185604001518860200151613394565b610fd388888387613c1a565b83935060008060006101000a81548160ff021916908315150217905550505050949350505050565b611003615535565b6060611010858585613dee565b9050608081825160208401305af4801561104757815183526020820151602084015260408201516040840152606082015160608401525b50819150509392505050565b600b6020528060005260406000206000915054906101000a900473ffffffffffffffffffffffffffffffffffffffff1681565b6000806000809054906101000a900460ff161515156110da576040517f08c379a00000000000000000000000000000000000000000000000000000000081526004016110d190617330565b60405180910390fd5b60016000806101000a81548160ff02191690831515021790555082519150600090505b818114151561113357611126838281518110151561111757fe5b90602001906020020151613fdd565b80806001019150506110fd565b60008060006101000a81548160ff021916908315150217905550505050565b61115a615535565b600080611165615535565b6000809054906101000a900460ff161515156111b6576040517f08c379a00000000000000000000000000000000000000000000000000000000081526004016111ad90617330565b60405180910390fd5b60016000806101000a81548160ff02191690831515021790555086519250600091505b828214151561124b5761123287838151811015156111f357fe5b90602001906020020151878481518110151561120b57fe5b90602001906020020151878581518110151561122357fe5b9060200190602002015161400c565b905061123e848261357b565b81806001019250506111d9565b83935060008060006101000a81548160ff0219169083151502179055505050509392505050565b6000806000806000809054906101000a900460ff161515156112c9576040517f08c379a00000000000000000000000000000000000000000000000000000000081526004016112c090617330565b60405180910390fd5b60016000806101000a81548160ff0219169083151502179055506112eb6135eb565b93503373ffffffffffffffffffffffffffffffffffffffff168473ffffffffffffffffffffffffffffffffffffffff16146113265733611329565b60005b9250600185019150600660008573ffffffffffffffffffffffffffffffffffffffff1673ffffffffffffffffffffffffffffffffffffffff16815260200190815260200160002060008473ffffffffffffffffffffffffffffffffffffffff1673ffffffffffffffffffffffffffffffffffffffff16815260200190815260200160002054905080821115156113f4576040517f08c379a00000000000000000000000000000000000000000000000000000000081526004016113eb906172b0565b60405180910390fd5b81600660008673ffffffffffffffffffffffffffffffffffffffff1673ffffffffffffffffffffffffffffffffffffffff16815260200190815260200160002060008573ffffffffffffffffffffffffffffffffffffffff1673ffffffffffffffffffffffffffffffffffffffff168152602001908152602001600020819055508273ffffffffffffffffffffffffffffffffffffffff168473ffffffffffffffffffffffffffffffffffffffff167f82af639571738f4ebd4268fb0363d8957ebe1bbb9e78dba5ebd69eed39b154f0846040516114d29190617482565b60405180910390a360008060006101000a81548160ff0219169083151502179055505050505050565b611503615535565b60008061150e615535565b86519250600091505b828214151561158957611570878381518110151561153157fe5b90602001906020020151878481518110151561154957fe5b90602001906020020151878581518110151561156157fe5b90602001906020020151610ffb565b905061157c848261357b565b8180600101925050611517565b8393505050509392505050565b6000600b6000837bffffffffffffffffffffffffffffffffffffffffffffffffffffffff19167bffffffffffffffffffffffffffffffffffffffffffffffffffffffff1916815260200190815260200160002060009054906101000a900473ffffffffffffffffffffffffffffffffffffffff169050919050565b60096020528060005260406000206000915054906101000a900460ff1681565b611639615535565b6000809054906101000a900460ff1615151561168a576040517f08c379a000000000000000000000000000000000000000000000000000000000815260040161168190617330565b60405180910390fd5b60016000806101000a81548160ff0219169083151502179055506116af84848461400c565b905080905060008060006101000a81548160ff0219169083151502179055509392505050565b6116dd615535565b6116e7838361357b565b82905092915050565b60006116fd848484614073565b90509392505050565b60008060009054906101000a900460ff16151515611759576040517f08c379a000000000000000000000000000000000000000000000000000000000815260040161175090617330565b60405180910390fd5b60016000806101000a81548160ff02191690831515021790555061177b6135eb565b905081600860008373ffffffffffffffffffffffffffffffffffffffff1673ffffffffffffffffffffffffffffffffffffffff16815260200190815260200160002060008573ffffffffffffffffffffffffffffffffffffffff1673ffffffffffffffffffffffffffffffffffffffff16815260200190815260200160002060006101000a81548160ff0219169083151502179055508273ffffffffffffffffffffffffffffffffffffffff168173ffffffffffffffffffffffffffffffffffffffff167fa8656e308026eeabce8f0bc18048433252318ab80ac79da0b3d3d8697dfba8918460405161186e9190616e9f565b60405180910390a360008060006101000a81548160ff021916908315150217905550505050565b60086020528160005260406000206020528060005260406000206000915091509054906101000a900460ff1681565b6118cc615535565b606060008060006118db615535565b6000809054906101000a900460ff1615151561192c576040517f08c379a000000000000000000000000000000000000000000000000000000000815260040161192390617330565b60405180910390fd5b60016000806101000a81548160ff02191690831515021790555088600081518110151561195557fe5b906020019060200201516101600151945088519350600092505b8383141515611a0d5784898481518110151561198757fe5b9060200190602002015161016001819052506119a7888760200151614124565b91506119e289848151811015156119ba57fe5b906020019060200201518389868151811015156119d357fe5b906020019060200201516134da565b90506119ee868261357b565b878660200151101515611a0057611a0d565b828060010193505061196f565b85955060008060006101000a81548160ff02191690831515021790555050505050509392505050565b60606000606060008451925082604051908082528060200260200182016040528015611a7c57816020015b611a696155b5565b815260200190600190039081611a615790505b509150600090505b8281141515611ad557611aad8582815181101515611a9e57fe5b90602001906020020151612af8565b8282815181101515611abb57fe5b906020019060200201819052508080600101915050611a84565b819350505050919050565b60076020528160005260406000206020528060005260406000206000915091509054906101000a900460ff1681565b600360009054906101000a900473ffffffffffffffffffffffffffffffffffffffff1681565b60008060008060008060008060008951111515611b87576040517f08c379a0000000000000000000000000000000000000000000000000000000008152600401611b7e90617290565b60405180910390fd5b611b9089614176565b7f010000000000000000000000000000000000000000000000000000000000000090049650600780811115611bc157fe5b60ff168760ff16101515611c0a576040517f08c379a0000000000000000000000000000000000000000000000000000000008152600401611c01906170d0565b60405180910390fd5b8660ff166007811115611c1957fe5b955060006007811115611c2857fe5b866007811115611c3457fe5b1415611c75576040517f08c379a0000000000000000000000000000000000000000000000000000000008152600401611c6c90617270565b60405180910390fd5b60016007811115611c8257fe5b866007811115611c8e57fe5b1415611ce65760008951141515611cda576040517f08c379a0000000000000000000000000000000000000000000000000000000008152600401611cd190617410565b60405180910390fd5b600097508797506122a6565b60026007811115611cf357fe5b866007811115611cff57fe5b1415611e825760418951141515611d4b576040517f08c379a0000000000000000000000000000000000000000000000000000000008152600401611d4290617010565b60405180910390fd5b886000815181101515611d5a57fe5b9060200101517f010000000000000000000000000000000000000000000000000000000000000090047f0100000000000000000000000000000000000000000000000000000000000000027f010000000000000000000000000000000000000000000000000000000000000090049450611dde60018a61422d90919063ffffffff16565b9350611df460218a61422d90919063ffffffff16565b925060018b86868660405160008152602001604052604051611e199493929190616f43565b60206040516020810390808403906000865af1158015611e3d573d6000803e3d6000fd5b5050506020604051035191508173ffffffffffffffffffffffffffffffffffffffff168a73ffffffffffffffffffffffffffffffffffffffff161497508797506122a6565b60036007811115611e8f57fe5b866007811115611e9b57fe5b14156120cf5760418951141515611ee7576040517f08c379a0000000000000000000000000000000000000000000000000000000008152600401611ede90617010565b60405180910390fd5b886000815181101515611ef657fe5b9060200101517f010000000000000000000000000000000000000000000000000000000000000090047f0100000000000000000000000000000000000000000000000000000000000000027f010000000000000000000000000000000000000000000000000000000000000090049450611f7a60018a61422d90919063ffffffff16565b9350611f9060218a61422d90919063ffffffff16565b925060018b60405160200180807f19457468657265756d205369676e6564204d6573736167653a0a333200000000815250601c0182600019166000191681526020019150506040516020818303038152906040526040518082805190602001908083835b6020831015156120195780518252602082019150602081019050602083039250611ff4565b6001836020036101000a0380198251168184511680821785525050505050509050019150506040518091039020868686604051600081526020016040526040516120669493929190616f43565b60206040516020810390808403906000865af115801561208a573d6000803e3d6000fd5b5050506020604051035191508173ffffffffffffffffffffffffffffffffffffffff168a73ffffffffffffffffffffffffffffffffffffffff161497508797506122a6565b600460078111156120dc57fe5b8660078111156120e857fe5b1415612103576120f98b8b8b61428d565b97508797506122a6565b6005600781111561211057fe5b86600781111561211c57fe5b14156121dc5761212b896143e7565b9050600860008b73ffffffffffffffffffffffffffffffffffffffff1673ffffffffffffffffffffffffffffffffffffffff16815260200190815260200160002060008273ffffffffffffffffffffffffffffffffffffffff1673ffffffffffffffffffffffffffffffffffffffff16815260200190815260200160002060009054906101000a900460ff1615156121c657600097506122a6565b6121d2818c8c8c614451565b97508797506122a6565b600660078111156121e957fe5b8660078111156121f557fe5b141561226b57600760008c6000191660001916815260200190815260200160002060008b73ffffffffffffffffffffffffffffffffffffffff1673ffffffffffffffffffffffffffffffffffffffff16815260200190815260200160002060009054906101000a900460ff1697508797506122a6565b6040517f08c379a000000000000000000000000000000000000000000000000000000000815260040161229d906170d0565b60405180910390fd5b505050505050509392505050565b6122bc615535565b60606000806000806122cc615535565b8960008151811015156122db57fe5b906020019060200201516101400151955089519450600093505b84841415156123d657858a8581518110151561230d57fe5b90602001906020020151610140018190525061232d898860000151614124565b92506123708a8581518110151561234057fe5b9060200190602002015160a001518b8681518110151561235c57fe5b9060200190602002015160800151856145ae565b91506123ab8a8581518110151561238357fe5b90602001906020020151838a8781518110151561239c57fe5b90602001906020020151610ffb565b90506123b7878261357b565b8887600001511015156123c9576123d6565b83806001019450506122f5565b8696505050505050509392505050565b6123ee615535565b6000809054906101000a900460ff1615151561243f576040517f08c379a000000000000000000000000000000000000000000000000000000000815260040161243690617330565b60405180910390fd5b60016000806101000a81548160ff0219169083151502179055506124648484846134da565b905080905060008060006101000a81548160ff0219169083151502179055509392505050565b60006124978484846145ae565b90509392505050565b60008073ffffffffffffffffffffffffffffffffffffffff16600a60009054906101000a900473ffffffffffffffffffffffffffffffffffffffff1673ffffffffffffffffffffffffffffffffffffffff16141515612534576040517f08c379a000000000000000000000000000000000000000000000000000000000815260040161252b90617330565b60405180910390fd5b612579612574888888888080601f016020809104026020016040519081016040528093929190818152602001838380828437820191505050505050614613565b614802565b905060096000826000191660001916815260200190815260200160002060009054906101000a900460ff161515156125e6576040517f08c379a00000000000000000000000000000000000000000000000000000000081526004016125dd90617170565b60405180910390fd5b3373ffffffffffffffffffffffffffffffffffffffff168673ffffffffffffffffffffffffffffffffffffffff161415156126db57612658818785858080601f016020809104026020016040519081016040528093929190818152602001838380828437820191505050505050611b35565b1515612699576040517f08c379a0000000000000000000000000000000000000000000000000000000008152600401612690906173f0565b60405180910390fd5b85600a60006101000a81548173ffffffffffffffffffffffffffffffffffffffff021916908373ffffffffffffffffffffffffffffffffffffffff1602179055505b600160096000836000191660001916815260200190815260200160002060006101000a81548160ff0219169083151502179055503073ffffffffffffffffffffffffffffffffffffffff16858560405180838380828437820191505092505050600060405180830381855af4915050151561278b576040517f08c379a0000000000000000000000000000000000000000000000000000000008152600401612782906171d0565b60405180910390fd5b3373ffffffffffffffffffffffffffffffffffffffff168673ffffffffffffffffffffffffffffffffffffffff16141515612803576000600a60006101000a81548173ffffffffffffffffffffffffffffffffffffffff021916908373ffffffffffffffffffffffffffffffffffffffff1602179055505b50505050505050565b6000806000600360009054906101000a900473ffffffffffffffffffffffffffffffffffffffff1673ffffffffffffffffffffffffffffffffffffffff163373ffffffffffffffffffffffffffffffffffffffff161415156128a3576040517f08c379a000000000000000000000000000000000000000000000000000000000815260040161289a90617350565b60405180910390fd5b8392508273ffffffffffffffffffffffffffffffffffffffff1663ae25532e6040518163ffffffff167c0100000000000000000000000000000000000000000000000000000000028152600401602060405180830381600087803b15801561290a57600080fd5b505af115801561291e573d6000803e3d6000fd5b505050506040513d601f19601f820116820180604052506129429190810190615f50565b9150600b6000837bffffffffffffffffffffffffffffffffffffffffffffffffffffffff19167bffffffffffffffffffffffffffffffffffffffffffffffffffffffff1916815260200190815260200160002060009054906101000a900473ffffffffffffffffffffffffffffffffffffffff169050600073ffffffffffffffffffffffffffffffffffffffff168173ffffffffffffffffffffffffffffffffffffffff16141515612a29576040517f08c379a0000000000000000000000000000000000000000000000000000000008152600401612a2090617090565b60405180910390fd5b82600b6000847bffffffffffffffffffffffffffffffffffffffffffffffffffffffff19167bffffffffffffffffffffffffffffffffffffffffffffffffffffffff1916815260200190815260200160002060006101000a81548173ffffffffffffffffffffffffffffffffffffffff021916908373ffffffffffffffffffffffffffffffffffffffff1602179055507fd2c6b762299c609bdb96520b58a49bfb80186934d4f71a86a367571a15c031948285604051612aea929190616f88565b60405180910390a150505050565b612b0061558d565b612b098261484c565b816020019060001916908160001916815250506004600082602001516000191660001916815260200190815260200160002054816040018181525050600082608001511415612b785760016006811115612b5f57fe5b816000019060ff16908160ff1681525050809050612d45565b60008260a001511415612bab5760026006811115612b9257fe5b816000019060ff16908160ff1681525050809050612d45565b8160a001518160400151101515612be25760056006811115612bc957fe5b816000019060ff16908160ff1681525050809050612d45565b81610100015142101515612c165760046006811115612bfd57fe5b816000019060ff16908160ff1681525050809050612d45565b6005600082602001516000191660001916815260200190815260200160002060009054906101000a900460ff1615612c6d57600680811115612c5457fe5b816000019060ff16908160ff1681525050809050612d45565b81610120015160066000846000015173ffffffffffffffffffffffffffffffffffffffff1673ffffffffffffffffffffffffffffffffffffffff1681526020019081526020016000206000846060015173ffffffffffffffffffffffffffffffffffffffff1673ffffffffffffffffffffffffffffffffffffffff168152602001908152602001600020541115612d2357600680811115612d0a57fe5b816000019060ff16908160ff1681525050809050612d45565b60036006811115612d3057fe5b816000019060ff16908160ff16815250508090505b919050565b6000809054906101000a900460ff16151515612d9b576040517f08c379a0000000000000000000000000000000000000000000000000000000008152600401612d9290617330565b60405180910390fd5b60016000806101000a81548160ff021916908315150217905550612dbe81613fdd565b60008060006101000a81548160ff02191690831515021790555050565b6006602052816000526040600020602052806000526040600020600091509150505481565b60018054600181600116156101000203166002900480601f016020809104026020016040519081016040528092919081815260200182805460018160011615610100020316600290048015612e965780601f10612e6b57610100808354040283529160200191612e96565b820191906000526020600020905b815481529060010190602001808311612e7957829003601f168201915b505050505081565b612ea6615535565b60606000806000612eb5615535565b886000815181101515612ec457fe5b906020019060200201516101600151945088519350600092505b8383141515612f7c57848984815181101515612ef657fe5b906020019060200201516101600181905250612f16888760200151614124565b9150612f518984815181101515612f2957fe5b90602001906020020151838986815181101515612f4257fe5b90602001906020020151610ffb565b9050612f5d868261357b565b878660200151101515612f6f57612f7c565b8280600101935050612ede565b85955050505050509392505050565b6000612f98848484614869565b90509392505050565b6000612fae84848461491b565b90509392505050565b612fbf615535565b612fc983836149e0565b905092915050565b60025481565b612fdf615535565b6060600080600080612fef615535565b6000809054906101000a900460ff16151515613040576040517f08c379a000000000000000000000000000000000000000000000000000000000815260040161303790617330565b60405180910390fd5b60016000806101000a81548160ff02191690831515021790555089600081518110151561306957fe5b906020019060200201516101400151955089519450600093505b848414151561316457858a8581518110151561309b57fe5b9060200190602002015161014001819052506130bb898860000151614124565b92506130fe8a858151811015156130ce57fe5b9060200190602002015160a001518b868151811015156130ea57fe5b9060200190602002015160800151856145ae565b91506131398a8581518110151561311157fe5b90602001906020020151838a8781518110151561312a57fe5b906020019060200201516134da565b9050613145878261357b565b88876000015110151561315757613164565b8380600101945050613083565b86965060008060006101000a81548160ff0219169083151502179055505050505050509392505050565b600a60009054906101000a900473ffffffffffffffffffffffffffffffffffffffff1681565b600360009054906101000a900473ffffffffffffffffffffffffffffffffffffffff1673ffffffffffffffffffffffffffffffffffffffff163373ffffffffffffffffffffffffffffffffffffffff16141515613246576040517f08c379a000000000000000000000000000000000000000000000000000000000815260040161323d90617350565b60405180910390fd5b600073ffffffffffffffffffffffffffffffffffffffff168173ffffffffffffffffffffffffffffffffffffffff161415156132be5780600360006101000a81548173ffffffffffffffffffffffffffffffffffffffff021916908373ffffffffffffffffffffffffffffffffffffffff1602179055505b50565b6040805190810160405280600b81526020017f322e302e312d616c70686100000000000000000000000000000000000000000081525081565b600080600084111515613342576040517f08c379a0000000000000000000000000000000000000000000000000000000008152600401613339906170f0565b60405180910390fd5b60008314806133515750600085145b1561335f576000915061338c565b8380151561336957fe5b85840990506133788584614a53565b6133846103e883614a53565b101591508191505b509392505050565b6133a2828260200151614ac7565b600460008560001916600019168152602001908152602001600020819055508260001916856040015173ffffffffffffffffffffffffffffffffffffffff16866000015173ffffffffffffffffffffffffffffffffffffffff167f0bcc4c97732e47d9946f229edb95f5b6323f601300e4690de719993f3c371129873386600001518760200151886040015189606001518e61014001518f6101600151604051613453989796959493929190616dac565b60405180910390a45050505050565b600080831115156134a8576040517f08c379a000000000000000000000000000000000000000000000000000000000815260040161349f906170f0565b60405180910390fd5b6134ce6134c86134b88685614a53565b6134c3866001614124565b614ac7565b84614b1e565b90508090509392505050565b6134e2615535565b6134ea61558d565b60008060006134f888612af8565b93506135026135eb565b92506135108885858961365b565b6135228860a001518560400151614124565b915061352e8783614b39565b9050613541888589848960000151613ad3565b61354b88826149e0565b945061356288848660200151876040015189613394565b61356d888487614b52565b849450505050509392505050565b61358d82600001518260000151614ac7565b8260000181815250506135a882602001518260200151614ac7565b8260200181815250506135c382604001518260400151614ac7565b8260400181815250506135de82606001518260600151614ac7565b8260600181815250505050565b6000806000600a60009054906101000a900473ffffffffffffffffffffffffffffffffffffffff169150600073ffffffffffffffffffffffffffffffffffffffff168273ffffffffffffffffffffffffffffffffffffffff161461364f5781613651565b335b9050809250505090565b6003600681111561366857fe5b60ff16836000015160ff161415156136b5576040517f08c379a00000000000000000000000000000000000000000000000000000000081526004016136ac90617390565b60405180910390fd5b600073ffffffffffffffffffffffffffffffffffffffff16846060015173ffffffffffffffffffffffffffffffffffffffff16141515613764573373ffffffffffffffffffffffffffffffffffffffff16846060015173ffffffffffffffffffffffffffffffffffffffff16141515613763576040517f08c379a000000000000000000000000000000000000000000000000000000000815260040161375a906173b0565b60405180910390fd5b5b600073ffffffffffffffffffffffffffffffffffffffff16846020015173ffffffffffffffffffffffffffffffffffffffff16141515613813578173ffffffffffffffffffffffffffffffffffffffff16846020015173ffffffffffffffffffffffffffffffffffffffff16141515613812576040517f08c379a000000000000000000000000000000000000000000000000000000000815260040161380990617030565b60405180910390fd5b5b600083604001511415613875576138338360200151856000015183611b35565b1515613874576040517f08c379a000000000000000000000000000000000000000000000000000000000815260040161386b90617110565b60405180910390fd5b5b50505050565b61388d8260a001518260a00151614a53565b61389f83608001518360800151614a53565b101515156138e2576040517f08c379a00000000000000000000000000000000000000000000000000000000081526004016138d9906173d0565b60405180910390fd5b5050565b6138ee61555e565b6000806000806139028960a0015188614124565b935061391789608001518a60a0015186614869565b92506139278860a0015187614124565b915061393c88608001518960a0015184614869565b905080841015156139a657808560200151600001818152505081856020015160200181815250508460200151600001518560000151602001818152505061399489608001518a60a00151876000015160200151614869565b85600001516000018181525050613a01565b82856000015160000181815250508385600001516020018181525050846000015160200151856020015160000181815250506139f38860a00151896080015187602001516000015161491b565b856020015160200181815250505b613a1b856000015160000151866020015160200151614124565b856040018181525050613a3f8560000151600001518a608001518b60c00151614869565b85600001516040018181525050613a678560000151602001518a60a001518b60e00151614869565b85600001516060018181525050613a8f85602001516000015189608001518a60c00151614869565b85602001516040018181525050613ab78560200151602001518960a001518a60e00151614869565b8560200151606001818152505084945050505050949350505050565b60008314151515613b19576040517f08c379a0000000000000000000000000000000000000000000000000000000008152600401613b1090617210565b60405180910390fd5b828211151515613b5e576040517f08c379a0000000000000000000000000000000000000000000000000000000008152600401613b55906171f0565b60405180910390fd5b8460a00151613b71856040015184614ac7565b11151515613bb4576040517f08c379a0000000000000000000000000000000000000000000000000000000008152600401613bab90617050565b60405180910390fd5b613bc2856080015183614a53565b613bd0828760a00151614a53565b11151515613c13576040517f08c379a0000000000000000000000000000000000000000000000000000000008152600401613c0a90617310565b60405180910390fd5b5050505050565b606060018054600181600116156101000203166002900480601f016020809104026020016040519081016040528092919081815260200182805460018160011615610100020316600290048015613cb25780601f10613c8757610100808354040283529160200191613cb2565b820191906000526020600020905b815481529060010190602001808311613c9557829003601f168201915b50505050509050613cda85610140015186600001518660000151856020015160200151614c55565b613cfb84610140015185600001518760000151856000015160200151614c55565b613d148561014001518660000151858560400151614c55565b613d308186600001518760400151856000015160400151614c55565b613d4c8185600001518660400151856020015160400151614c55565b836040015173ffffffffffffffffffffffffffffffffffffffff16856040015173ffffffffffffffffffffffffffffffffffffffff161415613db657613db181848760400151613dac866000015160600151876020015160600151614ac7565b614c55565b613de7565b613dce81848760400151856000015160600151614c55565b613de681848660400151856020015160600151614c55565b5b5050505050565b606060405190507fb4be83d5000000000000000000000000000000000000000000000000000000006020820152602481018060608101818180896000808784038652602086019550825184526020830151602085015260408301516040850152606083015160608501526080830151608085015260a083015160a085015260c083015160c085015260e083015160e085015261010083015161010085015261012083015161012085015261014083015161014085015261016083015161016085015261018084019350610180830192508484036020600a028601526101408d01519250825191506020830192506020601f830104905081845260208401935060005b81811015613f135783518552602085019450602084019350600181019050613ef0565b508484036020600b028601526101608d01519250825191506020830192506020601f830104905081845260208401935060005b81811015613f695783518552602085019450602084019350600181019050613f46565b508b865260208601955087840386528a9250825191506020830192506020601f830104905081845260208401935060005b81811015613fbd5783518552602085019450602084019350600181019050613f9a565b5060208a0184038a52836040525050505050505050508090509392505050565b613fe561558d565b613fee82612af8565b9050613ffa8282614eb5565b614008828260200151615043565b5050565b614014615535565b61401f8484846134da565b9050828160200151141515614069576040517f08c379a0000000000000000000000000000000000000000000000000000000008152600401614060906172f0565b60405180910390fd5b8090509392505050565b6000806000841115156140bb576040517f08c379a00000000000000000000000000000000000000000000000000000000081526004016140b2906170f0565b60405180910390fd5b60008314806140ca5750600085145b156140d8576000915061411c565b838015156140e257fe5b8584099050836140f28583614124565b8115156140fb57fe5b0690506141088584614a53565b6141146103e883614a53565b101591508191505b509392505050565b600082821115151561416b576040517f08c379a000000000000000000000000000000000000000000000000000000000815260040161416290617070565b60405180910390fd5b818303905092915050565b60008082511115156141bd576040517f08c379a00000000000000000000000000000000000000000000000000000000081526004016141b490617250565b60405180910390fd5b8160018351038151811015156141cf57fe5b9060200101517f010000000000000000000000000000000000000000000000000000000000000090047f0100000000000000000000000000000000000000000000000000000000000000029050600182510380835250809050919050565b600060208201835110151515614278576040517f08c379a000000000000000000000000000000000000000000000000000000000815260040161426f906170b0565b60405180910390fd5b60208201915081830151905080905092915050565b600060608373ffffffffffffffffffffffffffffffffffffffff16631626ba7e90507c01000000000000000000000000000000000000000000000000000000000285846040516024016142e1929190616f13565b604051602081830303815290604052907bffffffffffffffffffffffffffffffffffffffffffffffffffffffff19166020820180517bffffffffffffffffffffffffffffffffffffffffffffffffffffffff8381831617835250505050905060208101602081835183885afa806000811461436357600181146143d4576143d9565b7f08c379a0000000000000000000000000000000000000000000000000000000006000527c20000000000000000000000000000000000000000000000000000000006020527c0c57414c4c45545f4552524f5200000000000000000000000000000000604052600060605260646000fd5b825194505b505050819150509392505050565b60006014825110151515614430576040517f08c379a000000000000000000000000000000000000000000000000000000000815260040161442790617370565b60405180910390fd5b61443e8260148451036150fb565b9050601482510380835250809050919050565b600060608373ffffffffffffffffffffffffffffffffffffffff16639363470290507c0100000000000000000000000000000000000000000000000000000000028585856040516024016144a793929190616ed5565b604051602081830303815290604052907bffffffffffffffffffffffffffffffffffffffffffffffffffffffff19166020820180517bffffffffffffffffffffffffffffffffffffffffffffffffffffffff83818316178352505050509050602081016020818351838a5afa8060008114614529576001811461459a5761459f565b7f08c379a0000000000000000000000000000000000000000000000000000000006000527c20000000000000000000000000000000000000000000000000000000006020527c0f56414c494441544f525f4552524f5200000000000000000000000000604052600060605260646000fd5b825194505b50505081915050949350505050565b600080831115156145f4576040517f08c379a00000000000000000000000000000000000000000000000000000000081526004016145eb906170f0565b60405180910390fd5b6146076146018584614a53565b84614b1e565b90508090509392505050565b600080600060405160200180807f5a65726f45785472616e73616374696f6e280000000000000000000000000000815250601201807f75696e743235362073616c742c00000000000000000000000000000000000000815250600d01807f61646472657373207369676e6572416464726573732c00000000000000000000815250601601807f6279746573206461746100000000000000000000000000000000000000000000815250600a01807f290000000000000000000000000000000000000000000000000000000000000081525060010190506040516020818303038152906040526040518082805190602001908083835b60208310151561472d5780518252602082019150602081019050602083039250614708565b6001836020036101000a03801982511681845116808217855250505050505090500191505060405180910390209150836040518082805190602001908083835b602083101515614792578051825260208201915060208101905060208303925061476d565b6001836020036101000a0380198251168184511680821785525050505050509050019150506040518091039020905060405182815286602082015273ffffffffffffffffffffffffffffffffffffffff861660408201528160608201526080812093505082925050509392505050565b60008060025490506040517f190100000000000000000000000000000000000000000000000000000000000081528160028201528360228201526042812092505081915050919050565b600061485f61485a83615171565b614802565b9050809050919050565b600080831115156148af576040517f08c379a00000000000000000000000000000000000000000000000000000000081526004016148a6906170f0565b60405180910390fd5b6148ba8484846132fa565b1515156148fc576040517f08c379a00000000000000000000000000000000000000000000000000000000081526004016148f3906171b0565b60405180910390fd5b61490f6149098584614a53565b84614b1e565b90508090509392505050565b60008083111515614961576040517f08c379a0000000000000000000000000000000000000000000000000000000008152600401614958906170f0565b60405180910390fd5b61496c848484614073565b1515156149ae576040517f08c379a00000000000000000000000000000000000000000000000000000000081526004016149a5906171b0565b60405180910390fd5b6149d46149ce6149be8685614a53565b6149c9866001614124565b614ac7565b84614b1e565b90508090509392505050565b6149e8615535565b81816020018181525050614a05828460a001518560800151614869565b816000018181525050614a25816000015184608001518560c00151614869565b816040018181525050614a41828460a001518560e00151614869565b81606001818152505080905092915050565b6000806000841415614a685760009150614ac0565b8284029050828482811515614a7957fe5b04141515614abc576040517f08c379a0000000000000000000000000000000000000000000000000000000008152600401614ab390617150565b60405180910390fd5b8091505b5092915050565b6000808284019050838110151515614b14576040517f08c379a0000000000000000000000000000000000000000000000000000000008152600401614b0b90617150565b60405180910390fd5b8091505092915050565b6000808284811515614b2c57fe5b0490508091505092915050565b6000818310614b485781614b4a565b825b905092915050565b606060018054600181600116156101000203166002900480601f016020809104026020016040519081016040528092919081815260200182805460018160011615610100020316600290048015614bea5780601f10614bbf57610100808354040283529160200191614bea565b820191906000526020600020905b815481529060010190602001808311614bcd57829003601f168201915b50505050509050614c0a8461014001518560000151858560000151614c55565b614c238461016001518486600001518560200151614c55565b614c3b81856000015186604001518560400151614c55565b614c4f818486604001518560600151614c55565b50505050565b600080600083118015614c9457508373ffffffffffffffffffffffffffffffffffffffff168573ffffffffffffffffffffffffffffffffffffffff1614155b15614ead5760038651111515614cdf576040517f08c379a0000000000000000000000000000000000000000000000000000000008152600401614cd6906172d0565b60405180910390fd5b7fffffffff000000000000000000000000000000000000000000000000000000006020870151169150600b6000837bffffffffffffffffffffffffffffffffffffffffffffffffffffffff19167bffffffffffffffffffffffffffffffffffffffffffffffffffffffff1916815260200190815260200160002060009054906101000a900473ffffffffffffffffffffffffffffffffffffffff169050600073ffffffffffffffffffffffffffffffffffffffff168173ffffffffffffffffffffffffffffffffffffffff1614151515614dee576040517f08c379a0000000000000000000000000000000000000000000000000000000008152600401614de590617230565b60405180910390fd5b604051660fffffffffffe0603f885101168060840182017fa85e59e40000000000000000000000000000000000000000000000000000000083526080600484015273ffffffffffffffffffffffffffffffffffffffff8816602484015273ffffffffffffffffffffffffffffffffffffffff87166044840152856064840152608483015b81811015614e8f578951815260208101905060208a019950614e72565b61020084858403866000895af1801515614ea7573d85fd5b50505050505b505050505050565b600060036006811115614ec457fe5b60ff16826000015160ff16141515614f11576040517f08c379a0000000000000000000000000000000000000000000000000000000008152600401614f0890617390565b60405180910390fd5b600073ffffffffffffffffffffffffffffffffffffffff16836060015173ffffffffffffffffffffffffffffffffffffffff16141515614fc0573373ffffffffffffffffffffffffffffffffffffffff16836060015173ffffffffffffffffffffffffffffffffffffffff16141515614fbf576040517f08c379a0000000000000000000000000000000000000000000000000000000008152600401614fb6906173b0565b60405180910390fd5b5b614fc86135eb565b90508073ffffffffffffffffffffffffffffffffffffffff16836000015173ffffffffffffffffffffffffffffffffffffffff1614151561503e576040517f08c379a000000000000000000000000000000000000000000000000000000000815260040161503590617130565b60405180910390fd5b505050565b600160056000836000191660001916815260200190815260200160002060006101000a81548160ff0219169083151502179055508060001916826040015173ffffffffffffffffffffffffffffffffffffffff16836000015173ffffffffffffffffffffffffffffffffffffffff167fdc47b3613d9fe400085f6dbdc99453462279057e6207385042827ed6b1a62cf7338661014001518761016001516040516150ef93929190616e38565b60405180910390a45050565b600060148201835110151515615146576040517f08c379a000000000000000000000000000000000000000000000000000000000815260040161513d90617370565b60405180910390fd5b60148201915073ffffffffffffffffffffffffffffffffffffffff8284015116905080905092915050565b60008060008060405160200180807f4f72646572280000000000000000000000000000000000000000000000000000815250600601807f61646472657373206d616b6572416464726573732c0000000000000000000000815250601501807f616464726573732074616b6572416464726573732c0000000000000000000000815250601501807f6164647265737320666565526563697069656e74416464726573732c00000000815250601c01807f616464726573732073656e646572416464726573732c00000000000000000000815250601601807f75696e74323536206d616b65724173736574416d6f756e742c00000000000000815250601901807f75696e743235362074616b65724173736574416d6f756e742c00000000000000815250601901807f75696e74323536206d616b65724665652c000000000000000000000000000000815250601101807f75696e743235362074616b65724665652c000000000000000000000000000000815250601101807f75696e743235362065787069726174696f6e54696d655365636f6e64732c0000815250601e01807f75696e743235362073616c742c00000000000000000000000000000000000000815250600d01807f6279746573206d616b65724173736574446174612c0000000000000000000000815250601501807f62797465732074616b6572417373657444617461000000000000000000000000815250601401807f290000000000000000000000000000000000000000000000000000000000000081525060010190506040516020818303038152906040526040518082805190602001908083835b6020831015156153f457805182526020820191506020810190506020830392506153cf565b6001836020036101000a038019825116818451168082178552505050505050905001915050604051809103902092508461014001516040518082805190602001908083835b60208310151561545e5780518252602082019150602081019050602083039250615439565b6001836020036101000a038019825116818451168082178552505050505050905001915050604051809103902091508461016001516040518082805190602001908083835b6020831015156154c857805182526020820191506020810190506020830392506154a3565b6001836020036101000a0380198251168184511680821785525050505050509050019150506040518091039020905060208503610140860161016087018251825182518886528785528684526101a086209950828652818552808452505050505050839350505050919050565b608060405190810160405280600081526020016000815260200160008152602001600081525090565b610120604051908101604052806155736155dd565b81526020016155806155dd565b8152602001600081525090565b606060405190810160405280600060ff16815260200160008019168152602001600081525090565b606060405190810160405280600060ff16815260200160008019168152602001600081525090565b608060405190810160405280600081526020016000815260200160008152602001600081525090565b60006156128235617659565b905092915050565b600082601f830112151561562d57600080fd5b813561564061563b826174ca565b61749d565b9150818183526020840193506020810190508360005b83811015615686578135860161566c8882615827565b845260208401935060208301925050600181019050615656565b5050505092915050565b600082601f83011215156156a357600080fd5b81356156b66156b1826174f2565b61749d565b9150818183526020840193506020810190508360005b838110156156fc57813586016156e28882615947565b8452602084019350602083019250506001810190506156cc565b5050505092915050565b600082601f830112151561571957600080fd5b813561572c6157278261751a565b61749d565b9150818183526020840193506020810190508385602084028201111561575157600080fd5b60005b8381101561578157816157678882615be3565b845260208401935060208301925050600181019050615754565b5050505092915050565b60006157978235617679565b905092915050565b60006157ab8235617685565b905092915050565b60006157bf823561768f565b905092915050565b60006157d3825161768f565b905092915050565b60008083601f84011215156157ef57600080fd5b8235905067ffffffffffffffff81111561580857600080fd5b60208301915083600182028301111561582057600080fd5b9250929050565b600082601f830112151561583a57600080fd5b813561584d61584882617542565b61749d565b9150808252602083016020830185838301111561586957600080fd5b6158748382846176d7565b50505092915050565b600082601f830112151561589057600080fd5b81356158a361589e8261756e565b61749d565b915080825260208301602083018583830111156158bf57600080fd5b6158ca8382846176d7565b50505092915050565b6000608082840312156158e557600080fd5b6158ef608061749d565b905060006158ff84828501615be3565b600083015250602061591384828501615be3565b602083015250604061592784828501615be3565b604083015250606061593b84828501615be3565b60608301525092915050565b6000610180828403121561595a57600080fd5b61596561018061749d565b9050600061597584828501615606565b600083015250602061598984828501615606565b602083015250604061599d84828501615606565b60408301525060606159b184828501615606565b60608301525060806159c584828501615be3565b60808301525060a06159d984828501615be3565b60a08301525060c06159ed84828501615be3565b60c08301525060e0615a0184828501615be3565b60e083015250610100615a1684828501615be3565b61010083015250610120615a2c84828501615be3565b6101208301525061014082013567ffffffffffffffff811115615a4e57600080fd5b615a5a84828501615827565b6101408301525061016082013567ffffffffffffffff811115615a7c57600080fd5b615a8884828501615827565b6101608301525092915050565b60006101808284031215615aa857600080fd5b615ab361018061749d565b90506000615ac384828501615606565b6000830152506020615ad784828501615606565b6020830152506040615aeb84828501615606565b6040830152506060615aff84828501615606565b6060830152506080615b1384828501615be3565b60808301525060a0615b2784828501615be3565b60a08301525060c0615b3b84828501615be3565b60c08301525060e0615b4f84828501615be3565b60e083015250610100615b6484828501615be3565b61010083015250610120615b7a84828501615be3565b6101208301525061014082013567ffffffffffffffff811115615b9c57600080fd5b615ba884828501615827565b6101408301525061016082013567ffffffffffffffff811115615bca57600080fd5b615bd684828501615827565b6101608301525092915050565b6000615bef82356176bb565b905092915050565b600060208284031215615c0957600080fd5b6000615c1784828501615606565b91505092915050565b60008060408385031215615c3357600080fd5b6000615c4185828601615606565b9250506020615c5285828601615606565b9150509250929050565b60008060408385031215615c6f57600080fd5b6000615c7d85828601615606565b9250506020615c8e8582860161578b565b9150509250929050565b600060208284031215615caa57600080fd5b600082013567ffffffffffffffff811115615cc457600080fd5b615cd084828501615690565b91505092915050565b600080600060608486031215615cee57600080fd5b600084013567ffffffffffffffff811115615d0857600080fd5b615d1486828701615690565b935050602084013567ffffffffffffffff811115615d3157600080fd5b615d3d86828701615706565b925050604084013567ffffffffffffffff811115615d5a57600080fd5b615d668682870161561a565b9150509250925092565b600080600060608486031215615d8557600080fd5b600084013567ffffffffffffffff811115615d9f57600080fd5b615dab86828701615690565b9350506020615dbc86828701615be3565b925050604084013567ffffffffffffffff811115615dd957600080fd5b615de58682870161561a565b9150509250925092565b600060208284031215615e0157600080fd5b6000615e0f8482850161579f565b91505092915050565b60008060408385031215615e2b57600080fd5b6000615e398582860161579f565b9250506020615e4a85828601615606565b9150509250929050565b60008060008060608587031215615e6a57600080fd5b6000615e788782880161579f565b9450506020615e8987828801615606565b935050604085013567ffffffffffffffff811115615ea657600080fd5b615eb2878288016157db565b925092505092959194509250565b600080600060608486031215615ed557600080fd5b6000615ee38682870161579f565b9350506020615ef486828701615606565b925050604084013567ffffffffffffffff811115615f1157600080fd5b615f1d8682870161587d565b9150509250925092565b600060208284031215615f3957600080fd5b6000615f47848285016157b3565b91505092915050565b600060208284031215615f6257600080fd5b6000615f70848285016157c7565b91505092915050565b6000806101008385031215615f8d57600080fd5b6000615f9b858286016158d3565b9250506080615fac858286016158d3565b9150509250929050565b600060208284031215615fc857600080fd5b600082013567ffffffffffffffff811115615fe257600080fd5b615fee84828501615a95565b91505092915050565b6000806000806000610100868803121561601057600080fd5b600086013567ffffffffffffffff81111561602a57600080fd5b61603688828901615a95565b955050602061604788828901615606565b94505060406160588882890161579f565b935050606061606988828901615be3565b925050608061607a888289016158d3565b9150509295509295909350565b6000806000806080858703121561609d57600080fd5b600085013567ffffffffffffffff8111156160b757600080fd5b6160c387828801615a95565b945050602085013567ffffffffffffffff8111156160e057600080fd5b6160ec87828801615a95565b935050604085013567ffffffffffffffff81111561610957600080fd5b6161158782880161587d565b925050606085013567ffffffffffffffff81111561613257600080fd5b61613e8782880161587d565b91505092959194509250565b6000806040838503121561615d57600080fd5b600083013567ffffffffffffffff81111561617757600080fd5b61618385828601615a95565b925050602061619485828601615be3565b9150509250929050565b6000806000606084860312156161b357600080fd5b600084013567ffffffffffffffff8111156161cd57600080fd5b6161d986828701615a95565b93505060206161ea86828701615be3565b925050604084013567ffffffffffffffff81111561620757600080fd5b6162138682870161587d565b9150509250925092565b60006020828403121561622f57600080fd5b600061623d84828501615be3565b91505092915050565b6000806000806000806080878903121561625f57600080fd5b600061626d89828a01615be3565b965050602061627e89828a01615606565b955050604087013567ffffffffffffffff81111561629b57600080fd5b6162a789828a016157db565b9450945050606087013567ffffffffffffffff8111156162c657600080fd5b6162d289828a016157db565b92509250509295509295509295565b6000806000606084860312156162f657600080fd5b600061630486828701615be3565b935050602061631586828701615be3565b925050604061632686828701615be3565b9150509250925092565b616339816175e0565b82525050565b600061634a826175a7565b80845260208401935061635c8361759a565b60005b8281101561638e57616372868351616d31565b61637b826175d3565b915060608601955060018101905061635f565b50849250505092915050565b6163a381617600565b82525050565b6163b28161760c565b82525050565b6163c181617616565b82525050565b60006163d2826175bd565b8084526163e68160208601602086016176e6565b6163ef81617719565b602085010191505092915050565b6000616408826175b2565b80845261641c8160208601602086016176e6565b61642581617719565b602085010191505092915050565b61643c816176c5565b82525050565b600061644d826175c8565b8084526164618160208601602086016176e6565b61646a81617719565b602085010191505092915050565b6000601282527f4c454e4754485f36355f524551554952454400000000000000000000000000006020830152604082019050919050565b6000600d82527f494e56414c49445f54414b4552000000000000000000000000000000000000006020830152604082019050919050565b6000600e82527f4f524445525f4f56455246494c4c0000000000000000000000000000000000006020830152604082019050919050565b6000601182527f55494e543235365f554e444552464c4f570000000000000000000000000000006020830152604082019050919050565b6000601a82527f41535345545f50524f58595f414c52454144595f4558495354530000000000006020830152604082019050919050565b6000602682527f475245415445525f4f525f455155414c5f544f5f33325f4c454e4754485f524560208301527f51554952454400000000000000000000000000000000000000000000000000006040830152606082019050919050565b6000601582527f5349474e41545552455f554e535550504f5254454400000000000000000000006020830152604082019050919050565b6000601082527f4449564953494f4e5f42595f5a45524f000000000000000000000000000000006020830152604082019050919050565b6000601782527f494e56414c49445f4f524445525f5349474e41545552450000000000000000006020830152604082019050919050565b6000600d82527f494e56414c49445f4d414b4552000000000000000000000000000000000000006020830152604082019050919050565b6000601082527f55494e543235365f4f564552464c4f57000000000000000000000000000000006020830152604082019050919050565b6000600f82527f494e56414c49445f54585f4841534800000000000000000000000000000000006020830152604082019050919050565b6000601182527f494e56414c49445f5349474e41545552450000000000000000000000000000006020830152604082019050919050565b6000600e82527f524f554e44494e475f4552524f520000000000000000000000000000000000006020830152604082019050919050565b6000601082527f4641494c45445f455845435554494f4e000000000000000000000000000000006020830152604082019050919050565b6000600d82527f54414b45525f4f564552504159000000000000000000000000000000000000006020830152604082019050919050565b6000601482527f494e56414c49445f54414b45525f414d4f554e540000000000000000000000006020830152604082019050919050565b6000601a82527f41535345545f50524f58595f444f45535f4e4f545f45584953540000000000006020830152604082019050919050565b6000602182527f475245415445525f5448414e5f5a45524f5f4c454e4754485f5245515549524560208301527f44000000000000000000000000000000000000000000000000000000000000006040830152606082019050919050565b6000601182527f5349474e41545552455f494c4c4547414c0000000000000000000000000000006020830152604082019050919050565b6000601e82527f4c454e4754485f475245415445525f5448414e5f305f524551554952454400006020830152604082019050919050565b6000601782527f494e56414c49445f4e45575f4f524445525f45504f43480000000000000000006020830152604082019050919050565b6000601e82527f4c454e4754485f475245415445525f5448414e5f335f524551554952454400006020830152604082019050919050565b6000601482527f434f4d504c4554455f46494c4c5f4641494c45440000000000000000000000006020830152604082019050919050565b6000601282527f494e56414c49445f46494c4c5f505249434500000000000000000000000000006020830152604082019050919050565b6000601282527f5245454e5452414e43595f494c4c4547414c00000000000000000000000000006020830152604082019050919050565b6000601382527f4f4e4c595f434f4e54524143545f4f574e4552000000000000000000000000006020830152604082019050919050565b6000602682527f475245415445525f4f525f455155414c5f544f5f32305f4c454e4754485f524560208301527f51554952454400000000000000000000000000000000000000000000000000006040830152606082019050919050565b6000601082527f4f524445525f554e46494c4c41424c45000000000000000000000000000000006020830152604082019050919050565b6000600e82527f494e56414c49445f53454e4445520000000000000000000000000000000000006020830152604082019050919050565b6000601882527f4e454741544956455f5350524541445f524551554952454400000000000000006020830152604082019050919050565b6000601482527f494e56414c49445f54585f5349474e41545552450000000000000000000000006020830152604082019050919050565b6000601182527f4c454e4754485f305f52455155495245440000000000000000000000000000006020830152604082019050919050565b608082016000820151616c176000850182616d73565b506020820151616c2a6020850182616d73565b506040820151616c3d6040850182616d73565b506060820151616c506060850182616d73565b50505050565b608082016000820151616c6c6000850182616d73565b506020820151616c7f6020850182616d73565b506040820151616c926040850182616d73565b506060820151616ca56060850182616d73565b50505050565b61012082016000820151616cc26000850182616c56565b506020820151616cd56080850182616c56565b506040820151616ce9610100850182616d73565b50505050565b606082016000820151616d056000850182616d82565b506020820151616d1860208501826163a9565b506040820151616d2b6040850182616d73565b50505050565b606082016000820151616d476000850182616d82565b506020820151616d5a60208501826163a9565b506040820151616d6d6040850182616d73565b50505050565b616d7c81617642565b82525050565b616d8b8161764c565b82525050565b6000602082019050616da66000830184616330565b92915050565b600061010082019050616dc2600083018b616330565b616dcf602083018a616330565b616ddc6040830189616d73565b616de96060830188616d73565b616df66080830187616d73565b616e0360a0830186616d73565b81810360c0830152616e1581856163fd565b905081810360e0830152616e2981846163fd565b90509998505050505050505050565b6000606082019050616e4d6000830186616330565b8181036020830152616e5f81856163fd565b90508181036040830152616e7381846163fd565b9050949350505050565b60006020820190508181036000830152616e97818461633f565b905092915050565b6000602082019050616eb4600083018461639a565b92915050565b6000602082019050616ecf60008301846163a9565b92915050565b6000606082019050616eea60008301866163a9565b616ef76020830185616330565b8181036040830152616f0981846163c7565b9050949350505050565b6000604082019050616f2860008301856163a9565b8181036020830152616f3a81846163c7565b90509392505050565b6000608082019050616f5860008301876163a9565b616f656020830186616d82565b616f7260408301856163a9565b616f7f60608301846163a9565b95945050505050565b6000604082019050616f9d60008301856163b8565b616faa6020830184616330565b9392505050565b60006020820190508181036000830152616fcb81846163fd565b905092915050565b6000602082019050616fe86000830184616433565b92915050565b600060208201905081810360008301526170088184616442565b905092915050565b6000602082019050818103600083015261702981616478565b9050919050565b60006020820190508181036000830152617049816164af565b9050919050565b60006020820190508181036000830152617069816164e6565b9050919050565b600060208201905081810360008301526170898161651d565b9050919050565b600060208201905081810360008301526170a981616554565b9050919050565b600060208201905081810360008301526170c98161658b565b9050919050565b600060208201905081810360008301526170e9816165e8565b9050919050565b600060208201905081810360008301526171098161661f565b9050919050565b6000602082019050818103600083015261712981616656565b9050919050565b600060208201905081810360008301526171498161668d565b9050919050565b60006020820190508181036000830152617169816166c4565b9050919050565b60006020820190508181036000830152617189816166fb565b9050919050565b600060208201905081810360008301526171a981616732565b9050919050565b600060208201905081810360008301526171c981616769565b9050919050565b600060208201905081810360008301526171e9816167a0565b9050919050565b60006020820190508181036000830152617209816167d7565b9050919050565b600060208201905081810360008301526172298161680e565b9050919050565b6000602082019050818103600083015261724981616845565b9050919050565b600060208201905081810360008301526172698161687c565b9050919050565b60006020820190508181036000830152617289816168d9565b9050919050565b600060208201905081810360008301526172a981616910565b9050919050565b600060208201905081810360008301526172c981616947565b9050919050565b600060208201905081810360008301526172e98161697e565b9050919050565b60006020820190508181036000830152617309816169b5565b9050919050565b60006020820190508181036000830152617329816169ec565b9050919050565b6000602082019050818103600083015261734981616a23565b9050919050565b6000602082019050818103600083015261736981616a5a565b9050919050565b6000602082019050818103600083015261738981616a91565b9050919050565b600060208201905081810360008301526173a981616aee565b9050919050565b600060208201905081810360008301526173c981616b25565b9050919050565b600060208201905081810360008301526173e981616b5c565b9050919050565b6000602082019050818103600083015261740981616b93565b9050919050565b6000602082019050818103600083015261742981616bca565b9050919050565b60006080820190506174456000830184616c01565b92915050565b6000610120820190506174616000830184616cab565b92915050565b600060608201905061747c6000830184616cef565b92915050565b60006020820190506174976000830184616d73565b92915050565b6000604051905081810181811067ffffffffffffffff821117156174c057600080fd5b8060405250919050565b600067ffffffffffffffff8211156174e157600080fd5b602082029050602081019050919050565b600067ffffffffffffffff82111561750957600080fd5b602082029050602081019050919050565b600067ffffffffffffffff82111561753157600080fd5b602082029050602081019050919050565b600067ffffffffffffffff82111561755957600080fd5b601f19601f8301169050602081019050919050565b600067ffffffffffffffff82111561758557600080fd5b601f19601f8301169050602081019050919050565b6000602082019050919050565b600081519050919050565b600081519050919050565b600081519050919050565b600081519050919050565b6000602082019050919050565b600073ffffffffffffffffffffffffffffffffffffffff82169050919050565b60008115159050919050565b6000819050919050565b60007fffffffff0000000000000000000000000000000000000000000000000000000082169050919050565b6000819050919050565b600060ff82169050919050565b600073ffffffffffffffffffffffffffffffffffffffff82169050919050565b60008115159050919050565b6000819050919050565b60007fffffffff0000000000000000000000000000000000000000000000000000000082169050919050565b6000819050919050565b60006176d0826175e0565b9050919050565b82818337600083830152505050565b60005b838110156177045780820151818401526020810190506176e9565b83811115617713576000848401525b50505050565b6000601f19601f83011690509190505600a265627a7a723058209144e096a58c0a965bd4d417300ab9a677bfd4518d8d538914d792dc182ed1346c6578706572696d656e74616cf50037",
  "source": "/*\n\n  Copyright 2018 ZeroEx Intl.\n\n  Licensed under the Apache License, Version 2.0 (the \"License\");\n  you may not use this file except in compliance with the License.\n  You may obtain a copy of the License at\n\n    http://www.apache.org/licenses/LICENSE-2.0\n\n  Unless required by applicable law or agreed to in writing, software\n  distributed under the License is distributed on an \"AS IS\" BASIS,\n  WITHOUT WARRANTIES OR CONDITIONS OF ANY KIND, either express or implied.\n  See the License for the specific language governing permissions and\n  limitations under the License.\n\n*/\n\npragma solidity 0.4.24;\npragma experimental ABIEncoderV2;\n\nimport \"../../protocol/Exchange/Exchange.sol\";\n\n\n// solhint-disable no-empty-blocks\ncontract TestExchangeInternals is\n    Exchange\n{\n    constructor ()\n        public\n        Exchange(\"\")\n    {}\n\n    /// @dev Adds properties of both FillResults instances.\n    ///      Modifies the first FillResults instance specified.\n    ///      Note that this function has been modified from the original\n    //       internal version to return the FillResults.\n    /// @param totalFillResults Fill results instance that will be added onto.\n    /// @param singleFillResults Fill results instance that will be added to totalFillResults.\n    /// @return newTotalFillResults The result of adding singleFillResults to totalFilResults.\n    function publicAddFillResults(FillResults memory totalFillResults, FillResults memory singleFillResults)\n        public\n        pure\n        returns (FillResults memory)\n    {\n        addFillResults(totalFillResults, singleFillResults);\n        return totalFillResults;\n    }\n\n    /// @dev Calculates amounts filled and fees paid by maker and taker.\n    /// @param order to be filled.\n    /// @param takerAssetFilledAmount Amount of takerAsset that will be filled.\n    /// @return fillResults Amounts filled and fees paid by maker and taker.\n    function publicCalculateFillResults(\n        Order memory order,\n        uint256 takerAssetFilledAmount\n    )\n        public\n        pure\n        returns (FillResults memory fillResults)\n    {\n        return calculateFillResults(order, takerAssetFilledAmount);\n    }\n\n    /// @dev Calculates partial value given a numerator and denominator.\n    ///      Reverts if rounding error is >= 0.1%\n    /// @param numerator Numerator.\n    /// @param denominator Denominator.\n    /// @param target Value to calculate partial of.\n    /// @return Partial value of target.\n    function publicSafeGetPartialAmountFloor(\n        uint256 numerator,\n        uint256 denominator,\n        uint256 target\n    )\n        public\n        pure\n        returns (uint256 partialAmount)\n    {\n        return safeGetPartialAmountFloor(numerator, denominator, target);\n    }\n\n    /// @dev Calculates partial value given a numerator and denominator.\n    ///      Reverts if rounding error is >= 0.1%\n    /// @param numerator Numerator.\n    /// @param denominator Denominator.\n    /// @param target Value to calculate partial of.\n    /// @return Partial value of target.\n    function publicSafeGetPartialAmountCeil(\n        uint256 numerator,\n        uint256 denominator,\n        uint256 target\n    )\n        public\n        pure\n        returns (uint256 partialAmount)\n    {\n        return safeGetPartialAmountCeil(numerator, denominator, target);\n    }\n\n    /// @dev Calculates partial value given a numerator and denominator.\n    /// @param numerator Numerator.\n    /// @param denominator Denominator.\n    /// @param target Value to calculate partial of.\n    /// @return Partial value of target.\n    function publicGetPartialAmountFloor(\n        uint256 numerator,\n        uint256 denominator,\n        uint256 target\n    )\n        public\n        pure\n        returns (uint256 partialAmount)\n    {\n        return getPartialAmountFloor(numerator, denominator, target);\n    }\n\n    /// @dev Calculates partial value given a numerator and denominator.\n    /// @param numerator Numerator.\n    /// @param denominator Denominator.\n    /// @param target Value to calculate partial of.\n    /// @return Partial value of target.\n    function publicGetPartialAmountCeil(\n        uint256 numerator,\n        uint256 denominator,\n        uint256 target\n    )\n        public\n        pure\n        returns (uint256 partialAmount)\n    {\n        return getPartialAmountCeil(numerator, denominator, target);\n    }\n\n    /// @dev Checks if rounding error >= 0.1%.\n    /// @param numerator Numerator.\n    /// @param denominator Denominator.\n    /// @param target Value to multiply with numerator/denominator.\n    /// @return Rounding error is present.\n    function publicIsRoundingErrorFloor(\n        uint256 numerator,\n        uint256 denominator,\n        uint256 target\n    )\n        public\n        pure\n        returns (bool isError)\n    {\n        return isRoundingErrorFloor(numerator, denominator, target);\n    }\n\n    /// @dev Checks if rounding error >= 0.1%.\n    /// @param numerator Numerator.\n    /// @param denominator Denominator.\n    /// @param target Value to multiply with numerator/denominator.\n    /// @return Rounding error is present.\n    function publicIsRoundingErrorCeil(\n        uint256 numerator,\n        uint256 denominator,\n        uint256 target\n    )\n        public\n        pure\n        returns (bool isError)\n    {\n        return isRoundingErrorCeil(numerator, denominator, target);\n    }\n \n    /// @dev Updates state with results of a fill order.\n    /// @param order that was filled.\n    /// @param takerAddress Address of taker who filled the order.\n    /// @param orderTakerAssetFilledAmount Amount of order already filled.\n    /// @return fillResults Amounts filled and fees paid by maker and taker.\n    function publicUpdateFilledState(\n        Order memory order,\n        address takerAddress,\n        bytes32 orderHash,\n        uint256 orderTakerAssetFilledAmount,\n        FillResults memory fillResults\n    )\n        public\n    {\n        updateFilledState(\n            order,\n            takerAddress,\n            orderHash,\n            orderTakerAssetFilledAmount,\n            fillResults\n        );\n    }\n}\n",
  "sourcePath": "/Users/lawrenceballou/Desktop/BlockNerds/Clients/AltcoinIo/filter-contract/contracts/protocol/contracts/test/TestExchangeInternals/TestExchangeInternals.sol",
  "compiler": {
    "name": "solc",
    "version": "0.4.24+commit.e67f0147.Emscripten.clang"
  },
  "schemaVersion": "3.0.0",
  "updatedAt": "2018-12-28T17:39:10.983Z",
  "devdoc": {
    "methods": {
      "batchCancelOrders((address,address,address,address,uint256,uint256,uint256,uint256,uint256,uint256,bytes,bytes)[])": {
        "details": "Synchronously cancels multiple orders in a single transaction.",
        "params": {
          "orders": "Array of order specifications."
        }
      },
      "batchFillOrKillOrders((address,address,address,address,uint256,uint256,uint256,uint256,uint256,uint256,bytes,bytes)[],uint256[],bytes[])": {
        "details": "Synchronously executes multiple calls of fillOrKill.",
        "params": {
          "orders": "Array of order specifications.",
          "signatures": "Proofs that orders have been created by makers.",
          "takerAssetFillAmounts": "Array of desired amounts of takerAsset to sell in orders."
        },
        "return": "Amounts filled and fees paid by makers and taker.         NOTE: makerAssetFilledAmount and takerAssetFilledAmount may include amounts filled of different assets."
      },
      "batchFillOrders((address,address,address,address,uint256,uint256,uint256,uint256,uint256,uint256,bytes,bytes)[],uint256[],bytes[])": {
        "details": "Synchronously executes multiple calls of fillOrder.",
        "params": {
          "orders": "Array of order specifications.",
          "signatures": "Proofs that orders have been created by makers.",
          "takerAssetFillAmounts": "Array of desired amounts of takerAsset to sell in orders."
        },
        "return": "Amounts filled and fees paid by makers and taker.         NOTE: makerAssetFilledAmount and takerAssetFilledAmount may include amounts filled of different assets."
      },
      "batchFillOrdersNoThrow((address,address,address,address,uint256,uint256,uint256,uint256,uint256,uint256,bytes,bytes)[],uint256[],bytes[])": {
        "details": "Fills an order with specified parameters and ECDSA signature.      Returns false if the transaction would otherwise revert.",
        "params": {
          "orders": "Array of order specifications.",
          "signatures": "Proofs that orders have been created by makers.",
          "takerAssetFillAmounts": "Array of desired amounts of takerAsset to sell in orders."
        },
        "return": "Amounts filled and fees paid by makers and taker.         NOTE: makerAssetFilledAmount and takerAssetFilledAmount may include amounts filled of different assets."
      },
      "cancelOrder((address,address,address,address,uint256,uint256,uint256,uint256,uint256,uint256,bytes,bytes))": {
        "details": "After calling, the order can not be filled anymore.      Throws if order is invalid or sender does not have permission to cancel.",
        "params": {
          "order": "Order to cancel. Order must be OrderStatus.FILLABLE."
        }
      },
      "cancelOrdersUpTo(uint256)": {
        "details": "Cancels all orders created by makerAddress with a salt less than or equal to the targetOrderEpoch      and senderAddress equal to msg.sender (or null address if msg.sender == makerAddress).",
        "params": {
          "targetOrderEpoch": "Orders created with a salt less or equal to this value will be cancelled."
        }
      },
      "executeTransaction(uint256,address,bytes,bytes)": {
        "details": "Executes an exchange method call in the context of signer.",
        "params": {
          "data": "AbiV2 encoded calldata.",
          "salt": "Arbitrary number to ensure uniqueness of transaction hash.",
          "signature": "Proof of signer transaction by signer.",
          "signerAddress": "Address of transaction signer."
        }
      },
      "fillOrKillOrder((address,address,address,address,uint256,uint256,uint256,uint256,uint256,uint256,bytes,bytes),uint256,bytes)": {
        "details": "Fills the input order. Reverts if exact takerAssetFillAmount not filled.",
        "params": {
          "order": "Order struct containing order specifications.",
          "signature": "Proof that order has been created by maker.",
          "takerAssetFillAmount": "Desired amount of takerAsset to sell."
        }
      },
      "fillOrder((address,address,address,address,uint256,uint256,uint256,uint256,uint256,uint256,bytes,bytes),uint256,bytes)": {
        "details": "Fills the input order.",
        "params": {
          "order": "Order struct containing order specifications.",
          "signature": "Proof that order has been created by maker.",
          "takerAssetFillAmount": "Desired amount of takerAsset to sell."
        },
        "return": "Amounts filled and fees paid by maker and taker."
      },
      "fillOrderNoThrow((address,address,address,address,uint256,uint256,uint256,uint256,uint256,uint256,bytes,bytes),uint256,bytes)": {
        "details": "Fills the input order.      Returns false if the transaction would otherwise revert.",
        "params": {
          "order": "Order struct containing order specifications.",
          "signature": "Proof that order has been created by maker.",
          "takerAssetFillAmount": "Desired amount of takerAsset to sell."
        },
        "return": "Amounts filled and fees paid by maker and taker."
      },
      "getAssetProxy(bytes4)": {
        "details": "Gets an asset proxy.",
        "params": {
          "assetProxyId": "Id of the asset proxy."
        },
        "return": "The asset proxy registered to assetProxyId. Returns 0x0 if no proxy is registered."
      },
      "getOrderInfo((address,address,address,address,uint256,uint256,uint256,uint256,uint256,uint256,bytes,bytes))": {
        "details": "Gets information about an order: status, hash, and amount filled.",
        "params": {
          "order": "Order to gather information on."
        },
        "return": "OrderInfo Information about the order and its state.         See LibOrder.OrderInfo for a complete description."
      },
      "getOrdersInfo((address,address,address,address,uint256,uint256,uint256,uint256,uint256,uint256,bytes,bytes)[])": {
        "details": "Fetches information for all passed in orders.",
        "params": {
          "orders": "Array of order specifications."
        },
        "return": "Array of OrderInfo instances that correspond to each order."
      },
      "isValidSignature(bytes32,address,bytes)": {
        "details": "Verifies that a hash has been signed by the given signer.",
        "params": {
          "hash": "Any 32 byte hash.",
          "signature": "Proof that the hash has been signed by signer.",
          "signerAddress": "Address that should have signed the given hash."
        },
        "return": "True if the address recovered from the provided signature matches the input signer address."
      },
      "marketBuyOrders((address,address,address,address,uint256,uint256,uint256,uint256,uint256,uint256,bytes,bytes)[],uint256,bytes[])": {
        "details": "Synchronously executes multiple calls of fillOrder until total amount of makerAsset is bought by taker.",
        "params": {
          "makerAssetFillAmount": "Desired amount of makerAsset to buy.",
          "orders": "Array of order specifications.",
          "signatures": "Proofs that orders have been signed by makers."
        },
        "return": "Amounts filled and fees paid by makers and taker."
      },
      "marketBuyOrdersNoThrow((address,address,address,address,uint256,uint256,uint256,uint256,uint256,uint256,bytes,bytes)[],uint256,bytes[])": {
        "details": "Synchronously executes multiple fill orders in a single transaction until total amount is bought by taker.      Returns false if the transaction would otherwise revert.",
        "params": {
          "makerAssetFillAmount": "Desired amount of makerAsset to buy.",
          "orders": "Array of order specifications.",
          "signatures": "Proofs that orders have been signed by makers."
        },
        "return": "Amounts filled and fees paid by makers and taker."
      },
      "marketSellOrders((address,address,address,address,uint256,uint256,uint256,uint256,uint256,uint256,bytes,bytes)[],uint256,bytes[])": {
        "details": "Synchronously executes multiple calls of fillOrder until total amount of takerAsset is sold by taker.",
        "params": {
          "orders": "Array of order specifications.",
          "signatures": "Proofs that orders have been created by makers.",
          "takerAssetFillAmount": "Desired amount of takerAsset to sell."
        },
        "return": "Amounts filled and fees paid by makers and taker."
      },
      "marketSellOrdersNoThrow((address,address,address,address,uint256,uint256,uint256,uint256,uint256,uint256,bytes,bytes)[],uint256,bytes[])": {
        "details": "Synchronously executes multiple calls of fillOrder until total amount of takerAsset is sold by taker.      Returns false if the transaction would otherwise revert.",
        "params": {
          "orders": "Array of order specifications.",
          "signatures": "Proofs that orders have been signed by makers.",
          "takerAssetFillAmount": "Desired amount of takerAsset to sell."
        },
        "return": "Amounts filled and fees paid by makers and taker."
      },
      "matchOrders((address,address,address,address,uint256,uint256,uint256,uint256,uint256,uint256,bytes,bytes),(address,address,address,address,uint256,uint256,uint256,uint256,uint256,uint256,bytes,bytes),bytes,bytes)": {
        "details": "Match two complementary orders that have a profitable spread.      Each order is filled at their respective price point. However, the calculations are      carried out as though the orders are both being filled at the right order's price point.      The profit made by the left order goes to the taker (who matched the two orders).",
        "params": {
          "leftOrder": "First order to match.",
          "leftSignature": "Proof that order was created by the left maker.",
          "rightOrder": "Second order to match.",
          "rightSignature": "Proof that order was created by the right maker."
        },
        "return": "matchedFillResults Amounts filled and fees paid by maker and taker of matched orders."
      },
      "preSign(bytes32,address,bytes)": {
        "details": "Approves a hash on-chain using any valid signature type.      After presigning a hash, the preSign signature type will become valid for that hash and signer.",
        "params": {
          "signature": "Proof that the hash has been signed by signer.",
          "signerAddress": "Address that should have signed the given hash."
        }
      },
      "publicAddFillResults((uint256,uint256,uint256,uint256),(uint256,uint256,uint256,uint256))": {
        "params": {
          "singleFillResults": "Fill results instance that will be added to totalFillResults.",
          "totalFillResults": "Fill results instance that will be added onto."
        },
        "return": "newTotalFillResults The result of adding singleFillResults to totalFilResults."
      },
      "publicCalculateFillResults((address,address,address,address,uint256,uint256,uint256,uint256,uint256,uint256,bytes,bytes),uint256)": {
        "details": "Calculates amounts filled and fees paid by maker and taker.",
        "params": {
          "order": "to be filled.",
          "takerAssetFilledAmount": "Amount of takerAsset that will be filled."
        },
        "return": "fillResults Amounts filled and fees paid by maker and taker."
      },
      "publicGetPartialAmountCeil(uint256,uint256,uint256)": {
        "details": "Calculates partial value given a numerator and denominator.",
        "params": {
          "denominator": "Denominator.",
          "numerator": "Numerator.",
          "target": "Value to calculate partial of."
        },
        "return": "Partial value of target."
      },
      "publicGetPartialAmountFloor(uint256,uint256,uint256)": {
        "details": "Calculates partial value given a numerator and denominator.",
        "params": {
          "denominator": "Denominator.",
          "numerator": "Numerator.",
          "target": "Value to calculate partial of."
        },
        "return": "Partial value of target."
      },
      "publicIsRoundingErrorCeil(uint256,uint256,uint256)": {
        "details": "Checks if rounding error >= 0.1%.",
        "params": {
          "denominator": "Denominator.",
          "numerator": "Numerator.",
          "target": "Value to multiply with numerator/denominator."
        },
        "return": "Rounding error is present."
      },
      "publicIsRoundingErrorFloor(uint256,uint256,uint256)": {
        "details": "Checks if rounding error >= 0.1%.",
        "params": {
          "denominator": "Denominator.",
          "numerator": "Numerator.",
          "target": "Value to multiply with numerator/denominator."
        },
        "return": "Rounding error is present."
      },
      "publicSafeGetPartialAmountCeil(uint256,uint256,uint256)": {
        "details": "Calculates partial value given a numerator and denominator.      Reverts if rounding error is >= 0.1%",
        "params": {
          "denominator": "Denominator.",
          "numerator": "Numerator.",
          "target": "Value to calculate partial of."
        },
        "return": "Partial value of target."
      },
      "publicSafeGetPartialAmountFloor(uint256,uint256,uint256)": {
        "details": "Calculates partial value given a numerator and denominator.      Reverts if rounding error is >= 0.1%",
        "params": {
          "denominator": "Denominator.",
          "numerator": "Numerator.",
          "target": "Value to calculate partial of."
        },
        "return": "Partial value of target."
      },
      "publicUpdateFilledState((address,address,address,address,uint256,uint256,uint256,uint256,uint256,uint256,bytes,bytes),address,bytes32,uint256,(uint256,uint256,uint256,uint256))": {
        "details": "Updates state with results of a fill order.",
        "params": {
          "order": "that was filled.",
          "orderTakerAssetFilledAmount": "Amount of order already filled.",
          "takerAddress": "Address of taker who filled the order."
        },
        "return": "fillResults Amounts filled and fees paid by maker and taker."
      },
      "registerAssetProxy(address)": {
        "details": "Registers an asset proxy to its asset proxy id.      Once an asset proxy is registered, it cannot be unregistered.",
        "params": {
          "assetProxy": "Address of new asset proxy to register."
        }
      },
      "setSignatureValidatorApproval(address,bool)": {
        "details": "Approves/unnapproves a Validator contract to verify signatures on signer's behalf.",
        "params": {
          "approval": "Approval or disapproval of  Validator contract.",
          "validatorAddress": "Address of Validator contract."
        }
      }
    }
  },
  "userdoc": {
    "methods": {}
  }
}