{
  "contractName": "TestSignatureValidator",
  "abi": [
    {
      "constant": false,
      "inputs": [
        {
          "name": "hash",
          "type": "bytes32"
        },
        {
          "name": "signerAddress",
          "type": "address"
        },
        {
          "name": "signature",
          "type": "bytes"
        }
      ],
      "name": "preSign",
      "outputs": [],
      "payable": false,
      "stateMutability": "nonpayable",
      "type": "function"
    },
    {
      "constant": true,
      "inputs": [
        {
          "name": "",
          "type": "bytes32"
        }
      ],
      "name": "transactions",
      "outputs": [
        {
          "name": "",
          "type": "bool"
        }
      ],
      "payable": false,
      "stateMutability": "view",
      "type": "function"
    },
    {
      "constant": false,
      "inputs": [
        {
          "name": "validatorAddress",
          "type": "address"
        },
        {
          "name": "approval",
          "type": "bool"
        }
      ],
      "name": "setSignatureValidatorApproval",
      "outputs": [],
      "payable": false,
      "stateMutability": "nonpayable",
      "type": "function"
    },
    {
      "constant": true,
      "inputs": [
        {
          "name": "",
          "type": "address"
        },
        {
          "name": "",
          "type": "address"
        }
      ],
      "name": "allowedValidators",
      "outputs": [
        {
          "name": "",
          "type": "bool"
        }
      ],
      "payable": false,
      "stateMutability": "view",
      "type": "function"
    },
    {
      "constant": true,
      "inputs": [
        {
          "name": "",
          "type": "bytes32"
        },
        {
          "name": "",
          "type": "address"
        }
      ],
      "name": "preSigned",
      "outputs": [
        {
          "name": "",
          "type": "bool"
        }
      ],
      "payable": false,
      "stateMutability": "view",
      "type": "function"
    },
    {
      "constant": true,
      "inputs": [
        {
          "name": "hash",
          "type": "bytes32"
        },
        {
          "name": "signerAddress",
          "type": "address"
        },
        {
          "name": "signature",
          "type": "bytes"
        }
      ],
      "name": "isValidSignature",
      "outputs": [
        {
          "name": "isValid",
          "type": "bool"
        }
      ],
      "payable": false,
      "stateMutability": "view",
      "type": "function"
    },
    {
      "constant": false,
      "inputs": [
        {
          "name": "salt",
          "type": "uint256"
        },
        {
          "name": "signerAddress",
          "type": "address"
        },
        {
          "name": "data",
          "type": "bytes"
        },
        {
          "name": "signature",
          "type": "bytes"
        }
      ],
      "name": "executeTransaction",
      "outputs": [],
      "payable": false,
      "stateMutability": "nonpayable",
      "type": "function"
    },
    {
      "constant": true,
      "inputs": [],
      "name": "EIP712_DOMAIN_HASH",
      "outputs": [
        {
          "name": "",
          "type": "bytes32"
        }
      ],
      "payable": false,
      "stateMutability": "view",
      "type": "function"
    },
    {
      "constant": true,
      "inputs": [],
      "name": "currentContextAddress",
      "outputs": [
        {
          "name": "",
          "type": "address"
        }
      ],
      "payable": false,
      "stateMutability": "view",
      "type": "function"
    },
    {
      "anonymous": false,
      "inputs": [
        {
          "indexed": true,
          "name": "signerAddress",
          "type": "address"
        },
        {
          "indexed": true,
          "name": "validatorAddress",
          "type": "address"
        },
        {
          "indexed": false,
          "name": "approved",
          "type": "bool"
        }
      ],
      "name": "SignatureValidatorApproval",
      "type": "event"
    },
    {
      "constant": true,
      "inputs": [
        {
          "name": "hash",
          "type": "bytes32"
        },
        {
          "name": "signer",
          "type": "address"
        },
        {
          "name": "signature",
          "type": "bytes"
        }
      ],
      "name": "publicIsValidSignature",
      "outputs": [
        {
          "name": "isValid",
          "type": "bool"
        }
      ],
      "payable": false,
      "stateMutability": "view",
      "type": "function"
    }
  ],
  "bytecode": "0x608060405260008060006101000a81548160ff02191690831515021790555060405160200180807f454950373132446f6d61696e2800000000000000000000000000000000000000815250600d01807f737472696e67206e616d652c0000000000000000000000000000000000000000815250600c01807f737472696e672076657273696f6e2c0000000000000000000000000000000000815250600f01807f6164647265737320766572696679696e67436f6e747261637400000000000000815250601901807f290000000000000000000000000000000000000000000000000000000000000081525060010190506040516020818303038152906040526040518082805190602001908083835b6020831015156200013557805182526020820191506020810190506020830392506200010e565b6001836020036101000a03801982511681845116808217855250505050505090500191505060405180910390206040805190810160405280600b81526020017f30782050726f746f636f6c0000000000000000000000000000000000000000008152506040518082805190602001908083835b602083101515620001cf5780518252602082019150602081019050602083039250620001a8565b6001836020036101000a03801982511681845116808217855250505050505090500191505060405180910390206040805190810160405280600181526020017f32000000000000000000000000000000000000000000000000000000000000008152506040518082805190602001908083835b60208310151562000269578051825260208201915060208101905060208303925062000242565b6001836020036101000a03801982511681845116808217855250505050505090500191505060405180910390203073ffffffffffffffffffffffffffffffffffffffff166001026040516020018085600019166000191681526020018460001916600019168152602001836000191660001916815260200182600019166000191681526020019450505050506040516020818303038152906040526040518082805190602001908083835b6020831015156200033b578051825260208201915060208101905060208303925062000314565b6001836020036101000a03801982511681845116808217855250505050505090500191505060405180910390206001816000191690555061205580620003826000396000f3006080604052600436106100a4576000357c0100000000000000000000000000000000000000000000000000000000900463ffffffff1680633683ef8e146100a9578063642f2eaf1461011257806377fcce681461015b5780637b8e3514146101aa57806382c174d014610225578063936347021461028e578063abba41cc1461033d578063bfc8bfce146103ec578063e306f77914610469578063eea086ba1461049c575b600080fd5b3480156100b557600080fd5b506101106004803603810190808035600019169060200190929190803573ffffffffffffffffffffffffffffffffffffffff1690602001909291908035906020019082018035906020019190919293919293905050506104f3565b005b34801561011e57600080fd5b506101416004803603810190808035600019169060200190929190505050610651565b604051808215151515815260200191505060405180910390f35b34801561016757600080fd5b506101a8600480360381019080803573ffffffffffffffffffffffffffffffffffffffff169060200190929190803515159060200190929190505050610671565b005b3480156101b657600080fd5b5061020b600480360381019080803573ffffffffffffffffffffffffffffffffffffffff169060200190929190803573ffffffffffffffffffffffffffffffffffffffff169060200190929190505050610837565b604051808215151515815260200191505060405180910390f35b34801561023157600080fd5b506102746004803603810190808035600019169060200190929190803573ffffffffffffffffffffffffffffffffffffffff169060200190929190505050610866565b604051808215151515815260200191505060405180910390f35b34801561029a57600080fd5b506103236004803603810190808035600019169060200190929190803573ffffffffffffffffffffffffffffffffffffffff169060200190929190803590602001908201803590602001908080601f0160208091040260200160405190810160405280939291908181526020018383808284378201915050505050509192919290505050610895565b604051808215151515815260200191505060405180910390f35b34801561034957600080fd5b506103d26004803603810190808035600019169060200190929190803573ffffffffffffffffffffffffffffffffffffffff169060200190929190803590602001908201803590602001908080601f01602080910402602001604051908101604052809392919081815260200183838082843782019150505050505091929192905050506111d9565b604051808215151515815260200191505060405180910390f35b3480156103f857600080fd5b5061046760048036038101908080359060200190929190803573ffffffffffffffffffffffffffffffffffffffff1690602001909291908035906020019082018035906020019190919293919293908035906020019082018035906020019190919293919293905050506111f2565b005b34801561047557600080fd5b5061047e61162a565b60405180826000191660001916815260200191505060405180910390f35b3480156104a857600080fd5b506104b1611630565b604051808273ffffffffffffffffffffffffffffffffffffffff1673ffffffffffffffffffffffffffffffffffffffff16815260200191505060405180910390f35b3373ffffffffffffffffffffffffffffffffffffffff168373ffffffffffffffffffffffffffffffffffffffff161415156105da57610565848484848080601f016020809104026020016040519081016040528093929190818152602001838380828437820191505050505050610895565b15156105d9576040517f08c379a00000000000000000000000000000000000000000000000000000000081526004018080602001828103825260118152602001807f494e56414c49445f5349474e415455524500000000000000000000000000000081525060200191505060405180910390fd5b5b600160026000866000191660001916815260200190815260200160002060008573ffffffffffffffffffffffffffffffffffffffff1673ffffffffffffffffffffffffffffffffffffffff16815260200190815260200160002060006101000a81548160ff02191690831515021790555050505050565b60046020528060005260406000206000915054906101000a900460ff1681565b60008060009054906101000a900460ff161515156106f7576040517f08c379a00000000000000000000000000000000000000000000000000000000081526004018080602001828103825260128152602001807f5245454e5452414e43595f494c4c4547414c000000000000000000000000000081525060200191505060405180910390fd5b60016000806101000a81548160ff021916908315150217905550610719611656565b905081600360008373ffffffffffffffffffffffffffffffffffffffff1673ffffffffffffffffffffffffffffffffffffffff16815260200190815260200160002060008573ffffffffffffffffffffffffffffffffffffffff1673ffffffffffffffffffffffffffffffffffffffff16815260200190815260200160002060006101000a81548160ff0219169083151502179055508273ffffffffffffffffffffffffffffffffffffffff168173ffffffffffffffffffffffffffffffffffffffff167fa8656e308026eeabce8f0bc18048433252318ab80ac79da0b3d3d8697dfba89184604051808215151515815260200191505060405180910390a360008060006101000a81548160ff021916908315150217905550505050565b60036020528160005260406000206020528060005260406000206000915091509054906101000a900460ff1681565b60026020528160005260406000206020528060005260406000206000915091509054906101000a900460ff1681565b6000806000806000806000806000895111151561091a576040517f08c379a000000000000000000000000000000000000000000000000000000000815260040180806020018281038252601e8152602001807f4c454e4754485f475245415445525f5448414e5f305f5245515549524544000081525060200191505060405180910390fd5b610923896116c6565b7f01000000000000000000000000000000000000000000000000000000000000009004965060078081111561095457fe5b60ff168760ff161015156109d0576040517f08c379a00000000000000000000000000000000000000000000000000000000081526004018080602001828103825260158152602001807f5349474e41545552455f554e535550504f52544544000000000000000000000081525060200191505060405180910390fd5b8660ff1660078111156109df57fe5b9550600060078111156109ee57fe5b8660078111156109fa57fe5b1415610a6e576040517f08c379a00000000000000000000000000000000000000000000000000000000081526004018080602001828103825260118152602001807f5349474e41545552455f494c4c4547414c00000000000000000000000000000081525060200191505060405180910390fd5b60016007811115610a7b57fe5b866007811115610a8757fe5b1415610b125760008951141515610b06576040517f08c379a00000000000000000000000000000000000000000000000000000000081526004018080602001828103825260118152602001807f4c454e4754485f305f524551554952454400000000000000000000000000000081525060200191505060405180910390fd5b600097508797506111cb565b60026007811115610b1f57fe5b866007811115610b2b57fe5b1415610d115760418951141515610baa576040517f08c379a00000000000000000000000000000000000000000000000000000000081526004018080602001828103825260128152602001807f4c454e4754485f36355f5245515549524544000000000000000000000000000081525060200191505060405180910390fd5b886000815181101515610bb957fe5b9060200101517f010000000000000000000000000000000000000000000000000000000000000090047f0100000000000000000000000000000000000000000000000000000000000000027f010000000000000000000000000000000000000000000000000000000000000090049450610c3d60018a6117d690919063ffffffff16565b9350610c5360218a6117d690919063ffffffff16565b925060018b868686604051600081526020016040526040518085600019166000191681526020018460ff1660ff1681526020018360001916600019168152602001826000191660001916815260200194505050505060206040516020810390808403906000865af1158015610ccc573d6000803e3d6000fd5b5050506020604051035191508173ffffffffffffffffffffffffffffffffffffffff168a73ffffffffffffffffffffffffffffffffffffffff161497508797506111cb565b60036007811115610d1e57fe5b866007811115610d2a57fe5b1415610fc15760418951141515610da9576040517f08c379a00000000000000000000000000000000000000000000000000000000081526004018080602001828103825260128152602001807f4c454e4754485f36355f5245515549524544000000000000000000000000000081525060200191505060405180910390fd5b886000815181101515610db857fe5b9060200101517f010000000000000000000000000000000000000000000000000000000000000090047f0100000000000000000000000000000000000000000000000000000000000000027f010000000000000000000000000000000000000000000000000000000000000090049450610e3c60018a6117d690919063ffffffff16565b9350610e5260218a6117d690919063ffffffff16565b925060018b60405160200180807f19457468657265756d205369676e6564204d6573736167653a0a333200000000815250601c0182600019166000191681526020019150506040516020818303038152906040526040518082805190602001908083835b602083101515610edb5780518252602082019150602081019050602083039250610eb6565b6001836020036101000a0380198251168184511680821785525050505050509050019150506040518091039020868686604051600081526020016040526040518085600019166000191681526020018460ff1660ff1681526020018360001916600019168152602001826000191660001916815260200194505050505060206040516020810390808403906000865af1158015610f7c573d6000803e3d6000fd5b5050506020604051035191508173ffffffffffffffffffffffffffffffffffffffff168a73ffffffffffffffffffffffffffffffffffffffff161497508797506111cb565b60046007811115610fce57fe5b866007811115610fda57fe5b1415610ff557610feb8b8b8b61188f565b97508797506111cb565b6005600781111561100257fe5b86600781111561100e57fe5b14156110ce5761101d89611a5c565b9050600360008b73ffffffffffffffffffffffffffffffffffffffff1673ffffffffffffffffffffffffffffffffffffffff16815260200190815260200160002060008273ffffffffffffffffffffffffffffffffffffffff1673ffffffffffffffffffffffffffffffffffffffff16815260200190815260200160002060009054906101000a900460ff1615156110b857600097506111cb565b6110c4818c8c8c611b1f565b97508797506111cb565b600660078111156110db57fe5b8660078111156110e757fe5b141561115d57600260008c6000191660001916815260200190815260200160002060008b73ffffffffffffffffffffffffffffffffffffffff1673ffffffffffffffffffffffffffffffffffffffff16815260200190815260200160002060009054906101000a900460ff1697508797506111cb565b6040517f08c379a00000000000000000000000000000000000000000000000000000000081526004018080602001828103825260158152602001807f5349474e41545552455f554e535550504f52544544000000000000000000000081525060200191505060405180910390fd5b505050505050509392505050565b60006111e6848484610895565b90508090509392505050565b60008073ffffffffffffffffffffffffffffffffffffffff16600560009054906101000a900473ffffffffffffffffffffffffffffffffffffffff1673ffffffffffffffffffffffffffffffffffffffff161415156112b9576040517f08c379a00000000000000000000000000000000000000000000000000000000081526004018080602001828103825260128152602001807f5245454e5452414e43595f494c4c4547414c000000000000000000000000000081525060200191505060405180910390fd5b6112fe6112f9888888888080601f016020809104026020016040519081016040528093929190818152602001838380828437820191505050505050611d21565b611f10565b905060046000826000191660001916815260200190815260200160002060009054906101000a900460ff1615151561139e576040517f08c379a000000000000000000000000000000000000000000000000000000000815260040180806020018281038252600f8152602001807f494e56414c49445f54585f48415348000000000000000000000000000000000081525060200191505060405180910390fd5b3373ffffffffffffffffffffffffffffffffffffffff168673ffffffffffffffffffffffffffffffffffffffff161415156114c657611410818785858080601f016020809104026020016040519081016040528093929190818152602001838380828437820191505050505050610895565b1515611484576040517f08c379a00000000000000000000000000000000000000000000000000000000081526004018080602001828103825260148152602001807f494e56414c49445f54585f5349474e415455524500000000000000000000000081525060200191505060405180910390fd5b85600560006101000a81548173ffffffffffffffffffffffffffffffffffffffff021916908373ffffffffffffffffffffffffffffffffffffffff1602179055505b600160046000836000191660001916815260200190815260200160002060006101000a81548160ff0219169083151502179055503073ffffffffffffffffffffffffffffffffffffffff16858560405180838380828437820191505092505050600060405180830381855af491505015156115a9576040517f08c379a00000000000000000000000000000000000000000000000000000000081526004018080602001828103825260108152602001807f4641494c45445f455845435554494f4e0000000000000000000000000000000081525060200191505060405180910390fd5b3373ffffffffffffffffffffffffffffffffffffffff168673ffffffffffffffffffffffffffffffffffffffff16141515611621576000600560006101000a81548173ffffffffffffffffffffffffffffffffffffffff021916908373ffffffffffffffffffffffffffffffffffffffff1602179055505b50505050505050565b60015481565b600560009054906101000a900473ffffffffffffffffffffffffffffffffffffffff1681565b6000806000600560009054906101000a900473ffffffffffffffffffffffffffffffffffffffff169150600073ffffffffffffffffffffffffffffffffffffffff168273ffffffffffffffffffffffffffffffffffffffff16146116ba57816116bc565b335b9050809250505090565b6000808251111515611766576040517f08c379a00000000000000000000000000000000000000000000000000000000081526004018080602001828103825260218152602001807f475245415445525f5448414e5f5a45524f5f4c454e4754485f5245515549524581526020017f440000000000000000000000000000000000000000000000000000000000000081525060400191505060405180910390fd5b81600183510381518110151561177857fe5b9060200101517f010000000000000000000000000000000000000000000000000000000000000090047f0100000000000000000000000000000000000000000000000000000000000000029050600182510380835250809050919050565b60006020820183511015151561187a576040517f08c379a00000000000000000000000000000000000000000000000000000000081526004018080602001828103825260268152602001807f475245415445525f4f525f455155414c5f544f5f33325f4c454e4754485f524581526020017f515549524544000000000000000000000000000000000000000000000000000081525060400191505060405180910390fd5b60208201915081830151905080905092915050565b600060608373ffffffffffffffffffffffffffffffffffffffff16631626ba7e90507c010000000000000000000000000000000000000000000000000000000002858460405160240180836000191660001916815260200180602001828103825283818151815260200191508051906020019080838360005b83811015611923578082015181840152602081019050611908565b50505050905090810190601f1680156119505780820380516001836020036101000a031916815260200191505b509350505050604051602081830303815290604052907bffffffffffffffffffffffffffffffffffffffffffffffffffffffff19166020820180517bffffffffffffffffffffffffffffffffffffffffffffffffffffffff8381831617835250505050905060208101602081835183885afa80600081146119d85760018114611a4957611a4e565b7f08c379a0000000000000000000000000000000000000000000000000000000006000527c20000000000000000000000000000000000000000000000000000000006020527c0c57414c4c45545f4552524f5200000000000000000000000000000000604052600060605260646000fd5b825194505b505050819150509392505050565b60006014825110151515611afe576040517f08c379a00000000000000000000000000000000000000000000000000000000081526004018080602001828103825260268152602001807f475245415445525f4f525f455155414c5f544f5f32305f4c454e4754485f524581526020017f515549524544000000000000000000000000000000000000000000000000000081525060400191505060405180910390fd5b611b0c826014845103611f5a565b9050601482510380835250809050919050565b600060608373ffffffffffffffffffffffffffffffffffffffff16639363470290507c0100000000000000000000000000000000000000000000000000000000028585856040516024018084600019166000191681526020018373ffffffffffffffffffffffffffffffffffffffff1673ffffffffffffffffffffffffffffffffffffffff16815260200180602001828103825283818151815260200191508051906020019080838360005b83811015611be6578082015181840152602081019050611bcb565b50505050905090810190601f168015611c135780820380516001836020036101000a031916815260200191505b50945050505050604051602081830303815290604052907bffffffffffffffffffffffffffffffffffffffffffffffffffffffff19166020820180517bffffffffffffffffffffffffffffffffffffffffffffffffffffffff83818316178352505050509050602081016020818351838a5afa8060008114611c9c5760018114611d0d57611d12565b7f08c379a0000000000000000000000000000000000000000000000000000000006000527c20000000000000000000000000000000000000000000000000000000006020527c0f56414c494441544f525f4552524f5200000000000000000000000000604052600060605260646000fd5b825194505b50505081915050949350505050565b600080600060405160200180807f5a65726f45785472616e73616374696f6e280000000000000000000000000000815250601201807f75696e743235362073616c742c00000000000000000000000000000000000000815250600d01807f61646472657373207369676e6572416464726573732c00000000000000000000815250601601807f6279746573206461746100000000000000000000000000000000000000000000815250600a01807f290000000000000000000000000000000000000000000000000000000000000081525060010190506040516020818303038152906040526040518082805190602001908083835b602083101515611e3b5780518252602082019150602081019050602083039250611e16565b6001836020036101000a03801982511681845116808217855250505050505090500191505060405180910390209150836040518082805190602001908083835b602083101515611ea05780518252602082019150602081019050602083039250611e7b565b6001836020036101000a0380198251168184511680821785525050505050509050019150506040518091039020905060405182815286602082015273ffffffffffffffffffffffffffffffffffffffff861660408201528160608201526080812093505082925050509392505050565b60008060015490506040517f190100000000000000000000000000000000000000000000000000000000000081528160028201528360228201526042812092505081915050919050565b600060148201835110151515611ffe576040517f08c379a00000000000000000000000000000000000000000000000000000000081526004018080602001828103825260268152602001807f475245415445525f4f525f455155414c5f544f5f32305f4c454e4754485f524581526020017f515549524544000000000000000000000000000000000000000000000000000081525060400191505060405180910390fd5b60148201915073ffffffffffffffffffffffffffffffffffffffff82840151169050809050929150505600a165627a7a7230582099a77b2ce2226a73d02d4c9833ffea4186bf011e1c0ff84dd2f8b5e9dbfc88660029",
  "source": "/*\n\n  Copyright 2018 ZeroEx Intl.\n\n  Licensed under the Apache License, Version 2.0 (the \"License\");\n  you may not use this file except in compliance with the License.\n  You may obtain a copy of the License at\n\n    http://www.apache.org/licenses/LICENSE-2.0\n\n  Unless required by applicable law or agreed to in writing, software\n  distributed under the License is distributed on an \"AS IS\" BASIS,\n  WITHOUT WARRANTIES OR CONDITIONS OF ANY KIND, either express or implied.\n  See the License for the specific language governing permissions and\n  limitations under the License.\n\n*/\n\npragma solidity 0.4.24;\n\nimport \"../../protocol/Exchange/MixinSignatureValidator.sol\";\nimport \"../../protocol/Exchange/MixinTransactions.sol\";\n\n\ncontract TestSignatureValidator is\n    MixinSignatureValidator,\n    MixinTransactions\n{\n    function publicIsValidSignature(\n        bytes32 hash,\n        address signer,\n        bytes memory signature\n    )\n        public\n        view\n        returns (bool isValid)\n    {\n        isValid = isValidSignature(\n            hash,\n            signer,\n            signature\n        );\n        return isValid;\n    }\n}\n",
  "sourcePath": "/Users/lawrenceballou/Desktop/BlockNerds/Clients/AltcoinIo/filter-contract/contracts/protocol/contracts/test/TestSignatureValidator/TestSignatureValidator.sol",
  "compiler": {
    "name": "solc",
    "version": "0.4.24+commit.e67f0147.Emscripten.clang"
  },
  "schemaVersion": "3.0.0",
  "updatedAt": "2018-12-28T17:39:10.985Z",
  "devdoc": {
    "methods": {
      "executeTransaction(uint256,address,bytes,bytes)": {
        "details": "Executes an exchange method call in the context of signer.",
        "params": {
          "data": "AbiV2 encoded calldata.",
          "salt": "Arbitrary number to ensure uniqueness of transaction hash.",
          "signature": "Proof of signer transaction by signer.",
          "signerAddress": "Address of transaction signer."
        }
      },
      "isValidSignature(bytes32,address,bytes)": {
        "details": "Verifies that a hash has been signed by the given signer.",
        "params": {
          "hash": "Any 32 byte hash.",
          "signature": "Proof that the hash has been signed by signer.",
          "signerAddress": "Address that should have signed the given hash."
        },
        "return": "True if the address recovered from the provided signature matches the input signer address."
      },
      "preSign(bytes32,address,bytes)": {
        "details": "Approves a hash on-chain using any valid signature type.      After presigning a hash, the preSign signature type will become valid for that hash and signer.",
        "params": {
          "signature": "Proof that the hash has been signed by signer.",
          "signerAddress": "Address that should have signed the given hash."
        }
      },
      "setSignatureValidatorApproval(address,bool)": {
        "details": "Approves/unnapproves a Validator contract to verify signatures on signer's behalf.",
        "params": {
          "approval": "Approval or disapproval of  Validator contract.",
          "validatorAddress": "Address of Validator contract."
        }
      }
    }
  },
  "userdoc": {
    "methods": {}
  }
}