{
  "contractName": "TestConstants",
  "abi": [
    {
      "constant": true,
      "inputs": [],
      "name": "MAINNET_ZRX_ASSET_DATA",
      "outputs": [
        {
          "name": "",
          "type": "bytes"
        }
      ],
      "payable": false,
      "stateMutability": "view",
      "type": "function"
    },
    {
      "constant": true,
      "inputs": [],
      "name": "assertValidZrxAssetData",
      "outputs": [
        {
          "name": "",
          "type": "bool"
        }
      ],
      "payable": false,
      "stateMutability": "pure",
      "type": "function"
    }
  ],
  "bytecode": "0x608060405234801561001057600080fd5b50610622806100206000396000f30060806040526004361061004c576000357c0100000000000000000000000000000000000000000000000000000000900463ffffffff1680634e7411e214610051578063a7e889e714610080575b600080fd5b34801561005d57600080fd5b50610066610110565b604051808215151515815260200191505060405180910390f35b34801561008c57600080fd5b506100956104b0565b6040518080602001828103825283818151815260200191508051906020019080838360005b838110156100d55780820151818401526020810190506100ba565b50505050905090810190601f1680156101025780820380516001836020036101000a031916815260200191505b509250505060405180910390f35b600060608060405180807f4552433230546f6b656e2861646472657373290000000000000000000000000081525060130190506040518091039020736ff6c0ff1d68b964901f986d4c9fa3ac68346570604051602401808273ffffffffffffffffffffffffffffffffffffffff1673ffffffffffffffffffffffffffffffffffffffff168152602001915050604051602081830303815290604052907bffffffffffffffffffffffffffffffffffffffffffffffffffffffff19166020820180517bffffffffffffffffffffffffffffffffffffffffffffffffffffffff8381831617835250505050915061026a606060405190810160405280602481526020017ff47261b00000000000000000000000006ff6c0ff1d68b964901f986d4c9fa3ac81526020017f68346570000000000000000000000000000000000000000000000000000000008152508361051090919063ffffffff16565b15156102de576040517f08c379a000000000000000000000000000000000000000000000000000000000815260040180806020018281038252601c8152602001807f494e56414c49445f4b4f56414e5f5a52585f41535345545f444154410000000081525060200191505060405180910390fd5b60405180807f4552433230546f6b656e286164647265737329000000000000000000000000008152506013019050604051809103902073e41d2489571d322189246dafa5ebde1f4699f498604051602401808273ffffffffffffffffffffffffffffffffffffffff1673ffffffffffffffffffffffffffffffffffffffff168152602001915050604051602081830303815290604052907bffffffffffffffffffffffffffffffffffffffffffffffffffffffff19166020820180517bffffffffffffffffffffffffffffffffffffffffffffffffffffffff83818316178352505050509050610433606060405190810160405280602481526020017ff47261b0000000000000000000000000e41d2489571d322189246dafa5ebde1f81526020017f4699f498000000000000000000000000000000000000000000000000000000008152508261051090919063ffffffff16565b15156104a7576040517f08c379a000000000000000000000000000000000000000000000000000000000815260040180806020018281038252601e8152602001807f494e56414c49445f4d41494e4e45545f5a52585f41535345545f44415441000081525060200191505060405180910390fd5b60019250505090565b606060405190810160405280602481526020017ff47261b0000000000000000000000000e41d2489571d322189246dafa5ebde1f81526020017f4699f4980000000000000000000000000000000000000000000000000000000081525081565b6000815183511480156105ee5750816040518082805190602001908083835b602083101515610554578051825260208201915060208101905060208303925061052f565b6001836020036101000a038019825116818451168082178552505050505050905001915050604051809103902060001916836040518082805190602001908083835b6020831015156105bb5780518252602082019150602081019050602083039250610596565b6001836020036101000a038019825116818451168082178552505050505050905001915050604051809103902060001916145b9050929150505600a165627a7a72305820c111a6f03769cb77af804863af0cfe0b60c20c948be9bfb9ac14a99fc1a216060029",
  "source": "/*\n\n  Copyright 2018 ZeroEx Intl.\n\n  Licensed under the Apache License, Version 2.0 (the \"License\");\n  you may not use this file except in compliance with the License.\n  You may obtain a copy of the License at\n\n    http://www.apache.org/licenses/LICENSE-2.0\n\n  Unless required by applicable law or agreed to in writing, software\n  distributed under the License is distributed on an \"AS IS\" BASIS,\n  WITHOUT WARRANTIES OR CONDITIONS OF ANY KIND, either express or implied.\n  See the License for the specific language governing permissions and\n  limitations under the License.\n\n*/\n\npragma solidity 0.4.24;\n\nimport \"../../../../utils/contracts/utils/LibBytes/LibBytes.sol\";\n\n\n// solhint-disable max-line-length\ncontract TestConstants {\n   \n    using LibBytes for bytes;\n\n    bytes4 constant internal ERC20_PROXY_ID = bytes4(keccak256(\"ERC20Token(address)\"));\n    \n    address constant internal KOVAN_ZRX_ADDRESS = 0x6Ff6C0Ff1d68b964901F986d4C9FA3ac68346570;\n    bytes constant internal KOVAN_ZRX_ASSET_DATA = \"\\xf4\\x72\\x61\\xb0\\x00\\x00\\x00\\x00\\x00\\x00\\x00\\x00\\x00\\x00\\x00\\x00\\x6f\\xf6\\xc0\\xff\\x1d\\x68\\xb9\\x64\\x90\\x1f\\x98\\x6d\\x4c\\x9f\\xa3\\xac\\x68\\x34\\x65\\x70\";\n    \n    address constant internal MAINNET_ZRX_ADDRESS = 0xE41d2489571d322189246DaFA5ebDe1F4699F498;\n    bytes constant public MAINNET_ZRX_ASSET_DATA = \"\\xf4\\x72\\x61\\xb0\\x00\\x00\\x00\\x00\\x00\\x00\\x00\\x00\\x00\\x00\\x00\\x00\\xe4\\x1d\\x24\\x89\\x57\\x1d\\x32\\x21\\x89\\x24\\x6d\\xaf\\xa5\\xeb\\xde\\x1f\\x46\\x99\\xf4\\x98\";\n    \n    function assertValidZrxAssetData()\n        public\n        pure\n        returns (bool)\n    {\n        bytes memory kovanZrxAssetData = abi.encodeWithSelector(ERC20_PROXY_ID, KOVAN_ZRX_ADDRESS);\n        require(\n            kovanZrxAssetData.equals(KOVAN_ZRX_ASSET_DATA),\n            \"INVALID_KOVAN_ZRX_ASSET_DATA\"\n        );\n\n        bytes memory mainetZrxAssetData = abi.encodeWithSelector(ERC20_PROXY_ID, MAINNET_ZRX_ADDRESS);\n        require(\n            mainetZrxAssetData.equals(MAINNET_ZRX_ASSET_DATA),\n            \"INVALID_MAINNET_ZRX_ASSET_DATA\"\n        );\n\n        return true;\n    }\n}\n// solhint-enable max-line-length",
  "sourcePath": "/Users/lawrenceballou/Desktop/BlockNerds/Clients/AltcoinIo/filter-contract/contracts/utils/contracts/test/TestConstants/TestConstants.sol",
  "compiler": {
    "name": "solc",
    "version": "0.4.24+commit.e67f0147.Emscripten.clang"
  },
  "schemaVersion": "3.0.0",
  "updatedAt": "2018-12-28T17:39:11.016Z",
  "devdoc": {
    "methods": {}
  },
  "userdoc": {
    "methods": {}
  }
}