{
  "contractName": "TestStaticCallReceiver",
  "abi": [
    {
      "constant": false,
      "inputs": [
        {
          "name": "hash",
          "type": "bytes32"
        },
        {
          "name": "signature",
          "type": "bytes"
        }
      ],
      "name": "isValidSignature",
      "outputs": [
        {
          "name": "isValid",
          "type": "bool"
        }
      ],
      "payable": false,
      "stateMutability": "nonpayable",
      "type": "function"
    },
    {
      "constant": false,
      "inputs": [
        {
          "name": "hash",
          "type": "bytes32"
        },
        {
          "name": "signerAddress",
          "type": "address"
        },
        {
          "name": "signature",
          "type": "bytes"
        }
      ],
      "name": "isValidSignature",
      "outputs": [
        {
          "name": "isValid",
          "type": "bool"
        }
      ],
      "payable": false,
      "stateMutability": "nonpayable",
      "type": "function"
    },
    {
      "constant": false,
      "inputs": [
        {
          "name": "token",
          "type": "address"
        },
        {
          "name": "spender",
          "type": "address"
        },
        {
          "name": "value",
          "type": "uint256"
        }
      ],
      "name": "approveERC20",
      "outputs": [],
      "payable": false,
      "stateMutability": "nonpayable",
      "type": "function"
    }
  ],
  "bytecode": "0x6080604052600160005534801561001557600080fd5b506102f9806100256000396000f300608060405260043610610057576000357c0100000000000000000000000000000000000000000000000000000000900463ffffffff1680631626ba7e1461005c57806393634702146100bd578063a8e5e4aa1461013e575b600080fd5b34801561006857600080fd5b506100a360048036038101908080356000191690602001909291908035906020019082018035906020019190919293919293905050506101ab565b604051808215151515815260200191505060405180910390f35b3480156100c957600080fd5b506101246004803603810190808035600019169060200190929190803573ffffffffffffffffffffffffffffffffffffffff1690602001909291908035906020019082018035906020019190919293919293905050506101c0565b604051808215151515815260200191505060405180910390f35b34801561014a57600080fd5b506101a9600480360381019080803573ffffffffffffffffffffffffffffffffffffffff169060200190929190803573ffffffffffffffffffffffffffffffffffffffff169060200190929190803590602001909291905050506101d6565b005b60006101b56102ba565b600190509392505050565b60006101ca6102ba565b60019050949350505050565b8273ffffffffffffffffffffffffffffffffffffffff1663095ea7b383836040518363ffffffff167c0100000000000000000000000000000000000000000000000000000000028152600401808373ffffffffffffffffffffffffffffffffffffffff1673ffffffffffffffffffffffffffffffffffffffff16815260200182815260200192505050602060405180830381600087803b15801561027957600080fd5b505af115801561028d573d6000803e3d6000fd5b505050506040513d60208110156102a357600080fd5b810190808051906020019092919050505050505050565b60008081548092919060010191905055505600a165627a7a7230582074a36b93b64af5660561c11d7f89bf608a0c3faf0282f1de306747c4fd394b400029",
  "source": "/*\n\n  Copyright 2018 ZeroEx Intl.\n\n  Licensed under the Apache License, Version 2.0 (the \"License\");\n  you may not use this file except in compliance with the License.\n  You may obtain a copy of the License at\n\n    http://www.apache.org/licenses/LICENSE-2.0\n\n  Unless required by applicable law or agreed to in writing, software\n  distributed under the License is distributed on an \"AS IS\" BASIS,\n  WITHOUT WARRANTIES OR CONDITIONS OF ANY KIND, either express or implied.\n  See the License for the specific language governing permissions and\n  limitations under the License.\n\n*/\n\npragma solidity 0.4.24;\n\nimport \"../../../../tokens/contracts/tokens/ERC20Token/IERC20Token.sol\";\n\n\n// solhint-disable no-unused-vars\ncontract TestStaticCallReceiver {\n\n    uint256 internal state = 1;\n\n    /// @dev Updates state and returns true. Intended to be used with `Validator` signature type.\n    /// @param hash Message hash that is signed.\n    /// @param signerAddress Address that should have signed the given hash.\n    /// @param signature Proof of signing.\n    /// @return Validity of order signature.\n    function isValidSignature(\n        bytes32 hash,\n        address signerAddress,\n        bytes signature\n    )\n        external\n        returns (bool isValid)\n    {\n        updateState();\n        return true;\n    }\n\n    /// @dev Updates state and returns true. Intended to be used with `Wallet` signature type.\n    /// @param hash Message hash that is signed.\n    /// @param signature Proof of signing.\n    /// @return Validity of order signature.\n    function isValidSignature(\n        bytes32 hash,\n        bytes signature\n    )\n        external\n        returns (bool isValid)\n    {\n        updateState();\n        return true;\n    }\n\n    /// @dev Approves an ERC20 token to spend tokens from this address.\n    /// @param token Address of ERC20 token.\n    /// @param spender Address that will spend tokens.\n    /// @param value Amount of tokens spender is approved to spend.\n    function approveERC20(\n        address token,\n        address spender,\n        uint256 value\n    )\n        external\n    {\n        IERC20Token(token).approve(spender, value);\n    }\n\n    /// @dev Increments state variable.\n    function updateState()\n        internal\n    {\n        state++;\n    }\n}\n",
  "sourcePath": "/Users/lawrenceballou/Desktop/BlockNerds/Clients/AltcoinIo/filter-contract/contracts/protocol/contracts/test/TestStaticCallReceiver/TestStaticCallReceiver.sol",
  "compiler": {
    "name": "solc",
    "version": "0.4.24+commit.e67f0147.Emscripten.clang"
  },
  "schemaVersion": "3.0.0",
  "updatedAt": "2018-12-28T17:39:10.985Z",
  "devdoc": {
    "methods": {
      "approveERC20(address,address,uint256)": {
        "details": "Approves an ERC20 token to spend tokens from this address.",
        "params": {
          "spender": "Address that will spend tokens.",
          "token": "Address of ERC20 token.",
          "value": "Amount of tokens spender is approved to spend."
        }
      },
      "isValidSignature(bytes32,address,bytes)": {
        "details": "Updates state and returns true. Intended to be used with `Validator` signature type.",
        "params": {
          "hash": "Message hash that is signed.",
          "signature": "Proof of signing.",
          "signerAddress": "Address that should have signed the given hash."
        },
        "return": "Validity of order signature."
      },
      "isValidSignature(bytes32,bytes)": {
        "details": "Updates state and returns true. Intended to be used with `Wallet` signature type.",
        "params": {
          "hash": "Message hash that is signed.",
          "signature": "Proof of signing."
        },
        "return": "Validity of order signature."
      }
    }
  },
  "userdoc": {
    "methods": {}
  }
}