{
  "contractName": "TestLibs",
  "abi": [
    {
      "constant": true,
      "inputs": [],
      "name": "EIP712_DOMAIN_HASH",
      "outputs": [
        {
          "name": "",
          "type": "bytes32"
        }
      ],
      "payable": false,
      "stateMutability": "view",
      "type": "function"
    },
    {
      "constant": true,
      "inputs": [
        {
          "components": [
            {
              "name": "makerAddress",
              "type": "address"
            },
            {
              "name": "takerAddress",
              "type": "address"
            },
            {
              "name": "feeRecipientAddress",
              "type": "address"
            },
            {
              "name": "senderAddress",
              "type": "address"
            },
            {
              "name": "makerAssetAmount",
              "type": "uint256"
            },
            {
              "name": "takerAssetAmount",
              "type": "uint256"
            },
            {
              "name": "makerFee",
              "type": "uint256"
            },
            {
              "name": "takerFee",
              "type": "uint256"
            },
            {
              "name": "expirationTimeSeconds",
              "type": "uint256"
            },
            {
              "name": "salt",
              "type": "uint256"
            },
            {
              "name": "makerAssetData",
              "type": "bytes"
            },
            {
              "name": "takerAssetData",
              "type": "bytes"
            }
          ],
          "name": "order",
          "type": "tuple"
        },
        {
          "name": "takerAssetFillAmount",
          "type": "uint256"
        },
        {
          "name": "signature",
          "type": "bytes"
        }
      ],
      "name": "publicAbiEncodeFillOrder",
      "outputs": [
        {
          "name": "fillOrderCalldata",
          "type": "bytes"
        }
      ],
      "payable": false,
      "stateMutability": "pure",
      "type": "function"
    },
    {
      "constant": true,
      "inputs": [
        {
          "name": "numerator",
          "type": "uint256"
        },
        {
          "name": "denominator",
          "type": "uint256"
        },
        {
          "name": "target",
          "type": "uint256"
        }
      ],
      "name": "publicGetPartialAmountFloor",
      "outputs": [
        {
          "name": "partialAmount",
          "type": "uint256"
        }
      ],
      "payable": false,
      "stateMutability": "pure",
      "type": "function"
    },
    {
      "constant": true,
      "inputs": [
        {
          "name": "numerator",
          "type": "uint256"
        },
        {
          "name": "denominator",
          "type": "uint256"
        },
        {
          "name": "target",
          "type": "uint256"
        }
      ],
      "name": "publicGetPartialAmountCeil",
      "outputs": [
        {
          "name": "partialAmount",
          "type": "uint256"
        }
      ],
      "payable": false,
      "stateMutability": "pure",
      "type": "function"
    },
    {
      "constant": true,
      "inputs": [
        {
          "name": "numerator",
          "type": "uint256"
        },
        {
          "name": "denominator",
          "type": "uint256"
        },
        {
          "name": "target",
          "type": "uint256"
        }
      ],
      "name": "publicIsRoundingErrorFloor",
      "outputs": [
        {
          "name": "isError",
          "type": "bool"
        }
      ],
      "payable": false,
      "stateMutability": "pure",
      "type": "function"
    },
    {
      "constant": true,
      "inputs": [
        {
          "name": "numerator",
          "type": "uint256"
        },
        {
          "name": "denominator",
          "type": "uint256"
        },
        {
          "name": "target",
          "type": "uint256"
        }
      ],
      "name": "publicIsRoundingErrorCeil",
      "outputs": [
        {
          "name": "isError",
          "type": "bool"
        }
      ],
      "payable": false,
      "stateMutability": "pure",
      "type": "function"
    },
    {
      "constant": true,
      "inputs": [
        {
          "components": [
            {
              "name": "makerAddress",
              "type": "address"
            },
            {
              "name": "takerAddress",
              "type": "address"
            },
            {
              "name": "feeRecipientAddress",
              "type": "address"
            },
            {
              "name": "senderAddress",
              "type": "address"
            },
            {
              "name": "makerAssetAmount",
              "type": "uint256"
            },
            {
              "name": "takerAssetAmount",
              "type": "uint256"
            },
            {
              "name": "makerFee",
              "type": "uint256"
            },
            {
              "name": "takerFee",
              "type": "uint256"
            },
            {
              "name": "expirationTimeSeconds",
              "type": "uint256"
            },
            {
              "name": "salt",
              "type": "uint256"
            },
            {
              "name": "makerAssetData",
              "type": "bytes"
            },
            {
              "name": "takerAssetData",
              "type": "bytes"
            }
          ],
          "name": "order",
          "type": "tuple"
        }
      ],
      "name": "publicGetOrderHash",
      "outputs": [
        {
          "name": "orderHash",
          "type": "bytes32"
        }
      ],
      "payable": false,
      "stateMutability": "view",
      "type": "function"
    },
    {
      "constant": true,
      "inputs": [],
      "name": "getOrderSchemaHash",
      "outputs": [
        {
          "name": "",
          "type": "bytes32"
        }
      ],
      "payable": false,
      "stateMutability": "pure",
      "type": "function"
    },
    {
      "constant": true,
      "inputs": [],
      "name": "getDomainSeparatorSchemaHash",
      "outputs": [
        {
          "name": "",
          "type": "bytes32"
        }
      ],
      "payable": false,
      "stateMutability": "pure",
      "type": "function"
    },
    {
      "constant": true,
      "inputs": [
        {
          "components": [
            {
              "name": "makerAssetFilledAmount",
              "type": "uint256"
            },
            {
              "name": "takerAssetFilledAmount",
              "type": "uint256"
            },
            {
              "name": "makerFeePaid",
              "type": "uint256"
            },
            {
              "name": "takerFeePaid",
              "type": "uint256"
            }
          ],
          "name": "totalFillResults",
          "type": "tuple"
        },
        {
          "components": [
            {
              "name": "makerAssetFilledAmount",
              "type": "uint256"
            },
            {
              "name": "takerAssetFilledAmount",
              "type": "uint256"
            },
            {
              "name": "makerFeePaid",
              "type": "uint256"
            },
            {
              "name": "takerFeePaid",
              "type": "uint256"
            }
          ],
          "name": "singleFillResults",
          "type": "tuple"
        }
      ],
      "name": "publicAddFillResults",
      "outputs": [
        {
          "components": [
            {
              "name": "makerAssetFilledAmount",
              "type": "uint256"
            },
            {
              "name": "takerAssetFilledAmount",
              "type": "uint256"
            },
            {
              "name": "makerFeePaid",
              "type": "uint256"
            },
            {
              "name": "takerFeePaid",
              "type": "uint256"
            }
          ],
          "name": "",
          "type": "tuple"
        }
      ],
      "payable": false,
      "stateMutability": "pure",
      "type": "function"
    }
  ],
  "bytecode": "0x608060405260405160200180807f454950373132446f6d61696e2800000000000000000000000000000000000000815250600d01807f737472696e67206e616d652c0000000000000000000000000000000000000000815250600c01807f737472696e672076657273696f6e2c0000000000000000000000000000000000815250600f01807f6164647265737320766572696679696e67436f6e747261637400000000000000815250601901807f290000000000000000000000000000000000000000000000000000000000000081525060010190506040516020818303038152906040526040518082805190602001908083835b60208310151561011957805182526020820191506020810190506020830392506100f4565b6001836020036101000a03801982511681845116808217855250505050505090500191505060405180910390206040805190810160405280600b81526020017f30782050726f746f636f6c0000000000000000000000000000000000000000008152506040518082805190602001908083835b6020831015156101b1578051825260208201915060208101905060208303925061018c565b6001836020036101000a03801982511681845116808217855250505050505090500191505060405180910390206040805190810160405280600181526020017f32000000000000000000000000000000000000000000000000000000000000008152506040518082805190602001908083835b6020831015156102495780518252602082019150602081019050602083039250610224565b6001836020036101000a03801982511681845116808217855250505050505090500191505060405180910390203073ffffffffffffffffffffffffffffffffffffffff166001026040516020018085600019166000191681526020018460001916600019168152602001836000191660001916815260200182600019166000191681526020019450505050506040516020818303038152906040526040518082805190602001908083835b60208310151561031957805182526020820191506020810190506020830392506102f4565b6001836020036101000a0380198251168184511680821785525050505050509050019150506040518091039020600081600019169055506119298061035f6000396000f3006080604052600436106100a4576000357c0100000000000000000000000000000000000000000000000000000000900463ffffffff1680631be23901146100a957806320777f70146100e6578063494d92971461012357806366758d7b1461014e578063679d2f9a1461018b5780637d33c6ee146101c8578063be7ada1e146101f3578063d980208814610230578063e306f7791461026d578063e9c7aa1a14610298575b600080fd5b3480156100b557600080fd5b506100d060048036036100cb9190810190611528565b6102d5565b6040516100dd91906116d4565b60405180910390f35b3480156100f257600080fd5b5061010d60048036036101089190810190611528565b6102ee565b60405161011a91906117a7565b60405180910390f35b34801561012f57600080fd5b50610138610307565b60405161014591906116ef565b60405180910390f35b34801561015a57600080fd5b506101756004803603610170919081019061142b565b610450565b604051610182919061178c565b60405180910390f35b34801561019757600080fd5b506101b260048036036101ad9190810190611528565b61046b565b6040516101bf91906116d4565b60405180910390f35b3480156101d457600080fd5b506101dd610484565b6040516101ea91906116ef565b60405180910390f35b3480156101ff57600080fd5b5061021a60048036036102159190810190611528565b610735565b60405161022791906117a7565b60405180910390f35b34801561023c57600080fd5b5061025760048036036102529190810190611468565b61074e565b60405161026491906116ef565b60405180910390f35b34801561027957600080fd5b50610282610763565b60405161028f91906116ef565b60405180910390f35b3480156102a457600080fd5b506102bf60048036036102ba91908101906114a9565b610769565b6040516102cc919061170a565b60405180910390f35b60006102e2848484610782565b90508090509392505050565b60006102fb84848461081c565b90508090509392505050565b600060405160200180807f454950373132446f6d61696e2800000000000000000000000000000000000000815250600d01807f737472696e67206e616d652c0000000000000000000000000000000000000000815250600c01807f737472696e672076657273696f6e2c0000000000000000000000000000000000815250600f01807f6164647265737320766572696679696e67436f6e747261637400000000000000815250601901807f290000000000000000000000000000000000000000000000000000000000000081525060010190506040516020818303038152906040526040518082805190602001908083835b60208310151561041e57805182526020820191506020810190506020830392506103f9565b6001836020036101000a0380198251168184511680821785525050505050509050019150506040518091039020905090565b61045861116c565b6104628383610894565b82905092915050565b6000610478848484610904565b90508090509392505050565b600060405160200180807f4f72646572280000000000000000000000000000000000000000000000000000815250600601807f61646472657373206d616b6572416464726573732c0000000000000000000000815250601501807f616464726573732074616b6572416464726573732c0000000000000000000000815250601501807f6164647265737320666565526563697069656e74416464726573732c00000000815250601c01807f616464726573732073656e646572416464726573732c00000000000000000000815250601601807f75696e74323536206d616b65724173736574416d6f756e742c00000000000000815250601901807f75696e743235362074616b65724173736574416d6f756e742c00000000000000815250601901807f75696e74323536206d616b65724665652c000000000000000000000000000000815250601101807f75696e743235362074616b65724665652c000000000000000000000000000000815250601101807f75696e743235362065787069726174696f6e54696d655365636f6e64732c0000815250601e01807f75696e743235362073616c742c00000000000000000000000000000000000000815250600d01807f6279746573206d616b65724173736574446174612c0000000000000000000000815250601501807f62797465732074616b6572417373657444617461000000000000000000000000815250601401807f290000000000000000000000000000000000000000000000000000000000000081525060010190506040516020818303038152906040526040518082805190602001908083835b60208310151561070357805182526020820191506020810190506020830392506106de565b6001836020036101000a0380198251168184511680821785525050505050509050019150506040518091039020905090565b60006107428484846109b5565b90508090509392505050565b600061075982610a1a565b9050809050919050565b60005481565b6060610776848484610a37565b90508090509392505050565b6000806000841115156107ca576040517f08c379a00000000000000000000000000000000000000000000000000000000081526004016107c19061174c565b60405180910390fd5b60008314806107d95750600085145b156107e75760009150610814565b838015156107f157fe5b85840990506108008584610c26565b61080c6103e883610c26565b101591508191505b509392505050565b60008083111515610862576040517f08c379a00000000000000000000000000000000000000000000000000000000081526004016108599061174c565b60405180910390fd5b6108886108826108728685610c26565b61087d866001610c9a565b610cec565b84610d43565b90508090509392505050565b6108a682600001518260000151610cec565b8260000181815250506108c182602001518260200151610cec565b8260200181815250506108dc82604001518260400151610cec565b8260400181815250506108f782606001518260600151610cec565b8260600181815250505050565b60008060008411151561094c576040517f08c379a00000000000000000000000000000000000000000000000000000000081526004016109439061174c565b60405180910390fd5b600083148061095b5750600085145b1561096957600091506109ad565b8380151561097357fe5b8584099050836109838583610c9a565b81151561098c57fe5b0690506109998584610c26565b6109a56103e883610c26565b101591508191505b509392505050565b600080831115156109fb576040517f08c379a00000000000000000000000000000000000000000000000000000000081526004016109f29061174c565b60405180910390fd5b610a0e610a088584610c26565b84610d43565b90508090509392505050565b6000610a2d610a2883610d5e565b611122565b9050809050919050565b606060405190507fb4be83d5000000000000000000000000000000000000000000000000000000006020820152602481018060608101818180896000808784038652602086019550825184526020830151602085015260408301516040850152606083015160608501526080830151608085015260a083015160a085015260c083015160c085015260e083015160e085015261010083015161010085015261012083015161012085015261014083015161014085015261016083015161016085015261018084019350610180830192508484036020600a028601526101408d01519250825191506020830192506020601f830104905081845260208401935060005b81811015610b5c5783518552602085019450602084019350600181019050610b39565b508484036020600b028601526101608d01519250825191506020830192506020601f830104905081845260208401935060005b81811015610bb25783518552602085019450602084019350600181019050610b8f565b508b865260208601955087840386528a9250825191506020830192506020601f830104905081845260208401935060005b81811015610c065783518552602085019450602084019350600181019050610be3565b5060208a0184038a52836040525050505050505050508090509392505050565b6000806000841415610c3b5760009150610c93565b8284029050828482811515610c4c57fe5b04141515610c8f576040517f08c379a0000000000000000000000000000000000000000000000000000000008152600401610c869061176c565b60405180910390fd5b8091505b5092915050565b6000828211151515610ce1576040517f08c379a0000000000000000000000000000000000000000000000000000000008152600401610cd89061172c565b60405180910390fd5b818303905092915050565b6000808284019050838110151515610d39576040517f08c379a0000000000000000000000000000000000000000000000000000000008152600401610d309061176c565b60405180910390fd5b8091505092915050565b6000808284811515610d5157fe5b0490508091505092915050565b60008060008060405160200180807f4f72646572280000000000000000000000000000000000000000000000000000815250600601807f61646472657373206d616b6572416464726573732c0000000000000000000000815250601501807f616464726573732074616b6572416464726573732c0000000000000000000000815250601501807f6164647265737320666565526563697069656e74416464726573732c00000000815250601c01807f616464726573732073656e646572416464726573732c00000000000000000000815250601601807f75696e74323536206d616b65724173736574416d6f756e742c00000000000000815250601901807f75696e743235362074616b65724173736574416d6f756e742c00000000000000815250601901807f75696e74323536206d616b65724665652c000000000000000000000000000000815250601101807f75696e743235362074616b65724665652c000000000000000000000000000000815250601101807f75696e743235362065787069726174696f6e54696d655365636f6e64732c0000815250601e01807f75696e743235362073616c742c00000000000000000000000000000000000000815250600d01807f6279746573206d616b65724173736574446174612c0000000000000000000000815250601501807f62797465732074616b6572417373657444617461000000000000000000000000815250601401807f290000000000000000000000000000000000000000000000000000000000000081525060010190506040516020818303038152906040526040518082805190602001908083835b602083101515610fe15780518252602082019150602081019050602083039250610fbc565b6001836020036101000a038019825116818451168082178552505050505050905001915050604051809103902092508461014001516040518082805190602001908083835b60208310151561104b5780518252602082019150602081019050602083039250611026565b6001836020036101000a038019825116818451168082178552505050505050905001915050604051809103902091508461016001516040518082805190602001908083835b6020831015156110b55780518252602082019150602081019050602083039250611090565b6001836020036101000a0380198251168184511680821785525050505050509050019150506040518091039020905060208503610140860161016087018251825182518886528785528684526101a086209950828652818552808452505050505050839350505050919050565b60008060005490506040517f190100000000000000000000000000000000000000000000000000000000000081528160028201528360228201526042812092505081915050919050565b608060405190810160405280600081526020016000815260200160008152602001600081525090565b60006111a18235611872565b905092915050565b600082601f83011215156111bc57600080fd5b81356111cf6111ca826117ef565b6117c2565b915080825260208301602083018583830111156111eb57600080fd5b6111f683828461189c565b50505092915050565b600082601f830112151561121257600080fd5b81356112256112208261181b565b6117c2565b9150808252602083016020830185838301111561124157600080fd5b61124c83828461189c565b50505092915050565b60006080828403121561126757600080fd5b61127160806117c2565b9050600061128184828501611417565b600083015250602061129584828501611417565b60208301525060406112a984828501611417565b60408301525060606112bd84828501611417565b60608301525092915050565b600061018082840312156112dc57600080fd5b6112e76101806117c2565b905060006112f784828501611195565b600083015250602061130b84828501611195565b602083015250604061131f84828501611195565b604083015250606061133384828501611195565b606083015250608061134784828501611417565b60808301525060a061135b84828501611417565b60a08301525060c061136f84828501611417565b60c08301525060e061138384828501611417565b60e08301525061010061139884828501611417565b610100830152506101206113ae84828501611417565b6101208301525061014082013567ffffffffffffffff8111156113d057600080fd5b6113dc848285016111a9565b6101408301525061016082013567ffffffffffffffff8111156113fe57600080fd5b61140a848285016111a9565b6101608301525092915050565b60006114238235611892565b905092915050565b600080610100838503121561143f57600080fd5b600061144d85828601611255565b925050608061145e85828601611255565b9150509250929050565b60006020828403121561147a57600080fd5b600082013567ffffffffffffffff81111561149457600080fd5b6114a0848285016112c9565b91505092915050565b6000806000606084860312156114be57600080fd5b600084013567ffffffffffffffff8111156114d857600080fd5b6114e4868287016112c9565b93505060206114f586828701611417565b925050604084013567ffffffffffffffff81111561151257600080fd5b61151e868287016111ff565b9150509250925092565b60008060006060848603121561153d57600080fd5b600061154b86828701611417565b935050602061155c86828701611417565b925050604061156d86828701611417565b9150509250925092565b61158081611852565b82525050565b61158f8161185e565b82525050565b60006115a082611847565b8084526115b48160208601602086016118ab565b6115bd816118de565b602085010191505092915050565b6000601182527f55494e543235365f554e444552464c4f570000000000000000000000000000006020830152604082019050919050565b6000601082527f4449564953494f4e5f42595f5a45524f000000000000000000000000000000006020830152604082019050919050565b6000601082527f55494e543235365f4f564552464c4f57000000000000000000000000000000006020830152604082019050919050565b60808201600082015161168660008501826116c5565b50602082015161169960208501826116c5565b5060408201516116ac60408501826116c5565b5060608201516116bf60608501826116c5565b50505050565b6116ce81611868565b82525050565b60006020820190506116e96000830184611577565b92915050565b60006020820190506117046000830184611586565b92915050565b600060208201905081810360008301526117248184611595565b905092915050565b60006020820190508181036000830152611745816115cb565b9050919050565b6000602082019050818103600083015261176581611602565b9050919050565b6000602082019050818103600083015261178581611639565b9050919050565b60006080820190506117a16000830184611670565b92915050565b60006020820190506117bc60008301846116c5565b92915050565b6000604051905081810181811067ffffffffffffffff821117156117e557600080fd5b8060405250919050565b600067ffffffffffffffff82111561180657600080fd5b601f19601f8301169050602081019050919050565b600067ffffffffffffffff82111561183257600080fd5b601f19601f8301169050602081019050919050565b600081519050919050565b60008115159050919050565b6000819050919050565b6000819050919050565b600073ffffffffffffffffffffffffffffffffffffffff82169050919050565b6000819050919050565b82818337600083830152505050565b60005b838110156118c95780820151818401526020810190506118ae565b838111156118d8576000848401525b50505050565b6000601f19601f83011690509190505600a265627a7a723058203644d9930e253174ff1e6d2ab2fa9ee3e86be4186b09a93477882de709dcba356c6578706572696d656e74616cf50037",
  "source": "/*\n\n  Copyright 2018 ZeroEx Intl.\n\n  Licensed under the Apache License, Version 2.0 (the \"License\");\n  you may not use this file except in compliance with the License.\n  You may obtain a copy of the License at\n\n    http://www.apache.org/licenses/LICENSE-2.0\n\n  Unless required by applicable law or agreed to in writing, software\n  distributed under the License is distributed on an \"AS IS\" BASIS,\n  WITHOUT WARRANTIES OR CONDITIONS OF ANY KIND, either express or implied.\n  See the License for the specific language governing permissions and\n  limitations under the License.\n\n*/\n\npragma solidity 0.4.24;\npragma experimental ABIEncoderV2;\n\nimport \"../../libs/LibMath.sol\";\nimport \"../../libs/LibOrder.sol\";\nimport \"../../libs/LibFillResults.sol\";\nimport \"../../libs/LibAbiEncoder.sol\";\n\n\ncontract TestLibs is \n    LibMath,\n    LibOrder,\n    LibFillResults,\n    LibAbiEncoder\n{\n    function publicAbiEncodeFillOrder(\n        Order memory order,\n        uint256 takerAssetFillAmount,\n        bytes memory signature\n    )\n        public\n        pure\n        returns (bytes memory fillOrderCalldata)\n    {\n        fillOrderCalldata = abiEncodeFillOrder(\n            order,\n            takerAssetFillAmount,\n            signature\n        );\n        return fillOrderCalldata;\n    }\n\n    function publicGetPartialAmountFloor(\n        uint256 numerator,\n        uint256 denominator,\n        uint256 target\n    )\n        public\n        pure\n        returns (uint256 partialAmount)\n    {\n        partialAmount = getPartialAmountFloor(\n            numerator,\n            denominator,\n            target\n        );\n        return partialAmount;\n    }\n\n    function publicGetPartialAmountCeil(\n        uint256 numerator,\n        uint256 denominator,\n        uint256 target\n    )\n        public\n        pure\n        returns (uint256 partialAmount)\n    {\n        partialAmount = getPartialAmountCeil(\n            numerator,\n            denominator,\n            target\n        );\n        return partialAmount;\n    }\n\n    function publicIsRoundingErrorFloor(\n        uint256 numerator,\n        uint256 denominator,\n        uint256 target\n    )\n        public\n        pure\n        returns (bool isError)\n    {\n        isError = isRoundingErrorFloor(\n            numerator,\n            denominator,\n            target\n        );\n        return isError;\n    }\n\n    function publicIsRoundingErrorCeil(\n        uint256 numerator,\n        uint256 denominator,\n        uint256 target\n    )\n        public\n        pure\n        returns (bool isError)\n    {\n        isError = isRoundingErrorCeil(\n            numerator,\n            denominator,\n            target\n        );\n        return isError;\n    }\n\n    function publicGetOrderHash(Order memory order)\n        public\n        view\n        returns (bytes32 orderHash)\n    {\n        orderHash = getOrderHash(order);\n        return orderHash;\n    }\n\n    function getOrderSchemaHash()\n        public\n        pure\n        returns (bytes32)\n    {\n        return EIP712_ORDER_SCHEMA_HASH;\n    }\n\n    function getDomainSeparatorSchemaHash()\n        public\n        pure\n        returns (bytes32)\n    {\n        return EIP712_DOMAIN_SEPARATOR_SCHEMA_HASH;\n    }\n\n    function publicAddFillResults(FillResults memory totalFillResults, FillResults memory singleFillResults)\n        public\n        pure\n        returns (FillResults memory)\n    {\n        addFillResults(totalFillResults, singleFillResults);\n        return totalFillResults;\n    }\n}\n",
  "sourcePath": "/Users/lawrenceballou/Desktop/BlockNerds/Clients/AltcoinIo/filter-contract/contracts/libs/contracts/test/TestLibs/TestLibs.sol",
  "compiler": {
    "name": "solc",
    "version": "0.4.24+commit.e67f0147.Emscripten.clang"
  },
  "schemaVersion": "3.0.0",
  "updatedAt": "2018-12-28T17:39:10.953Z",
  "devdoc": {
    "methods": {}
  },
  "userdoc": {
    "methods": {}
  }
}